:020000040800F2
:10000000080400207913000857130008571300084C
:10001000571300085713000857130008000000008A
:10002000000000000000000000000000571300085E
:10003000571300080000000057130008571300086A
:1010000000F0AAF800F012F878B92B4801682B4AD2
:101010001140B1F1005F08D14168294A5160116067
:10102000006880F3088808468047FEE72DE9F04114
:10103000C2B00027234CDFF880804546002600968A
:10104000214800A902680A60100032D000F05AF866
:101050004FF42871404600F066F848BB00E00EB936
:10106000002003E004F580744FF4807045194FF4BC
:10107000807201A9204600F049F8070006D14FF41C
:10108000807201A9284600F023F80746761C7FB934
:10109000B6F5287FE3D30BD101210B4800F043F8CC
:1010A00000F030F84FF42871084800F03CF807468B
:1010B000384642B0BDE8F081003000080000FE2F45
:1010C000000000203E58030800570308005803089A
:1010D000F8B504460D461646042700F013F807E05D
:1010E00055F8041B204600F063F80746241D361F00
:1010F000B6B20EB1042FF3D0042F01D10020F2BDFF
:101100007842F2BD4FF4004000F092B870B504464A
:101110000D461646FFF7F6FF32462146284600F0F8
:10112000A3F8002070BD70B504460D4604200026CB
:1011300004E00419204600F01EF8761CAE4205D2E9
:10114000002E14BF4FF480700020F2E7042801D174
:10115000002070BD404270BD10B5DFF8BC40206873
:10116000800707D500F02CF8DFF8B000E060DFF86A
:10117000B000E06010BD38B5054600F037F804282F
:1011800015D1DFF89440206840F40070206020689A
:1011900040F0080020600020286000F027F8216857
:1011A00021F008012160216821F40071216032BD25
:1011B00038B500F011F8042801D1256011E032BDE6
:1011C000DFF854000168C90705D5DFF858108160C1
:1011D000DFF854108160704704460D464FF400401C
:1011E00026E04FF40040BDE8324021E04FF40040DB
:1011F0001EE004200D490A68D20701D5012070477E
:101200000A68D20501D502207047096811F4F05F21
:1012100018BF032070470000043C0240BFAE9D8C05
:1012200016151413EFCDAB8905040302183C0240D8
:1012300010B582B0044604208DF80000FFF7D9FFF6
:101240008DF8000005E04CB1FFF7D3FF8DF80000EA
:10125000641E9DF800000128F5D014B905208DF812
:1012600000009DF8000016BD62B38B0708D0521E27
:1012700011F8013B00F8013B00F024808B07F6D108
:10128000830740F0208000BF103A07D330B4B1E8A4
:101290003810103AA0E83810F9D230BC530724BFF8
:1012A000B1E80810A0E8081044BF51F8043B40F82A
:1012B000043BD20724BF31F8022B20F8022B44BF95
:1012C0000B7803707047083A07D3B1E80810083A62
:1012D00040F8043B40F804CBF7D25307E4E750F85A
:1012E000041B61B150F8042BD30744BFA9F10103DB
:1012F0009A18002342F8043B091FFAD1EFE7704720
:1013000010B5074979441831064C7C44163404E082
:10131000081D0A68511888470146A142F8D110BD3E
:101320000800000014000000B7FFFFFF08000000E5
:10133000000000200000000000F009F8002801D0A3
:10134000FFF7DEFF0020FFF75BFE00F002F8012050
:10135000704700F001B8FEE70746384600F002F893
:10136000FBE70000C046C046024A11001820ABBE91
:10137000FBE700BF26000200C046C046C046C0468C
:04138000FFF7DAFF9A
:040000050800137963
:00000001FF
