:020000040000FA
:1080000010590120D9800000E1800000259C00006B
:10801000E5800000DD930000C5C100000000000005
:10802000000000000000000000000000A1020600A7
:10803000ED8000000000000081120600A913060078
:10804000818C040039C1000055C10000E1C100006D
:1080500045C50500F3800000F38000005BC5050006
:10806000F38000005D59040085590400AF590400F5
:10807000D9590400F3800000F38000008DC1000096
:10808000A9C10000F3800000F380000071C5050065
:10809000A7550400F3800000F3800000F380000087
:1080A000F3800000F3800000F3800000F380000004
:1080B00071C10000F3800000F3800000F380000035
:1080C00019960000DFF80CD000F052FD0048004780
:1080D000C5A1040010590120064880470648004702
:1080E000FEE7FEE7FEE7FEE7FEE7FEE7FEE7FEE768
:1080F000FEE7FEE7A1BD0000C58000002DE9F05FAE
:108100000546002092469B46884606468146402406
:108110001BE0284641464746224600F0EBFB53460B
:108120005A46C01A914110D311461846224600F013
:10813000D2FB2D1A67EB01084F4622460120002191
:1081400000F0C9FB17EB00094E41201EA4F1010409
:10815000DFDC484631462A464346BDE8F09F000032
:10816000004870472C37060010B50446FFF7F8FFAB
:108170000068005D00F0010010BD000038B5D0E9D6
:108180000221491E01EB410102EBC1014268C1EB32
:10819000011102EB81010268C1EB011102EB8102C6
:1081A000D0E9043101EB410103EB81013023A1F55A
:1081B000527191FBF3F4174D6C4302EBC41291FB27
:1081C000F3F403FB141100921A2902DB124B1A4438
:1081D00000920C2291FBF2F3104C6343009C04EBE1
:1081E000C313009391FBF2F302FB13110C4A08E056
:1081F000491E40F2A324535C6343009C04EBC31369
:1082000000930029F4DC0146684600F09BFB0098CF
:1082100038BD00003F0C0F008051010067C2030011
:108220003037060010B5431A934209D283188818D4
:1082300003E010F8011D03F8011D521EF9D210BD14
:1082400040EA01039B0703D009E008C9121F08C0D8
:10825000042AFAD203E011F8013B00F8013B521E58
:10826000F9D210BDD2B201E000F8012B491EFBD2B9
:1082700070470022F6E710B513460A460446194631
:10828000FFF7F0FF204610BD421E12F8013F002B01
:10829000FBD111F8013B02F8013B002BF9D17047EB
:1082A00030B505462A460B4612F8010B13F8014B70
:1082B00008B1A042F8D01CB1002802D06D1CF1E733
:1082C000284630BD10B5044604E00B7800F8013BA9
:1082D00003B1491C521EF8D2204610BDCAB2401E3E
:1082E00010F8011F8A4202D00029F9D100207047FE
:1082F000421C10F8011B0029FBD1801A704710B5F1
:10830000002200E0521C835C8C5CA34201D1002B54
:10831000F8D1D8B2E1B2401A10BD30B50446002001
:10832000034600E05B1C934203D2E05CCD5C401B43
:10833000F8D030BD034611F8012B00F8012B002ABC
:10834000F9D11846704730B505460020034600E0D5
:108350005B1C934205D2EC5CC85C201A01D1002C56
:10836000F6D130BD10B5484304465BF061F90028F2
:1083700005D00021002C02D0641E0155FAE710BD83
:108380000FB400B58DB010A909900B9000914FF07B
:10839000FF300A9000200C90054806900548079091
:1083A0006A4609A80F9900F027FB0DB05DF814FB91
:1083B000158A0000338A00002DE9FF5F1D464FF04B
:1083C000FF3BD5E9014691465F464FF00008A96999
:1083D0007F1C01988847296A824688470028F6D181
:1083E000BAF1FF3F0CD024F4C064002E19DD600602
:1083F00014D5BAF12B0F09D0BAF12D0F0ED103E02D
:10840000584604B0BDE8F09F44F48064A9697F1C1D
:1084100001988847761E8246002E02DDBAF1300FA1
:1084200003D0B9F1000F26D032E0A969761E44F4DA
:1084300000747F1C019888478246002E05DDBAF142
:10844000780F06D0BAF1580F03D0B9F1000F10D051
:108450001EE0B9F1000F02D0B9F1100F18D1A969CF
:10846000761E24F400747F1C0198884782461020F1
:1084700002E0082000E00A20814609E008FB090824
:10848000A969761E44F400747F1C019888478246CF
:10849000002E05DD4946504600F09AFA0028EDDA34
:1084A000E96901988847A00502D46FF00100A8E7A8
:1084B000E00725D1600613D5600502D5C8F100009C
:1084C00000E0404629680A1D2A600968220501D596
:1084D000087015E0220701D5088011E008600FE060
:1084E0002868011D29600068210502D580F80080F8
:1084F00006E0210702D5A0F8008001E0C0F8008066
:1085000038467EE72DE9FE4F804681EA0300C00F22
:108510000C46009021F0004123F00045B8EB02002A
:10852000A94105D24046214690461C460B460246CC
:1085300023F00040104347D0270DC7F30A00C3F3D0
:108540000A510290401A019040286BDAC3F31300DD
:1085500040F4801B0098924620B10023D2EB030A1E
:1085600063EB0B0B01985946C0F14002504600F0F6
:10857000B2F906460D4650465946019A00F0CAF92E
:1085800010EB08006141002487EA115284EAE77386
:108590001A4340D0009A62B3019A012A4FEA075267
:1085A00015DC001B61EB02014FF0004202EA0752AA
:1085B000CDE90042001C41F5801132462B4600F007
:1085C00058FA03B0BDE8F08F40462146F9E7001B9A
:1085D00061EB0201001C41F5801300185B4120187B
:1085E000A2F5001747EB030140EAD570B6196D41BB
:1085F00011E06D084FEA360645EAC0754FEA0752AA
:10860000001B61EB0201001C41F5801149084FEA93
:1086100030000019514132462B4603B0BDE8F04FFF
:1086200000F018BA0098012240000023D0EB0202AB
:1086300063EBE073009821464FEAE074B8EB00006A
:1086400061EB0401E9E783F000435BE781F000415F
:1086500058E72DE9FE4F81EA030404F0004421F0BD
:10866000004100944FF0000B23F0004350EA010456
:108670005ED052EA03045BD0C3F30A54C1F30A5537
:108680002C44A4F2F3340194A0FB0254C1F313016F
:1086900041F48011C3F3130343F4801301FB02443C
:1086A00000FB034E840A970A44EA815447EA835741
:1086B000A4FB076802958D0A05FB07854FEA932CFA
:1086C00004FB0C542705029D4FEA065847EA16376B
:1086D000B5EB08056EEB070C870E920E47EA811783
:1086E00042EA8312A7FB0201B6EB0B0164EB000424
:1086F0002B0D43EA0C335E1844EB1C50DA4651460E
:10870000E7FB0201C5F313044FEA0B3343EA1453AA
:108710004FEA0432019C43EA0603A4F10C040294DC
:10872000009CCDE900B400F0A4F903B0BDE8F08FDF
:1087300000200146F9E72DE9F04D81EA030404F039
:10874000004B21F0004514464FF0000A23F0004191
:1087500050EA050220D054EA01021DD0C5F30A57A1
:108760000246C5F31303C1F31300C1F30A5640F4E4
:10877000801543F48013A7EB0608101BD64608F2B9
:10878000FD3873EB050002D308F1010801E09218EF
:108790005B41B8F1000F03DA00200146BDE8F08D1F
:1087A00000204FF48011064684460EE0171B73EB41
:1087B000050705D3121B63EB050306434CEA010CC6
:1087C00049084FEA300092185B4150EA0107EDD1A9
:1087D00052EA030012D082EA040083EA050108434A
:1087E00005D0101BAB4106D20122002306E0002277
:1087F0004FF0004302E06FF0010253101AEB060045
:108800004CEB085110EB0A0041EB0B01BDE8F04DB9
:1088100000F020B930B5041E71F1000404DB4FF004
:108820000044404264EB0101141E73F1000405DBB7
:108830001C464FF00043524263EB0403101A8B4175
:1088400001D2012030BD002030BD0EB5C10F80EA3D
:10885000E0700844CA07002140F233438DE80E005F
:108860000A460B4600F005F903B000BD70B5C1F330
:108870000A5201F000450024C1F3130140F2FF3316
:1088800041F480119A4201DA002070BD40F2334376
:108890009A42A2F2334203DC524200F02BF800E08D
:1088A00090402C43F1D0404270BD30B50B4601469C
:1088B00000202022012409E021FA02F59D4205D37F
:1088C00003FA02F5491B04FA02F52844151EA2F129
:1088D0000102F1DC30BD202A04DB203A00FA02F16B
:1088E000002070479140C2F1200320FA03F319439E
:1088F00090407047202A04DB203A21FA02F0002140
:10890000704721FA02F3D040C2F12002914008439F
:1089100019467047202A06DBCB17203A41FA02F0AD
:1089200043EAE07306E041FA02F3D040C2F12002CC
:108930009140084319467047014900F003B8000010
:10894000B003002010B500683C22B0FBF2F302FB3C
:108950001303B0FBF2F00B60B0FBF2F302FB130366
:10896000B0FBF2F018224B60B0FBF2F302FB1303F2
:10897000B0FBF2F0021D8B600723B2FBF3F403FBA4
:108980001422800040F2B55300F66C308A61B0FBCF
:10899000F3F2B0FBF3F403FB1400443280084A61A5
:1089A000C8613B2802D3920700D0401C0022074C2C
:1089B00013460A61E25C824203D8801A5B1C0B6199
:1089C000F8E7401CC860084610BD00003C370600B0
:1089D0003A2800D2303820F02002412A01D3A2F1F7
:1089E0003700884201D34FF0FF30704702681144CE
:1089F0001378016018467047D160044951610449F9
:108A0000116200211161114600F0C4B8ED89000027
:108A100069810000426842B1016811F8013B23B14D
:108A2000521EC0E90012184670470121C160881E1D
:108A3000704742685AB1C368016843B983688B4282
:108A400005D0491E521CC0E90012002070474FF0AB
:108A5000FF30704710B5141E73F1000408DA401C93
:108A600041F1000192185B411A4301D120F001004D
:108A700010BD2DE9F04D92469B4611B1B1FA81F23D
:108A800002E0B0FA80F220329046FFF724FF04465D
:108A90000F4640EA0A0041EA0B0153465A46084392
:108AA00013D0114653EA010019D0C8F140025046D4
:108AB000FFF720FF05460E46504659464246FFF74F
:108AC0000AFF084305D0012004E020463946BDE8EE
:108AD000F08D0020054346EAE0762C4337430A98A0
:108AE0006305E40AA0EB08000022FD0A44EA4754AB
:108AF0000A3002D500200146E9E701051019694155
:108B0000DDE9084500196941BDE8F04DA2E7C1F370
:108B10000A52C1F3130140F2FF3341F480119A422B
:108B200002DA00200146704740F233439A42A2F233
:108B3000334202DC5242FFF7DDBEFFF7CCBE00003D
:108B400030B5041E71F1000404DB4FF000444042D4
:108B500064EB0101141E73F1000405DB1C464FF0A9
:108B60000043524263EB0403994208BF904230BD78
:108B7000064C074D06E0E06840F0010394E807006A
:108B800098471034AC42F6D3FFF7A0FAB09E070026
:108B9000D09E07002DE9F34F8BB04FF0000801F194
:108BA0000C000C464FF0010B46460DF1080A0190EF
:108BB0006269012101989047051E2DD0252D2CD0EA
:108BC000216A8847C0B16269012101989047216AF2
:108BD00088470028F7D1411E62690198904700E05C
:108BE000761CA1690B988847216A88470028F7D12D
:108BF000E1690B988847DBE7A1690B98884707462E
:108C0000A84201D1761CD3E7E1690B9888477F1C05
:108C100002D1B8F1000F6FD046E1002762693D46EE
:108C20003946019890472A2804D1626901210198A8
:108C300090470125DFF884926269012101989047ED
:108C4000A0F130010A290AD24F45E5DC07EB870184
:108C500000EB4107303FDFD445F01005ECE7E906B3
:108C600001D46FF000476C280AD04C2814D0682833
:108C700015D06A280DD074281CD07A281AD01DE08F
:108C800062690121019890476C2802D045F00405E3
:108C900014E045F002050DE045F020050AE06269A8
:108CA000012101989047682802D045F0080505E0A9
:108CB00045F400656269012101989047C4E90157B4
:108CC00065283DD019DC58287AD00CDC452837D0EF
:108CD00004DC252826D0412831D131E046282FD088
:108CE00047282CD12CE05B2877D0612828D0632836
:108CF0007CD0642823D15AE0D0E06F2848D008DC2B
:108D000066281DD067281BD0692821D06E2816D16F
:108D100027E0702845D0732868D0752847D0782878
:108D20000DD14DE0A1690B988847054625283FF4F1
:108D300069AFE1690B9888476D1C3FF46AAFB3E0F7
:108D400023466A466FF001000B99AFF300809EE066
:108D500045F040006060A80723464FF0000236D47B
:108D60003EE0E8077FF447AF2068011D21600068FE
:108D7000290501D506701BE7290701D5068017E7ED
:108D8000A90703D5F117C0E9006111E706600FE7F5
:108D900045F040006060A80723464FF0080216D453
:108DA0001EE040F60E0125EA0100606016E045F085
:108DB00040006060A80723464FF00A0207D40FE086
:108DC00045F040006060A80708D5234610226FF0E8
:108DD00001000B99AFF3008059E007E02346102211
:108DE0006FF001000B99FFF7E7FA50E04FF0000930
:108DF0004F464B46632802D05B2806D040E0E80689
:108E000001D40120A06001273AE0626901210198A4
:108E100090475E2805D14FF00109626949460198E3
:108E20009047216939B900210A46534643F8212069
:108E3000491C0829FADBB0B3216969B9C11700EBF5
:108E4000D16253110AEB830122F01F02821A012022
:108E50000B68904003430B606269012101989047C1
:108E60005D28E8D1B9F1000F09D00020514651F832
:108E70002020D24341F82020401C0828F7DB02AB19
:108E8000224600976FF001000B99AFF30080002895
:108E90000CDA401C08D1BBF1000F05D04FF0FF30B9
:108EA0000DB0BDE8F08FFFE74046F9E7E90701D1D3
:108EB00008F1010806444FF0000B79E6CCCCCC0C4D
:108EC00070B58C1810F8015B15F0070301D110F88C
:108ED000013B2A1106D110F8012B03E010F8016BB9
:108EE00001F8016B5B1EF9D12B0705D40023521E3C
:108EF0000DD401F8013BFAE710F8013BCB1A921CA4
:108F000003E013F8015B01F8015B521EF9D5A142A1
:108F1000D8D3002070BDB0B540F2C060C2F20000EE
:108F2000007800B1B0BD40F2F435C2F2000505F1A1
:108F300030030FCB40F26C24C2F200040FC440F2A5
:108F40004120C2F2000005F1400401302146102208
:108F5000FFF768F940F25220C2F2000001302146CA
:108F60001022FFF75FF905F150030FCB40F27C258B
:108F7000C2F200050FC540F2BC60C2F2000001243D
:108F80000470022056F09EF94BF6A000C2F20000D9
:108F90000470B0BD2DE9F04FC7B0054640F2FC604B
:108FA000C2F2000001210170A94619F8090B0DF168
:108FB000BC0A0AF13508002114288DF8161017D0C4
:108FC0000B2826D0072839D1687898B3012835D1E5
:108FD000A87898BBE878632830D1287901282DD16A
:108FE000687958BBA879FF2828D10326DBA027E0A1
:108FF000687818BBA87808BBE8780D281ED12879B6
:10900000E0B96879D0B9A879FF2817D10C26B7A0A4
:1090100016E0687890B9A87880B9E8780B280DD167
:10902000287958B9687948B9A879FF2806D10B265C
:10903000B6A005E0A878002800F01D810726CCA086
:1090400051F07BFD40F6B03748F67510C2F20007CC
:10905000C0F20700C9A13E7059F0E8FD48F67B1642
:109060000024C0F2070600BF295D304659F0DEFD3E
:109070000134192CF8D149F27470C0F2070051F094
:109080005CFD397848F69F70C0F2070059F0CEFDBC
:10909000287AD0B101282ED0022840F0E3800FAC0E
:1090A000204629461322FFF7BDF849F28340C0F25B
:1090B000070051F042FD4DF26A00C2F20000008844
:1090C0002146002253F080FFD2E00DF11604601C0F
:1090D00029460922FFF7A6F849F2D560C0F2070039
:1090E00051F02BFD4DF26A00C2F2000001882046CB
:1090F00053F0ECFDBCE008A829460922FFF792F8DE
:1091000049F26E40D9F800B0D9F80470D9F8086077
:10911000D9F80C40C0F2070051F00FFD4DF26A0083
:10912000C2F2000043F254710588C0F206015046B5
:109130005F22FFF777F80AF1160008A90922FFF766
:1091400071F80AF101000521C8F80470C8F800B0F0
:10915000C8F81140C8F80D6000F04EF98DF8C20053
:10916000000A8DF8C300280A8DF8CC00E81E00EB39
:10917000906101F0C001401A8DF8CD5040308DF85B
:10918000D000DDF8CA0040F21922C2F2000290605D
:1091900011203E210BAB0AF11205CDE901310390FC
:1091A00040F2312040F241210FAEC2F20000C2F283
:1091B00000012B46009653F011FB284631463E2213
:1091C000FFF730F80BAA07CA43AB07C347F6B03125
:1091D0004FF6FF720120C0F2060100BF1AF80030FE
:1091E000013083EA020707F00F0731F8177092B2D7
:1091F00087EA121297B202F00F0282EA131231F8D4
:1092000012205C2882EA1712E8D1D043ADF8180189
:1092100048F6751049F6F911C0F20700C0F20701CF
:1092200059F004FD48F67B150024C0F2070500BF85
:109230001AF80410284659F0F9FC01345F2CF7D1D4
:1092400049F27470C0F2070051F077FC2FA9022098
:109250005F223BF057FC49F22520C0F2070059F08D
:10926000E5FC05E049F25C40C0F2070051F065FC06
:1092700047B0BDE8F08FE878632821D015287FF447
:10928000DDAE287928B96879052802D1A879FF28A8
:1092900025D0287928B96879082802D1A879FF282B
:1092A00020D0287900287FF4C9AE687907287FF498
:1092B000C5AEA879FF287FF4C1AE0A2622A0BFE67A
:1092C000287962287FF4BAAE687900287FF4B6AEB8
:1092D000A879FF287FF4B2AE062611A0B0E60426D6
:1092E00012A0ADE6052615A0AAE600BF4163746989
:1092F000766974792063616C656E64617220666F53
:109300007220746F7520747970650D0073706563D9
:1093100069616C2064617920747970650D000000CA
:109320006576656E7420747970650D004D69646EA4
:109330006967687420747970650D0000416C742051
:10934000747970650D00000064656D616E64207253
:109350006573657420747970650D00006C6F6164CD
:1093600070726F66696C6520747970650D0000001D
:109370004F7468657220747970650D004D65746571
:109380007220436F6D6D616E64000000B0B584B0F3
:1093900049F29420C0F2070059F048FC4AF20C7CD4
:1093A000C2F2000CBCF80000BCF812E4DCF80210B9
:1093B000DCF80620DCF80A30DCF80E500CF1120460
:1093C000CDF808E0CDE900543BF01BFC40F2E23060
:1093D000C2F200000021017004B0B0BD01A051F044
:1093E000ACBB00BF4275734661756C745F48616EBB
:1093F000646C65720000000001B380B547F6B03CB4
:109400004FF6FF73C0F2060C10F801EB01398EEA3B
:10941000030202F00F023CF812209BB282EA131200
:1094200093B202F00F0282EA1E123CF8122082EA86
:109430001313E9D1D843BDE8804000E0002080B29A
:109440007047000070B584B000210228029101919C
:1094500001D90520A9E00424C4F280042168002871
:1094600021F003012160216821F48071216000F066
:109470009580012847D12068BC2520F40070C4F2F3
:1094800020052060A868002620F48000A8600296CD
:109490000298012800F28280206840F480702060E9
:1094A0000396039800094A2808D800BF00BF039814
:1094B000013003900398B0F5966FF7D3286800F059
:1094C00040512068B1F1805F65D020F48070206049
:1094D000039603980009182808D800BF00BF039816
:1094E000013003900398B0F5C87FF7D301F049F934
:1094F00001900198022851D0029801300290029800
:109500000228C9D34AE02068BC2540F40070C4F2A8
:1095100020052060A868002640F48000A86002961C
:10952000029801283AD800BF206840F4807020607B
:109530000396039800094A2808D800BF00BF039883
:10954000013003900398B0F5966FF7D3286800F0C8
:1095500040512068B1F1805F1DD020F48070206000
:10956000039603980009182808D800BF00BF039885
:10957000013003900398B0F5C87FF7D301F001F9EB
:1095800001900198022809D00298013002900298B7
:109590000228C9D302E040F0030020603FF0C5F884
:1095A00002F0EAFB00F078F8002004B070BD000083
:1095B00070B540F6D84440F2C06544F61C06C2F2CD
:1095C0000004C2F20005C2F2010600BF217828782B
:1095D000012909D1022807D8306838B100210222B8
:1095E000002358F097FE01E0032804D24FF47A706C
:1095F00057F03EF8EAE704A051F09FFA0020BDE8DA
:10960000704057F071B800BF4D41415F666C6167B3
:10961000203E3D20330D00000420C4F220004168AC
:10962000C90708BF7047016841F001010160406847
:10963000C00707D14AF66030C2F20000006810B1DE
:10964000004700BFFEE770474EF28410CEF20000E4
:1096500001210160BFF34F8F0020BFF36F8FC4F271
:109660002000016821F002010160416841F0010120
:10967000416070470020C4F22000416841F00101C0
:109680004160016841F0020101604EF20410CEF227
:10969000000001210160704780B500F013FA022834
:1096A00088BF80BD08A10BA251F8201052F82000FD
:1096B00040F21002C2F20002116040F20C01C2F24C
:1096C0000001086080BD00BF7B980000C1980000C9
:1096D00027990000E196000049970000D597000007
:1096E00010B582B00190019800282BD040F21004F0
:1096F000C2F20004019801380190216840F2E7307D
:109700008847019800281AD000BF00BF00BF00BFE3
:1097100000BF00BF00BF00BF00BF00BF00BF00BF51
:1097200000BF00BF00BF00BF00BF00BF00BF00BF41
:1097300000BF00BF00BF00BF00BF00BF00BF019857
:109740000028D7D102B010BD10B582B001900198A9
:10975000002800F03C8040F21004C2F2000400BF78
:10976000019801380190216840F2E730884700BF36
:1097700000BF00BF00BF0198002824D000BF00BF79
:1097800000BF00BF00BF00BF00BF00BF00BF00BFE1
:1097900000BF00BF00BF00BF00BF00BF00BF00BFD1
:1097A00000BF00BF00BF00BF00BF00BF00BF00BFC1
:1097B00000BF00BF00BF00BF00BF00BF00BF00BFB1
:1097C00000BF00BF00BF019800287FF4C9AF02B0FE
:1097D00010BD000010B582B001900198002800F083
:1097E0004A8040F21004C2F2000400BF0198013820
:1097F0000190216840F2E730884700BF00BF00BFFA
:1098000000BF00BF00BF00BF00BF00BF00BF00BF60
:1098100000BF00BF00BF00BF00BF00BF00BF019876
:10982000002824D000BF00BF00BF00BF00BF00BFA2
:1098300000BF00BF00BF00BF00BF00BF00BF00BF30
:1098400000BF00BF00BF00BF00BF00BF00BF00BF20
:1098500000BF00BF00BF00BF00BF00BF00BF00BF10
:1098600000BF00BF00BF00BF00BF00BF00BF019826
:1098700000287FF4BBAF02B010BD81B00090401E45
:1098800000BF00BF00BF00BF00BF00BF00BF00BFE0
:1098900000D113E000BF00BF00BF00BF00BF00BF8A
:1098A00000BF00BF00BF00BF00BF00BF00BF00BFC0
:1098B00000BF00BF00BF00BF00BFE0E701B07047BE
:1098C00081B00090401E00BF00BF00BF00BF00BFBE
:1098D00000BF00BF00BF00BF00BF00BF00BF00BF90
:1098E00000BF00BF00BF00BF00BF00BF00BF00BF80
:1098F00000BF00BF00D114E000BF00BF00BF00BF29
:1099000000BF00BF00BF00BF00BF00BF00BF00BF5F
:1099100000BF00BF00BF00BF00BF00BF00BF00BF4F
:10992000D0E701B0704781B00090401E00BF00BF7B
:1099300000BF00BF00BF00BF00BF00BF00BF00BF2F
:1099400000BF00BF00BF00BF00BF00BF00BF00BF1F
:1099500000BF00BF00BF00BF00BF00BF00BF00BF0F
:1099600000BF00BF00BF00BF00BF00BF00BF00BFFF
:1099700000BF00BF00BF00BF00BF00D114E000BFA8
:1099800000BF00BF00BF00BF00BF00BF00BF00BFDF
:1099900000BF00BF00BF00BF00BF00BF00BF00BFCF
:1099A00000BF00BF00BFC0E701B0704710B504465C
:1099B0003EF0B1FD1321B1EB104F14D0000C15286F
:1099C0001FD014281CBF012010BD4FF2040C4FF60D
:1099D000F873C0F20F0CC0F20F030CF57F61181D75
:1099E0004FF47F221AE04FF2040C4FF6F873C0F2E6
:1099F000070CC0F207030CF57F61181D4FF4FE221F
:109A00000CE04FF200024FF6F471C0F21F02C0F2F8
:109A10001F0102F1040C0B1D01F108001B682360FB
:109A2000006860600868A060DCF80000E060106812
:109A30002061002010BD0000B8B10168013114D0D0
:109A4000B0F8051089B140180FD000BF016801318E
:109A50000BD001797E2908BF7047B0F805100029A6
:109A600018BF014400290846F0D100207047B020FB
:109A7000C4F220000168890702D40168C90702D135
:109A80000168890701D401207047006800F00100D7
:109A900070470000B0B586B001AD044628461421D9
:109AA000FEF7E7FB2846FFF781FF059840B100BFAE
:109AB0000168A14204D0FFF7BFFF0028F8D10020C1
:109AC00006B0B0BD0420C4F280000168890704BF5D
:109AD00000207047016801F00301032904D10168E7
:109AE000C90502D4FEE700BFFEE70168890551BF42
:109AF00001200068022101EA1020704780B540F67D
:109B0000E85EC2F2000ECEF8003084460078F0B174
:109B10000888013083B2088093424FF0000038BFBC
:109B200080BD8CF800000880DEF80000052840D8D1
:109B30000FF20401DFE800F0030E161E262E49F294
:109B40008260C0F2070050F0F8FF32A029E0002048
:109B5000088080BD49F28260C0F2070050F0EDFF3E
:109B600027A01EE049F28260C0F2070050F0E5FF36
:109B70001FA016E049F28260C0F2070050F0DDFF3E
:109B800015A00EE049F28260C0F2070050F0D5FF48
:109B90000CA006E049F28260C0F2070050F0CDFF51
:109BA00005A050F0CAFF49F29D10C0F2070050F026
:109BB000C4FF012080BD00BF5265736574204661FB
:109BC0006E0D0000436F6E74696E7565666C61673B
:109BD000204572726F720D004F6E64656D616E6428
:109BE00072656164696E67204572726F720D000064
:109BF00053656E64666C6167204572726F720D000A
:109C000052656365697665666C6167204572726F3F
:109C1000720D000052657472792052656769737421
:109C200065720D00042071460842EFF30980EFF3DE
:109C30000880714649F056BB70474DF29C01C2F254
:109C400000010A681043086070474DF29C01C2F29F
:109C500000010A6822EA000008607047827BC1792F
:109C6000032A05D0022A05D0012A1ED1113002E0B4
:109C7000173000E014300139012988BF7047902166
:109C8000C4F2200100780A6860F303020A600A68DF
:109C900000F00F0022F0F00242EA00120A600A68A7
:109CA00022F4706242EA002008607047827BC1792A
:109CB000032A05D0022A05D0012A1ED1113002E064
:109CC000173000E014300139012988BF704798210E
:109CD000C4F2200100780A6860F303020A600A688F
:109CE00000F00F0022F0F00242EA00120A600A6857
:109CF00022F4706242EA002008607047827BC179DA
:109D0000032A05D0022A05D0012A20D1113002E011
:109D1000173000E014300139012988BF70479021C5
:109D2000C4F2200100780A6800F00F0022F47022CB
:109D300042EA00420A600A6822F4700242EA0052D3
:109D40000A600A6822F0706242EA006008607047A8
:109D5000827BC179032A05D0022A05D0012A14D1B9
:109D6000113002E0173000E014300139012988BFBA
:109D700070470021C4F2200100780A6800F00F004B
:109D800022F4706242EA002008607047B0B51446C1
:109D90000D46FFF77FFE48B135B100BF10F8011B3B
:109DA000013D04F8011BF9D10020B0BD0220B0BD77
:109DB000827BC179032A05D0022A05D0012A20D14D
:109DC000113002E0173000E014300139012988BF5A
:109DD00070479821C4F2200100780A6800F007005B
:109DE00022F4E02242EA00420A600A6822F4E00219
:109DF00042EA00520A600A6822F0E06242EA006029
:109E000008607047827BC179032A05D0022A05D0F9
:109E1000012A1ED1113002E0173000E01430013960
:109E2000012988BF70479421C4F2200100780A6894
:109E300060F303020A600A6800F00F0022F0F002EB
:109E400042EA00120A600A6822F4706242EA0020C4
:109E5000086070472DE9F04F81B0002860D00446BB
:109E6000054600BF286801305AD028797E2808D0DE
:109E7000B5F80500002818BF284400280546F1D190
:109E80004EE04FF6FF7B04F1C50904F1600804F1D0
:109E9000480A04F1300604F11807CAF2FE5B00BF5D
:109EA000286858440A2835D8DFE800F0060A121658
:109EB0001A343434340E1E002046FFF7CFFE29E05A
:109EC0003846FFF71BFF25E04846FFF741FF21E03A
:109ED0003046FFF7EBFE1DE05046FFF793FF19E019
:109EE0004046FFF765FF15E094F8E40001380128CB
:109EF00010D82422C4F22002B4F8E500516A6FF3AE
:109F00009F2041F48031516211686FF3194141EA99
:109F1000004010602846FFF78FFD05460028BFD19E
:109F200001B0BDE8F08FF0B585B04DF2AC05C2F2DE
:109F3000000500206C46286020461421FEF799F9A0
:109F40002046FFF733FD009845F65701B1EB104F5F
:109F500027D10199B1F5803F23D1039CB4F5805FEF
:109F60001FD80021C5F657014A1C029980EA020653
:109F700066EA010030B30127C5F63C27B94221D07B
:109F800000F093F8B8B1B4F5805F0DD802986FF087
:109F900001014140314302D0791C884204D10220A2
:109FA00011E000F082F830B12868411E02290BD37D
:109FB000032802D00BE00320286042F29040C2F256
:109FC000010002E0012028600498FFF743FF05B07C
:109FD000F0BD42890021B1EB123F21D1C289B1EB22
:109FE000123F1DD1428A0021B1EB123F18D1C28A23
:109FF000B1EB123F14D1418B0022B2EB113F0FD1D4
:10A000000189B1F5616F0BD88189B1F5616F07D80E
:10A01000018AB1F5616F03D8818AB1F5616F02D908
:10A02000012108467047018BB1F5616F4FF00101C6
:10A030009CBFC1710021F4E70522C5F601220F2360
:10A04000914202F1050208BF07239142817A4FF441
:10A05000FA6C08BF4FF4616C8B4219D3417B8B4281
:10A0600016D3417C8B4213D3017D8B4210D3C17D2B
:10A070008B420DD301898C450AD3B0F80B108C4567
:10A0800006D3B0F80F108C4502D3418A8C4502D21A
:10A09000012108467047B0F815108C454FF00101BA
:10A0A00022BFC17181730021F3E72DE9F04393B022
:10A0B00042F29049C2F2010944F6CC21C0F20701F4
:10A0C00048464FF4D072FEF7ADF840F6B438C2F20D
:10A0D000000840463EF07CFA18B1012013B0BDE8FC
:10A0E000F08398F82000FF28F7D001283FD198F896
:10A0F00023C098F826E0B8F82420B8F82130D9F821
:10A100001060D9F81450D9F80070D9F80440D9F883
:10A110000800D9F80C100F9010910D971295119618
:10A120000DAE30460E94ADF83C30ADF83F208DF8C2
:10A130003EC08DF841E000F0B7FA0121C5F60121DB
:10A140003046FFF779FF0028C7D10D980E990F9A76
:10A15000109B119F129EC9F81460C9F81070C9F8BD
:10A160000C30C9F80820C9F80410C9F8000098F8A4
:10A170003000FF28B1D0012841D198F833C098F8B9
:10A1800036E0B8F83420B8F83130D9F82870D9F86A
:10A190002C60D9F81850D9F81C40D9F82000D9F80B
:10A1A00024100F9010910D9512960DAE3046119718
:10A1B0000E94ADF83C30ADF83F208DF83EC08DF8E0
:10A1C00041E000F071FA0120C5F60120411C304643
:10A1D000FFF732FF00287FF480AF0D980E990F9A99
:10A1E000109B119F129EC9F82C60C9F82870C9F8FD
:10A1F0002430C9F82020C9F81C10C9F8180098F8B4
:10A200004000FF283FF469AF012841D198F843C0CE
:10A2100098F846E0B8F84420B8F84130D9F84070D2
:10A22000D9F84460D9F83050D9F83440D9F838001A
:10A23000D9F83C100F9010910D9512960DAE304646
:10A2400011970E94ADF83C30ADF83F208DF83EC02C
:10A250008DF841E000F028FA0120C5F60120811CAC
:10A260003046FFF7E9FE00287FF437AF0D980E99CE
:10A270000F9A109B119F129EC9F84460C9F8407054
:10A28000C9F83C30C9F83820C9F83410C9F8300092
:10A2900098F85000FF283FF420AF012841D198F8EA
:10A2A00053C098F856E0B8F85420B8F85130D9F8AF
:10A2B0005870D9F85C60D9F84850D9F84C40D9F8B2
:10A2C0005000D9F854100F9010910D9512960DAEC4
:10A2D000304611970E94ADF83C30ADF83F208DF824
:10A2E0003EC08DF841E000F0DFF90120C5F6012005
:10A2F000C11C3046FFF7A0FE00287FF4EEAE0D989B
:10A300000E990F9A109B119F129EC9F85C60C9F8B4
:10A310005870C9F85430C9F85020C9F84C10C9F821
:10A32000480098F86000FF283FF4D7AE012841D1DB
:10A3300098F863C098F866E0B8F86420B8F861301F
:10A34000D9F87070D9F87460D9F86050D9F86440C1
:10A35000D9F86800D9F86C100F9010910D951296ED
:10A360000DAE304611970E94ADF83C30ADF83F205D
:10A370008DF83EC08DF841E000F096F90120C5F659
:10A380000120011D3046FFF757FE00287FF4A5AEDF
:10A390000D980E990F9A109B119F129EC9F8746028
:10A3A000C9F87070C9F86C30C9F86820C9F8641031
:10A3B000C9F8600098F87000FF283FF48EAE0128BD
:10A3C0005ED1B8F87110B8F87300B8F87920B8F811
:10A3D0007B30D9F878C0D9F87CE0D9F88050D9F82A
:10A3E0008440D9F88870D9F88C600B960A97099444
:10A3F0000895CDF81CE0CDF818C0D9F890701E1A59
:10A400000C97BDF82870ADF824207F1A7743521AB4
:10A4100097FBF2F7ADF82630C319ADF82A30BDF836
:10A420002C30BDF83070ADF820105B1A791A7343E8
:10A43000714393FBF2F391FBF2F1ADF82200034478
:10A440000844ADF8320006A8ADF82E30FFF7C1FD84
:10A4500000287FF442AE06980799089A099B0A9F44
:10A460000B9EC9F88C60C9F88870C9F88430C9F8A7
:10A470008020C9F87C10C9F878000C98C9F89000C1
:10A4800098F88000FF283FF428AE01285ED1B8F884
:10A490008110B8F88300B8F889E0B8F88B30D9F8A3
:10A4A00094C0D9F89860D9F89C50D9F8A040D9F850
:10A4B000A470D9F8A8200B920A97099408950796DA
:10A4C000CDF818C0D9F8AC201F1A0C92BDF828207E
:10A4D000AEEB0106521A7A4392FBF6F2ADF8263043
:10A4E0000244ADF82A20BDF82C20BDF83030ADF87C
:10A4F0002010521A591A7A43794392FBF6F291FBD3
:10A50000F6F1ADF8220002440844ADF8320006A886
:10A51000ADF824E0ADF82E20FFF75BFD00287FF4B6
:10A52000DCAD06980799089A099B0A9F0B9EC9F80B
:10A53000A860C9F8A470C9F8A030C9F89C20C9F86F
:10A540009810C9F894000C98C9F8AC0098F89000DD
:10A55000FF283FF4C2AD012841D1B8F89110D9F8D5
:10A56000B0000490B9F8B40099F8B620ADF8140022
:10A570008DF8162099F8B7008DF80F0099F8B800FB
:10A580008DF80E00B9F8B920ADF80C20ADF80C101C
:10A5900041B100220120B2EB113F8DF80E007FF493
:10A5A0009DAD02E001283FF698AD01208DF80F0027
:10A5B0000498C9F8B000BDF814009DF81610A9F869
:10A5C000B40089F8B6109DF80F0089F8B7009DF81F
:10A5D0000E0089F8B800BDF80C00A9F8B90098F889
:10A5E000A000FF283FF479AD012828D109F1BB066E
:10A5F000B8F8A14001A831460722FDF713FE99F8EB
:10A60000C2008DF80300B9F8C300ADF800000020C7
:10A61000B0EB143F4FF00100ADF800407FF45EADA9
:10A620008DF8030001A930460722FDF7FBFD9DF8D8
:10A63000030089F8C200BDF80000A9F8C30098F82B
:10A64000B000FF283FF449AD01282BD198F8B36042
:10A6500098F8B670B8F8B440B8F8B15009F1C50828
:10A660000DF13409484641461822FDF7DBFD484606
:10A67000ADF83C50ADF83F408DF83E608DF841702C
:10A6800000F012F80120C5F6012000F1090148464A
:10A69000FFF7D2FC00287FF420AD0DA94046182218
:10A6A000FDF7C0FD002019E52DE9F04F84B00289C7
:10A6B000B0F80B40B0F80F50A2EB040B428A817A3D
:10A6C00090F80DE02E1BB0F81550121BA1EB0E01F7
:10A6D00002922A1B40F2040C039249B26422C5F68E
:10A6E000012C4A4301680CF1010548F21F584FF054
:10A6F0000F0AA9424FF00005C5F2EB1801AF0DF1AA
:10A700000109019608BF4FF0070A00BFB6F1FF3FED
:10A710004FF0FF3402FB06F6C8BF0124664396FBE8
:10A72000FBF6614506F1320686FB08634FEA6316C5
:10A7300006EBD37303FB04E647F8256004D1002E33
:10A7400048BF103608E000BF002E03D45645C8BFEE
:10A75000564601E0002600BF022D09F8056004D02E
:10A7600007EB85035E680135D0E79DF801109DF881
:10A7700002209DF8033041740275C37504B0BDE832
:10A78000F08FBC20C4F22000016811F0405F05D1B9
:10A79000016801F0E061B1F1806F0BD0016801F058
:10A7A0004051B1F1405F07D1016801F0E061B1F1C2
:10A7B000E06F01D102207047016811F0405F05D1C0
:10A7C000016801F0E061B1F1806F14D1016801F01E
:10A7D0004051B1F1405F05D1016801F0E061B1F194
:10A7E000E06F08D1006800F04050B0F1805018BF11
:10A7F00001204000704703207047000040F2C06411
:10A80000C2F200042078032802D3002055F06CFF28
:10A8100001204FF0FF3155F017F80028F2D000F07A
:10A8200001F8EFE72DE9F04F9DB0622040F2C06AD9
:10A8300042F6C516C0F2FF20C2F2000AC2F20106BB
:10A8400003909AF8001030780722C6F2003250EADE
:10A850000103029209D0012908BF022814D14DF248
:10A860006E00C2F20000007870B982A058F0DEF9E4
:10A87000317885A058F0DAF93DF0E2FC4DF26E0037
:10A88000C2F200000121017043F2DC7BC2F2010B35
:10A890009BF8000040F6D84800F0FE000228C2F203
:10A8A00000085BD13078012858D19AF800000028C0
:10A8B00054D198F80000012850D149F25140C0F21B
:10A8C000070050F03AF940F2C860C2F2000090E888
:10A8D0009E004569008B0DF1100C8CE89E00ADF8D0
:10A8E000280004AA012001212623099554F006FB23
:10A8F00044F62009C2F20109D9F8000002213170A2
:10A9000060BB40F2E430C2F20000006843F6095137
:10A91000484349F20001C0F2D03101EB801044F607
:10A92000D351C1F26201A0FB010140F27550C0F2A7
:10A930000600890900905AA001220023002558F042
:10A940008FF8C9F8000048B1044657F0B1FD02463F
:10A95000204601210023009558F0F2F843F2887454
:10A96000C2F2010421789AF80000012908BF0128E9
:10A9700002D0022827D04EE031780229F9D198F888
:10A9800000100129F5D14AA058F050F940F6DC40FA
:10A99000C2F200000088002504AA112101238DF8CD
:10A9A0001050012654F0AAFA9BF80000022100F092
:10A9B000FE00022825708AF8001004D14AF2446093
:10A9C000C2F20000067040F2B054C2F200042078D7
:10A9D00008BB9BF8000000F0FE0002281BD138A045
:10A9E00050F0ABF840F2F8650120C2F2000529787A
:10A9F000207048F68110C0F20700012258F016F9C5
:10AA0000287840B94DF26A00C2F20000008802A91D
:10AA1000012252F0D9FA40F2DD30C2F20000007893
:10AA200001280AD14BF6A004C2F20004207820B914
:10AA3000022054F047FC012020709AF80000022800
:10AA400015D39BF8000000F0FE0002280FD14AF257
:10AA50004464C2F20004207848B998F80000012844
:10AA600005D11BA0002158F0E1F8012020701DB095
:10AA7000BDE8F08F4D41415F666C6167203D202548
:10AA800064200D0A000000007265676973746572C6
:10AA90005F7374657073203D202564200D0A0000EB
:10AAA000526567697374657254696D657200000060
:10AAB00061636B20436F7272656E740A0D00000053
:10AAC0004D41415F666C6167203D20310000000010
:10AAD00061636B20666C6167203D2025640D0A0070
:10AAE0002DE9F0413424C4F22004E06940F2FF7102
:10AAF00020F08070E061206A40F20C0720F00060D6
:10AB00002062206849F20226884300254FF002089F
:10AB1000C2F20007C0F20106206000BF206820F0EA
:10AB2000E06028432060206A40F000702062206AC4
:10AB300020F040502062206A68F39F702062206AF3
:10AB400040F080602062396801208847206A20F048
:10AB500080602062606A6FF39F40B04204D8B5F114
:10AB6000E06F05F18075D9D1206A4FF4C83140F00B
:10AB700080702062E069012261F31100E061216AC6
:10AB8000052060F307012162216A62F30921216235
:10AB9000216A022241F440612162216A41F440515C
:10ABA0002162216A62F38F312162216A60F31241CE
:10ABB0002162216A41F400212162216A60F3165169
:10ABC0002162206A40F000602062206A20F40000C8
:10ABD0002062E06940F08070E061BDE8F081000033
:10ABE000F0B581B0A0B140F2F43749F6DB05044678
:10ABF0004FF47126C2F20007C0F2070536F8020BC7
:10AC000007F8010BC1B2284658F010F8013CF5D105
:10AC100001B0F0BD2DE9F04F8DB042F6C01040F20A
:10AC2000F031C2F20100C2F2000140F2FD62007890
:10AC30000978C2F2000212780843104340F0C98339
:10AC400042F6BC14C2F2010421680FF28C70142287
:10AC500057F0ECFF40F6BC40C2F20000006805A9C6
:10AC6000002257F033F8012840F0B38343F24870D4
:10AC7000C0F20600016840F6E82604914168007AB7
:10AC80004DF2740B48F67B19C2F20006C2F2000BBB
:10AC9000C0F20709039102900020CDE90A00049850
:10ACA000069F07900398BDF81450089002988DF8FD
:10ACB000240040F2DC504FF05FFF002800F0858256
:10ACC00040F2DC518046FDF7D4FA404639462A4628
:10ACD000FDF7A8FAB8F80100000400BAB0F5BB6FA0
:10ACE00010D843F2DC71C2F20101097801F0FE01D3
:10ACF000022909D1B8F80800000400BA00F10C05D7
:10AD000003E000BF002506E0051DA8B2B0F5004F26
:10AD100088BF05F50045ACB20FF2D860214657F068
:10AD200085FF48F67510C0F207000FF2F46157F086
:10AD30007DFF4746A2463CB117F8011B484657F035
:10AD400075FFBAF1010AF7D149F27470C0F2070039
:10AD50004FF0F3FE98F80B0000285DD000F10C02D4
:10AD600000210C270C2300BF18F807605F4417F878
:10AD70000C7C0133BE429FB208BF0131BA42F3D806
:10AD80004DF27002C2F200021268C9B240F6E82623
:10AD90008A42C2F2000647D0A92840F00F8298F8F4
:10ADA0001300002840F00A8298F812000D22404457
:10ADB00000F1130107A800230027009754F04EFB71
:10ADC0000FF2706057F032FF98F81200152CA0F1C6
:10ADD000010088F812000CD3601E1321132200BF5B
:10ADE00008EB01035B78013208F8013091B2884228
:10ADF000F6DC6F1EBDB2042DA5F10200C0F0BF81CC
:10AE000001220021012300BF18F8026001339AB229
:10AE100090423144F8DCB3E14DF27001C2F200011E
:10AE20000968002940F0CA814044B0F80D000004D0
:10AE300001BA4FF6FF70814240F6DC40C2F20000DA
:10AE400014BF0160016849F6E100C0F2070057F045
:10AE5000EDFE98F80B0000EB08010A7BA12A7AD1DD
:10AE600040F2C061C2F2000140F2DC320978C2F265
:10AE70000002127840F2B3530029C2F200034FF0EF
:10AE8000010A83F800A040F07B80002A40F078801F
:10AE90000F3043F28871C2F20101C0B281F800A004
:10AEA00038F8001040F22402090409BAA1F26C71CA
:10AEB000C2F2000240445161817840F26C2C0139A9
:10AEC0001161C17840F24125D160417940F25224AC
:10AED0009160817940F27C265160C179C2F2000C08
:10AEE00011600021C2F20005C2F20004C2F20006A5
:10AEF0004218137A6F180CF80130137E7B70137EA2
:10AF000067187B7092F82820725401311029EFD114
:10AF100040F22400C2F20000FDF730F94DF2B41106
:10AF2000C2F20001086040F6B8410020C2F2000100
:10AF3000086040F2DD31C2F2000181F800A04BF65A
:10AF4000A001C2F20001087040F2BC60C2F2000031
:10AF500080F800A08CE04DF27003C2F200031B6881
:10AF600043441B7BC13B032B00F29680DFE813F0C8
:10AF70000400ED00FA00000108F10801C120F4E02E
:10AF800000290B4682F0010218BF01231A437AD12F
:10AF900040F2B862C2F200021278002A73D00F3079
:10AFA00043F28871C2F20101C0B281F800A038F802
:10AFB000001040F22402090409BAA1F26C71C2F235
:10AFC000000240445161817840F26C2C01391161DA
:10AFD000C17840F24125D160417940F2522491601C
:10AFE000817940F27C265160C179C2F2000C116077
:10AFF0000021C2F20005C2F20004C2F2000600BF46
:10B000004218137A6F180CF80130137E7B70137E90
:10B0100067187B7092F82820725401311029EFD103
:10B0200040F22400C2F20000FDF7A8F84DF2B4117E
:10B03000C2F20001086040F6B8410020C2F20001EF
:10B04000086040F2DD31C2F2000181F800A04BF649
:10B05000A001C2F20001087040F2BC60C2F2000020
:10B0600080F800A040F2B610C2F200003C2101704E
:10B0700040F6E826C2F2000640F2DC30C2F20000E0
:10B0800080F800A09AE00329F6D140F2C060C2F235
:10B09000000003210170EFE7A2F19303032B40F2BC
:10B0A000AA80A2F1A303092B00F2B480DFE813F019
:10B0B0000A00C40086008600860086008600DC0048
:10B0C00086004C01C87B40F6E44140F6E344C2F2FE
:10B0D0000001C2F20004087040F2F9612070012002
:10B0E000C2F20001087049F68900C0F2070057F06B
:10B0F0009DFD217898F80B2001EBC101114402F16C
:10B100001000103149F6DB078142C0F2070715D95C
:10B11000054600BF18F80010801A304400F8101CD3
:10B12000384657F083FD217898F80B2001EBC101D8
:10B1300001351144A8B210318142EBD80A2058F0F1
:10B14000ADFA022054F0BEF838E0C6A04FF0F5FC8E
:10B150004DF27000C2F20000006808F1080140449E
:10B16000007B02E008F10801C32000F08BFC25E021
:10B1700049F2ED30C0F2070057F058FD1EE0002103
:10B1800008F80010B3A057F051FD49F6DB0638046B
:10B19000C0F2070607D0444614F8011B304657F0AA
:10B1A00045FD013DF8D149F23B40C0F2070057F0A0
:10B1B0003DFD40F6E826C2F2000600BF404654F0CE
:10B1C000EFFF42F6BC14C2F2010420680128A4BFBC
:10B1D00001382060069808B154F0E2FF40F6BC4008
:10B1E000C2F20000006805A9002256F06FFD012898
:10B1F0003FF452ADEDE0DFE803F002B4BBC598F8D0
:10B20000101040F2B450C2F200008171002101F030
:10B2100063F8D3E7092AD1D149F21730C0F2070009
:10B2200057F004FD98F80B2002EB0801A21A01F177
:10B230000F001831273AC8E00AADB8F8094008F104
:10B240000D0128460922FCF7EDFF20BA6FF00A0233
:10B2500002EB104008F1160182B2284600230027B5
:10B26000009754F0FBF8A9E740F2DE320124C2F265
:10B2700000021470497E002900F0898008F11D0544
:10B2800000274FF0000A00BF285C612810DD62280B
:10B290001CD063281FD0642834D149F24B30C0F24F
:10B2A000070057F0C3FC40F6E241C2F2000123E080
:10B2B000C0B1022826D149F26B30C0F2070057F026
:10B2C000B5FC40F6E041C2F2000115E049F27B30E6
:10B2D000C0F2070003E049F25B30C0F2070057F00C
:10B2E000A5FC0FE049F28C30C0F2070057F09EFC3D
:10B2F00040F6E141C2F200010878002814BF4FF087
:10B30000010A0C7098F80B00013700EB0801497E28
:10B310001E358F42B8D3BAF1010F38D149F22F3020
:10B32000C0F2070057F082FC40F6DC4040F2B46106
:10B33000C2F20000C2F2000100880B884AF24862A3
:10B340001A21C2F2000210E040F2C060C2F2000016
:10B35000007803287FF432AF01F10F00FDF71AFEE9
:10B360002CE7012024210022012353F0C7FD25E70B
:10B3700040F2B1510120C2F200010870012054F0E6
:10B3800007F81BE749F23C20C0F20700F4E6B8F8E2
:10B390000810090409BA081AA0F1120149F2820042
:10B3A000C0F2070057F042FC98F8082098F809709E
:10B3B00098F80B3047EA022203EB0801D21A4FF645
:10B3C000E57301F10F0018311A4492B251F010FBED
:10B3D000F4E60DB0BDE8F08F5265636569766520CF
:10B3E0005175657565203A202564202F2025640D50
:10B3F0000A0000000A0D70726F63657373436F6D0E
:10B400006D616E64200A0D646174614C656E203D4F
:10B41000202564202F20313530300A0D0000000037
:10B4200044415370726F63657373436F6D6D616EEA
:10B430006400000042726F61646361737420626C27
:10B440006F636B2061646A7573746D656E74210A35
:10B450000D000000454C53446174615B5D203D204C
:10B460000A0D000073657400F0B581B01426CAF2AD
:10B470004006776817F07F0506D004463CF08AFA4C
:10B480002846A0473EF012FD27F07F00306001B053
:10B49000F0BDAFF3008080B52022CAF240021268EE
:10B4A00012065CBF022080BD03468AB207201946FF
:10B4B00000F00AF9012080BD0C20CAF24000C168EA
:10B4C000C90358BF70474FF4807100BF826902F012
:10B4D0000602062A01D00160F8E7C268D203F5D45B
:10B4E000704780B54FF4807000F038F84FF400607A
:10B4F00000F034F800F00AFA4EF20010CEF200002C
:10B500004FF4801101604FF48070BDE8804000F07E
:10B51000A3B8AFF3008010B51C23CAF240031A6829
:10B52000920703D40220086000240AE002460120AA
:10B53000086058681146C0F30B440120224600F011
:10B540009FF8204610BDAFF300800C21CAF24001E5
:10B550000A6822F0FF021044086070470C2120F0B6
:10B56000FF00CAF240010860704700F001B8000017
:10B570000C20CAF24000816901F00601062908BFCB
:10B5800070474FF4807100BF0160826902F00602CB
:10B59000062AF9D17047B0B5054600200C4600F0E8
:10B5A0001BF9B4F1011F18D34FF4004029464FF4A2
:10B5B000004200F0E7F8012000F00EF905F5004127
:10B5C0004FF400404FF4004200F0DCF8022000F09D
:10B5D00003F905F58031A2B211E0B4F5004F17D997
:10B5E0004FF4004029464FF4004200F0CBF8012010
:10B5F00000F0F2F884F4004005F5004182B24FF407
:10B60000004000F0BFF80020BDE8B04000F0E4B812
:10B61000A2B24FF400402946BDE8B04000F0B2B8F5
:10B62000AFF300801421CAF2400108607047102077
:10B63000CAF24000016821F07F0101607047FFF706
:10B64000F6BFAFF300801020CAF2400000686FF32D
:10B650005F207047AFF300801021CAF240010A68F2
:10B6600040F2FF139A431043086070471020CAF25B
:10B670004000016841F07F0101607047FFF7F6BFAD
:10B6800070B514460D4606463CF084F9FFF714FFEA
:10B690000420CAF2400040F8045C016866F30D0122
:10B6A0000160016889B241EA04410160416821F00A
:10B6B00003014160816841F4803181603EF0F6FB16
:10B6C000BDE87040FFF7F8BE70B514460D4606465B
:10B6D0003CF060F9FFF7F0FE0420CAF2400040F8A9
:10B6E000045C016843F6FF729143314401600168D4
:10B6F000012289B241EA04410160416862F301011B
:10B700004160816841F4803181603EF0CFFBBDE84B
:10B710007040FFF7D1BEAFF300802020CAF2400096
:10B720000068C0F307207047AFF3008070B50C4687
:10B730000546D61C3CF02EF9FFF7BEFE0420CAF2E7
:10B74000400040F8044C016843F6FF72914341EA1F
:10B7500095010160016826F0030289B241EA0241C5
:10B7600001604168022262F301014160816841F495
:10B77000803181603EF09AFBBDE87040FFF79CBECF
:10B78000AFF3008070B50C460546D61C3CF002F9BC
:10B79000FFF792FE0420CAF2400040F8044C016812
:10B7A00043F6FF72914341EA95010160016826F07A
:10B7B000030289B241EA02410160416841F003019C
:10B7C0004160816841F4803181603EF06FFBBDE8EB
:10B7D0007040FFF771BE000010B582B00446002033
:10B7E000009069464FF489600422FFF79FFF9DF89F
:10B7F00000309DF801209DF802109DF80300022CF6
:10B8000023F0030305D0012C06D03CB100BE00BFDD
:10B81000FEE743F0020301E043F001038DF8052049
:10B820008DF806108DF8070001A94FF489600422F5
:10B830008DF80430FFF7A6FF02B010BD80B500F010
:10B8400002F8C0B280BD2420CAF240000068C0F3F4
:10B8500041007047AFF3008010B51C23CAF24003CB
:10B860001A68D20703D10220086000240AE00246C9
:10B870000120086018681146C0F30B4400202246DE
:10B88000FFF7FEFE204610BD2DE9F041DDF81880DF
:10B8900007464FF400601C4615460E46FFF75EFE55
:10B8A00000F034F84FF08070FFF758FEFFF719FEF4
:10B8B00025B11FB130462946FFF76DFE4FF40060F9
:10B8C000FFF74CFE00F022F84BF6A410C2F2000085
:10B8D0000460C0F80480FFF7C9FE4FF00070FFF766
:10B8E0003DFE00F003F80020BDE8F08180B500BF08
:10B8F000FFF713FF0128FBD10120FFF726FE00BF51
:10B90000FFF70BFF0128FBD080BD00002420CAF206
:10B91000400000BF0168C907FCD0704780B52023F4
:10B92000CAF24003D3F800C00123834003EA0C03AA
:10B930001B0604D092B2FFF7C7FE012080BD022093
:10B9400080BDFFF7EBBF00002DE9F04F8BB043F255
:10B950000860C2F20100027840F2F03043F2046A5B
:10B96000C2F20000C2F2010A037840F2FD6043F225
:10B97000DC76DAF80010C2F20000C2F201060078AC
:10B980003678012950DB43EA020505434CD106F025
:10B99000FE05022D48D140F6D44BC2F2000BDBF875
:10B9A000000004A90A2256F0A7F8012847D104ACE8
:10B9B0000FF2A4090FF2B808DBF8000021460022BC
:10B9C00056F084F9012826D1DAF8001048461422EE
:10B9D00057F02CF9BDF81000099DBDF82870DDF86E
:10B9E0001210DDF81620DDF81A30DDF81E6002971F
:10B9F000CDE9006539F005F910B140464FF09DF8EA
:10BA0000DAF800000128A4BF0138CAF8000009983C
:10BA100008B154F0C5FBDBF8000021460A2256F0BD
:10BA20006BF80128C8D00AE0009048F6E170C0F237
:10BA30000700019657F0FAF802A04FF07EF80BB01D
:10BA4000BDE8F08F436F6D6D616E6420466C616779
:10BA5000204572726F720D0053656E6420517565DA
:10BA60007565203A202564202F2025640D0A0000EA
:10BA70006170705F75647053656E64206572726F7B
:10BA8000720D00002DE9F04385B0054649F2ED3016
:10BA9000C0F207000C4657F0C9F82088E67800BAD3
:10BAA000C32D4FEA10471DD0C22D31D0C12D40F01B
:10BAB000DE8040F6CB40C2F200000121351902AC15
:10BAC0000170E91D20460922FCF7ACFBB81B1B38AE
:10BAD00005F11001002782B220460023009753F0A1
:10BAE000BDFCC4E03519E879022828D0012840F0CF
:10BAF000BE80A84618F8080F012874D142F6F45009
:10BB0000C2F201004FF4FA61FCF7B3FB00246FE0CE
:10BB10003519E87902283ED0012829D0002840F0C4
:10BB2000A680B81B4FF6EC71084482B242F6F4507E
:10BB300005F10901C2F20100FCF774FB43E0B81BF8
:10BB400040F6CE464FF6EC71C2F200064418378834
:10BB500042F6F450C2F20100384405F10901A2B2E4
:10BB6000FCF760FB3819308042A057F05FF87EE0A8
:10BB7000A94619F8080F40F6CE480128C2F200087D
:10BB800055D142F6F450C2F201004FF4FA61FCF7CD
:10BB900070FB00244DE0B81B40F6CE464FF6EC712A
:10BBA000C2F200064418378842F6F450C2F201008F
:10BBB000384405F10901A2B2FCF734FB3819308092
:10BBC0003AA057F033F840F6D040C2F2000000210E
:10BBD000018040F6CC40C2F200000121017001203A
:10BBE00000F07CF843E040F6CE40C2F2000004884A
:10BBF000B81B4FF6EC71461842F6F450C2F2010041
:10BC0000204405F10901B2B2FCF70CFB40F6CE412D
:10BC1000A019C2F2000108801EA057F007F840F6F4
:10BC2000DC40C2F200000088B32142461CE0B8F8B4
:10BC30000040B81B4FF6EC71461842F6F450C2F2C1
:10BC40000100204405F10901B2B2FCF7EBFAA0199A
:10BC5000A8F800001BA056F0E9FF40F6DC40C2F255
:10BC600000000088B2214A46012353F047F905B08D
:10BC7000BDE8F0830A0D4333205472616E736D6921
:10BC8000742053657420696E20666C61736821218D
:10BC9000210A0D000A0D4333205472616E736D69E1
:10BCA000742041434B21210A0D0000000A0D43324C
:10BCB000205472616E736D69742053657421210A7A
:10BCC0000D0000000A0D4332205472616E736D69DD
:10BCD000742041434B21210A0D000000B0B584B00F
:10BCE0001C4904461BA001914168007A02918DF81D
:10BCF0000C001BA056F09AFF42F6F45104EB4400EE
:10BD0000C2F201010A1812F8013C085C40F6D04565
:10BD100040EA032440F6CC40C2F200000378C2F2AD
:10BD2000000501330370288812F8022C08448DF8AE
:10BD30000B2000F110014FF0000CA2B201A800236B
:10BD4000CDF800C053F08AFB28882044288004B036
:10BD5000B0BD00BF1400000D0000FF000000000097
:10BD60000A0D2D2D2D5365745F544F555F43322DB1
:10BD70002D2D0A0D0000000080B5FDF7A3FE43F64F
:10BD80000951414344F60002032840F21C00C0F26E
:10BD9000E812C2F2000038BF02EB8122026080BDCF
:10BDA00080B52420C4F2200001683F2262F307011D
:10BDB0000160D0F8A01041F40041C0F8A010182094
:10BDC000CAF2300040F2EF31016000F08CF900F06F
:10BDD00043F8FEF7A8F80220FDF734FB40F2180004
:10BDE00049F20001C2F20000C0F2D031016024200B
:10BDF000CCF20000016841F002010160D0F80011AE
:10BE000041F00201C0F80011D0F8001241F0020127
:10BE1000C0F80012D0F8001341F00201C0F800137E
:10BE2000BDE88040FEF75CBE012803D090B96FF0FA
:10BE3000010001E06FF00200B021C4F220010A68A5
:10BE400042F002020A600A6842F001020A600A68CF
:10BE5000104008607047000070B586B09020342410
:10BE6000C4F28000C4F22004D0F800C094F8781026
:10BE700001258DF8141094F8792001F088018DF8CF
:10BE8000132094F87A3052318DF8123094F87B00F8
:10BE90008DF8110000F0F80006308DF8110002F066
:10BEA000080032308DF8130003F0CF0020308DF8F9
:10BEB00014108DF812009DF81400B12184F8780058
:10BEC0009DF81300C4F2200184F879009DF8120057
:10BED00084F87A009DF8110084F87B0094F87C00C7
:10BEE0008DF810000A8800F0EF00ADF80E2094F8ED
:10BEF0007F208DF80D2042F008028DF80D208DF87E
:10BF000010009DF8100084F87C00BDF80E00088039
:10BF10009DF80D0084F87F00A06E20F44060A066BC
:10BF2000D4F890100CF0F0000A4665F38302202844
:10BF300018BF41F00C02C4F890203CF0ECFAA16E5E
:10BF400046F2C8530A4665F30922C0F21403984228
:10BF500018BF41F44072A266D4F8900040F2FF711D
:10BF600040F04050C4F890002068FA2288432060D6
:10BF70002068082120F0E0602060206844F66C4EC4
:10BF800020F04050206094F86C00C0F2070E8DF84D
:10BF90000C0094F86D004FF0FF3C8DF80B0094F806
:10BFA0006E008DF80A0094F86F008DF809008DF886
:10BFB0000C10DE218DF80B1078218DF80A101B2152
:10BFC00061F35F008DF809009DF80C0084F86C00A7
:10BFD0009DF80B0084F86D009DF80A0084F86E004F
:10BFE0009DF8090084F86F0094F870008DF808003F
:10BFF00094F871008DF8070094F872008DF806002F
:10C0000094F873008DF805008DF80820BB228DF898
:10C010000720C82261F35F008DF806208DF8050027
:10C020009DF8080084F870009DF8070084F87100FE
:10C030009DF8060084F872009DF8050084F87300EE
:10C04000D4F8900040F48070C4F89000D4F89000C8
:10C0500040F40040C4F89000E06F40F00200E06758
:10C06000E06F40F00100E067E06F20F00200E06761
:10C07000002000BF0EEB0003D3E901435EF800503F
:10C08000C4F307220CFA02F2D1432E68E4B2A140B5
:10C0900023EA020226EA0101A2400C3011432428BF
:10C0A0002960E7D144F6904E0020C0F2070E4FF011
:10C0B000FF3C00BF0EEB0003D3E901535EF80060C4
:10C0C000C5F307240CFA04F4E2433168EDB2AA4048
:10C0D000914323EA0402AA400C301143B428316092
:10C0E000E8D106B070BD2420C4F2200001683F22D0
:10C0F00062F307010160016840F2911262F3194195
:10C1000001600821C4F280010A6842F080020A60DE
:10C11000026842F400620260826942F40052826165
:10C1200050F8042C42F0005240F8042C486B0122D5
:10C1300062F31140486370470C20CAF2700001217D
:10C14000016043F2E070C2F20100016809B1002011
:10C15000084770470C20CAF280000121016043F2B9
:10C16000E070C2F20100816809B101200847704700
:10C170000C20CAF2F0000121016043F2E070C2F22B
:10C180000100016909B10220084770470C20CAF27A
:10C19000F4000121016043F2E070C2F20100816904
:10C1A00009B10320084770470C20CAF2F8000121AA
:10C1B000016043F2E070C2F20100016A09B104209B
:10C1C0000847704701A04EF0B8BC00BF55736167C7
:10C1D000654661756C745F48616E646C65720000E1
:10C1E00010B51420CAF290000121016043F67C20B2
:10C1F000C2F20100006810B1BDE81040004702A47F
:10C2000020464EF09AFCFBE777686174203F3F3F81
:10C210002000000070B582B040F2000E0025CAF286
:10C22000900E8DF80250ADF80050DEF80850ED0782
:10C2300017D10924C507CAF2900415D143F67C2210
:10C24000C2F20102002616604EF20012CEF2000287
:10C250000826C2F88060BFF34F8F8022BFF36F8F34
:10C2600019E04FF0020C34E0069E4FF0010C86B34B
:10C270008A422ED20125C4F80B5043F67C25C2F227
:10C2800001052E60C4F80F204EF20012CEF200021B
:10C2900008261660C022C6B200F0020042EA001072
:10C2A000C6F3800210431C2202EA560210438DF8A6
:10C2B0000400C4F81330CEF800109DF804004FF0CD
:10C2C000000C8EF80800BDF800009DF80210A17067
:10C2D0002080604602B070BDF0B581B040F6E846FF
:10C2E000C2F200060C460546082730464FF471217D
:10C2F000CAF230073CF0BFF9304629462246FBF728
:10C3000091FF00BF3868C005FCD401204FF47121B3
:10C310003CF06EF83868C005FCD40020CAF220005A
:10C32000016841F4407101603868C005FCD440F6F2
:10C33000E840C2F200004FF471213CF055FA00BF12
:10C340003868C005FCD401B0F0BD00002DE9F04311
:10C3500085B0002A40F0BE801D460F46064653F0C9
:10C3600093FE4DF2E018C2F20008D8F8109008F1E0
:10C370000C00814500F09E80D8F834000138C8F8E0
:10C380003400D9E900014160086053F0D1FE4C4609
:10C3900054F8080F07F10901A6F10A02FBF742FF62
:10C3A000C5F1640048F21F51C0EB0020C5F2EB114B
:10C3B00080FB0101A6F10E00A0806842607548096B
:10C3C00040F2B81200EBD170E17DC2F200021278A7
:10C3D000A07501F0FE00E0752046A27148F04FFE06
:10C3E00018B1204648F03BFE20BB204648F040FEF6
:10C3F00030B342F65820C2F201000078D0B102AD4D
:10C400002046294648F005FED0B9049801286FD08F
:10C41000022815D1E81D00216A4600BF10F8013935
:10C42000535401310829F9D1684653F099FBB0F112
:10C43000FF3F05DD99F81F0040F0010089F81F005B
:10C44000204648F01CFEB0B1204648F013FE90B1E3
:10C45000204648F0FFFD70B142F65C2199F81F00BC
:10C46000C2F201010A6840F0020089F81F00501C66
:10C470000860C9F8180053F007FE414651F8040F50
:10C48000C9E90001C0F80490C86A8A6B0130C1F89C
:10C4900000908242C86238BFC8F83C0053F048FEA2
:10C4A00053F0F2FD42F23010C2F20100016841F493
:10C4B00080410AE053F03CFE53F0E6FD42F23010BA
:10C4C000C2F20100016841F40051016053F030FEF6
:10C4D0004AF072F840F6EC50C2F2000001780131E7
:10C4E000CAB2042A88BF0021017005B0BDE8F083FC
:10C4F000BDF8080053F05EFB00289BD5A0E70000C4
:10C5000010B582B04DF2E014C2F200046169002956
:10C5100043D04FEA301008283CD8DFE800F0192358
:10C520002D3B053B3B3B0500A06901A900683DF0A0
:10C53000D4FD0198A1690022C1E9020253F0A4FDD3
:10C5400042F23010C2F20100016841F480611CE047
:10C5500053F09AFD42F23010C2F20100016841F43A
:10C56000807112E053F090FD42F23010C2F20100EF
:10C57000016841F4805108E053F086FD42F230102A
:10C58000C2F20100016841F40061016053F0D0FD86
:10C590004AF012F81020FDF758FB02B010BD000061
:10C5A0002DE9F04182B042F6F257C2F20107388815
:10C5B0000C46019210B342F6F058C2F20108B8F8E6
:10C5C000001042F6F0420844C0B2814298BF4FF4D6
:10C5D0008071091A019BC2F201028EB210443146E9
:10C5E0002246009356F068FB0546B0F1FF3F20DD80
:10C5F000B54223DA3888284438804BE042F6F040D0
:10C600001346C2F201004FF48071224656F054FBEB
:10C610000546B0F5807F31D242F6F050C2F20100FB
:10C620000021018042F6EA40C2F201003D80018013
:10C6300030E047F69460C0F2070028E0FF2D25DCCB
:10C64000388842F6EA46C2F2010678B3002500BFF8
:10C6500000F075F849F01CFE10BBB8F800003188F6
:10C660003A880844C0B2A8F80000501A38803580D3
:10C6700000F065F838880028EAD117E047F69460A2
:10C68000C0F20700214648F09CFC05E016A02146B8
:10C6900048F097FC00F053F8284602B0BDE8F0815E
:10C6A0004AF01DF8014617A048F08BFC009B42F6AB
:10C6B000F040C2F201004FF48071224656F0FCFABD
:10C6C000002806DD054638800020A8F800003080EC
:10C6D000E0E747F6B560C0F207004FF4B07148F0EC
:10C6E000EDFD00BFFEE700BF434C49206F7574703D
:10C6F00075742060257360207472756E6361746553
:10C70000640000004661696C656420746F206F7579
:10C710007470757420434C493A2025730000000062
:10C72000B0B5084691B21C46154649F0ADF810B1B7
:10C730006FF03B00B0BD04B125600020B0BD42F6F3
:10C74000EA40C2F20100018801B1704742F6F0529E
:10C7500042F6F251C2F20102C2F2010112880988C6
:10C76000C2F580738B42B8BF19460B040180ECD030
:10C7700042F6F040C2F20100104489B249F0F5BD22
:10C780002DE9F04F81B000294CD042F6F25642F626
:10C79000F05A42F6EA4842F6F0498B460546C2F2A4
:10C7A0000106C2F2010AC2F20108C2F2010900BF89
:10C7B00031881FFA8BF3C1F5807082B2934298BF23
:10C7C0005846020418D0BAF8002000238C1815F837
:10C7D000017BE4B2013309F804709FB284B20131E5
:10C7E000A7423180F2D3ABEB000BFFF7A8FF5FEA63
:10C7F0000B4003D116E000BFFFF7A1FF49F048FD51
:10C8000080B9BAF80000B8F8001032880844C0B205
:10C81000AAF80000501A30800020A8F80000FFF7A6
:10C820008EFFC5E701B0BDE8F08F10B586B00C46AD
:10C8300000F062F8D4E90001CDE90001D4F89800D5
:10C84000A18B0290A07FADF80C10042141EA1010DA
:10C85000218C8DF80E0040F6B870C2F20000ADF8E1
:10C860000F10383069462FF010FF06B010BD0000E1
:10C8700070B582B0042106888DF800104FF6FE7165
:10C88000ADF802100021019166B100F108046D4677
:10C890002846214636F0A1FC30B9013E300404F1AF
:10C8A000B004F5D1002402E0204628F0CFF920465C
:10C8B00002B070BD0288B02301FB030300208A424E
:10C8C00088BF03F10800704710B5144640F6B872EF
:10C8D000C2F2000245F6B413D25A6FF35F2111433E
:10C8E000012200F07BF928B10146204628F03DF9ED
:10C8F000002010BD172010BDB0B586B00C4640F624
:10C90000B871C2F2000168462FF019FF9DF81400BB
:10C9100080B96D46BDF80C00A18B884207D028462F
:10C920002FF005FF9DF814000028F3D002E06846C0
:10C930002FF0E6FE06B0B0BD80B503888B429CBFE9
:10C94000172080BDB02301FB030191F8263043F38B
:10C95000030000284FF017000DD403F00F0C012343
:10C9600003FA0CF313F0C20F08BF80BD0831104664
:10C9700028F0FBF8002080BD70B5044640F6B87082
:10C98000C2F2000038302FF0E4FE00B170BD2588FF
:10C99000002DFBD004F12606314611F81E090007D0
:10C9A00004D02046FFF741FF0028EFD1013D2804C5
:10C9B00006F1B006F0D1E9E7B0B50C4601391F2900
:10C9C00084BF0720B0BD0521054630F0EBF80028F4
:10C9D00012BF0D202C800020B0BD00002DE9F04FCB
:10C9E00087B040F6B875C2F200050446684629468D
:10C9F0002FF0A5FE9DF8140018B100204FF0000A9A
:10CA00005AE045F6D04005EB000945F660504FF07E
:10CA1000000AE84605EB000B002700BF2046414610
:10CA2000052200F099F818B106464FF0010A05E01A
:10CA30002046FFF71DFF0646002842D0304628F06A
:10CA400005F9DDE90001C6E9000106F122000BF05D
:10CA50006BFBBDF80C000299B0839DF80E00C6F880
:10CA6000981025F0FB01084340F0040530462946A4
:10CA700027F0ACFFB07F00F0F0000130B07748F055
:10CA800091FBB060BDF80F0031463084484601226A
:10CA900009F0C1FD58460021324608F055FC4046D9
:10CAA00001372FF044FE9DF814000028B6D0B9B22B
:10CAB0000020202988BF01205FEACA7108BF002832
:10CAC00002D02046FFF758FF07B0BDE8F08F10B541
:10CAD000044640F6B870C2F20000217900F5BF406C
:10CAE000206036F02FFB00B110BD2046BDE810409D
:10CAF000AFF300802DE9F0410446006800B340F632
:10CB0000B875C2F2000545F67876A95BAF194FF00B
:10CB1000B00801FB0871B030083100BF88422060C6
:10CB20000CD2217936F00EFB50B9A85B216800FBCE
:10CB3000087201F1B00002F10801EFE70020206067
:10CB4000BDE8F08110B50446002020602046227127
:10CB5000FFF7BDFF204610BD70B582B006888DF886
:10CB600000204FF6FE72ADF80220019166B100F18F
:10CB700008046D462846214636F02FFB28B9013EB1
:10CB8000300404F1B004F5D10024204602B070BD99
:10CB900070B582B00B7A022B05D0012B02D10B8825
:10CBA000002102E000214FF6FE7306888DF8002078
:10CBB000ADF8023001916EB100F108046D4600BF7E
:10CBC0002846214636F009FB28B9013E300404F11D
:10CBD000B004F5D10024204602B070BD70B582B01B
:10CBE000068800248DF80020ADF80210019476B17B
:10CBF00000F108046D4600BF2846214636F0EDFAE4
:10CC000028B9013E300404F1B004F5D100242046D7
:10CC100002B070BD2DE9F041044620200D46208071
:10CC2000002000216218B031B1F5B05F5063F9D136
:10CC3000082741F2086800BFE619304629462FF060
:10CC4000D1FB304628F002F8B0374745F4D12046F2
:10CC5000BDE8F08110B582B0044690F846C090F867
:10CC60004720B0F8443046F25470C0F2060024A1C8
:10CC7000CDF800C029F0F7FD607F80B148F092FA4E
:10CC8000216A081A00F5C03000F5D460B0F1FF3F0A
:10CC900005DC94F83E0040F0010084F83E0094F872
:10CCA000470038B10138C1B284F84700B1FA81F0C9
:10CCB000400900E0002094F8461039B10139CAB2A9
:10CCC00084F84610B2FA82F149090843B4F84410D6
:10CCD00021B101390A04A4F8441001D030B908E0A8
:10CCE000607F08B1012060770020E064201D2FF0F4
:10CCF0004CF8204602B0BDE8104000F02CBD00BF4B
:10CD000072656764656C61792025642C2072657298
:10CD1000656764656C61792025642C2063686563B0
:10CD20006B64656C617920256400000010B50446D1
:10CD300090F846000138C0B2884238BF10BD46F2B4
:10CD400054700A4684F84610C0F2060003A129F088
:10CD50008AFD2046BDE8104000F0FDBC757064619E
:10CD6000746520636865636B64656C617920256414
:10CD700000000000B0B50446007F00F0FE00207700
:10CD80004FF02000A4F850003BB11C2B11D12046DD
:10CD90001E21FFF7CBFF1C250FE0F9B101F1310097
:10CDA00040F0010090F90000442820D0B0F1FF3F8E
:10CDB0001DDD0625201D2EF0E8FF05F0C5F904460F
:10CDC000284605F083FD034646F25470C0F2060083
:10CDD0000AA12246BDE8B04029F034BD46F22A40FF
:10CDE000C0F2070040F2462148F068FAFEE720460C
:10CDF00000F014F805461C28CDD0DBE752656365CA
:10CE00006976656420257320726573706F6E736533
:10CE10003A20257300000000FFF7ACBF2DE9F04178
:10CE200088B00E4691F931100446B1F1FF3F14DD90
:10CE30000DF10F023046042125F07DFD0546002846
:10CE400040F0D88004AA30460021102325F035FE9A
:10CE50000546002840F0CE8009E0062004F10C03CE
:10CE60008DF80F000FCB0DF1100C8CE80F0040F681
:10CE7000B876C2F2000648F67460304404A931F076
:10CE8000DEFEA8B145F22810304404A933F00AF8B8
:10CE900080B19DF80F00062800F2AB80DFE800F0BB
:10CEA0003F455D6104040400204600F0F5FBA0E06E
:10CEB00002259FE040F6B878C2F2000801A841467A
:10CEC0000022FFF73FFE019D6DB104AF01AE00BF30
:10CED0002846394634F088FE38B93046FFF70AFE56
:10CEE000019D002DF4D1172584E09DF80F20062A1E
:10CEF00000F27A80A5EB0800A0F5BF4048F6A33108
:10CF00000011CBF62E2100FB01F6DFE802F03E54C3
:10CF10002E2E04040400204600F0BEFB61E048F021
:10CF200041F920620320607763E045F2281004F1A4
:10CF30002C0506443046294632F0B4FF002858D06C
:10CF4000204600F0E1FB0120607748F02BF92062D9
:10CF50003046294618F0C6F94BE0204600F0D4FBD5
:10CF600047E0204600F0B5FD43E004A92846B7B2EB
:10CF700027F074FD202F21D345F22920C0F20700AD
:10CF8000592148F09BF900BFFEE7B0B2202838D203
:10CF9000C6F3CC00204490F8482006F007018A40F0
:10CFA00012061ED5802290F84C3022FA01F1194366
:10CFB00080F84C1015E0B0B220282AD206F0070005
:10CFC0006FF0800141FA00F0C6F3CC01214491F8E2
:10CFD000482091F84C300240184081F8482081F8F0
:10CFE0004C009DF80F2022B104A920462B4600F0EA
:10CFF00027FA0025204600F0AEFB284608B0BDE821
:10D00000F08145F22920C0F207004C2148F056F982
:10D01000FEE745F22920C0F20700592148F04EF9F9
:10D02000FEE7F0B585B040F6B8770D4604468805B2
:10D03000C2F2000714D548F6C86145F228107E18E0
:10D040003844314632F02EFF50B148F69C10384437
:10D050006A4631462FF06EFF10B1204600F054FBB7
:10D0600045F60850384433F0DBFF48B1680720D557
:10D0700045F6FD50385C30B1204600F00DFB18E05D
:10D08000002060641BE045F62950385C032802D17B
:10D09000204603210BE045F60850384434F0A0FA4E
:10D0A00038B147F67B40385C0430C1B2204600F00E
:10D0B00057FAE80703D02046012100F051FA05B0E5
:10D0C000F0BD00002DE9F04F9DB00DF14809054677
:10D0D00048462C21FBF7CDF84FF2BF0040F6B8765A
:10D0E000ADF86A00C2F2000645F60850304433F04D
:10D0F00097FF30B148F67460305A4FF6FE7188429F
:10D1000014D100240D27384605F0E0FB024646F214
:10D110005470C0F20600C3A129F094FB1FB114B1F2
:10D1200020462EF0F2FD1DB0BDE8F08F287FC0072D
:10D130007DD145F608503418204633F0BCFF20B9A5
:10D14000204634F04DFA0028DBD145F66450305CBF
:10D15000800709D445F64A50305C0007D1D045F627
:10D160004C50305A0228CCD1687F012802D195F862
:10D17000470078B105F14800002100BF425C1AB9B0
:10D18000032901F10101F9D1002A53D0E96C0068AB
:10D1900088424FD045F2D8103044252127F075F849
:10D1A0000446002800F02D81687F012845D195F8BC
:10D1B0004700002841D10EAF05F12C01384610225E
:10D1C000FBF730F8204600213A46102325F0ACFC4E
:10D1D0000746002840F0128145F6E06032182046EC
:10D1E0000321082325F0A0FC0746002840F0068113
:10D1F0000220687747F0D6FF286245F66450305C1D
:10D2000080075CD445F64A50305C000757D045F69D
:10D210004C50305A022852D148F67460304402A96A
:10D2200031F0EFFC002800F0DC800746E6E0002447
:10D23000052768E70024172765E7B5F85000202880
:10D2400033D140F6B878C2F2000802A84146002265
:10D25000FFF778FC0298002800F0858048F6A33795
:10D26000CBF62E274FF0800B0DF1080AA0EB08003B
:10D27000A0F5BF400011784381B2202968D2C0F3E5
:10D28000CC01294491F8483000F007022BFA02F251
:10D290001A4203D091F84C100A4262D05046FFF770
:10D2A00029FC02980028E1D15DE046F22A40C0F254
:10D2B00007004FF4F47148F001F800BFFEE748F6AC
:10D2C0007461725A45F6F06109F11000314418F0AA
:10D2D00092FC12AF384625F04BFC45F2D8104CF6C4
:10D2E00019633044C0F2000321463A46009526F007
:10D2F000B5FB0746002840F08180287F0EAB40F048
:10D30000010028770FCB05F10C0C8CE80F000020F2
:10D31000686445F66450305C000705D445F6EC407F
:10D320003044002108F0A2FC04F00EFF02AE0546D6
:10D330000EA9304632F064FF46F2547006F108033D
:10D34000C0F2060032A12A4629F07CFA0027DAE66C
:10D3500045F22920C0F207004C2147F0AFFF00BF83
:10D36000FEE7A5F85000B5F8501045F67870404437
:10D37000FFF7A0FA804634F0D3FC48B30EAF014665
:10D3800038461022FAF74EFF204600213A46102375
:10D3900025F0CAFB074688BB08F16002204603213E
:10D3A000082325F0C1FB074640BB47F0FBFED8F839
:10D3B0000810401A44F6D351C1F26201A0FB0101EA
:10D3C0008A092046062125F03DFB0746B0B914E73F
:10D3D00046F22A40C0F207004FF4FC7147F06EFF9E
:10D3E000FEE79DF8081045F6085009F11002304498
:10D3F00033F027FE074600283FF46BAF032F7FF47E
:10D4000082AE28460521FFF791FC03277BE600BF8B
:10D4100053656E7420257320666F72204455412039
:10D4200025730000506572666F726D4E6578745298
:10D430006567697374726174696F6E3A2025730051
:10D440002DE9F0419AB088460FA82C211D461746B9
:10D45000FAF70FFF4FF2BF0040F6B874ADF85E0068
:10D46000C2F2000445F2D8102044242126F00DFF1A
:10D4700000B304213A46064625F0D9FA0746A8B972
:10D48000304600214246102325F04EFB074668B97E
:10D49000A98B0FAF384625F096FB45F2D8102044F3
:10D4A00031463A4626F0CAFA074600B330462EF017
:10D4B0002CFC00E0032704F03DFE03ACAD8B0646D8
:10D4C0002046414632F09CFE3846083405F0FEF90D
:10D4D000074646F25470C0F2060017A132462B46AA
:10D4E0000094019729F08CF91AB0BDE8F08104F09E
:10D4F00021FE03AFAD8B06463846414632F080FE32
:10D5000046F254700837C0F2060003A132462B469B
:10D51000009729F097F9E7E753656E74202573208B
:10D52000666F72206368696C64202530347820440B
:10D53000554120257300000053656E74202573202B
:10D54000666F72206368696C6420253034782044EB
:10D550005541202573204572726F7220257300009B
:10D5600010B5044690F847000138C0B2884238BF71
:10D5700010BD46F254700A4684F84710C0F2060007
:10D5800003A129F070F92046BDE8104000F0E3B88F
:10D590007570646174652072656764656C6179207B
:10D5A0002564000070B50D4602390229044602D3F5
:10D5B000012D25D134E0207FC0070DD040F6B87092
:10D5C000C2F2000045F2D81108444CF61961C0F2CD
:10D5D0000001224626F078FB204600F095F804F181
:10D5E00048000021425C1AB9032901F10101F9D177
:10D5F00012B10020A064E064012D18BF032D0FD0EC
:10D60000042D2CD140F6B870C2F2000045F2281269
:10D6100004F12C01104432F045FC002818BF70BD05
:10D6200040F6B876C2F2000648F69060305CB8B1B9
:10D630000021254645F82C1F287448F68060696053
:10D64000A960E9603118284618F078FBA5F10800B8
:10D6500032F033FA68B1204600F0E2F868B170BDEC
:10D6600046F22A40C0F20700752147F027FE00BFAE
:10D67000FEE7A06A616AA06361630120607747F0FA
:10D6800091FD024645F22810304429462262BDE849
:10D69000704017F027BE000010B584B0044640F675
:10D6A000B870C2F2000048F67461084401A931F074
:10D6B00017FBD0B9BDF806100120022928BF2AF0B7
:10D6C000CDFAB4F84410013989B281420DD3A4F8DF
:10D6D0004400204600F03FF8B4F8442046F254706D
:10D6E000C0F2060002A129F0BEF804B010BD00BFD0
:10D6F00075706461746520726572656764656C61DC
:10D700007920256400000000B0B50446407F40F653
:10D71000B8750228C2F200050CD1207FC00709D0DD
:10D7200045F2D8104CF619612844C0F20001224697
:10D7300026F0CAFA94F83E200020607745F22810BF
:10D7400002F0FE02284404F12C0184F83E20BDE8DA
:10D75000B04017F01DBE406C38B140F6B870C2F250
:10D7600000002830052101F030BB40F6B870C2F24D
:10D7700000002830052101F03FBB000070B588B0E3
:10D78000044608460D4632F076F908B107203CE021
:10D7900004F12406304632F090F928B93046294683
:10D7A0000822FAF7BAFD78B32868696801ADC4E9C0
:10D7B00009012846314632F0DDF946F2547005F190
:10D7C0000802C0F2060012A129F03CF840F6B87039
:10D7D000C2F2000045F2281104F12C05461830462B
:10D7E000294632F05FFB78B12046FFF78DFFA06A33
:10D7F000616AA06301206163607747F0D3FC206217
:10D800003046294617F06EFD002008B070BD00BFFD
:10D8100053657420445541204949443A20257300FA
:10D82000F0B58FB00646807F40F6B8778DF83700A8
:10D8300006F12C05C2F2000745F250300DF1370415
:10D840003844294600220023009434F0E7FA0446C5
:10D8500058B1204605F03AF8024646F25470C0F23C
:10D86000060013A128F0CCFF1EE09DF83700B17F21
:10D8700088420BD0B0778DF83800012607F13800C8
:10D880000EAA01AB082100962FF08AF801AE3046AF
:10D89000294632F0B5FC46F2547006F10802C0F297
:10D8A000060008A128F0CEFF20460FB0F0BD00BF53
:10D8B00047656E6572617465204455413A20257351
:10D8C0000000000047656E65726174656420445510
:10D8D000413A2025730000002DE9F04381B0044651
:10D8E00040F6B870C2F200001546091A013AA1F5D7
:10D8F000BF41012A48F6A3324FEA2111CBF62E226E
:10D9000001FB02F629D8B2B2202A5FD2C6F3CC01BD
:10D9100004EB0108474617F8481F06F0070901FA0B
:10D9200009F31B0619D5B4F8503093420AD145F2D9
:10D93000D81108444CF61961C0F20001224626F0C5
:10D94000C3F939786FF0800098F84C2040FA09F05C
:10D9500001401040397088F84C00022D24D2A06C90
:10D96000E16C884207D1012005212AF05DF90146CA
:10D970002046FFF7DBF9B0B2202830D2C6F3CC0244
:10D98000224406F00700802192F84830C140194334
:10D9900092F84C7082F848106FF0800141FA00F064
:10D9A000384082F84C000EE0032D0CD1B0B2202894
:10D9B0001DD2C6F3CC00204490F8480006F00701C1
:10D9C00088400006CBD501B0BDE8F08345F22920A0
:10D9D000C0F207004C2147F071FC00BFFEE745F2A2
:10D9E0002920C0F20700592147F068FCFEE745F204
:10D9F0002920C0F207004C2147F060FCFEE7000040
:10DA0000F0B587B000F124040546204632F055F801
:10DA1000B0BB05F1340021460822FAF77EFCF0B9CC
:10DA200040F6B87705F12C06C2F2000745F228103F
:10DA30003844314632F036FA88B12846FFF764FEA2
:10DA40002846FFF7EDFE50B90120687747F0AAFBA2
:10DA5000286245F228103844314617F043FC6D46E1
:10DA60002846214632F086F846F2547005F1080245
:10DA7000C0F2060003A128F0E5FE002060602060EF
:10DA800007B0F0BD436C6561726564204455412068
:10DA90004949443A2025730041F00201032918BF87
:10DAA000704740F6B871C2F2000145F664528A5CD4
:10DAB00092070CD445F64A528A5C120706D045F606
:10DAC0004C52895A022908BFFFF7E6BD7047FFF79D
:10DAD000E3BD10B50446FFF717FEA07F0130A07725
