:020000040000FA
:1080000070540120D9800000E180000099A1000097
:10801000E58000008D92000015BD0000000000000A
:1080200000000000000000000000000021F2050038
:10803000ED8000000000000061FE050089FF0500E2
:108040008D83040089BC0000A5BC000031BD000088
:108050007DBA0500F3800000F380000093BA0500AC
:10806000F3800000A9500400D1500400FB5004002C
:1080700025510400F3800000F3800000DDBC000007
:10808000F9BC0000F3800000F3800000A9BA0500ED
:10809000A74C0400F3800000F3800000F380000090
:1080A000F3800000F3800000F3800000F380000004
:1080B000C1BC0000F3800000F3800000F3800000EA
:1080C00045950000DFF80CD000F008FD004800479F
:1080D000B1980400705401200648804706480047C4
:1080E000FEE7FEE7FEE7FEE7FEE7FEE7FEE7FEE768
:1080F000FEE7FEE7F1B80000C58000002DE9F05F63
:108100000546002092469B46884606468146402406
:108110001BE0284641464746224600F0A0FB534656
:108120005A46C01A914110D311461846224600F013
:1081300087FB2D1A67EB01084F46224601200021DC
:1081400000F07EFB17EB00094E41201EA4F1010454
:10815000DFDC484631462A464346BDE8F09F000032
:10816000004870473821060010B50446FFF7F8FFB5
:108170000068005D00F0010010BD000038B5D0E9D6
:108180000221491E01EB410102EBC1014268C1EB32
:10819000011102EB81010268C1EB011102EB8102C6
:1081A000D0E9043101EB410103EB81013023A1F55A
:1081B000527191FBF3F4174D6C4302EBC41291FB27
:1081C000F3F403FB141100921A2902DB124B1A4438
:1081D00000920C2291FBF2F3104C6343009C04EBE1
:1081E000C313009391FBF2F302FB13110C4A08E056
:1081F000491E40F2A324535C6343009C04EBC31369
:1082000000930029F4DC0146684600F051FB009819
:1082100038BD00003F0C0F008051010067C2030011
:108220003C21060010B5431A934209D283188818DE
:1082300003E010F8011D03F8011D521EF9D210BD14
:1082400040EA01039B0703D009E008C9121F08C0D8
:10825000042AFAD203E011F8013B00F8013B521E58
:10826000F9D210BDD2B201E000F8012B491EFBD2B9
:1082700070470022F6E710B513460A460446194631
:10828000FFF7F0FF204610BD421E12F8013F002B01
:10829000FBD111F8013B02F8013B002BF9D17047EB
:1082A00030B505462A460B4612F8010B13F8014B70
:1082B00008B1A042F8D01CB1002802D06D1CF1E733
:1082C000284630BD10B5044604E00B7800F8013BA9
:1082D00003B1491C521EF8D2204610BDCAB2401E3E
:1082E00010F8011F8A4202D00029F9D100207047FE
:1082F000421C10F8011B0029FBD1801A704710B5F1
:10830000002200E0521C835C8C5CA34201D1002B54
:10831000F8D1D8B2E1B2401A10BD30B50446002001
:10832000034600E05B1C934203D2E05CCD5C401B43
:10833000F8D030BD034611F8012B00F8012B002ABC
:10834000F9D11846704730B505460020034600E0D5
:108350005B1C934205D2EC5CC85C201A01D1002C56
:10836000F6D130BD10B54843044659F067FE0028E9
:1083700005D00021002C02D0641E0155FAE710BD83
:108380000FB400B58DB010A909900B9000914FF07B
:10839000FF300A9000200C90054806900548079091
:1083A0006A4609A80F9900F0DDFA0DB05DF814FBDC
:1083B000818900009F8900002DE9FF5F1D464FF075
:1083C000FF3BD5E9014691465F464FF00008A96999
:1083D0007F1C01988847296A824688470028F6D181
:1083E000BAF1FF3F0CD024F4C064002E19DD600602
:1083F00014D5BAF12B0F09D0BAF12D0F0ED103E02D
:10840000584604B0BDE8F09F44F48064A9697F1C1D
:1084100001988847761E8246002E02DDBAF1300FA1
:1084200003D0B9F1000F26D032E0A969761E44F4DA
:1084300000747F1C019888478246002E05DDBAF142
:10844000780F06D0BAF1580F03D0B9F1000F10D051
:108450001EE0B9F1000F02D0B9F1100F18D1A969CF
:10846000761E24F400747F1C0198884782461020F1
:1084700002E0082000E00A20814609E008FB090824
:10848000A969761E44F400747F1C019888478246CF
:10849000002E05DD4946504600F050FA0028EDDA7E
:1084A000E96901988847A00502D46FF00100A8E7A8
:1084B000E00725D1600613D5600502D5C8F100009C
:1084C00000E0404629680A1D2A600968220501D596
:1084D000087015E0220701D5088011E008600FE060
:1084E0002868011D29600068210502D580F80080F8
:1084F00006E0210702D5A0F8008001E0C0F8008066
:1085000038467EE72DE9FE4F804681EA0300C00F22
:108510000C46009021F0004123F00045B8EB02002A
:10852000A94105D24046214690461C460B460246CC
:1085300023F00040104347D0270DC7F30A00C3F3D0
:108540000A510290401A019040286BDAC3F31300DD
:1085500040F4801B0098924620B10023D2EB030A1E
:1085600063EB0B0B01985946C0F14002504600F0F6
:1085700067F906460D4650465946019A00F07FF9C4
:1085800010EB08006141002487EA115284EAE77386
:108590001A4340D0009A62B3019A012A4FEA075267
:1085A00015DC001B61EB02014FF0004202EA0752AA
:1085B000CDE90042001C41F5801132462B4600F007
:1085C0000EFA03B0BDE8F08F40462146F9E7001BE4
:1085D00061EB0201001C41F5801300185B4120187B
:1085E000A2F5001747EB030140EAD570B6196D41BB
:1085F00011E06D084FEA360645EAC0754FEA0752AA
:10860000001B61EB0201001C41F5801149084FEA93
:1086100030000019514132462B4603B0BDE8F04FFF
:1086200000F0CEB90098012240000023D0EB0202F6
:1086300063EBE073009821464FEAE074B8EB00006A
:1086400061EB0401E9E783F000435BE781F000415F
:1086500058E72DE9FE4F81EA030404F0004421F0BD
:10866000004100944FF0000B23F0004350EA010456
:108670005ED052EA03045BD0C3F30A54C1F30A5537
:108680002C44A4F2F3340194A0FB0254C1F313016F
:1086900041F48011C3F3130343F4801301FB02443C
:1086A00000FB034E840A970A44EA815447EA835741
:1086B000A4FB076802958D0A05FB07854FEA932CFA
:1086C00004FB0C542705029D4FEA065847EA16376B
:1086D000B5EB08056EEB070C870E920E47EA811783
:1086E00042EA8312A7FB0201B6EB0B0164EB000424
:1086F0002B0D43EA0C335E1844EB1C50DA4651460E
:10870000E7FB0201C5F313044FEA0B3343EA1453AA
:108710004FEA0432019C43EA0603A4F10C040294DC
:10872000009CCDE900B400F05AF903B0BDE8F08F29
:1087300000200146F9E72DE9F04D81EA030404F039
:10874000004B21F0004514464FF0000A23F0004191
:1087500050EA050220D054EA01021DD0C5F30A57A1
:108760000246C5F31303C1F31300C1F30A5640F4E4
:10877000801543F48013A7EB0608101BD64608F2B9
:10878000FD3873EB050002D308F1010801E09218EF
:108790005B41B8F1000F03DA00200146BDE8F08D1F
:1087A00000204FF48011064684460EE0171B73EB41
:1087B000050705D3121B63EB050306434CEA010CC6
:1087C00049084FEA300092185B4150EA0107EDD1A9
:1087D00052EA030012D082EA040083EA050108434A
:1087E00005D0101BAB4106D20122002306E0002277
:1087F0004FF0004302E06FF0010253101AEB060045
:108800004CEB085110EB0A0041EB0B01BDE8F04DB9
:1088100000F0D6B830B50B460146002020220124D6
:1088200009E021FA02F59D4205D303FA02F5491B3E
:1088300004FA02F52844151EA2F10102F1DC30BD54
:10884000202A04DB203A00FA02F100207047914010
:10885000C2F1200320FA03F3194390407047202A05
:1088600004DB203A21FA02F00021704721FA02F3DA
:10887000D040C2F120029140084319467047202A97
:1088800006DBCB17203A41FA02F043EAE07306E038
:1088900041FA02F3D040C2F1200291400843194648
:1088A00070470000014900F003B800007003002089
:1088B00010B500683C22B0FBF2F302FB1303B0FBDF
:1088C000F2F00B60B0FBF2F302FB1303B0FBF2F02B
:1088D00018224B60B0FBF2F302FB1303B0FBF2F083
:1088E000021D8B600723B2FBF3F403FB142280000C
:1088F00040F2B55300F66C308A61B0FBF3F2B0FB86
:10890000F3F403FB1400443280084A61C8613B2839
:1089100002D3920700D0401C0022074C13460A6184
:10892000E25C824203D8801A5B1C0B61F8E7401CB2
:10893000C860084610BD0000482106003A2800D251
:10894000303820F02002412A01D3A2F137008842BA
:1089500001D34FF0FF307047026811441378016073
:1089600018467047D16004495161044911620021E1
:108970001161114600F0C4B85989000069810000F6
:10898000426842B1016811F8013B23B1521EC0E9AF
:108990000012184670470121C160881E7047426866
:1089A0005AB1C368016843B983688B4205D0491E38
:1089B000521CC0E90012002070474FF0FF30704792
:1089C00010B5141E73F1000408DA401C41F10001D7
:1089D00092185B411A4301D120F0010010BD2DE92E
:1089E000F04D92469B4611B1B1FA81F202E0B0FA25
:1089F00080F220329046FFF723FF04460F4640EAFC
:108A00000A0041EA0B0153465A46084313D0114667
:108A100053EA010019D0C8F140025046FFF71FFF8A
:108A200005460E46504659464246FFF709FF0843A1
:108A300005D0012004E020463946BDE8F08D002035
:108A4000054346EAE0762C4337430A986305E40A77
:108A5000A0EB08000022FD0A44EA47540A3002D580
:108A600000200146E9E7010510196941DDE90845E3
:108A700000196941BDE8F04DA2E7C1F30A52C1F304
:108A8000130140F2FF3341F480119A4202DA0020D0
:108A90000146704740F233439A42A2F2334202DC6D
:108AA0005242FFF7DCBEFFF7CBBE000030B5041E1C
:108AB00071F1000404DB4FF00044404264EB01011B
:108AC000141E73F1000405DB1C464FF000435242B4
:108AD00063EB0403994208BF904230BD064C074D3A
:108AE00006E0E06840F0010394E80700984710347E
:108AF000AC42F6D3FFF7EAFAF47D0700147E0700D4
:108B00002DE9F34F8BB04FF0000801F10C000C463B
:108B10004FF0010B46460DF1080A019062690121F0
:108B200001989047051E2DD0252D2CD0216A88470D
:108B3000C0B16269012101989047216A88470028E5
:108B4000F7D1411E62690198904700E0761CA16947
:108B50000B988847216A88470028F7D1E1690B986C
:108B60008847DBE7A1690B9888470746A84201D1EF
:108B7000761CD3E7E1690B9888477F1C02D1B8F1D6
:108B8000000F6FD046E1002762693D4639460198E3
:108B900090472A2804D16269012101989047012554
:108BA000DFF884926269012101989047A0F13001B9
:108BB0000A290AD24F45E5DC07EB870100EB4107A4
:108BC000303FDFD445F01005ECE7E90601D46FF043
:108BD00000476C280AD04C2814D0682815D06A2881
:108BE0000DD074281CD07A281AD01DE062690121AA
:108BF000019890476C2802D045F0040514E045F038
:108C000002050DE045F020050AE0626901210198A6
:108C10009047682802D045F0080505E045F4006556
:108C20006269012101989047C4E9015765283DD048
:108C300019DC58287AD00CDC452837D004DC2528EC
:108C400026D0412831D131E046282FD047282CD1D9
:108C50002CE05B2877D0612828D063287CD064285A
:108C600023D15AE0D0E06F2848D008DC66281DD018
:108C700067281BD0692821D06E2816D127E07028DC
:108C800045D0732868D0752847D078280DD14DE09D
:108C9000A1690B988847054625283FF469AFE1692B
:108CA0000B9888476D1C3FF46AAFB3E023466A46D1
:108CB0006FF001000B99AFF300809EE045F040009B
:108CC0006060A80723464FF0000236D43EE0E80774
:108CD0007FF447AF2068011D21600068290501D598
:108CE00006701BE7290701D5068017E7A90703D5FA
:108CF000F117C0E9006111E706600FE745F0400099
:108D00006060A80723464FF0080216D41EE040F624
:108D10000E0125EA0100606016E045F04000606049
:108D2000A80723464FF00A0207D40FE045F04000A1
:108D30006060A80708D5234610226FF001000B9948
:108D4000AFF3008059E007E0234610226FF00100E6
:108D50000B99FFF731FB50E04FF000094F464B46AF
:108D6000632802D05B2806D040E0E80601D4012049
:108D7000A06001273AE062690121019890475E28CE
:108D800005D14FF001096269494601989047216970
:108D900039B900210A46534643F82120491C0829C5
:108DA000FADBB0B3216969B9C11700EBD162531185
:108DB0000AEB830122F01F02821A01200B68904007
:108DC00003430B6062690121019890475D28E8D157
:108DD000B9F1000F09D00020514651F82020D243AC
:108DE00041F82020401C0828F7DB02AB2246009700
:108DF0006FF001000B99AFF3008000280CDA401CE3
:108E000008D1BBF1000F05D04FF0FF300DB0BDE829
:108E1000F08FFFE74046F9E7E90701D108F10108C3
:108E200006444FF0000B79E6CCCCCC0C70B58C1816
:108E300010F8015B15F0070301D110F8013B2A116E
:108E400006D110F8012B03E010F8016B01F8016B5B
:108E50005B1EF9D12B0705D40023521E0DD401F857
:108E6000013BFAE710F8013BCB1A921C03E013F820
:108E7000015B01F8015B521EF9D5A142D8D3002055
:108E800070BDB0B540F26E60C2F20000007800B173
:108E9000B0BD40F2A035C2F2000505F130030FCBA2
:108EA00040F23024C2F200040FC440F20420C2F2A7
:108EB000000005F14004013021461022FFF7B2F90D
:108EC00040F21520C2F20000013021461022FFF7C7
:108ED000A9F905F150030FCB40F24025C2F200057D
:108EE0000FC540F26D60C2F2000001240470022040
:108EF00055F0E8F94BF21840C2F200000470B0BD22
:108F00002DE9F047ADF50E7D054676A800F1350850
:108F10002DA81221FFF7ADF90DF19C0A504618213A
:108F2000FFF7A7F942F25410C0F20600D0E9001290
:108F300000892491ADF8980040F2A160C2F20000CF
:108F400001210170BCA0259251F059F947F6750630
:108F50000024C0F2070604AF2A5D3846314658F0B7
:108F600095FB384658F068FB01341E2CF4D10A20DA
:108F700059F09AF82878142816D00B2824D00728FE
:108F800036D1687880B3012832D1A87880BBE878E0
:108F900063282DD1287901282AD1687940BBA87986
:108FA000FF2825D1032024E0687808BBA878F8B909
:108FB000E8780D281CD12879D0B96879C0B9A8798A
:108FC000FF2815D10C2014E0687888B9A87878B902
:108FD000E8780B280CD1287950B9687940B9A8797C
:108FE000FF2805D10B2004E0A878002800F0ED80D0
:108FF0000720297A40F65432C2F200021070A1B163
:10900000012921D0022940F0D9802DAC20462946E3
:109010001322FFF707F94CF6E230C2F20000008895
:109020002146002253F0E6F8CBE024AC601C294630
:109030000922FFF7F7F84CF6E230C2F2000001888F
:10904000204652F05FFFBCE0504629461922FFF748
:10905000E9F84CF6E230C2F2000042F26C1176AD53
:10906000B0F80090C0F2060128465F22FFF7DAF858
:1090700076A058F0E1FA47F675060024C0F207061C
:1090800056AF00BF1AF804203846314658F0FEFAB1
:10909000384658F0D1FA01341B2CF3D105F11600F3
:1090A00027A90922FFF7BEF80020C8F80400C8F875
:1090B0000000DDF8B100DDF8AD10C8F81100C8F807
:1090C0000D10681C052100F0EFF88DF8DE01000A94
:1090D0008DF8DF014FEA19208DF8E801A9F10300AE
:1090E00000EB906101F0C001401A8DF8E991403029
:1090F0008DF8EC01DDF8E60140F2DC12C2F200026C
:10910000906011203E2132AB05F11204CDE901310E
:10911000039040F2F41040F2042136AEC2F2000097
:10912000C2F200012346009652F03EFD2046314631
:109130003E22FFF777F832AA07CA8AAB07C346F286
:10914000BC514FF6FF720120C0F206012B5C0130CA
:1091500083EA020707F00F0731F8177092B287EA27
:10916000121297B202F00F0282EA131231F81220A3
:109170005C2882EA1712E9D147F67504D04300272C
:10918000C0F2070456AEADF8340200BFEA5D3046C7
:10919000214658F07BFA304658F04EFA01375F2FDF
:1091A000F4D147F25760C0F2070058F045FA76A9AB
:1091B00002205F223BF026F829A000E02EA058F004
:1091C0003BFA0DF50E7DBDE8F087E878632820D0E6
:1091D00015287FF40DAF287928B96879052802D1C0
:1091E000A879FF2823D0287928B96879082802D1DE
:1091F000A879FF281DD0287900287FF4F9AE687976
:1092000007287FF4F5AEA879FF287FF4F1AE0A2095
:10921000EFE6287962287FF4EBAE687900287FF4C6
:10922000E7AEA879FF287FF4E3AE0620E1E604204C
:10923000DFE60520DDE600BF436865636B5F4465DC
:109240006D616E645F547970653A00006F62697396
:109250005F74696D655F64617461203D200000008A
:10926000434F4D4D414E442053454E54204D45549F
:10927000455221210A0D00004F42495320434F44DB
:1092800045204552524F52210A0D000001A050F0D6
:10929000B6BF00BF4275734661756C745F48616EFE
:1092A000646C6572000000002DE9F043A1B0064631
:1092B00030A00F4658F0C0F9B7B347F67508C0F2B2
:1092C00007080DF1040935463C4600BF15F8012B8F
:1092D0004846414658F0DAF9484658F0ADF9013CA5
:1092E000F4D10A2058F0E0FE0FB346F2BC504FF61E
:1092F000FF71C0F2060000BF16F8012B013F82EAA1
:10930000010303F00F0330F8133089B283EA11111F
:109310008BB201F00F0181EA121130F8111081EACD
:109320001311E9D1CE4303E00A2058F0BDFE002618
:1093300013A0ADF8026058F07FF947F67504C0F24B
:10934000070401ADF2B22846214658F09FF928469D
:1093500058F072F99DF803202846214658F096F9F6
:10936000284658F069F90A2058F09EFEB0B221B0A4
:10937000BDE8F0834352435F427566663D000000DE
:109380004352433D0000000070B584B00021022824
:109390000291019101D90520A9E00424C4F28004BE
:1093A0002168002821F003012160216821F48071E7
:1093B000216000F09580012847D12068BC2520F469
:1093C0000070C4F220052060A868002620F4800008
:1093D000A86002960298012800F28280206840F47A
:1093E000807020600396039800094A2808D800BFBF
:1093F00000BF0398013003900398B0F5966FF7D340
:10940000286800F040512068B1F1805F65D020F4F9
:1094100080702060039603980009182808D800BFC0
:1094200000BF0398013003900398B0F5C87FF7D3CD
:1094300001F061FC01900198022851D0029801309E
:10944000029002980228C9D34AE02068BC2540F463
:109450000070C4F220052060A868002640F4800057
:10946000A8600296029801283AD800BF206840F40C
:10947000807020600396039800094A2808D800BF2E
:1094800000BF0398013003900398B0F5966FF7D3AF
:10949000286800F040512068B1F1805F1DD020F4B1
:1094A00080702060039603980009182808D800BF30
:1094B00000BF0398013003900398B0F5C87FF7D33D
:1094C00001F019FC01900198022809D0029801309E
:1094D000029002980228C9D302E040F00300206005
:1094E0003EF0A9FC02F0F0F900F06CF8002004B0A6
:1094F00070BD000070B540F66A4440F26E6544F2FB
:109500007C36C2F20004C2F20005C2F2010600BFBE
:1095100021782878012909D1022807D8306838B184
:1095200000210222002357F0FBFB01E0022804D8AF
:109530004FF47A7055F0DEFFEAE70020BDE8704096
:1095400056F014B80420C4F220004168C90708BFCF
:109550007047016841F0010101604068C00707D110
:109560004AF2DC60C2F20000006810B1004700BFA0
:10957000FEE770474EF28410CEF200000121016038
:10958000BFF34F8F0020BFF36F8FC4F2200001683C
:1095900021F002010160416841F001014160704722
:1095A0000020C4F22000416841F0010141600168DF
:1095B00041F0020101604EF20410CEF200000121E0
:1095C0000160704780B500F0CBFD022888BF80BDE8
:1095D00008A10BA251F8201052F8200040F210020E
:1095E000C2F20002116040F20C01C2F200010860F8
:1095F00080BD00BFA7970000ED97000053980000C2
:109600000D960000759600000197000010B582B01D
:109610000190019800282BD040F21004C2F20004FF
:10962000019801380190216840F2E730884701989D
:1096300000281AD000BF00BF00BF00BF00BF00BF9E
:1096400000BF00BF00BF00BF00BF00BF00BF00BF22
:1096500000BF00BF00BF00BF00BF00BF00BF00BF12
:1096600000BF00BF00BF00BF00BF01980028D7D1D6
:1096700002B010BD10B582B001900198002800F032
:109680003C8040F21004C2F2000400BF019801388F
:109690000190216840F2E730884700BF00BF00BF5B
:1096A00000BF0198002824D000BF00BF00BF00BF4A
:1096B00000BF00BF00BF00BF00BF00BF00BF00BFB2
:1096C00000BF00BF00BF00BF00BF00BF00BF00BFA2
:1096D00000BF00BF00BF00BF00BF00BF00BF00BF92
:1096E00000BF00BF00BF00BF00BF00BF00BF00BF82
:1096F00000BF019800287FF4C9AF02B010BD000080
:1097000010B582B001900198002800F04A8040F224
:109710001004C2F2000400BF0198013801902168D2
:1097200040F2E730884700BF00BF00BF00BF00BF66
:1097300000BF00BF00BF00BF00BF00BF00BF00BF31
:1097400000BF00BF00BF00BF00BF0198002824D0A9
:1097500000BF00BF00BF00BF00BF00BF00BF00BF11
:1097600000BF00BF00BF00BF00BF00BF00BF00BF01
:1097700000BF00BF00BF00BF00BF00BF00BF00BFF1
:1097800000BF00BF00BF00BF00BF00BF00BF00BFE1
:1097900000BF00BF00BF00BF00BF019800287FF4DA
:1097A000BBAF02B010BD81B00090401E00BF00BF33
:1097B00000BF00BF00BF00BF00BF00BF00D113E06B
:1097C00000BF00BF00BF00BF00BF00BF00BF00BFA1
:1097D00000BF00BF00BF00BF00BF00BF00BF00BF91
:1097E00000BF00BF00BFE0E701B0704781B000904C
:1097F000401E00BF00BF00BF00BF00BF00BF00BFD2
:1098000000BF00BF00BF00BF00BF00BF00BF00BF60
:1098100000BF00BF00BF00BF00BF00BF00BF00BF50
:1098200000D114E000BF00BF00BF00BF00BF00BFF9
:1098300000BF00BF00BF00BF00BF00BF00BF00BF30
:1098400000BF00BF00BF00BF00BF00BFD0E701B036
:10985000704781B00090401E00BF00BF00BF00BF36
:1098600000BF00BF00BF00BF00BF00BF00BF00BF00
:1098700000BF00BF00BF00BF00BF00BF00BF00BFF0
:1098800000BF00BF00BF00BF00BF00BF00BF00BFE0
:1098900000BF00BF00BF00BF00BF00BF00BF00BFD0
:1098A00000BF00BF00BF00D114E000BF00BF00BF79
:1098B00000BF00BF00BF00BF00BF00BF00BF00BFB0
:1098C00000BF00BF00BF00BF00BF00BF00BF00BFA0
:1098D00000BFC0E701B070472DE9F04FA9B042F2D8
:1098E0002C50C2F2010000680128C0F2518242F2FD
:1098F0003050C2F201000078002840F0498240F266
:109900009F30C2F200000078002840F0418240F20F
:10991000A260C2F200000078002840F0398240F2D4
:109920005850C2F20000006801A90022002456F03D
:10993000D3FE012840F02C8242F26010C0F20600F3
:10994000D0E90012007A029DBDF804608DF8140081
:1099500040F2DC50CDE906440391049250F06EFCD5
:10996000002800F0118240F2DC510446FEF781FC31
:10997000204629463246FEF755FCB4F801000004A3
:1099800000BAB0F5BB6F0ED843F24031C2F201010C
:10999000097801F0FE01022908D12089000400BAEB
:1099A00000F10C0804E04FF0000808E000F10408A2
:1099B0001FFA88F0B0F5004F88BF08F500481FFA7D
:1099C00088F909AE0FF2E45130464A4657F05EFE80
:1099D000304657F031FEE07A002850D04CF6E6339E
:1099E00000F10C0200210C25C2F200030C2600BF7E
:1099F000675D1D4415F80C5C0136AF42B5B208BF77
:109A00000131AA42F4D8090639D0A92840F0BC8116
:109A1000E07C002840F0B881A07C0027204400F1C1
:109A2000130103A80D220023009754F027FD0FF225
:109A3000A85057F001FEA07CB9F1150FA0F101006C
:109A4000A0740AD3A9F101001321132263185B78D3
:109A50000132635491B28842F8DCA8F10105AFB23B
:109A6000042FA7F10200C0F072810122002101231E
:109A7000A65C01339AB290423144F9DC68E120449B
:109A8000B0F80D0047F67B01000402BA4FF6FF70F4
:109A9000824240F66C40C2F2000009AE14BF026080
:109AA0000268C0F20701304657F0F0FD304657F02B
:109AB000C3FDE07A01190A7BA12A4ED140F26E6102
:109AC00040F29C38C2F20001C2F200080F7898F808
:109AD0000030002F50D1002B4ED10F3043F2EC213B
:109AE000C2F201010122C0B20A70215A40F22002E2
:109AF000090409BAA1F26C71C2F20002204451615A
:109B0000817840F2302C01391161C17840F2042390
:109B1000D160417940F215279160817940F2402669
:109B20005160C179C2F2000C11600021C2F2000341
:109B3000C2F20007C2F200064418257A5A180CF83F
:109B40000150257E5570227E7D186A7094F8282079
:109B5000725401311029EFD15CE0237BC13B032B10
:109B600000F28280DFE813F00400E100E800EE007C
:109B700004F10801C120E2E03A46002F18BF01229B
:109B800083F001031A4367D140F26C62C2F2000213
:109B90001278002A60D00F3043F2EC21C2F20101AA
:109BA0000122C0B20A70215A40F22002090409BA07
:109BB000A1F26C71C2F2000220445161817840F23E
:109BC000302C01391161C17840F20423D160417910
:109BD00040F215279160817940F240265160C179A9
:109BE000C2F2000C11600021C2F20003C2F20007B1
:109BF000C2F2000645182C7A5A180CF801402C7E47
:109C000054702A7E7C18627095F8282072540131B5
:109C10001029EFD140F22000C2F20000FEF7AEFAA8
:109C20004CF62851C2F20001086040F65C40C2F2D6
:109C300000000021016040F29D30C2F200000122CC
:109C400002704BF21840C2F20000017040F26D60E9
:109C5000C2F20000027003E0032F04BF032008706B
:109C6000012088F800008FE0A2F19303032B40F25B
:109C70009280A2F1A303092B00F29B80DFE813F08E
:109C80000A00AA0084008400840084008400C200CA
:109C900084001A01C87B40F6734840F67441C2F252
:109CA0000008C2F2000188F80000087040F2A060CD
:109CB000C2F200000121017047F62300C0F2070044
:109CC00057F0BAFC98F80020E17A02EBC2020A448D
:109CD00001F110001032824220D940F68C2947F65B
:109CE0007505C2F20009C0F2070509AE0746225CFD
:109CF000401A484400F8102C3046294657F0C6FC5C
:109D0000304657F099FC98F80020E17A02EBC20245
:109D100001370A44B8B210328242E8D80A2058F01B
:109D2000C3F9022054F0CEFA2EE0B7A050F067FA43
:109D3000207B04F1080102E004F10801C32001F0D6
:109D400049FC21E047F20960C0F207001AE0002157
:109D50002154A9A057F070FC28040FD047F67505D0
:109D6000C0F2070509AE14F8012B3046294657F01A
:109D70008DFC304657F060FC013FF4D147F257604C
:109D8000C0F2070057F058FC029808B155F0C2F92C
:109D900029B0BDE8F08FDFE803F002B9BEC8217C2E
:109DA00040F26850C2F200008171002102F03CF8DC
:109DB000EAE7092AE8D147F26450C0F2070057F0F9
:109DC0003BFCE27A1119A9EB020201F10F001831F4
:109DD000273AE7E006ADB4F8096004F10D01284622
:109DE0000922FEF71FFA30BA6FF00A0202EB1040A8
:109DF00004F11601002782B228460023009754F090
:109E00003DFBC1E740F29E32C2F20002012717700B
:109E1000497E002900F0A88040F6714940F6704A5A
:109E200040F6724B04F11D054FF00008C2F2000924
:109E3000C2F2000AC2F2000B0026285C61280EDD87
:109E400062281BD063281BD0642827D16FA057F04D
:109E5000F3FB9BF8000000BB8BF800701EE098B18C
:109E600002281BD147F29850C0F2070057F0E4FBDC
:109E70009AF8000088B98AF800700FE06BA000E043
:109E800066A057F0D9FB09E047F2A850C0F20700DE
:109E900057F0D2FB99F8000048B10126E07A08F1AA
:109EA00001080119497E1E358845C6D342E089F86C
:109EB0000070F3E740F26E60C2F200000078032801
:109EC0007FF462AF5EA057F0B7FB5FEA084011D0A5
:109ED00047F67508C0F2070809AF264616F8012BA9
:109EE0003846414657F0D2FB384657F0A5FBB9F14A
:109EF0000109F3D147F25760C0F2070057F09CFB0D
:109F0000E07A20440F30FEF7FBFF3DE701202421DB
:109F10000022012325E040F26550C2F20000012139
:109F20000170012054F03CFA2EE747F2FD40C0F2E8
:109F3000070027E7012E17D147F27C50C0F2070037
:109F400057F07AFB40F66C4040F26861C2F20000C4
:109F5000C2F2000100880B884AF2D852C2F2000215
:109F60001A2154F02BF80FE7218909AD090409BA29
:109F7000081A47F27E31A0F11202C0F2070128460A
:109F800057F084FB284657F057FB227A677AE37A2A
:109F900047EA02221919D21A4FF6E57301F10F00B0
:109FA00018311A4492B251F02DFEEDE60A0D70728E
:109FB0006F63657373436F6D6D616E64200A0D642A
:109FC0006174614C656E203D202564202F20313561
:109FD00030300A0D0000000042726F6164636173EB
:109FE0007420626C6F636B2061646A7573746D6555
:109FF0006E74210A0D000000454C53446174615B8E
:10A000005D203D200A0D0000736574007470635F6D
:10A010004D4B5F7570646174650A0D0048414E5F79
:10A02000616B5F7570646174650A0D0048414E5F35
:10A0300067756B5F7570646174650A0D00000000E0
:10A040000A0D64653A0A0D0010B504463DF0E9FDBD
:10A050001321B1EB104F14D0000C15281FD0142879
:10A060001CBF012010BD4FF2040C4FF6F873C0F274
:10A070000F0CC0F20F030CF57F61181D4FF47F2207
:10A080001AE04FF2040C4FF6F873C0F2070CC0F25E
:10A0900007030CF57F61181D4FF4FE220CE04FF210
:10A0A00000024FF6F471C0F21F02C0F21F0102F16C
:10A0B000040C0B1D01F108001B6823600068606040
:10A0C0000868A060DCF80000E060106820610020F3
:10A0D00010BD0000B8B10168013114D0B0F805100E
:10A0E00089B140180FD000BF016801310BD0017950
:10A0F0007E2908BF7047B0F80510002918BF014439
:10A1000000290846F0D100207047B020C4F220009A
:10A110000168890702D40168C90702D1016889076B
:10A1200001D401207047006800F001007047000072
:10A13000B0B586B001AD044628461421FEF799F863
:10A140002846FFF781FF059840B100BF0168A14292
:10A1500004D0FFF7BFFF0028F8D1002006B0B0BD43
:10A160000420C4F280000168890704BF0020704702
:10A17000016801F00301032904D10168C90502D473
:10A18000FEE700BFFEE70168890551BF01200068B6
:10A19000022101EA10207047042071460842EFF3C3
:10A1A0000980EFF30880714648F012BC70474CF606
:10A1B0001041C2F200010A681043086070474CF673
:10A1C0001041C2F200010A6822EA000008607047EC
:10A1D000827BC179032A05D0022A05D0012A1ED12B
:10A1E000113002E0173000E014300139012988BF36
:10A1F00070479021C4F2200100780A6860F30302DE
:10A200000A600A6800F00F0022F0F00242EA001231
:10A210000A600A6822F4706242EA0020086070470F
:10A22000827BC179032A05D0022A05D0012A1ED1DA
:10A23000113002E0173000E014300139012988BFE5
:10A2400070479821C4F2200100780A6860F3030285
:10A250000A600A6800F00F0022F0F00242EA0012E1
:10A260000A600A6822F4706242EA002008607047BF
:10A27000827BC179032A05D0022A05D0012A20D188
:10A28000113002E0173000E014300139012988BF95
:10A2900070479021C4F2200100780A6800F00F0096
:10A2A00022F4702242EA00420A600A6822F4700234
:10A2B00042EA00520A600A6822F0706242EA0060D4
:10A2C00008607047827BC179032A05D0022A05D035
:10A2D000012A14D1113002E0173000E014300139A6
:10A2E000012988BF70470021C4F2200100780A6864
:10A2F00000F00F0022F4706242EA0020086070470C
:10A30000B0B514460D46FFF713FF48B135B100BF95
:10A3100010F8011B013D04F8011BF9D10020B0BD6C
:10A320000220B0BD827BC179032A05D0022A05D064
:10A33000012A20D1113002E0173000E01430013939
:10A34000012988BF70479821C4F2200100780A686B
:10A3500000F0070022F4E02242EA00420A600A68A4
:10A3600022F4E00242EA00520A600A6822F0E06247
:10A3700042EA006008607047827BC179032A05D0F9
:10A38000022A05D0012A1ED1113002E0173000E068
:10A3900014300139012988BF70479421C4F220018B
:10A3A00000780A6860F303020A600A6800F00F0090
:10A3B00022F0F00242EA00120A600A6822F4706297
:10A3C00042EA0020086070472DE9F04F81B0002874
:10A3D00060D00446054600BF286801305AD028796D
:10A3E0007E2808D0B5F80500002818BF28440028AA
:10A3F0000546F1D14EE04FF6FF7B04F1C50904F1AB
:10A40000600804F1480A04F1300604F11807CAF2A2
:10A41000FE5B00BF286858440A2835D8DFE800F002
:10A42000060A12161A343434340E1E002046FFF782
:10A43000CFFE29E03846FFF71BFF25E04846FFF72F
:10A4400041FF21E03046FFF7EBFE1DE05046FFF7ED
:10A4500093FF19E04046FFF765FF15E094F8E4002C
:10A460000138012810D82422C4F22002B4F8E500F3
:10A47000516A6FF39F2041F48031516211686FF38C
:10A48000194141EA004010602846FFF723FE0546C7
:10A490000028BFD101B0BDE8F08FF0B585B04CF613
:10A4A0002045C2F2000500206C4628602046142199
:10A4B000FDF7DFFE2046FFF7C7FD009845F6570180
:10A4C000B1EB104F27D10199B1F5803F23D1039C07
:10A4D000B4F5805F1FD80021C5F657014A1C0299C8
:10A4E00080EA020666EA010030B30127C5F63C2780
:10A4F000B94221D000F093F8B8B1B4F5805F0DD81F
:10A5000002986FF001014140314302D0791C88422A
:10A5100004D1022011E000F082F830B12868411E19
:10A5200002290BD3032802D00BE00320286042F25B
:10A530000000C2F2010002E0012028600498FFF749
:10A5400043FF05B0F0BD42890021B1EB123F21D19C
:10A55000C289B1EB123F1DD1428A0021B1EB123FFB
:10A5600018D1C28AB1EB123F14D1418B0022B2EB59
:10A57000113F0FD10189B1F5616F0BD88189B1F518
:10A58000616F07D8018AB1F5616F03D8818AB1F58F
:10A59000616F02D9012108467047018BB1F5616FE7
:10A5A0004FF001019CBFC1710021F4E70522C5F6FF
:10A5B00001220F23914202F1050208BF07239142B5
:10A5C000817A4FF4FA6C08BF4FF4616C8B4219D357
:10A5D000417B8B4216D3417C8B4213D3017D8B424E
:10A5E00010D3C17D8B420DD301898C450AD3B0F8BD
:10A5F0000B108C4506D3B0F80F108C4502D3418A5E
:10A600008C4502D2012108467047B0F815108C45E0
:10A610004FF0010122BFC17181730021F3E72DE9E1
:10A62000F04393B042F20009C2F2010943F2D4416F
:10A63000C0F2070148464FF4D072FDF7F3FD40F633
:10A640005838C2F2000840463DF048FB18B10120DE
:10A6500013B0BDE8F08398F82000FF28F7D0012858
:10A660003FD198F823C098F826E0B8F82420B8F82D
:10A670002130D9F81060D9F81450D9F80070D9F801
:10A680000440D9F80800D9F80C100F9010910D97DC
:10A69000129511960DAE30460E94ADF83C30ADF8E3
:10A6A0003F208DF83EC08DF841E000F0B7FA01215F
:10A6B000C5F601213046FFF779FF0028C7D10D9874
:10A6C0000E990F9A109B119F129EC9F81460C9F839
:10A6D0001070C9F80C30C9F80820C9F80410C9F87E
:10A6E000000098F83000FF28B1D0012841D198F837
:10A6F00033C098F836E0B8F83420B8F83130D9F8DB
:10A700002870D9F82C60D9F81850D9F81C40D9F81D
:10A710002000D9F824100F9010910D9512960DAECF
:10A72000304611970E94ADF83C30ADF83F208DF8CF
:10A730003EC08DF841E000F071FA0120C5F601201D
:10A74000411C3046FFF732FF00287FF480AF0D98A0
:10A750000E990F9A109B119F129EC9F82C60C9F890
:10A760002870C9F82430C9F82020C9F81C10C9F88D
:10A77000180098F84000FF283FF469AF012841D144
:10A7800098F843C098F846E0B8F84420B8F841304B
:10A79000D9F84070D9F84460D9F83050D9F834402D
:10A7A000D9F83800D9F83C100F9010910D951296F9
:10A7B0000DAE304611970E94ADF83C30ADF83F2009
:10A7C0008DF83EC08DF841E000F028FA0120C5F672
:10A7D0000120811C3046FFF7E9FE00287FF437AFE7
:10A7E0000D980E990F9A109B119F129EC9F8446004
:10A7F000C9F84070C9F83C30C9F83820C9F834109D
:10A80000C9F8300098F85000FF283FF420AF012825
:10A8100041D198F853C098F856E0B8F85420B8F8E9
:10A820005130D9F85870D9F85C60D9F84850D9F847
:10A830004C40D9F85000D9F854100F9010910D9554
:10A8400012960DAE304611970E94ADF83C30ADF82F
:10A850003F208DF83EC08DF841E000F0DFF9012087
:10A86000C5F60120C11C3046FFF7A0FE00287FF48A
:10A87000EEAE0D980E990F9A109B119F129EC9F87B
:10A880005C60C9F85870C9F85430C9F85020C9F84C
:10A890004C10C9F8480098F86000FF283FF4D7AE84
:10A8A000012841D198F863C098F866E0B8F86420B0
:10A8B000B8F86130D9F87070D9F87460D9F8605080
:10A8C000D9F86440D9F86800D9F86C100F9010914D
:10A8D0000D9512960DAE304611970E94ADF83C30A2
:10A8E000ADF83F208DF83EC08DF841E000F096F9BC
:10A8F0000120C5F60120011D3046FFF757FE002854
:10A900007FF4A5AE0D980E990F9A109B119F129E81
:10A91000C9F87460C9F87070C9F86C30C9F868205B
:10A92000C9F86410C9F8600098F87000FF283FF477
:10A930008EAE01285ED1B8F87110B8F87300B8F87F
:10A940007920B8F87B30D9F878C0D9F87CE0D9F80C
:10A950008050D9F88440D9F88870D9F88C600B966B
:10A960000A9709940895CDF81CE0CDF818C0D9F8DD
:10A9700090701E1A0C97BDF82870ADF824207F1A2D
:10A980007743521A97FBF2F7ADF82630C319ADF8AA
:10A990002A30BDF82C30BDF83070ADF820105B1AAD
:10A9A000791A7343714393FBF2F391FBF2F1ADF823
:10A9B000220003440844ADF8320006A8ADF82E305A
:10A9C000FFF7C1FD00287FF442AE06980799089A68
:10A9D000099B0A9F0B9EC9F88C60C9F88870C9F85A
:10A9E0008430C9F88020C9F87C10C9F878000C9828
:10A9F000C9F8900098F88000FF283FF428AE01289D
:10AA00005ED1B8F88110B8F88300B8F889E0B8F8DA
:10AA10008B30D9F894C0D9F89860D9F89C50D9F8FF
:10AA2000A040D9F8A470D9F8A8200B920A970994ED
:10AA300008950796CDF818C0D9F8AC201F1A0C92CB
:10AA4000BDF82820AEEB0106521A7A4392FBF6F2CB
:10AA5000ADF826300244ADF82A20BDF82C20BDF810
:10AA60003030ADF82010521A591A7A43794392FBCC
:10AA7000F6F291FBF6F1ADF8220002440844ADF87D
:10AA8000320006A8ADF824E0ADF82E20FFF75BFDFC
:10AA900000287FF4DCAD06980799089A099B0A9F65
:10AAA0000B9EC9F8A860C9F8A470C9F8A030C9F80D
:10AAB0009C20C9F89810C9F894000C98C9F8AC000B
:10AAC00098F89000FF283FF4C2AD012841D1B8F8B2
:10AAD0009110D9F8B0000490B9F8B40099F8B620F4
:10AAE000ADF814008DF8162099F8B7008DF80F0016
:10AAF00099F8B8008DF80E00B9F8B920ADF80C201F
:10AB0000ADF80C1041B100220120B2EB113F8DF8DD
:10AB10000E007FF49DAD02E001283FF698AD0120C4
:10AB20008DF80F000498C9F8B000BDF814009DF826
:10AB30001610A9F8B40089F8B6109DF80F0089F82E
:10AB4000B7009DF80E0089F8B800BDF80C00A9F810
:10AB5000B90098F8A000FF283FF479AD012828D16A
:10AB600009F1BB06B8F8A14001A831460722FDF75C
:10AB700059FB99F8C2008DF80300B9F8C300ADF88D
:10AB800000000020B0EB143F4FF00100ADF8004092
:10AB90007FF45EAD8DF8030001A930460722FDF772
:10ABA00041FB9DF8030089F8C200BDF80000A9F838
:10ABB000C30098F8B000FF283FF449AD01282BD11D
:10ABC00098F8B36098F8B670B8F8B440B8F8B150D7
:10ABD00009F1C5080DF13409484641461822FDF730
:10ABE00021FB4846ADF83C50ADF83F408DF83E6043
:10ABF0008DF8417000F012F80120C5F6012000F137
:10AC000009014846FFF7D2FC00287FF420AD0DA9CA
:10AC100040461822FDF706FB002019E52DE9F04F0C
:10AC200084B00289B0F80B40B0F80F50A2EB040BCF
:10AC3000428A817A90F80DE02E1BB0F81550121B55
:10AC4000A1EB0E0102922A1B40F2040C039249B2BE
:10AC50006422C5F6012C4A4301680CF1010548F253
:10AC60001F584FF00F0AA9424FF00005C5F2EB182C
:10AC700001AF0DF10109019608BF4FF0070A00BFAF
:10AC8000B6F1FF3F4FF0FF3402FB06F6C8BF0124C8
:10AC9000664396FBFBF6614506F1320686FB0863C8
:10ACA0004FEA631606EBD37303FB04E647F825600F
:10ACB00004D1002E48BF103608E000BF002E03D498
:10ACC0005645C8BF564601E0002600BF022D09F8D0
:10ACD000056004D007EB85035E680135D0E79DF879
:10ACE00001109DF802209DF8033041740275C37570
:10ACF00004B0BDE8F08FBC20C4F22000016811F060
:10AD0000405F05D1016801F0E061B1F1806F0BD0C7
:10AD1000016801F04051B1F1405F07D1016801F0D5
:10AD2000E061B1F1E06F01D102207047016811F0DC
:10AD3000405F05D1016801F0E061B1F1806F14D18D
:10AD4000016801F04051B1F1405F05D1016801F0A7
:10AD5000E061B1F1E06F08D1006800F04050B0F15F
:10AD6000805018BF0120400070470320704700004A
:10AD700040F26E64C2F200042078032802D300205F
:10AD800054F0F4FB01204FF0FF3153F089FD00280F
:10AD9000F2D000F001F8EFE72DE9F047A2B0622011
:10ADA00042F23254C0F2FF20C2F201040190207836
:10ADB0000721C6F20031009108B93CF0E9FD43F2E9
:10ADC0004039C2F2010999F8000040F26E6A00F0C1
:10ADD000FE01207840F66A480229C2F2000AC2F257
:10ADE000000808BF012800F08F8043F2EC24C2F273
:10ADF000010422789AF80010012A08BF012902D024
:10AE0000022926D04CE00228FAD198F80000012847
:10AE1000F6D156A056F010FC40F66C40C2F200008D
:10AE20000088002602AA112101238DF8086001255F
:10AE300053F0C4F899F80000022100F0FE00022847
:10AE400026708AF8001004D14AF2D450C2F20000F1
:10AE5000057040F26454C2F20004207800BB99F8F7
:10AE6000000000F0FE0002281AD144A04FF0C7F9FC
:10AE70000120207047F2154102ACC0F207012046C4
:10AE80000022012356F002FC204656F0D5FB4CF67A
:10AE9000E230C2F2000000886946012251F0AAF9AE
:10AEA00040F29D30C2F20000007801280AD14BF236
:10AEB0001844C2F20004207820B9022053F002FAAC
:10AEC000012020709AF8000002281AD399F8000097
:10AED00000F0FE00022814D14AF2D456C2F2000655
:10AEE000307870B998F8000001280AD102AC27A187
:10AEF0002046002256F0CAFB204656F09DFB01205A
:10AF0000307022B0BDE8F0879AF8001000297FF475
:10AF10006CAF98F8001001297FF467AF0FA04FF0D5
:10AF20006EF947F28860C0F207004FF068F940F20E
:10AF30007060C2F2000090E8EE00008B0DF1080C8A
:10AF40008CE86E00ADF8200002AA01200121262322
:10AF5000079753F033F80220207046E7726567695F
:10AF6000737465723232323232320D0061636B209B
:10AF7000436F7272656E740A0D0000004D41415FAF
:10AF8000666C6167203D2031000000000A61636B40
:10AF900020666C6167203D2564203D3D3D3D3D3D83
:10AFA0003D3D3D3D3D3D3D3D3D3D3D0A0D000000EB
:10AFB0002DE9F0413424C4F22004E06940F2FF712D
:10AFC00020F08070E061206A40F20C0720F0006001
:10AFD0002062206849F20226884300254FF00208CB
:10AFE000C2F20007C0F20106206000BF206820F016
:10AFF000E06028432060206A40F000702062206AF0
:10B0000020F040502062206A68F39F702062206A1E
:10B0100040F080602062396801208847206A20F073
:10B0200080602062606A6FF39F40B04204D8B5F13F
:10B03000E06F05F18075D9D1206A4FF4C83140F036
:10B0400080702062E069012261F31100E061216AF1
:10B05000052060F307012162216A62F30921216260
:10B06000216A022241F440612162216A41F4405187
:10B070002162216A62F38F312162216A60F31241F9
:10B080002162216A41F400212162216A60F3165194
:10B090002162206A40F000602062206A20F40000F3
:10B0A0002062E06940F08070E061BDE8F08100005E
:10B0B0002DE9F041A0B0C8B140F2A03547F67508BF
:10B0C00004464FF47127C2F20005C0F207086E462D
:10B0D00037F8020B414605F8010BC2B2304656F074
:10B0E000D5FA304656F0A8FA013CF1D120B0BDE8BF
:10B0F000F081F0B581B01426CAF24006776817F0E7
:10B100007F0506D004463BF0EBFF2846A0473EF003
:10B1100043FA27F07F00306001B0F0BDAFF300804C
:10B1200080B52022CAF24002126812065CBF0220DB
:10B1300080BD03468AB20720194600F00BF90120B2
:10B1400080BD00000C20CAF24000C168C90358BF8E
:10B1500070474FF4807100BF826902F00602062A30
:10B1600001D00160F8E7C268D203F5D4704780B51A
:10B170004FF4807000F038F84FF4006000F034F8BD
:10B1800000F00AFA4EF20010CEF200004FF48011E7
:10B1900001604FF48070BDE8804000F0A3B8AFF3C9
:10B1A000008010B51C23CAF240031A68920703D42A
:10B1B0000220086000240AE0024601200860586866
:10B1C0001146C0F30B440120224600F09FF82046B0
:10B1D00010BDAFF300800C21CAF240010A6822F0D2
:10B1E000FF021044086070470C2120F0FF00CAF2F3
:10B1F00040010860704700F001B800000C20CAF25E
:10B200004000816901F00601062908BF70474FF42C
:10B21000807100BF0160826902F00602062AF9D13E
:10B220007047B0B5054600200C4600F01BF9B4F19C
:10B23000011F18D34FF4004029464FF4004200F09C
:10B24000E7F8012000F00EF905F500414FF4004049
:10B250004FF4004200F0DCF8022000F003F905F59D
:10B260008031A2B211E0B4F5004F17D94FF400407D
:10B2700029464FF4004200F0CBF8012000F0F2F82C
:10B2800084F4004005F5004182B24FF4004000F024
:10B29000BFF80020BDE8B04000F0E4B8A2B24FF41F
:10B2A00000402946BDE8B04000F0B2B8AFF30080DE
:10B2B0001421CAF24001086070471020CAF2400011
:10B2C000016821F07F0101607047FFF7F6BFAFF31F
:10B2D00000801020CAF2400000686FF35F207047C2
:10B2E000AFF300801021CAF240010A6840F2FF1358
:10B2F0009A431043086070471020CAF2400001686A
:10B3000041F07F0101607047FFF7F6BF70B514464A
:10B310000D4606463BF0E4FEFFF714FF0420CAF298
:10B32000400040F8045C016866F30D0101600168AB
:10B3300089B241EA04410160416821F003014160A2
:10B34000816841F4803181603EF026F9BDE87040AB
:10B35000FFF7F8BE70B514460D4606463BF0C0FE3A
:10B36000FFF7F0FE0420CAF2400040F8045C0168D8
:10B3700043F6FF729143314401600168012289B2B2
:10B3800041EA04410160416862F301014160816862
:10B3900041F4803181603EF0FFF8BDE87040FFF776
:10B3A000D1BEAFF300802020CAF240000068C0F395
:10B3B00007207047AFF3008070B50C460546D61CD9
:10B3C0003BF08EFEFFF7BEFE0420CAF2400040F8BC
:10B3D000044C016843F6FF72914341EA9501016014
:10B3E000016826F0030289B241EA02410160416826
:10B3F000022262F301014160816841F48031816081
:10B400003EF0CAF8BDE87040FFF79CBEAFF3008085
:10B4100070B50C460546D61C3BF062FEFFF792FE67
:10B420000420CAF2400040F8044C016843F6FF7261
:10B43000914341EA95010160016826F0030289B257
:10B4400041EA02410160416841F0030141608168C5
:10B4500041F4803181603EF09FF8BDE87040FFF715
:10B4600071BE000010B582B004460020009069460D
:10B470004FF489600422FFF79FFF9DF800309DF88C
:10B4800001209DF802109DF80300022C23F0030315
:10B4900005D0012C06D03CB100BE00BFFEE743F052
:10B4A000020301E043F001038DF805208DF806103A
:10B4B0008DF8070001A94FF4896004228DF804304B
:10B4C000FFF7A6FF02B010BD80B500F002F8C0B2D1
:10B4D00080BD2420CAF240000068C0F341007047DC
:10B4E000AFF3008010B51C23CAF240031A68D207DC
:10B4F00003D10220086000240AE00246012008600F
:10B5000018681146C0F30B4400202246FFF7FEFEE8
:10B51000204610BD2DE9F041DDF8188007464FF4B4
:10B5200000601C4615460E46FFF75EFE00F034F83C
:10B530004FF08070FFF758FEFFF719FE25B11FB1DD
:10B5400030462946FFF76DFE4FF40060FFF74CFED2
:10B5500000F022F84BF21C50C2F200000460C0F868
:10B560000480FFF7C9FE4FF00070FFF73DFE00F0CA
:10B5700003F80020BDE8F08180B500BFFFF713FF9E
:10B580000128FBD10120FFF726FE00BFFFF70BFFCC
:10B590000128FBD080BD00002420CAF2400000BF7B
:10B5A0000168C907FCD0704780B52023CAF2400368
:10B5B000D3F800C00123834003EA0C031B0604D028
:10B5C00092B2FFF7C7FE012080BD022080BDFFF7C9
:10B5D000EBBF00002DE9F04385B0054647F2096056
:10B5E000C0F207000C4656F027F82088E67800BA2B
:10B5F000C32D4FEA10471DD0C22D31D0C12D40F0D0
:10B60000DE8040F66340C2F200000121351902AC31
:10B610000170E91D20460922FCF704FEB81B1B3807
:10B6200005F11001002782B220460023009752F056
:10B6300025FFC4E03519E879022828D0012840F018
:10B64000BE80A84618F8080F012874D142F6601091
:10B65000C2F201004FF4FA61FCF70BFE00246FE028
:10B660003519E87902283ED0012829D0002840F079
:10B67000A680B81B4FF6EC71084482B242F6601007
:10B6800005F10901C2F20100FCF7CCFD43E0B81B53
:10B6900040F666464FF6EC71C2F200064418378851
:10B6A00042F66010C2F20100384405F10901A2B26D
:10B6B000FCF7B8FD3819308042A055F0BDFF7EE0A0
:10B6C000A94619F8080F40F666480128C2F200089A
:10B6D00055D142F66010C2F201004FF4FA61FCF756
:10B6E000C8FD00244DE0B81B40F666464FF6EC71ED
:10B6F000C2F200064418378842F66010C2F2010018
:10B70000384405F10901A2B2FCF78CFD38193080EC
:10B710003AA055F091FF40F66840C2F200000021C7
:10B72000018040F66440C2F2000001210170012056
:10B7300000F07CF843E040F66640C2F20000048866
:10B74000B81B4FF6EC71461842F66010C2F20100C9
:10B75000204405F10901B2B2FCF764FD40F66641F0
:10B76000A019C2F2000108801EA055F065FF40F646
:10B770006C40C2F200000088B32142461CE0B8F8D9
:10B780000040B81B4FF6EC71461842F66010C2F24A
:10B790000100204405F10901B2B2FCF743FDA019F4
:10B7A000A8F800001BA055F047FF40F66C40C2F21D
:10B7B00000000088B2214A46012352F0FFFB05B089
:10B7C000BDE8F0830A0D4333205472616E736D69D6
:10B7D000742053657420696E20666C617368212142
:10B7E000210A0D000A0D4333205472616E736D6996
:10B7F000742041434B21210A0D0000000A0D433201
:10B80000205472616E736D69742053657421210A2E
:10B810000D0000000A0D4332205472616E736D6991
:10B82000742041434B21210A0D000000B0B584B0C3
:10B830001C4904461BA001914168007A02918DF8D1
:10B840000C001BA055F0F8FE42F6601104EB44001A
:10B85000C2F201010A1812F8013C085C40F6684582
:10B8600040EA032440F66440C2F200000378C2F2CA
:10B87000000501330370288812F8022C08448DF863
:10B880000B2000F110014FF0000CA2B201A8002320
:10B89000CDF800C052F0F2FD28882044288004B082
:10B8A000B0BD00BF1400000D0000FF00000000004C
:10B8B0000A0D2D2D2D5365745F544F555F43322D66
:10B8C0002D2D0A0D0000000080B5FEF749FC43F65F
:10B8D0000951414344F60002032840F21800C0F227
:10B8E000E812C2F2000038BF02EB8122026080BD84
:10B8F00080B52420C4F2200001683F2262F30701D2
:10B900000160D0F8A01041F40041C0F8A010182048
:10B91000CAF2300040F2EF31016000F08CF900F023
:10B9200043F8FEF7BAFD0220FDF72EFD40F21400A9
:10B9300049F20001C2F20000C0F2D03101602420BF
:10B94000CCF20000016841F002010160D0F8001162
:10B9500041F00201C0F80011D0F8001241F00201DC
:10B96000C0F80012D0F8001341F00201C0F8001333
:10B97000BDE88040FFF71CBB012803D090B96FF0F1
:10B98000010001E06FF00200B021C4F220010A685A
:10B9900042F002020A600A6842F001020A600A6884
:10B9A000104008607047000070B586B090203424C5
:10B9B000C4F28000C4F22004D0F800C094F87810DB
:10B9C00001258DF8141094F8792001F088018DF884
:10B9D000132094F87A3052318DF8123094F87B00AD
:10B9E0008DF8110000F0F80006308DF8110002F01B
:10B9F000080032308DF8130003F0CF0020308DF8AE
:10BA000014108DF812009DF81400B12184F878000C
:10BA10009DF81300C4F2200184F879009DF812000B
:10BA200084F87A009DF8110084F87B0094F87C007B
:10BA30008DF810000A8800F0EF00ADF80E2094F8A1
:10BA40007F208DF80D2042F008028DF80D208DF832
:10BA500010009DF8100084F87C00BDF80E000880EE
:10BA60009DF80D0084F87F00A06E20F44060A06671
:10BA7000D4F890100CF0F0000A4665F383022028F9
:10BA800018BF41F00C02C4F890203CF0CAF8A16E37
:10BA900046F2C8530A4665F30922C0F214039842DD
:10BAA00018BF41F44072A266D4F8900040F2FF71D2
:10BAB00040F04050C4F890002068FA22884320608B
:10BAC0002068082120F0E0602060206843F2746E56
:10BAD00020F04050206094F86C00C0F2070E8DF802
:10BAE0000C0094F86D004FF0FF3C8DF80B0094F8BB
:10BAF0006E008DF80A0094F86F008DF809008DF83B
:10BB00000C10DE218DF80B1078218DF80A101B2106
:10BB100061F35F008DF809009DF80C0084F86C005B
:10BB20009DF80B0084F86D009DF80A0084F86E0003
:10BB30009DF8090084F86F0094F870008DF80800F3
:10BB400094F871008DF8070094F872008DF80600E3
:10BB500094F873008DF805008DF80820BB228DF84D
:10BB60000720C82261F35F008DF806208DF80500DC
:10BB70009DF8080084F870009DF8070084F87100B3
:10BB80009DF8060084F872009DF8050084F87300A3
:10BB9000D4F8900040F48070C4F89000D4F890007D
:10BBA00040F40040C4F89000E06F40F00200E0670D
:10BBB000E06F40F00100E067E06F20F00200E06716
:10BBC000002000BF0EEB0003D3E901435EF80050F4
:10BBD000C4F307220CFA02F2D1432E68E4B2A1406A
:10BBE00023EA020226EA0101A2400C301143242874
:10BBF0002960E7D143F2986E0020C0F2070E4FF0A3
:10BC0000FF3C00BF0EEB0003D3E901535EF8006078
:10BC1000C5F307240CFA04F4E2433168EDB2AA40FC
:10BC2000914323EA0402AA400C301143B428316046
:10BC3000E8D106B070BD2420C4F2200001683F2284
:10BC400062F307010160016840F2911262F3194149
:10BC500001600821C4F280010A6842F080020A6093
:10BC6000026842F400620260826942F4005282611A
:10BC700050F8042C42F0005240F8042C486B01228A
:10BC800062F31140486370470C20CAF27000012132
:10BC9000016043F24430C2F20100016809B10020A2
:10BCA000084770470C20CAF280000121016043F26E
:10BCB0004430C2F20100816809B101200847704791
:10BCC0000C20CAF2F0000121016043F24430C2F2BC
:10BCD0000100016909B10220084770470C20CAF22F
:10BCE000F4000121016043F24430C2F20100816995
:10BCF00009B10320084770470C20CAF2F80001215F
:10BD0000016043F24430C2F20100016A09B104202B
:10BD10000847704701A04EF072BA00BF55736167C3
:10BD2000654661756C745F48616E646C6572000095
:10BD300010B51420CAF290000121016043F2E050D6
:10BD4000C2F20100006810B1BDE81040004702A433
:10BD500020464EF054FAFBE777686174203F3F3F7E
:10BD60002000000070B582B040F2000E0025CAF23B
:10BD7000900E8DF80250ADF80050DEF80850ED0737
:10BD800017D10924C507CAF2900415D143F2E05235
:10BD9000C2F20102002616604EF20012CEF200023C
:10BDA0000826C2F88060BFF34F8F8022BFF36F8FE9
:10BDB00019E04FF0020C34E0069E4FF0010C86B300
:10BDC0008A422ED20125C4F80B5043F2E055C2F24C
:10BDD00001052E60C4F80F204EF20012CEF20002D0
:10BDE00008261660C022C6B200F0020042EA001027
:10BDF000C6F3800210431C2202EA560210438DF85B
:10BE00000400C4F81330CEF800109DF804004FF081
:10BE1000000C8EF80800BDF800009DF80210A1701B
:10BE20002080604602B070BDF0B581B040F6784623
:10BE3000C2F200060C460546082730464FF4712131
:10BE4000CAF230073BF09DFF304629462246FCF7F8
:10BE5000E9F900BF3868C005FCD401204FF4712116
:10BE60003BF04CFE3868C005FCD40020CAF220002C
:10BE7000016841F4407101603868C005FCD440F6A7
:10BE80007840C2F200004FF471213CF033F800BF5B
:10BE90003868C005FCD401B0F0BD00002DE9F043C6
:10BEA00085B0002A40F0BE801D460F46064653F07E
:10BEB000A5F84CF65058C2F20008D8F8109008F1D6
:10BEC0000C00814500F09E80D8F834000138C8F895
:10BED0003400D9E900014160086053F0E3F84C46B2
:10BEE00054F8080F07F10901A6F10A02FCF79AF9C4
:10BEF000C5F1640048F21F51C0EB0020C5F2EB1100
:10BF000080FB0101A6F10E00A0806842607548091F
:10BF100040F2AA1200EBD170E17DC2F20002127869
:10BF2000A07501F0FE00E0752046A27148F045FCC6
:10BF300018B1204648F031FC20BB204648F036FCC2
:10BF400030B342F2C450C2F201000078D0B102AD69
:10BF50002046294648F0FBFBD0B9049801286FD051
:10BF6000022815D1E81D00216A4600BF10F80139EA
:10BF7000535401310829F9D1684652F0DFFDB0F180
:10BF8000FF3F05DD99F81F0040F0010089F81F0010
:10BF9000204648F012FCB0B1204648F009FC90B1B0
:10BFA000204648F0F5FB70B142F2C85199F81F00E5
:10BFB000C2F201010A6840F0020089F81F00501C1B
:10BFC0000860C9F8180053F019F8414651F8040FF9
:10BFD000C9E90001C0F80490C86A8A6B0130C1F851
:10BFE00000908242C86238BFC8F83C0053F05AF84B
:10BFF00053F004F841F6A040C2F20100016841F498
:10C0000080410AE053F04EF852F0F8FF41F6A040AC
:10C01000C2F20100016841F40051016053F042F89E
:10C0200049F068FE40F67850C2F200000178013114
:10C03000CAB2042A88BF0021017005B0BDE8F083B0
:10C04000BDF8080052F0A4FD00289BD5A0E7000031
:10C0500010B582B04CF65054C2F200046169002958
:10C0600043D04FEA301008283CD8DFE800F019230D
:10C070002D3B053B3B3B0500A06901A900683DF055
:10C08000A2FB0198A1690022C1E9020252F0B6FFA9
:10C0900041F6A040C2F20100016841F480611CE059
:10C0A00052F0ACFF41F6A040C2F20100016841F439
:10C0B000807112E052F0A2FF41F6A040C2F20100EE
:10C0C000016841F4805108E052F098FF41F6A04029
:10C0D000C2F20100016841F40061016052F0E2FF28
:10C0E00049F008FE1020FEF76AF802B010BD00000B
:10C0F0002DE9F04182B042F65E17C2F2010738889E
:10C100000C46019210B342F65C18C2F20108B8F86E
:10C11000001042F65C020844C0B2814298BF4FF45E
:10C120008071091A019BC2F201028EB2104431469D
:10C130002246009355F0C6FA0546B0F1FF3F20DDD8
:10C14000B54223DA3888284438804BE042F65C0058
:10C150001346C2F201004FF48071224655F0B2FA44
:10C160000546B0F5807F31D242F65C10C2F2010084
:10C170000021018042F65600C2F201003D8001809C
:10C1800030E046F69C00C0F2070028E0FF2D25DCD9
:10C19000388842F65606C2F2010678B3002500BF81
:10C1A00000F075F849F012FC10BBB8F800003188B7
:10C1B0003A880844C0B2A8F80000501A3880358088
:10C1C00000F065F838880028EAD117E046F69C00B0
:10C1D000C0F20700214648F092FA05E016A0214679
:10C1E00048F08DFA00F053F8284602B0BDE8F0811F
:10C1F00049F013FE014617A048F081FA009B42F671
:10C200005C00C2F201004FF48071224655F05AFAE8
:10C21000002806DD054638800020A8F800003080A0
:10C22000E0E746F6BD00C0F207004FF4B07148F0F9
:10C23000E3FB00BFFEE700BF434C49206F757470FD
:10C2400075742060257360207472756E6361746507
:10C25000640000004661696C656420746F206F752E
:10C260007470757420434C493A2025730000000017
:10C27000B0B5084691B21C46154648F0A3FE10B171
:10C280006FF03B00B0BD04B125600020B0BD42F6A8
:10C290005600C2F20100018801B1704742F65C12FB
:10C2A00042F65E11C2F20102C2F20101128809884F
:10C2B000C2F580738B42B8BF19460B040180ECD0E5
:10C2C00042F65C00C2F20100104489B249F0EBBBB7
:10C2D0002DE9F04F81B000294CD042F65E1642F6AF
:10C2E0005C1A42F6560842F65C098B460546C2F2D5
:10C2F0000106C2F2010AC2F20108C2F2010900BF3E
:10C3000031881FFA8BF3C1F5807082B2934298BFD7
:10C310005846020418D0BAF8002000238C1815F8EB
:10C32000017BE4B2013309F804709FB284B2013199
:10C33000A7423180F2D3ABEB000BFFF7A8FF5FEA17
:10C340000B4003D116E000BFFFF7A1FF49F03EFB11
:10C3500080B9BAF80000B8F8001032880844C0B2BA
:10C36000AAF80000501A30800020A8F80000FFF75B
:10C370008EFFC5E701B0BDE8F08F10B586B00C4662
:10C3800000F062F8D4E90001CDE90001D4F898008A
:10C39000A18B0290A07FADF80C10042141EA10108F
:10C3A000218C8DF80E0040F64870C2F20000ADF806
:10C3B0000F10383069462FF026FF06B010BD000080
:10C3C00070B582B0042106888DF800104FF6FE711A
:10C3D000ADF802100021019166B100F108046D462C
:10C3E0002846214636F0B7FC30B9013E300404F14E
:10C3F000B004F5D1002402E0204628F0E5F92046FB
:10C4000002B070BD0288B02301FB030300208A4202
:10C4100088BF03F10800704710B5144640F6487213
:10C42000C2F2000245F6B413D25A6FF35F211143F2
:10C43000012200F07BF928B10146204628F053F98B
:10C44000002010BD172010BDB0B586B00C4640F6D8
:10C450004871C2F2000168462FF02FFF9DF81400CA
:10C4600080B96D46BDF80C00A18B884207D02846E4
:10C470002FF01BFF9DF814000028F3D002E068465F
:10C480002FF0FCFE06B0B0BD80B503888B429CBF88
:10C49000172080BDB02301FB030191F8263043F340
:10C4A000030000284FF017000DD403F00F0C0123F8
:10C4B00003FA0CF313F0C20F08BF80BD0831104619
:10C4C00028F011F9002080BD70B5044640F6487090
:10C4D000C2F2000038302FF0FAFE00B170BD25889E
:10C4E000002DFBD004F12606314611F81E09000785
:10C4F00004D02046FFF741FF0028EFD1013D28047A
:10C5000006F1B006F0D1E9E7B0B50C4601391F29B4
:10C5100084BF0720B0BD0521054630F001F9002891
:10C5200012BF0D202C800020B0BD00002DE9F04F7F
:10C5300087B040F64875C2F20005044668462946B1
:10C540002FF0BBFE9DF8140018B100204FF0000A38
:10C550005AE045F6D04005EB000945F660504FF033
:10C56000000AE84605EB000B002700BF20464146C5
:10C57000052200F099F818B106464FF0010A05E0CF
:10C580002046FFF71DFF0646002842D0304628F01F
:10C590001BF9DDE90001C6E9000106F122000BF0FC
:10C5A0006BFBBDF80C000299B0839DF80E00C6F835
:10C5B000981025F0FB01084340F004053046294659
:10C5C00027F0C2FFB07F00F0F0000130B07748F0F4
:10C5D00087F9B060BDF80F0031463084484601222B
:10C5E00009F0C1FD58460021324608F055FC40468E
:10C5F00001372FF05AFE9DF814000028B6D0B9B2CA
:10C600000020202988BF01205FEACA7108BF0028E6
:10C6100002D02046FFF758FF07B0BDE8F08F10B5F5
:10C62000044640F64870C2F20000217900F5BF4090
:10C63000206036F045FB00B110BD2046BDE810403B
:10C64000AFF300802DE9F0410446006800B340F6E6
:10C650004875C2F2000545F67876A95BAF194FF030
:10C66000B00801FB0871B030083100BF884220607B
:10C670000CD2217936F024FB50B9A85B216800FB6D
:10C68000087201F1B00002F10801EFE7002020601C
:10C69000BDE8F08110B504460020206020462271DC
:10C6A000FFF7BDFF204610BD70B582B006888DF83B
:10C6B00000204FF6FE72ADF80220019166B100F144
:10C6C00008046D462846214636F045FB28B9013E50
:10C6D000300404F1B004F5D10024204602B070BD4E
:10C6E00070B582B00B7A022B05D0012B02D10B88DA
:10C6F000002102E000214FF6FE7306888DF800202D
:10C70000ADF8023001916EB100F108046D4600BF32
:10C710002846214636F01FFB28B9013E300404F1BB
:10C72000B004F5D10024204602B070BD70B582B0CF
:10C73000068800248DF80020ADF80210019476B12F
:10C7400000F108046D4600BF2846214636F003FB81
:10C7500028B9013E300404F1B004F5D1002420468C
:10C7600002B070BD2DE9F041044620200D46208026
:10C77000002000216218B031B1F5B05F5063F9D1EB
:10C78000082741F2086800BFE619304629462FF015
:10C79000E7FB304628F018F8B0374745F4D120467B
:10C7A000BDE8F08110B582B0044690F846C090F81C
:10C7B0004720B0F8443045F26010C0F2060024A1D2
:10C7C000CDF800C029F00DFE607F80B148F088F8F8
:10C7D000216A081A00F5C03000F5D460B0F1FF3FBF
:10C7E00005DC94F83E0040F0010084F83E0094F827
:10C7F000470038B10138C1B284F84700B1FA81F07E
:10C80000400900E0002094F8461039B10139CAB25D
:10C8100084F84610B2FA82F149090843B4F844108A
:10C8200021B101390A04A4F8441001D030B908E05C
:10C83000607F08B1012060770020E064201D2FF0A8
:10C8400062F8204602B0BDE8104000F02CBD00BFE9
:10C8500072656764656C61792025642C207265724D
:10C86000656764656C61792025642C206368656365
:10C870006B64656C617920256400000010B5044686
:10C8800090F846000138C0B2884238BF10BD45F26A
:10C8900060100A4684F84610C0F2060003A129F091
:10C8A000A0FD2046BDE8104000F0FDBC757064613D
:10C8B000746520636865636B64656C6179202564C9
:10C8C00000000000B0B50446007F00F0FE002077B5
:10C8D0004FF02000A4F850003BB11C2B11D1204692
:10C8E0001E21FFF7CBFF1C250FE0F9B101F131004C
:10C8F00040F0010090F90000442820D0B0F1FF3F43
:10C900001DDD0625201D2EF0FEFF05F0C5F90446AD
:10C91000284605F083FD034645F26010C0F206008C
:10C920000AA12246BDE8B04029F04ABD44F6326073
:10C93000C0F2070040F2462148F05EF8FEE72046CC
:10C9400000F014F805461C28CDD0DBE7526563657E
:10C950006976656420257320726573706F6E7365E8
:10C960003A20257300000000FFF7ACBF2DE9F0412D
:10C9700088B00E4691F931100446B1F1FF3F14DD45
:10C980000DF10F023046042125F093FD05460028E5
:10C9900040F0D88004AA30460021102325F04BFE39
:10C9A0000546002840F0CE8009E0062004F10C0383
:10C9B0008DF80F000FCB0DF1100C8CE80F0040F636
:10C9C0004876C2F2000648F67460304404A931F09B
:10C9D000F4FEA8B145F22810304404A933F020F841
:10C9E00080B19DF80F00062800F2AB80DFE800F070
:10C9F0003F455D6104040400204600F0F5FBA0E023
:10CA000002259FE040F64878C2F2000801A841469E
:10CA10000022FFF73FFE019D6DB104AF01AE00BFE4
:10CA20002846394634F09EFE38B93046FFF70AFEF4
:10CA3000019D002DF4D1172584E09DF80F20062AD2
:10CA400000F27A80A5EB0800A0F5BF4048F6A331BC
:10CA50000011CBF62E2100FB01F6DFE802F03E5478
:10CA60002E2E04040400204600F0BEFB61E047F0D7
:10CA700037FF20620320607763E045F2281004F15D
:10CA80002C0506443046294632F0CAFF002858D00B
:10CA9000204600F0E1FB0120607747F021FF206293
:10CAA0003046294618F0DCF94BE0204600F0D4FB74
:10CAB00047E0204600F0B5FD43E004A92846B7B2A0
:10CAC00027F08AFD202F21D343F63140C0F2070022
:10CAD000592147F091FF00BFFEE7B0B2202838D2BD
:10CAE000C6F3CC00204490F8482006F007018A40A5
:10CAF00012061ED5802290F84C3022FA01F119431B
:10CB000080F84C1015E0B0B220282AD206F00700B9
:10CB10006FF0800141FA00F0C6F3CC01214491F896
:10CB2000482091F84C300240184081F8482081F8A4
:10CB30004C009DF80F2022B104A920462B4600F09E
:10CB400027FA0025204600F0AEFB284608B0BDE8D5
:10CB5000F08143F63140C0F207004C2147F04CFF12
:10CB6000FEE743F63140C0F20700592147F044FF89
:10CB7000FEE7F0B585B040F648770D4604468805D7
:10CB8000C2F2000714D548F6C86145F228107E1895
:10CB90003844314632F044FF50B148F69C103844D6
:10CBA0006A4631462FF084FF10B1204600F054FB56
:10CBB00045F60850384433F0F1FF48B1680720D5F6
:10CBC00045F6FD50385C30B1204600F00DFB18E012
:10CBD000002060641BE045F62950385C032802D130
:10CBE000204603210BE045F60850384434F0B6FAED
:10CBF00038B147F67B40385C0430C1B2204600F0C3
:10CC000057FAE80703D02046012100F051FA05B099
:10CC1000F0BD00002DE9F04F9DB00DF1480905462B
:10CC200048462C21FBF725FB4FF2BF0040F6487623
:10CC3000ADF86A00C2F2000645F60850304433F001
:10CC4000ADFF30B148F67460305A4FF6FE7188423D
:10CC500014D100240D27384605F0E0FB024645F2CA
:10CC60006010C0F20600C3A129F0AAFB1FB114B1E5
:10CC700020462EF008FE1DB0BDE8F08F287FC007CB
:10CC80007DD145F608503418204633F0D2FF20B944
:10CC9000204634F063FA0028DBD145F66450305C5E
:10CCA000800709D445F64A50305C0007D1D045F6DC
:10CCB0004C50305A0228CCD1687F012802D195F817
:10CCC000470078B105F14800002100BF425C1AB965
:10CCD000032901F10101F9D1002A53D0E96C006860
:10CCE00088424FD045F2D8103044252127F08BF8E8
:10CCF0000446002800F02D81687F012845D195F871
:10CD00004700002841D10EAF05F12C013846102212
:10CD1000FBF788FA204600213A46102325F0C2FC92
:10CD20000746002840F0128145F6E06032182046A0
:10CD30000321082325F0B6FC0746002840F00681B1
:10CD40000220687747F0CCFD286245F66450305CDD
:10CD500080075CD445F64A50305C000757D045F652
:10CD60004C50305A022852D148F67460304402A91F
:10CD700031F005FD002800F0DC800746E6E00024E5
:10CD8000052768E70024172765E7B5F85000202835
:10CD900033D140F64878C2F2000802A8414600228A
:10CDA000FFF778FC0298002800F0858048F6A3374A
:10CDB000CBF62E274FF0800B0DF1080AA0EB0800F0
:10CDC000A0F5BF400011784381B2202968D2C0F39A
:10CDD000CC01294491F8483000F007022BFA02F206
:10CDE0001A4203D091F84C100A4262D05046FFF725
:10CDF00029FC02980028E1D15DE044F63260C0F2DF
:10CE000007004FF4F47147F0F7FD00BFFEE748F666
:10CE10007461725A45F6F06109F11000314418F05E
:10CE2000A8FC12AF384625F061FC45F2D8104CF64C
:10CE300069133044C0F2000321463A46009526F0BB
:10CE4000CBFB0746002840F08180287F0EAB40F0E6
:10CE5000010028770FCB05F10C0C8CE80F000020A7
:10CE6000686445F66450305C000705D445F6EC4034
:10CE70003044002108F0A2FC04F00EFF02AE05468B
:10CE80000EA9304632F07AFF45F2601006F1080331
:10CE9000C0F2060032A12A4629F092FA0027DAE60B
:10CEA00043F63140C0F207004C2147F0A5FD00BF1A
:10CEB000FEE7A5F85000B5F8501045F678704044EC
:10CEC000FFF7A0FA804634F0E9FC48B30EAF014604
:10CED00038461022FBF7A6F9204600213A461023D7
:10CEE00025F0E0FB074688BB08F1600220460321DD
:10CEF000082325F0D7FB074640BB47F0F1FCD8F8E4
:10CF00000810401A44F6D351C1F26201A0FB01019E
:10CF10008A092046062125F053FB0746B0B914E7DD
:10CF200044F63260C0F207004FF4FC7147F064FD34
:10CF3000FEE79DF8081045F6085009F1100230444C
:10CF400033F03DFE074600283FF46BAF032F7FF41C
:10CF500082AE28460521FFF791FC03277BE600BF40
:10CF600053656E7420257320666F722044554120EE
:10CF700025730000506572666F726D4E657874524D
:10CF80006567697374726174696F6E3A2025730006
:10CF90002DE9F0419AB088460FA82C211D4617466E
:10CFA000FBF767F94FF2BF0040F64874ADF85E003A
:10CFB000C2F2000445F2D8102044242126F023FFB9
:10CFC00000B304213A46064625F0EFFA0746A8B911
:10CFD000304600214246102325F064FB074668B91D
:10CFE000A98B0FAF384625F0ACFB45F2D810204492
:10CFF00031463A4626F0E0FA074600B330462EF0B6
:10D0000042FC00E0032704F03DFE03ACAD8B064676
:10D010002046414632F0B2FE3846083405F0FEF9AB
:10D02000074645F26010C0F2060017A132462B46B3
:10D030000094019729F0A2F91AB0BDE8F08104F03C
:10D0400021FE03AFAD8B06463846414632F096FED0
:10D0500045F260100837C0F2060003A132462B46A5
:10D06000009729F0ADF9E7E753656E74202573202A
:10D07000666F72206368696C6420253034782044C0
:10D08000554120257300000053656E7420257320E0
:10D09000666F72206368696C6420253034782044A0
:10D0A0005541202573204572726F72202573000050
:10D0B00010B5044690F847000138C0B2884238BF26
:10D0C00010BD45F260100A4684F84710C0F2060011
:10D0D00003A129F086F92046BDE8104000F0E3B82E
:10D0E0007570646174652072656764656C61792030
:10D0F0002564000070B50D4602390229044602D3AA
:10D10000012D25D134E0207FC0070DD040F64870B6
:10D11000C2F2000045F2D81108444CF66911C0F281
:10D120000001224626F08EFB204600F095F804F11F
:10D1300048000021425C1AB9032901F10101F9D12B
:10D1400012B10020A064E064012D18BF032D0FD0A0
:10D15000042D2CD140F64870C2F2000045F228128E
:10D1600004F12C01104432F05BFC002818BF70BDA4
:10D1700040F64876C2F2000648F69060305CB8B1DE
:10D180000021254645F82C1F287448F68060696008
:10D19000A960E9603118284618F08EFBA5F1080057
:10D1A00032F049FA68B1204600F0E2F868B170BD8B
:10D1B00044F63260C0F20700752147F01DFC00BF45
:10D1C000FEE7A06A616AA06361630120607747F0AF
:10D1D00087FB024645F22810304429462262BDE80A
:10D1E000704017F03DBE000010B584B0044640F614
:10D1F0004870C2F2000048F67461084401A931F099
:10D200002DFBD0B9BDF806100120022928BF2AF055
:10D21000E3FAB4F84410013989B281420DD3A4F87D
:10D220004400204600F03FF8B4F8442045F2601076
:10D23000C0F2060002A129F0D4F804B010BD00BF6E
:10D2400075706461746520726572656764656C6190
:10D250007920256400000000B0B50446407F40F608
:10D2600048750228C2F200050CD1207FC00709D002
:10D2700045F2D8104CF669112844C0F2000122464C
:10D2800026F0E0FA94F83E200020607745F228105E
:10D2900002F0FE02284404F12C0184F83E20BDE88F
:10D2A000B04017F033BE406C38B140F64870C2F25F
:10D2B00000002830052101F030BB40F64870C2F272
:10D2C00000002830052101F03FBB000070B588B098
:10D2D000044608460D4632F08CF908B107203CE0C0
:10D2E00004F12406304632F0A6F928B93046294622
:10D2F0000822FBF712F878B32868696801ADC4E921
:10D3000009012846314632F0F3F945F2601005F183
:10D310000802C0F2060012A129F052F840F6487047
:10D32000C2F2000045F2281104F12C0546183046DF
:10D33000294632F075FB78B12046FFF78DFFA06AD1
:10D34000616AA06301206163607747F0C9FA2062D7
:10D350003046294617F084FD002008B070BD00BF9C
:10D3600053657420445541204949443A20257300AF
:10D37000F0B58FB00646807F40F648778DF83700CD
:10D3800006F12C05C2F2000745F250300DF13704CA
:10D390003844294600220023009434F0FDFA044664
:10D3A00058B1204605F03AF8024645F26010C0F246
:10D3B000060013A128F0E2FF1EE09DF83700B17FC0
:10D3C00088420BD0B0778DF83800012607F138007D
:10D3D0000EAA01AB082100962FF0A0F801AE30464E
:10D3E000294632F0CBFC45F2601006F10802C0F28B
:10D3F000060008A128F0E4FF20460FB0F0BD00BFF2
:10D4000047656E6572617465204455413A20257305
:10D410000000000047656E657261746564204455C4
:10D42000413A2025730000002DE9F04381B0044605
:10D4300040F64870C2F200001546091A013AA1F5FB
:10D44000BF41012A48F6A3324FEA2111CBF62E2222
:10D4500001FB02F629D8B2B2202A5FD2C6F3CC0172
:10D4600004EB0108474617F8481F06F0070901FAC0
:10D4700009F31B0619D5B4F8503093420AD145F28E
:10D48000D81108444CF66911C0F20001224626F07A
:10D49000D9F939786FF0800098F84C2040FA09F0FB
:10D4A00001401040397088F84C00022D24D2A06C45
:10D4B000E16C884207D1012005212AF073F9014669
:10D4C0002046FFF7DBF9B0B2202830D2C6F3CC02F9
:10D4D000224406F00700802192F84830C1401943E9
:10D4E00092F84C7082F848106FF0800141FA00F019
:10D4F000384082F84C000EE0032D0CD1B0B2202849
:10D500001DD2C6F3CC00204490F8480006F0070175
:10D5100088400006CBD501B0BDE8F08343F631402A
:10D52000C0F207004C2147F067FA00BFFEE743F660
:10D530003140C0F20700592147F05EFAFEE743F69A
:10D540003140C0F207004C2147F056FAFEE70000D8
:10D55000F0B587B000F124040546204632F06BF8A0
:10D56000B0BB05F1340021460822FAF7D6FEF0B927
:10D5700040F6487705F12C06C2F2000745F2281064
:10D580003844314632F04CFA88B12846FFF764FE41
:10D590002846FFF7EDFE50B90120687747F0A0F963
:10D5A000286245F228103844314617F059FC6D4680
:10D5B0002846214632F09CF845F2601005F1080239
:10D5C000C0F2060003A128F0FBFE0020606020608E
:10D5D00007B0F0BD436C656172656420445541201D
:10D5E0004949443A2025730041F00201032918BF3C
:10D5F000704740F64871C2F2000145F664528A5CF9
:10D6000092070CD445F64A528A5C120706D045F6BA
:10D610004C52895A022908BFFFF7E6BD7047FFF751
:10D62000E3BD10B50446FFF717FEA07F0130A077D9
:10D630002046FFF79DFE00B110BD0120607747F046
:10D640004FF9024640F64870C2F2000045F2281138
:10D65000084404F12C012262BDE8104017F000BC20
:10D6600010B582B0044600208DF8040040F64870E2
:10D67000C2F20000383001AA0821012335F054FC21
:10D6800010B99DF80400A07702B010BDB0B50C46EB
:10D6900091F83110022920D1054694F8300010F09D
:10D6A000300F14D140F64870C2F2000045F2D81194
:10D6B0000844214626F061F848B904F0E3FA02462E
:10D6C00045F26010C0F206000DA128F079FE284650
:10D6D0002146FFF74BF9044600E0062404F0D2FA95
:10D6E0000546204604F09AFE034645F26010C0F25B
:10D6F000060006A12A46BDE8B04028F061BE00BF82
:10D7000053656E742025732061636B0052656365F9
:10D71000697665642025733A20257300B0B5044608
:10D720004CF28560C0F203006060207F002500F0AD
:10D73000FE0020772020A4F8500004F12C00A56002
:10D74000A4F81D502562656417F078FB2046A56299
:10D750006562A564E564B0BDB0B5044640F64870A6
:10D76000C2F2000000F110050A46284621464FF497
:10D7700080232EF075FC00B1B0BD28464FF48071B7
:10D780002EF063FC00202061204600F02BF820469C
:10D79000BDE8B04000F088B80A46098851B100F1F0
:10D7A000800140F64870C2F2000010304FF4801340
:10D7B0002EF074BC45F27910C0F2060001A10022DF
:10D7C00028F0EDBD4B657920526F746174696F6EFE
:10D7D0002054696D6520746F6F20736D616C6C3AB5
:10D7E000202564002DE9F04196B001690EAD2A466E
:10D7F00004462FF008F804F1140029460022002600
:10D8000018F03FF9CDE90C66CDE90A66CDE9086666
:10D81000CDE90666CDE90466CDE9026605F110069C
:10D820000DF1280840463146002218F02AF92069F7
:10D830002A46411E20462EF0E6FF06AF3846314606
:10D84000002218F01EF920692A46411C20462EF0BD
:10D85000DAFF02AD28463146002218F012F9207C8A
:10D8600045F6B01100F07F00421C40F64870C2F24D
:10D870000000084408213B46CDF8008001951AF0CD
:10D880008BFD16B0BDE8F081B0B588B06D462A4674
:10D8900004462EF0B8FF243420462946002218F012
:10D8A000F0F8204608B0B0BD70B582B040F64874BC
:10D8B000C2F2000445F644500025255045F6385084
:10D8C0002044002118F0E0F845F64050255047F676
:10D8D0000440205C342100FB01F645F63C50255005
:10D8E0006EB147F29050044420460021E56018F0E4
:10D8F000CBF8C4E90155343E04F13404F4D140F6C8
:10D900004871C2F2000168460522FEF7C3FE009E80
:10D9100086B100256C4600BF06F10C000021B56100
:10D9200018F0B2F82046C6E90455FEF78BFE009EBB
:10D93000002EF1D102B070BD426B8A4288BF7047A1
:10D94000C26B01319142416300D2704740F648708A
:10D95000C2F2000045F6085108441EF04FB970B5F8
:10D960000446006988420AD140F64870C2F20000BD
:10D9700010304FF48071BDE870402EF043BB013091
:10D980000D46884217D1A16D04F15000814212D09A
:10D9900094F84C1061B1D4E91112914238BF70BDB6
:10D9A000002161644EF68061C0F2360101F009F891
:10D9B000012084F84C0020462561FFF713FF04F195
:10D9C00034000021002518F05FF840F64876C2F2D6
:10D9D000000645F6B0103044002100221AF0C8F8C5
:10D9E00006F110004FF48071A563BDE870402EF081
:10D9F0002CBB10B50446406C616D01304EF6806260
:10DA0000606404F15000C0F2360200F0F5FF606C73
:10DA1000B4F88010884238BF10BD2069411C2046F0
:10DA2000BDE81040FFF79BBFB0B5343014460D463B
:10DA300018F02AF840F64870C2F2000045F6B0111E
:10DA4000084429462246BDE8B0401AF091B8816BDF
:10DA5000026C01319142816338BF704740F64870D3
:10DA6000C2F2000045F6085108441EF0C7B8503015
:10DA700000F09BBF00234EF68061024680F84C30D8
:10DA80005030C0F23601536400F09BBF10B504461D
:10DA90006C30012217F0F5FF0020E06710BD10B5D3
:10DAA0000A46044600F15C0140F64870C2F20000EC
:10DAB00010304FF400232EF016FB94F8840040F051
:10DAC000010084F8840010BDB0B504461030242154
:10DAD000FAF7CFFB4FF41C70A06442F2D300C0F2FF
