:020000040000FA
:10800000405D0120D9800000E18000000D8F00005C
:10801000E5800000C18700000DA500000000000001
:1080200000000000000000000000000041B9050051
:10803000ED8000000000000081C50500A9C6050014
:10804000556D040081A400009DA4000029A5000036
:10805000799E0500F3800000F38000008F9E0500EC
:10806000F3800000E14204000943040033430400AC
:108070005D430400F3800000F3800000D5A40000FD
:10808000F1A40000F3800000F3800000A59E05002D
:10809000AF370400F3800000F3800000F38000009D
:1080A000F3800000F3800000F3800000F380000004
:1080B000B9A40000F3800000F3800000F38000000A
:1080C000298A0000DFF80CD000F04AFB0048004786
:1080D00079820400405D0120064880470648004739
:1080E000FEE7FEE7FEE7FEE7FEE7FEE7FEE7FEE768
:1080F000FEE7FEE7EBA00000C58000002DE9F05F81
:108100000546002092469B46884606468146402406
:108110001BE0284641464746224600F072FA534685
:108120005A46C01A914110D311461846224600F013
:1081300059FA2D1A67EB01084F462246012000210B
:1081400000F050FA17EB00094E41201EA4F1010483
:10815000DFDC484631462A464346BDE8F09F000032
:10816000004870479CE7050010B5431A934209D2B6
:108170008318881803E010F8011D03F8011D521E32
:10818000F9D210BD40EA01039B0703D009E008C9FA
:10819000121F08C0042AFAD203E011F8013B00F8CC
:1081A000013B521EF9D210BDD2B201E000F8012B02
:1081B000491EFBD270470022F6E710B513460A4667
:1081C00004461946FFF7F0FF204610BD421E12F884
:1081D000013F002BFBD111F8013B02F8013B002BC2
:1081E000F9D1704730B505462A460B4612F8010B07
:1081F00013F8014B08B1A042F8D01CB1002802D0FE
:108200006D1CF1E7284630BD10B5044604E00B783C
:1082100000F8013B03B1491C521EF8D2204610BDA4
:10822000CAB2401E10F8011F8A4202D00029F9D1BB
:1082300000207047421C10F8011B0029FBD1801A56
:10824000704710B5002200E0521C835C8C5CA34296
:1082500001D1002BF8D1D8B2E1B2401A10BD30B52F
:1082600004460020034600E05B1C934203D2E05C1E
:10827000CD5C401BF8D030BD034611F8012B00F84F
:10828000012B002AF9D11846704730B50546002069
:10829000034600E05B1C934205D2EC5CC85C201AEC
:1082A00001D1002CF6D130BD2DE9FE4F804681EA88
:1082B0000300C00F0C46009021F0004123F0004560
:1082C000B8EB0200A94105D24046214690461C4623
:1082D0000B46024623F00040104347D0270DC7F35A
:1082E0000A00C3F30A510290401A019040286BDA49
:1082F000C3F3130040F4801B0098924620B1002382
:10830000D2EB030A63EB0B0B01985946C0F1400214
:10831000504600F067F906460D4650465946019A08
:1083200000F07FF910EB08006141002487EA115248
:1083300084EAE7731A4340D0009A62B3019A012A93
:108340004FEA075215DC001B61EB02014FF00042BF
:1083500002EA0752CDE90042001C41F58011324685
:108360002B4600F07FF903B0BDE8F08F4046214670
:10837000F9E7001B61EB0201001C41F580130018B6
:108380005B412018A2F5001747EB030140EAD570C6
:10839000B6196D4111E06D084FEA360645EAC07521
:1083A0004FEA0752001B61EB0201001C41F58011EE
:1083B00049084FEA30000019514132462B4603B0BC
:1083C000BDE8F04F00F03FB90098012240000023C3
:1083D000D0EB020263EBE073009821464FEAE074B1
:1083E000B8EB000061EB0401E9E783F000435BE7D1
:1083F00081F0004158E72DE9FE4F81EA030404F0C3
:10840000004421F0004100944FF0000B23F00043A2
:1084100050EA01045ED052EA03045BD0C3F30A546D
:10842000C1F30A552C44A4F2F3340194A0FB025486
:10843000C1F3130141F48011C3F3130343F4801318
:1084400001FB024400FB034E840A970A44EA81546C
:1084500047EA8357A4FB076802958D0A05FB078549
:108460004FEA932C04FB0C542705029D4FEA065853
:1084700047EA1637B5EB08056EEB070C870E920E30
:1084800047EA811742EA8312A7FB0201B6EB0B0110
:1084900064EB00042B0D43EA0C335E1844EB1C50D4
:1084A000DA465146E7FB0201C5F313044FEA0B33EA
:1084B00043EA14534FEA0432019C43EA0603A4F151
:1084C0000C040294009CCDE900B400F0CBF803B09A
:1084D000BDE8F08F00200146F9E72DE9F04D81EA73
:1084E000030404F0004B21F0004514464FF0000A4D
:1084F00023F0004150EA050220D054EA01021DD0C9
:10850000C5F30A570246C5F31303C1F31300C1F3C1
:108510000A5640F4801543F48013A7EB0608101B9D
:10852000D64608F2FD3873EB050002D308F10108C6
:1085300001E092185B41B8F1000F03DA0020014618
:10854000BDE8F08D00204FF48011064684460EE011
:10855000171B73EB050705D3121B63EB05030643DB
:108560004CEA010C49084FEA300092185B4150EA8E
:108570000107EDD152EA030012D082EA040083EA37
:108580000501084305D0101BAB4106D20122002390
:1085900006E000224FF0004302E06FF001025310AA
:1085A0001AEB06004CEB085110EB0A0041EB0B01F3
:1085B000BDE8F04D00F047B830B50B46014600204D
:1085C0002022012409E021FA02F59D4205D303FA95
:1085D00002F5491B04FA02F52844151EA2F1010216
:1085E000F1DC30BD202A04DB203A00FA02F1002041
:1085F00070479140C2F1200320FA03F319439040E1
:108600007047202A04DB203A21FA02F0002170474B
:1086100021FA02F3D040C2F12002914008431946EA
:108620007047202A06DBCB17203A41FA02F043EAD2
:10863000E07306E041FA02F3D040C2F1200291401B
:1086400008431946704710B5141E73F1000408DA88
:10865000401C41F1000192185B411A4301D120F006
:10866000010010BD2DE9F04D92469B4611B1B1FAC3
:1086700081F202E0B0FA80F220329046FFF7B2FFBA
:1086800004460F4640EA0A0041EA0B0153465A46A7
:10869000084313D0114653EA010019D0C8F1400233
:1086A0005046FFF7AEFF05460E4650465946424635
:1086B000FFF798FF084305D0012004E02046394623
:1086C000BDE8F08D0020054346EAE0762C433743B1
:1086D0000A986305E40AA0EB08000022FD0A44EAB8
:1086E00047540A3002D500200146E9E70105101978
:1086F0006941DDE9084500196941BDE8F04DA2E78F
:10870000C1F30A52C1F3130140F2FF3341F4801167
:108710009A4202DA00200146704740F233439A42FF
:10872000A2F2334202DC5242FFF76BBFFFF75ABF9F
:1087300030B5041E71F1000404DB4FF000444042E8
:1087400064EB0101141E73F1000405DB1C464FF0BD
:108750000043524263EB0403994208BF904230BD8C
:10876000064C074D06E0E06840F0010394E807007E
:1087700098471034AC42F6D3FFF7A8FCD83707006F
:10878000F837070030B58C1810F8012B12F00F03E2
:1087900001D110F8013B120906D110F8012B03E0BA
:1087A00010F8015B01F8015B5B1EF9D101E001F8F3
:1087B000013B521EFBD1A142E6D3002030BD000098
:1087C00001A04FF05CBF00BF4275734661756C74C9
:1087D0005F48616E646C6572000000002DE9F04333
:1087E000A1B0064630A00F4655F0B6FAB7B343F233
:1087F0001038C0F207080DF1040935463C4600BFA9
:1088000015F8012B4846414655F0D0FA484655F038
:10881000A3FA013CF4D10A2055F078FF0FB342F2DD
:1088200084404FF6FF71C0F2060000BF16F8012B1E
:10883000013F82EA010303F00F0330F8133089B2DD
:1088400083EA11118BB201F00F0181EA121130F8A5
:10885000111081EA1311E9D1CE4303E00A2055F04B
:1088600055FF002613A0ADF8026055F075FA43F2EB
:108870001034C0F2070401ADF2B22846214655F08B
:1088800095FA284655F068FA9DF8032028462146B7
:1088900055F08CFA284655F05FFA0A2055F036FF5D
:1088A000B0B221B0BDE8F0834352435F42756666C3
:1088B0003D0000004352433D0000000070B584B00D
:1088C000002102280291019101D90520A9E0042488
:1088D000C4F280042168002821F00301216021688E
:1088E00021F48071216000F09580012847D1206833
:1088F000BC2520F40070C4F220052060A868002682
:1089000020F48000A86002960298012800F282807C
:10891000206840F4807020600396039800094A287C
:1089200008D800BF00BF0398013003900398B0F54A
:10893000966FF7D3286800F040512068B1F1805F4E
:1089400065D020F4807020600396039800091828F1
:1089500008D800BF00BF0398013003900398B0F51A
:10896000C87FF7D301F081F801900198022851D017
:1089700002980130029002980228C9D34AE0206888
:10898000BC2540F40070C4F220052060A8680026D1
:1089900040F48000A8600296029801283AD800BFEF
:1089A000206840F4807020600396039800094A28EC
:1089B00008D800BF00BF0398013003900398B0F5BA
:1089C000966FF7D3286800F040512068B1F1805FBE
:1089D0001DD020F4807020600396039800091828A9
:1089E00008D800BF00BF0398013003900398B0F58A
:1089F000C87FF7D301F039F801900198022809D017
:108A000002980130029002980228C9D302E040F097
:108A1000030020603DF0CFFE01F053FB00F044F86E
:108A2000002004B070BD00000420C4F220004168A2
:108A3000C90708BF7047016841F001010160406843
:108A4000C00707D14BF66440C2F20000006810B1C5
:108A5000004700BFFEE770474EF28410CEF20000E0
:108A600001210160BFF34F8F0020BFF36F8FC4F26D
:108A70002000016821F002010160416841F001011C
:108A8000416070470020C4F22000416841F00101BC
:108A90004160016841F0020101604EF20410CEF223
:108AA000000001210160704780B500F013FA022830
:108AB00088BF80BD08A10BA251F8201052F82000F9
:108AC00040F20802C2F20002116040F20401C2F258
:108AD0000001086080BD00BF8B8C0000D18C0000BD
:108AE000378D0000F18A0000598B0000E58B0000F3
:108AF00010B582B00190019800282BD040F20804F4
:108B0000C2F20004019801380190216840F2E73078
:108B10008847019800281AD000BF00BF00BF00BFDF
:108B200000BF00BF00BF00BF00BF00BF00BF00BF4D
:108B300000BF00BF00BF00BF00BF00BF00BF00BF3D
:108B400000BF00BF00BF00BF00BF00BF00BF019853
:108B50000028D7D102B010BD10B582B001900198A5
:108B6000002800F03C8040F20804C2F2000400BF7C
:108B7000019801380190216840F2E730884700BF32
:108B800000BF00BF00BF0198002824D000BF00BF75
:108B900000BF00BF00BF00BF00BF00BF00BF00BFDD
:108BA00000BF00BF00BF00BF00BF00BF00BF00BFCD
:108BB00000BF00BF00BF00BF00BF00BF00BF00BFBD
:108BC00000BF00BF00BF00BF00BF00BF00BF00BFAD
:108BD00000BF00BF00BF019800287FF4C9AF02B0FA
:108BE00010BD000010B582B001900198002800F07F
:108BF0004A8040F20804C2F2000400BF0198013824
:108C00000190216840F2E730884700BF00BF00BFF5
:108C100000BF00BF00BF00BF00BF00BF00BF00BF5C
:108C200000BF00BF00BF00BF00BF00BF00BF019872
:108C3000002824D000BF00BF00BF00BF00BF00BF9E
:108C400000BF00BF00BF00BF00BF00BF00BF00BF2C
:108C500000BF00BF00BF00BF00BF00BF00BF00BF1C
:108C600000BF00BF00BF00BF00BF00BF00BF00BF0C
:108C700000BF00BF00BF00BF00BF00BF00BF019822
:108C800000287FF4BBAF02B010BD81B00090401E41
:108C900000BF00BF00BF00BF00BF00BF00BF00BFDC
:108CA00000D113E000BF00BF00BF00BF00BF00BF86
:108CB00000BF00BF00BF00BF00BF00BF00BF00BFBC
:108CC00000BF00BF00BF00BF00BFE0E701B07047BA
:108CD00081B00090401E00BF00BF00BF00BF00BFBA
:108CE00000BF00BF00BF00BF00BF00BF00BF00BF8C
:108CF00000BF00BF00BF00BF00BF00BF00BF00BF7C
:108D000000BF00BF00D114E000BF00BF00BF00BF24
:108D100000BF00BF00BF00BF00BF00BF00BF00BF5B
:108D200000BF00BF00BF00BF00BF00BF00BF00BF4B
:108D3000D0E701B0704781B00090401E00BF00BF77
:108D400000BF00BF00BF00BF00BF00BF00BF00BF2B
:108D500000BF00BF00BF00BF00BF00BF00BF00BF1B
:108D600000BF00BF00BF00BF00BF00BF00BF00BF0B
:108D700000BF00BF00BF00BF00BF00BF00BF00BFFB
:108D800000BF00BF00BF00BF00BF00D114E000BFA4
:108D900000BF00BF00BF00BF00BF00BF00BF00BFDB
:108DA00000BF00BF00BF00BF00BF00BF00BF00BFCB
:108DB00000BF00BF00BFC0E701B0704710B5044658
:108DC0003DF0EFFB1321B1EB104F14D0000C152830
:108DD0001FD014281CBF012010BD4FF2040C4FF609
:108DE000F873C0F20F0CC0F20F030CF57F61181D71
:108DF0004FF47F221AE04FF2040C4FF6F873C0F2E2
:108E0000070CC0F207030CF57F61181D4FF4FE221A
:108E10000CE04FF200024FF6F471C0F21F02C0F2F4
:108E20001F0102F1040C0B1D01F108001B682360F7
:108E3000006860600868A060DCF80000E06010680E
:108E40002061002010BD0000B8B10168013114D0CC
:108E5000B0F8051089B140180FD000BF016801318A
:108E60000BD001797E2908BF7047B0F805100029A2
:108E700018BF014400290846F0D100207047B020F7
:108E8000C4F220000168890702D40168C90702D131
:108E90000168890701D401207047006800F00100D3
:108EA00070470000B0B586B001AD044628461421D5
:108EB000FFF781F92846FFF781FF059840B100BF11
:108EC0000168A14204D0FFF7BFFF0028F8D10020BD
:108ED00006B0B0BD0420C4F280000168890704BF59
:108EE00000207047016801F00301032904D10168E3
:108EF000C90502D4FEE700BFFEE70168890551BF3E
:108F000001200068022101EA102070470420714608
:108F10000842EFF30980EFF30880714648F030BA59
:108F200070474EF24C51C2F200010A6810430860CB
:108F300070474EF24C51C2F200010A6822EA00006A
:108F400008607047827BC179032A05D0022A05D0C8
:108F5000012A1ED1113002E0173000E0143001392F
:108F6000012988BF70479021C4F2200100780A6867
:108F700060F303020A600A6800F00F0022F0F002BA
:108F800042EA00120A600A6822F4706242EA002093
:108F900008607047827BC179032A05D0022A05D078
:108FA000012A1ED1113002E0173000E014300139DF
:108FB000012988BF70479821C4F2200100780A680F
:108FC00060F303020A600A6800F00F0022F0F0026A
:108FD00042EA00120A600A6822F4706242EA002043
:108FE00008607047827BC179032A05D0022A05D028
:108FF000012A20D1113002E0173000E0143001398D
:10900000012988BF70479021C4F2200100780A68C6
:1090100000F00F0022F4702242EA00420A600A685F
:1090200022F4700242EA00520A600A6822F070627A
:1090300042EA006008607047827BC179032A05D04C
:10904000022A05D0012A14D1113002E0173000E0C5
:1090500014300139012988BF70470021C4F2200172
:1090600000780A6800F00F0022F4706242EA0020E3
:1090700008607047B0B514460D46FFF713FF48B1BE
:1090800035B100BF10F8011B013D04F8011BF9D1F7
:109090000020B0BD0220B0BD827BC179032A05D07B
:1090A000022A05D0012A20D1113002E0173000E059
:1090B00014300139012988BF70479821C4F220017A
:1090C00000780A6800F0070022F4E02242EA004239
:1090D0000A600A6822F4E00242EA00520A600A6862
:1090E00022F0E06242EA006008607047827BC1794A
:1090F000032A05D0022A05D0012A1ED1113002E030
:10910000173000E014300139012988BF70479421DD
:10911000C4F2200100780A6860F303020A600A685A
:1091200000F00F0022F0F00242EA00120A600A6822
:1091300022F4706242EA0020086070472DE9F04F87
:1091400081B0002860D00446054600BF2868013081
:109150005AD028797E2808D0B5F80500002818BF15
:10916000284400280546F1D14EE04FF6FF7B04F17C
:10917000C50904F1600804F1480A04F1300604F15D
:109180001807CAF2FE5B00BF286858440A2835D881
:10919000DFE800F0060A12161A343434340E1E00CA
:1091A0002046FFF7CFFE29E03846FFF71BFF25E0FA
:1091B0004846FFF741FF21E03046FFF7EBFE1DE098
:1091C0005046FFF793FF19E04046FFF765FF15E0B3
:1091D00094F8E4000138012810D82422C4F22002B7
:1091E000B4F8E500516A6FF39F2041F48031516279
:1091F00011686FF3194141EA004010602846FFF7FB
:1092000023FE05460028BFD101B0BDE8F08FF0B5C0
:1092100085B04EF25855C2F2000500206C46286019
:1092200020461421FEF7C7FF2046FFF7C7FD009830
:1092300045F65701B1EB104F27D10199B1F5803FA9
:1092400023D1039CB4F5805F1FD80021C5F65701D8
:109250004A1C029980EA020666EA010030B301273F
:10926000C5F63C27B94221D000F093F8B8B1B4F567
:10927000805F0DD802986FF001014140314302D068
:10928000791C884204D1022011E000F082F830B14C
:109290002868411E02290BD3032802D00BE00320CB
:1092A000286043F63010C2F2010002E0012028607D
:1092B0000498FFF743FF05B0F0BD42890021B1EBF0
:1092C000123F21D1C289B1EB123F1DD1428A002148
:1092D000B1EB123F18D1C28AB1EB123F14D1418BCE
:1092E0000022B2EB113F0FD10189B1F5616F0BD8AC
:1092F0008189B1F5616F07D8018AB1F5616F03D833
:10930000818AB1F5616F02D9012108467047018B4E
:10931000B1F5616F4FF001019CBFC1710021F4E70D
:109320000522C5F601220F23914202F1050208BF72
:1093300007239142817A4FF4FA6C08BF4FF4616CB5
:109340008B4219D3417B8B4216D3417C8B4213D382
:10935000017D8B4210D3C17D8B420DD301898C4599
:109360000AD3B0F80B108C4506D3B0F80F108C451B
:1093700002D3418A8C4502D2012108467047B0F8D9
:1093800015108C454FF0010122BFC171817300217E
:10939000F3E72DE9F04393B043F63019C2F2010927
:1093A0004FF29C31C0F2060148464FF4D072FEF7EE
:1093B000DBFE40F27028C2F2000840463DF04EF954
:1093C00018B1012013B0BDE8F08398F82000FF2801
:1093D000F7D001283FD198F823C098F826E0B8F8D4
:1093E0002420B8F82130D9F81060D9F81450D9F8F1
:1093F0000070D9F80440D9F80800D9F80C100F9083
:1094000010910D97129511960DAE30460E94ADF851
:109410003C30ADF83F208DF83EC08DF841E000F0C3
:10942000B7FA0121C5F601213046FFF779FF002880
:10943000C7D10D980E990F9A109B119F129EC9F8D3
:109440001460C9F81070C9F80C30C9F80820C9F8C0
:109450000410C9F8000098F83000FF28B1D00128A6
:1094600041D198F833C098F836E0B8F83420B8F80D
:109470003130D9F82870D9F82C60D9F81850D9F8BB
:109480001C40D9F82000D9F824100F9010910D95A8
:1094900012960DAE304611970E94ADF83C30ADF8F3
:1094A0003F208DF83EC08DF841E000F071FA0120B8
:1094B000C5F60120411C3046FFF732FF00287FF43B
:1094C00080AF0D980E990F9A109B119F129EC9F8AC
:1094D0002C60C9F82870C9F82430C9F82020C9F8D0
:1094E0001C10C9F8180098F84000FF283FF469AF35
:1094F000012841D198F843C098F846E0B8F84420D4
:10950000B8F84130D9F84070D9F84460D9F83050F3
:10951000D9F83440D9F83800D9F83C100F901091A0
:109520000D9512960DAE304611970E94ADF83C3065
:10953000ADF83F208DF83EC08DF841E000F028FAEC
:109540000120C5F60120811C3046FFF7E9FE002806
:109550007FF437AF0D980E990F9A109B119F129EB2
:10956000C9F84460C9F84070C9F83C30C9F83820DF
:10957000C9F83410C9F8300098F85000FF283FF4BB
:1095800020AF012841D198F853C098F856E0B8F8B8
:109590005420B8F85130D9F85870D9F85C60D9F82F
:1095A0004850D9F84C40D9F85000D9F854100F90D1
:1095B00010910D9512960DAE304611970E94ADF8A0
:1095C0003C30ADF83F208DF83EC08DF841E000F012
:1095D000DFF90120C5F60120C11C3046FFF7A0FECF
:1095E00000287FF4EEAE0D980E990F9A109B119FF4
:1095F000129EC9F85C60C9F85870C9F85430C9F8AF
:109600005020C9F84C10C9F8480098F86000FF28AD
:109610003FF4D7AE012841D198F863C098F866E0CE
:10962000B8F86420B8F86130D9F87070D9F874606F
:10963000D9F86050D9F86440D9F86800D9F86C10AE
:109640000F9010910D9512960DAE304611970E9415
:10965000ADF83C30ADF83F208DF83EC08DF841E0CC
:1096600000F096F90120C5F60120011D3046FFF7F4
:1096700057FE00287FF4A5AE0D980E990F9A109B07
:10968000119F129EC9F87460C9F87070C9F86C30E7
:10969000C9F86820C9F86410C9F8600098F870002B
:1096A000FF283FF48EAE01285ED1B8F87110B8F8EB
:1096B0007300B8F87920B8F87B30D9F878C0D9F8B9
:1096C0007CE0D9F88050D9F88440D9F88870D9F86E
:1096D0008C600B960A9709940895CDF81CE0CDF89C
:1096E00018C0D9F890701E1A0C97BDF82870ADF804
:1096F00024207F1A7743521A97FBF2F7ADF82630F1
:10970000C319ADF82A30BDF82C30BDF83070ADF873
:1097100020105B1A791A7343714393FBF2F391FBA8
:10972000F2F1ADF8220003440844ADF8320006A877
:10973000ADF82E30FFF7C1FD00287FF442AE069849
:109740000799089A099B0A9F0B9EC9F88C60C9F873
:109750008870C9F88430C9F88020C9F87C10C9F82D
:1097600078000C98C9F8900098F88000FF283FF422
:1097700028AE01285ED1B8F88110B8F88300B8F897
:1097800089E0B8F88B30D9F894C0D9F89860D9F846
:109790009C50D9F8A040D9F8A470D9F8A8200B9211
:1097A0000A97099408950796CDF818C0D9F8AC2007
:1097B0001F1A0C92BDF82820AEEB0106521A7A430C
:1097C00092FBF6F2ADF826300244ADF82A20BDF83F
:1097D0002C20BDF83030ADF82010521A591A7A43B7
:1097E000794392FBF6F291FBF6F1ADF822000244C8
:1097F0000844ADF8320006A8ADF824E0ADF82E20FC
:10980000FFF75BFD00287FF4DCAD06980799089A06
:10981000099B0A9F0B9EC9F8A860C9F8A470C9F8F3
:10982000A030C9F89C20C9F89810C9F894000C9889
:10983000C9F8AC0098F89000FF283FF4C2AD0128A9
:1098400041D1B8F89110D9F8B0000490B9F8B4003B
:1098500099F8B620ADF814008DF8162099F8B700E5
:109860008DF80F0099F8B8008DF80E00B9F8B920FE
:10987000ADF80C20ADF80C1041B100220120B2EB84
:10988000113F8DF80E007FF49DAD02E001283FF6F8
:1098900098AD01208DF80F000498C9F8B000BDF80C
:1098A00014009DF81610A9F8B40089F8B6109DF8B8
:1098B0000F0089F8B7009DF80E0089F8B800BDF8D0
:1098C0000C00A9F8B90098F8A000FF283FF479AD82
:1098D000012828D109F1BB06B8F8A14001A83146FA
:1098E0000722FEF741FC99F8C2008DF80300B9F891
:1098F000C300ADF800000020B0EB143F4FF00100B2
:10990000ADF800407FF45EAD8DF8030001A930464C
:109910000722FEF729FC9DF8030089F8C200BDF874
:109920000000A9F8C30098F8B000FF283FF449AD43
:1099300001282BD198F8B36098F8B670B8F8B44005
:10994000B8F8B15009F1C5080DF13409484641464F
:109950001822FEF709FC4846ADF83C50ADF83F40F0
:109960008DF83E608DF8417000F012F80120C5F6C8
:10997000012000F109014846FFF7D2FC00287FF4DE
:1099800020AD0DA940461822FEF7EEFB002019E598
:109990002DE9F04F84B00289B0F80B40B0F80F50B9
:1099A000A2EB040B428A817A90F80DE02E1BB0F8EE
:1099B0001550121BA1EB0E0102922A1B40F2040C5F
:1099C000039249B26422C5F6012C4A4301680CF1A6
:1099D000010548F21F584FF00F0AA9424FF0000549
:1099E000C5F2EB1801AF0DF10109019608BF4FF068
:1099F000070A00BFB6F1FF3F4FF0FF3402FB06F647
:109A0000C8BF0124664396FBFBF6614506F13206AA
:109A100086FB08634FEA631606EBD37303FB04E689
:109A200047F8256004D1002E48BF103608E000BF7B
:109A3000002E03D45645C8BF564601E0002600BF9D
:109A4000022D09F8056004D007EB85035E68013537
:109A5000D0E79DF801109DF802209DF80330417475
:109A60000275C37504B0BDE8F08FBC20C4F22000BD
:109A7000016811F0405F05D1016801F0E061B1F1CA
:109A8000806F0BD0016801F04051B1F1405F07D108
:109A9000016801F0E061B1F1E06F01D1022070478F
:109AA000016811F0405F05D1016801F0E061B1F19A
:109AB000806F14D1016801F04051B1F1405F05D1D0
:109AC000016801F0E061B1F1E06F08D1006800F0D9
:109AD0004050B0F1805018BF012040007047032073
:109AE000704700002DE9F0413424C4F22004E069FD
:109AF00040F2FF7120F08070E061206A40F20407BC
:109B000020F000602062206849F202268843002588
:109B10004FF00208C2F20007C0F20106206000BF49
:109B2000206820F0E06028432060206A40F0007048
:109B30002062206A20F040502062206A68F39F7003
:109B40002062206A40F080602062396801208847E6
:109B5000206A20F080602062606A6FF39F40B0420C
:109B600004D8B5F1E06F05F18075D9D1206A4FF4C2
:109B7000C83140F080702062E069012261F3110079
:109B8000E061216A052060F307012162216A62F326
:109B900009212162216A022241F440612162216A85
:109BA00041F440512162216A62F38F312162216ABE
:109BB00060F312412162216A41F400212162216A8D
:109BC00060F316512162206A40F000602062206A32
:109BD00020F400002062E06940F08070E061BDE8A0
:109BE000F081F0B581B01426CAF24006776817F00C
:109BF0007F0506D004463CF0CDFA2846A0473EF04B
:109C0000AFF927F07F00306001B0F0BDAFF3008006
:109C100080B52022CAF24002126812065CBF022000
:109C200080BD03468AB20720194600F00BF90120D7
:109C300080BD00000C20CAF24000C168C90358BFB3
:109C400070474FF4807100BF826902F00602062A55
:109C500001D00160F8E7C268D203F5D4704780B53F
:109C60004FF4807000F038F84FF4006000F034F8E2
:109C700000F00AFA4EF20010CEF200004FF480110C
:109C800001604FF48070BDE8804000F0A3B8AFF3EE
:109C9000008010B51C23CAF240031A68920703D44F
:109CA0000220086000240AE002460120086058688B
:109CB0001146C0F30B440120224600F09FF82046D5
:109CC00010BDAFF300800C21CAF240010A6822F0F7
:109CD000FF021044086070470C2120F0FF00CAF218
:109CE00040010860704700F001B800000C20CAF283
:109CF0004000816901F00601062908BF70474FF452
:109D0000807100BF0160826902F00602062AF9D163
:109D10007047B0B5054600200C4600F01BF9B4F1C1
:109D2000011F18D34FF4004029464FF4004200F0C1
:109D3000E7F8012000F00EF905F500414FF400406E
:109D40004FF4004200F0DCF8022000F003F905F5C2
:109D50008031A2B211E0B4F5004F17D94FF40040A2
:109D600029464FF4004200F0CBF8012000F0F2F851
:109D700084F4004005F5004182B24FF4004000F049
:109D8000BFF80020BDE8B04000F0E4B8A2B24FF444
:109D900000402946BDE8B04000F0B2B8AFF3008003
:109DA0001421CAF24001086070471020CAF2400036
:109DB000016821F07F0101607047FFF7F6BFAFF344
:109DC00000801020CAF2400000686FF35F207047E7
:109DD000AFF300801021CAF240010A6840F2FF137D
:109DE0009A431043086070471020CAF2400001688F
:109DF00041F07F0101607047FFF7F6BF70B5144670
:109E00000D4606463CF0C6F9FFF714FF0420CAF2DF
:109E1000400040F8045C016866F30D0101600168D0
:109E200089B241EA04410160416821F003014160C7
:109E3000816841F4803181603EF092F8BDE8704065
:109E4000FFF7F8BE70B514460D4606463CF0A2F981
:109E5000FFF7F0FE0420CAF2400040F8045C0168FD
:109E600043F6FF729143314401600168012289B2D7
:109E700041EA04410160416862F301014160816887
:109E800041F4803181603EF06BF8BDE87040FFF72F
:109E9000D1BEAFF300802020CAF240000068C0F3BA
:109EA00007207047AFF3008070B50C460546D61CFE
:109EB0003CF070F9FFF7BEFE0420CAF2400040F803
:109EC000044C016843F6FF72914341EA9501016039
:109ED000016826F0030289B241EA0241016041684B
:109EE000022262F301014160816841F480318160A6
:109EF0003EF036F8BDE87040FFF79CBEAFF300803F
:109F000070B50C460546D61C3CF044F9FFF792FEAE
:109F10000420CAF2400040F8044C016843F6FF7286
:109F2000914341EA95010160016826F0030289B27C
:109F300041EA02410160416841F0030141608168EA
:109F400041F4803181603EF00BF8BDE87040FFF7CE
:109F500071BE000010B582B0044600200090694632
:109F60004FF489600422FFF79FFF9DF800309DF8B1
:109F700001209DF802109DF80300022C23F003033A
:109F800005D0012C06D03CB100BE00BFFEE743F077
:109F9000020301E043F001038DF805208DF806105F
:109FA0008DF8070001A94FF4896004228DF8043070
:109FB000FFF7A6FF02B010BD80B500F002F8C0B2F6
:109FC00080BD2420CAF240000068C0F34100704701
:109FD000AFF3008010B51C23CAF240031A68D20701
:109FE00003D10220086000240AE002460120086034
:109FF00018681146C0F30B4400202246FFF7FEFE0E
:10A00000204610BD2DE9F041DDF8188007464FF4D9
:10A0100000601C4615460E46FFF75EFE00F034F861
:10A020004FF08070FFF758FEFFF719FE25B11FB102
:10A0300030462946FFF76DFE4FF40060FFF74CFEF7
:10A0400000F022F84CF67C60C2F200000460C0F818
:10A050000480FFF7C9FE4FF00070FFF73DFE00F0EF
:10A0600003F80020BDE8F08180B500BFFFF713FFC3
:10A070000128FBD10120FFF726FE00BFFFF70BFFF1
:10A080000128FBD080BD00002420CAF2400000BFA0
:10A090000168C907FCD0704780B52023CAF240038D
:10A0A000D3F800C00123834003EA0C031B0604D04D
:10A0B00092B2FFF7C7FE012080BD022080BDFFF7EE
:10A0C000EBBF80B5FEF706FF43F60951414344F666
:10A0D0000002032840F21000C0F2E812C2F20000B1
:10A0E00038BF02EB8122026080BD80B52420C4F21B
:10A0F000200001683F2262F307010160D0F8A01040
:10A1000041F40041C0F8A0101820CAF2300040F21B
:10A11000EF31016000F08BF900F042F8FFF777F8BB
:10A120000220FEF7CBFB40F20C0049F20001C2F224
:10A130000000C0F2D03101602420CCF200000168A0
:10A1400041F002010160D0F8001141F00201C0F8B5
:10A150000011D0F8001241F00201C0F80012D0F84E
:10A16000001341F00201C0F80013BDE88040FFF782
:10A17000B9BC012803D090B96FF0010001E06FF085
:10A180000200B021C4F220010A6842F002020A6013
:10A190000A6842F001020A600A68104008607047CD
:10A1A00070B586B090203424C4F28000C4F220043C
:10A1B000D0F800C094F8781001258DF8141094F8A8
:10A1C000792001F088018DF8132094F87A3052310B
:10A1D0008DF8123094F87B008DF8110000F0F80033
:10A1E00006308DF8110002F0080032308DF81300AF
:10A1F00003F0CF0020308DF814108DF812009DF878
:10A200001400B12184F878009DF81300C4F22001F5
:10A2100084F879009DF8120084F87A009DF8110006
:10A2200084F87B0094F87C008DF810000A8800F018
:10A23000EF00ADF80E2094F87F208DF80D2042F04D
:10A2400008028DF80D208DF810009DF8100084F89C
:10A250007C00BDF80E0008809DF80D0084F87F009A
:10A26000A06E20F44060A066D4F890100CF0F000CE
:10A270000A4665F38302202818BF41F00C02C4F897
:10A2800090203CF08EF9A16E46F2C8530A4665F361
:10A290000922C0F21403984218BF41F44072A2662A
:10A2A000D4F8900040F2FF7140F04050C4F89000A4
:10A2B0002068FA22884320602068082120F0E060AE
:10A2C000206020684FF23C5E20F04050206094F8FF
:10A2D0006C00C0F2060E8DF80C0094F86D004FF083
:10A2E000FF3C8DF80B0094F86E008DF80A0094F88E
:10A2F0006F008DF809008DF80C10DE218DF80B1021
:10A3000078218DF80A101B2161F35F008DF8090098
:10A310009DF80C0084F86C009DF80B0084F86D002B
:10A320009DF80A0084F86E009DF8090084F86F001B
:10A3300094F870008DF8080094F871008DF807000B
:10A3400094F872008DF8060094F873008DF80500FB
:10A350008DF80820BB228DF80720C82261F35F002A
:10A360008DF806208DF805009DF8080084F870002F
:10A370009DF8070084F871009DF8060084F87200CB
:10A380009DF8050084F87300D4F8900040F48070C4
:10A39000C4F89000D4F8900040F40040C4F8900055
:10A3A000E06F40F00200E067E06F40F00100E0671E
:10A3B000E06F20F00200E067002000BF0EEB00031A
:10A3C000D3E901435EF80050C4F307220CFA02F20D
:10A3D000D1432E68E4B2A14023EA020226EA010139
:10A3E000A2400C30114324282960E7D14FF2605E6F
:10A3F0000020C0F2060E4FF0FF3C00BF0EEB000342
:10A40000D3E901535EF80060C5F307240CFA04F4A5
:10A41000E2433168EDB2AA40914323EA0402AA4024
:10A420000C301143B4283160E8D106B070BD24204F
:10A43000C4F2200001683F2262F307010160016855
:10A4400040F2911262F3194101600821C4F28001C7
:10A450000A6842F080020A60026842F40062026008
:10A46000826942F40052826150F8042C42F000529A
:10A4700040F8042C486B012262F311404863704796
:10A480000C20CAF270000121016044F21C40C2F2AB
:10A490000100016809B10020084770470C20CAF28A
:10A4A00080000121016044F21C40C2F20100816879
:10A4B00009B10120084770470C20CAF2F0000121C1
:10A4C000016044F21C40C2F20100016909B102209E
:10A4D000084770470C20CAF2F4000121016044F2E1
:10A4E0001C40C2F20100816909B10320084770478E
:10A4F0000C20CAF2F8000121016044F21C40C2F2B3
:10A500000100016A09B104200847704701A04EF01C
:10A51000B6B800BF55736167654661756C745F4876
:10A52000616E646C6572000010B51420CAF2900070
:10A530000121016044F2B860C2F20100006810B16C
:10A54000BDE81040004702A420464EF098F8FBE713
:10A5500077686174203F3F3F2000000070B582B0F3
:10A5600040F2000E0025CAF2900E8DF80250ADF8B0
:10A570000050DEF80850ED0717D10924C507CAF2CC
:10A58000900415D144F2B862C2F2010200261660AE
:10A590004EF20012CEF200020826C2F88060BFF32D
:10A5A0004F8F8022BFF36F8F19E04FF0020C34E021
:10A5B000069E4FF0010C86B38A422ED20125C4F8C4
:10A5C0000B5044F2B865C2F201052E60C4F80F20AA
:10A5D0004EF20012CEF2000208261660C022C6B269
:10A5E00000F0020042EA0010C6F3800210431C2271
:10A5F00002EA560210438DF80400C4F81330CEF876
:10A6000000109DF804004FF0000C8EF80800BDF813
:10A6100000009DF80210A1702080604602B070BD5D
:10A620002DE9F04385B0002A40F0BE801D460F465C
:10A63000064651F075F84EF28068C2F20008D8F86C
:10A64000109008F10C00814500F09E80D8F834008D
:10A650000138C8F83400D9E900014160086051F0C0
:10A66000B3F84C4654F8080F07F10901A6F10A02A5
:10A67000FDF77AFDC5F1640048F21F51C0EB0020E0
:10A68000C5F2EB1180FB0101A6F10E00A08068422B
:10A690006075480940F2AE0200EBD170E17DC2F274
:10A6A00000021278A07501F0FE00E0752046A2714C
:10A6B00048F0FFFB18B1204648F0EBFB20BB2046DA
:10A6C00048F0F0FB30B343F6EC60C2F201000078D2
:10A6D000D0B102AD2046294648F0B5FBD0B9049868
:10A6E00001286FD0022815D1E81D00216A4600BF5D
:10A6F00010F80139535401310829F9D1684650F056
:10A70000AFFDB0F1FF3F05DD99F81F0040F00100FB
:10A7100089F81F00204648F0CCFBB0B1204648F035
:10A72000C3FB90B1204648F0AFFB70B143F6F06137
:10A7300099F81F00C2F201010A6840F0020089F88E
:10A740001F00501C0860C9F8180050F0E9FF41468E
:10A7500051F8040FC9E90001C0F80490C86A8A6B77
:10A760000130C1F800908242C86238BFC8F83C008E
:10A7700051F02AF850F0D4FF43F2D050C2F2010059
:10A78000016841F480410AE051F01EF850F0C8FF22
:10A7900043F2D050C2F20100016841F4005101605F
:10A7A00051F012F849F01EFD40F27130C2F2000083
:10A7B00001780131CAB2042A88BF0021017005B0B6
:10A7C000BDE8F083BDF8080050F074FD00289BD56B
:10A7D000A0E7000010B582B04EF28064C2F200041F
:10A7E0006169002943D04FEA301008283CD8DFE8DF
:10A7F00000F019232D3B053B3B3B0500A06901A957
:10A8000000683DF0C4FC0198A1690022C1E9020280
:10A8100050F086FF43F2D050C2F20100016841F4CB
:10A8200080611CE050F07CFF43F2D050C2F2010086
:10A83000016841F4807112E050F072FF43F2D05091
:10A84000C2F20100016841F4805108E050F068FF55
:10A8500043F2D050C2F20100016841F4006101608E
:10A8600050F0B2FF49F0BEFC1020FEF762FB02B0D0
:10A8700010BD00002DE9F04182B044F28627C2F2FB
:10A88000010738880C46019210B344F28428C2F2C2
:10A890000108B8F8001044F284120844C0B28142A2
:10A8A00098BF4FF48071091A019BC2F201028EB267
:10A8B000104431462246009353F094FA0546B0F115
:10A8C000FF3F20DDB54223DA3888284438804BE04A
:10A8D00044F284101346C2F201004FF48071224604
:10A8E00053F080FA0546B0F5807F31D244F28420DF
:10A8F000C2F201000021018044F27E10C2F2010088
:10A900003D80018030E042F2DC70C0F2070028E0B8
:10A91000FF2D25DC388844F27E16C2F2010678B39A
:10A92000002500BF00F075F849F0CDFA10BBB8F86B
:10A93000000031883A880844C0B2A8F80000501AD4
:10A940003880358000F065F838880028EAD117E0B3
:10A9500042F2DC70C0F20700214648F04CFA05E0F4
:10A9600016A0214648F047FA00F053F8284602B0F6
:10A97000BDE8F08149F0C9FC014617A048F03BFA58
:10A98000009B44F28410C2F201004FF48071224611
:10A9900053F028FA002806DD054638800020A8F884
:10A9A00000003080E0E742F2FD70C0F207004FF493
:10A9B000B07148F09DFB00BFFEE700BF434C49204B
:10A9C0006F75747075742060257360207472756E75
:10A9D00063617465640000004661696C656420749D
:10A9E0006F206F757470757420434C493A2025733D
:10A9F00000000000B0B5084691B21C46154648F06C
:10AA00005BFE10B16FF03B00B0BD04B125600020CB
:10AA1000B0BD44F27E10C2F20100018801B170475E
:10AA200044F2842244F28621C2F20102C2F2010100
:10AA300012880988C2F580738B42B8BF19460B048F
:10AA40000180ECD044F28410C2F20100104489B2BB
:10AA500049F0A7BA2DE9F04F81B000294CD044F25B
:10AA6000862644F2842A44F27E1844F284198B46E6
:10AA70000546C2F20106C2F2010AC2F20108C2F2A0
:10AA8000010900BF31881FFA8BF3C1F5807082B2D3
:10AA9000934298BF5846020418D0BAF80020002309
:10AAA0008C1815F8017BE4B2013309F804709FB2E9
:10AAB00084B20131A7423180F2D3ABEB000BFFF738
:10AAC000A8FF5FEA0B4003D116E000BFFFF7A1FF2C
:10AAD00049F0F9F980B9BAF80000B8F800103288E6
:10AAE0000844C0B2AAF80000501A30800020A8F82C
:10AAF0000000FFF78EFFC5E701B0BDE8F08F10B58D
:10AB000086B00C4600F062F8D4E90001CDE90001FE
:10AB1000D4F89800A18B0290A07FADF80C1004210E
:10AB200041EA1010218C8DF80E0040F24050C2F224
:10AB30000000ADF80F103830694630F002F906B069
:10AB400010BD000070B582B0042106888DF8001099
:10AB50004FF6FE71ADF802100021019166B100F1CF
:10AB600008046D462846214636F0AFFF30B9013E55
:10AB7000300404F1B004F5D1002402E0204628F0AE
:10AB800031F8204602B070BD0288B02301FB0303F8
:10AB900000208A4288BF03F10800704710B51446B0
:10ABA00040F24052C2F2000245F67C13D25A6FF3D3
:10ABB0005F211143012200F07DF928B101462046B2
:10ABC00027F09FFF002010BD172010BDB0B586B044
:10ABD0000C4640F24051C2F20001684630F00EF9D6
:10ABE0009DF8140080B96D46BDF80C00A18B884219
:10ABF00007D0284630F0FAF89DF814000028F3D06A
:10AC000002E0684630F0DAF806B0B0BD80B50388DF
:10AC10008B429CBF172080BDB02301FB030191F83C
:10AC2000263043F3030000284FF017000DD403F043
:10AC30000F0C012303FA0CF313F0C20F08BF80BD01
:10AC40000831104627F05DFF002080BD70B5044636
:10AC500040F24050C2F20000383030F0D9F800B174
:10AC600070BD2588002DFBD004F12606314611F871
:10AC70001E09000704D02046FFF741FF0028EFD14E
:10AC8000013D280406F1B006F0D1E9E7B0B50C4665
:10AC900001391F2984BF0720B0BD0521054630F0CA
:10ACA000E7FA002812BF0D202C800020B0BD000064
:10ACB0002DE9F04F87B040F24055C2F2000504463E
:10ACC0006846294630F09AF89DF8140018B1002023
:10ACD0004FF0000A5AE045F6984005EB000945F6AA
:10ACE00028504FF0000AE84605EB000B002700BF94
:10ACF00020464146052200F09BF818B106464FF069
:10AD0000010A05E02046FFF71DFF0646002842D055
:10AD1000304627F067FFDDE90001C6E9000106F1D2
:10AD200022000BF0A1FCBDF80C000299B0839DF845
:10AD30000E00C6F8981025F0FB01084340F004050A
:10AD40003046294627F00EFEB07F00F0F0000130BB
:10AD5000B07748F041F9B060BDF80F00314630845B
:10AD60004846012209F0DFFE58460021324608F02D
:10AD700065FC4046013730F039F89DF81400002892
:10AD8000B6D0B9B20020202988BF01205FEACA717D
:10AD900008BF002802D02046FFF758FF07B0BDE8E3
:10ADA000F08F10B5044640F24050C2F2000045F664
:10ADB000487108442179206036F03CFE00B110BD96
:10ADC0002046BDE8104000F001B800002DE9F04138
:10ADD0000446006800B340F24055C2F2000545F653
:10ADE0004076A95BAF194FF0B00801FB0871B03095
:10ADF000083100BF884220600CD2217936F01AFE5B
:10AE000050B9A85B216800FB087201F1B00002F1A3
:10AE10000801EFE700202060BDE8F08110B504468E
:10AE20000020206020462271FFF7BBFF204610BDA6
:10AE300070B582B006888DF800204FF6FE72ADF82E
:10AE40000220019166B100F108046D4628462146B2
:10AE500036F03BFE28B9013E300404F1B004F5D1D0
:10AE60000024204602B070BD70B582B00B7A022B70
:10AE700005D0012B02D10B88002102E000214FF602
:10AE8000FE7306888DF80020ADF8023001916EB196
:10AE900000F108046D4600BF2846214636F015FE35
:10AEA00028B9013E300404F1B004F5D10024204655
:10AEB00002B070BD70B582B0068800248DF8002005
:10AEC000ADF80210019476B100F108046D4600BFA0
:10AED0002846214636F0F9FD28B9013E300404F138
:10AEE000B004F5D10024204602B070BD2DE9F04138
:10AEF000044620200D462080002000216218B03139
:10AF0000B1F5B05F5063F9D1082741F2086800BF7E
:10AF1000E619304629462FF0BAFD304627F062FE8A
:10AF2000B0374745F4D12046BDE8F08110B582B076
:10AF3000044690F846C090F84720B0F8443041F2FB
:10AF40004100C0F2060024A1CDF800C029F0CFFFD7
:10AF5000607F80B148F040F8216A081A00F5C030DF
:10AF600000F5D460B0F1FF3F05DC94F83E0040F0FE
:10AF7000010084F83E0094F8470038B10138C1B2AE
:10AF800084F84700B1FA81F0400900E0002094F80D
:10AF9000461039B10139CAB284F84610B2FA82F1CA
:10AFA00049090843B4F8441021B101390A04A4F84E
:10AFB000441001D030B908E0607F08B1012060770B
:10AFC0000020E064201D2FF024FA204602B0BDE8E6
:10AFD000104000F034BD00BF72656764656C617934
:10AFE0002025642C20726572656764656C61792028
:10AFF00025642C20636865636B64656C617920252A
:10B000006400000010B5044690F846000138C0B254
:10B01000884238BF10BD41F241000A4684F846100C
:10B02000C0F2060003A129F062FF2046BDE81040EF
:10B0300000F005BD75706461746520636865636BBD
:10B0400064656C617920256400000000B0B5044699
:10B05000007F00F0FE0020774FF02000A4F85000A1
:10B060003BB11C2B11D120461E21FFF7CBFF1C2525
:10B070000FE0F9B101F1310040F0010090F900005A
:10B08000442820D0B0F1FF3F1DDD0625201D2FF004
:10B09000C0F905F0C7F90446284605F083FD0346CC
:10B0A00041F24100C0F206000AA12246BDE8B040CC
:10B0B00029F00CBF40F6DF40C0F2070040F2462105
:10B0C00048F016F8FEE7204600F014F805461C2864
:10B0D000CDD0DBE752656365697665642025732012
:10B0E000726573706F6E73653A20257300000000FF
:10B0F000FFF7ACBF2DE9F04188B00E4691F9311051
:10B100000446B1F1FF3F14DD0DF10F02304604217A
:10B1100025F045FE0546002840F0D88004AA3046B8
:10B120000021102325F0FDFE0546002840F0CE80CA
:10B1300009E0062004F10C038DF80F000FCB0DF190
:10B14000100C8CE80F0040F24056C2F2000648F6A0
:10B150003C60304404A932F0DCF8A8B145F2381064
:10B16000304404A933F00AFA80B19DF80F00062894
:10B1700000F2AB80DFE800F040465E6204040400A9
:10B18000204600F0FDFBA0E002259FE040F2405881
:10B19000C2F2000801A841460022FFF73FFE019DD0
:10B1A0006DB104AF01AE00BF2846394635F0F0F866
:10B1B00038B93046FFF70AFE019D002DF4D117255E
:10B1C00084E09DF80F20062A00F27A80A5EB0800A3
:10B1D00045F64871401A48F6A3310011CBF62E21EE
:10B1E00000FB01F6DFE802F03D532E2E04040400BC
:10B1F000204600F0C5FB60E047F0EEFE2062032031
:10B20000607762E045F2381004F12C0506443046C0
:10B21000294633F0B3F9002857D0204600F0E8FB68
:10B220000120607747F0D8FE20623046294618F0AA
:10B230007DFA4AE0204600F0DBFB46E0204600F0C5
:10B24000BCFD42E004A92846B7B227F0D3FB202F6B
:10B2500020D34FF6F920C0F20600592147F048FFED
:10B26000FEE7B0B2202838D2C6F3CC00204490F8D4
:10B27000482006F007018A4012061ED5802290F869
:10B280004C3022FA01F1194380F84C1015E0B0B2AD
:10B2900020282AD206F007006FF0800141FA00F062
:10B2A000C6F3CC01214491F8482091F84C3002407B
:10B2B000184081F8482081F84C009DF80F2022B1F9
:10B2C00004A920462B4600F02FFA0025204600F066
:10B2D000B6FB284608B0BDE8F0814FF6F920C0F271
:10B2E00006004C2147F004FFFEE74FF6F920C0F2BC
:10B2F0000600592147F0FCFEFEE7F0B585B040F2AC
:10B3000040570D4604468805C2F2000714D548F69A
:10B31000906145F238107E183844314633F02EF9EA
:10B3200050B148F6641038446A46314630F068F946
:10B3300010B1204600F05CFB45F6D040384434F0B4
:10B3400043FA48B1680720D545F6C550385C30B19E
:10B35000204600F015FB18E0002060641BE045F675
:10B36000F140385C032802D1204603210BE045F66A
:10B37000D040384434F008FD38B147F64340385CDB
:10B380000430C1B2204600F05FFAE80703D020463F
:10B39000012100F059FA05B0F0BD00002DE9F04F91
:10B3A0009DB00DF14809054648462C21FCF703FFE6
:10B3B0004FF2BF0040F24056ADF86A00C2F20006FC
:10B3C00045F6D040304434F0FFF930B148F63C60E7
:10B3D000305A4FF6FE71884214D100240D273846AA
:10B3E00005F0E0FB024641F24100C0F20600C7A1B1
:10B3F00029F06CFD1FB114B120462EF0CAFF1DB01C
:10B40000BDE8F08F287FC0077DD145F6D0403418C5
:10B41000204634F024FA20B9204634F0B5FC002848
:10B42000DBD145F62C50305C800709D445F612502C
:10B43000305C0007D1D045F61450305A0228CCD1E8
:10B44000687F012802D195F8470078B105F14800DE
:10B45000002100BF425C1AB9032901F10101F9D1B1
:10B46000002A53D0E96C006888424FD045F2E810BA
:10B470003044252127F03DF90446002800F03581AD
:10B48000687F012845D195F84700002841D10EAFCB
:10B4900005F12C0138461022FCF766FE20460021FB
:10B4A0003A46102325F074FD0746002840F01A8123
:10B4B00045F6A860321820460321082325F068FDD0
:10B4C0000746002840F00E810220687747F084FD8F
:10B4D000286245F62C50305C800760D445F6125047
:10B4E000305C00075BD045F61450305A022856D124
:10B4F00048F63C60304402A931F0EDFE002800F02F
:10B50000E4800746EEE00024052768E700241727BB
:10B5100065E7B5F85000202837D140F24051C2F21B
:10B52000000102A80022FFF779FC0298002800F031
:10B530008A8048F6A33745F6487ACBF62E274FF097
:10B5400080080DF1080B40F24051C2F20001401A90
:10B55000A0EB0A000011784381B2202968D2C0F321
:10B56000CC01294491F8483000F0070228FA02F291
:10B570001A4203D091F84C100A4262D05846FFF7A5
:10B5800025FC02980028DED15DE040F6DF40C0F2E5
:10B5900007004FF4F47147F0ABFD00BFFEE748F63B
:10B5A0003C61725A45F6B86109F11000314418F057
:10B5B00046FD12AF384625F00FFD45F2E8104BF27C
:10B5C000F1033044C0F2000321463A46009526F0CC
:10B5D00079FC0746002840F08580287F0EAB40F0BC
:10B5E000010028770FCB05F10C0C8CE80F00002030
:10B5F000686445F62C50305C000705D445F6B4402D
:10B600003044002108F0BAFD04F00CFF02AE0546FC
:10B610000EA9304633F060F941F2410006F108030B
:10B62000C0F2060034A12A4629F050FC0027D6E6D5
:10B630004FF6F920C0F206004C2147F059FD00BF3B
:10B64000FEE7A5F8500040F24052B5F8501045F61C
:10B650004070C2F200021044FFF796FA804634F0C0
:10B6600033FF48B30EAF014638461022FCF77CFD8D
:10B67000204600213A46102325F08AFC074688BB65
:10B6800008F1600220460321082325F081FC0746CB
:10B6900040BB47F0A1FCD8F80810401A44F6D3513B
:10B6A000C1F26201A0FB01018A092046062125F0B2
:10B6B000FDFB0746B0B90CE740F6DF40C0F20700DB
:10B6C0004FF4FC7147F014FDFEE79DF8081045F6B5
:10B6D000D04009F11002304434F087F807460028C2
:10B6E0003FF467AF032F7FF47AAE28460521FFF7BA
:10B6F00089FC032773E600BF53656E742025732011
:10B70000666F7220445541202573000050657266B3
:10B710006F726D4E65787452656769737472617487
:10B72000696F6E3A202573002DE9F0419AB0884682
:10B730000FA82C211D461746FCF73DFD4FF2BF0018
:10B7400040F24054ADF85E00C2F2000445F2E81049
:10B750002044242126F0CDFF00B304213A460646BA
:10B7600025F099FB0746A8B9304600214246102330
:10B7700025F00EFC074668B9A98B0FAF384625F0B7
:10B7800056FC45F2E810204431463A4626F08AFB42
:10B79000074600B330462EF0FCFD00E0032704F01E
:10B7A00037FE03ACAD8B06462046414633F094F895
:10B7B0003846083405F0F6F9074641F24100C0F278
:10B7C000060017A132462B460094019729F05CFB36
:10B7D0001AB0BDE8F08104F01BFE03AFAD8B064646
:10B7E0003846414633F078F841F241000837C0F25C
:10B7F000060003A132462B46009729F067FBE7E7D6
:10B8000053656E7420257320666F72206368696CBF
:10B8100064202530347820445541202573000000F1
:10B8200053656E7420257320666F72206368696C9F
:10B8300064202530347820445541202573204572FA
:10B84000726F72202573000010B5044690F847000F
:10B850000138C0B2884238BF10BD41F241000A46EB
:10B8600084F84710C0F2060003A129F040FB2046EF
:10B87000BDE8104000F0E3B8757064617465207233
:10B88000656764656C6179202564000070B50D46BC
:10B8900002390229044602D3012D25D134E0207F4C
:10B8A000C0070DD040F24050C2F2000045F2E8114E
:10B8B00008444BF2F101C0F20001224626F038FCA8
:10B8C000204600F095F804F148000021425C1AB9C6
:10B8D000032901F10101F9D112B10020A064E06453
:10B8E000012D18BF032D0FD0042D2CD140F2405054
:10B8F000C2F2000045F2381204F12C01104432F07B
:10B900003DFE002818BF70BD40F24056C2F200064E
:10B9100048F65860305CB8B10021254645F82C1F28
:10B92000287448F648606960A960E96031182846C3
:10B9300018F028FCA5F1080032F02BFC68B1204675
:10B9400000F0E2F868B170BD40F6DF40C0F20700D9
:10B95000752147F0CDFB00BFFEE7A06A616AA063D6
:10B9600061630120607747F037FB024645F23810EB
:10B97000304429462262BDE8704017F0D7BE00006F
:10B9800010B584B0044640F24050C2F2000048F6C0
:10B990003C61084401A931F00DFDD0B9BDF8061095
:10B9A0000120022928BF2AF09DFCB4F84410013977
:10B9B00089B281420DD3A4F84400204600F03FF83C
:10B9C000B4F8442041F24100C0F2060002A129F07F
:10B9D0008EFA04B010BD00BF75706461746520728A
:10B9E0006572656764656C617920256400000000FC
:10B9F000B0B50446407F40F240550228C2F200052F
:10BA00000CD1207FC00709D045F2E8104BF2F101BC
:10BA10002844C0F20001224626F08AFB94F83E201A
:10BA20000020607745F2381002F0FE02284404F14D
:10BA30002C0184F83E20BDE8B04017F0CDBE406C2C
:10BA400038B140F24050C2F200002830052101F028
:10BA500034BB40F24050C2F200002830052101F012
:10BA600043BB000070B588B0044608460D4632F06E
:10BA70006EFB08B107203CE004F12406304632F0AA
:10BA800088FB28B9304629460822FCF7E8FB78B342
:10BA90002868696801ADC4E909012846314632F0D9
:10BAA000D5FB41F2410005F10802C0F2060012A1E7
:10BAB00029F00CFA40F24050C2F2000045F2381171
:10BAC00004F12C0546183046294632F057FD78B16E
:10BAD0002046FFF78DFFA06A616AA06301206163C1
:10BAE000607747F079FA20623046294617F01EFE4B
:10BAF000002008B070BD00BF53657420445541203C
:10BB00004949443A20257300F0B58FB00646807F3E
:10BB100040F240578DF8370006F12C05C2F20007BD
:10BB200045F260300DF137043844294600220023E5
:10BB3000009434F0EBFD044658B1204605F032F88D
:10BB4000024641F24100C0F2060013A129F09CF91F
:10BB50001EE09DF83700B17F88420BD0B0778DF89A
:10BB60003800012607F138000EAA01AB0821009623
:10BB70002FF076FA01AE3046294632F0ADFE41F2A2
:10BB8000410006F10802C0F2060008A129F09EF962
:10BB900020460FB0F0BD00BF47656E6572617465E9
:10BBA000204455413A2025730000000047656E652A
:10BBB0007261746564204455413A20257300000089
:10BBC0002DE9F04381B0044640F24050C2F200003B
:10BBD0001546091A45F64872891A6A1E012A48F65E
:10BBE000A3324FEA2111CBF62E2201FB02F629D80F
:10BBF000B2B2202A5FD2C6F3CC0104EB010847465B
:10BC000017F8481F06F0070901FA09F31B0619D5B2
:10BC1000B4F8503093420AD145F2E81108444BF28F
:10BC2000F101C0F20001224626F082FA39786FF065
:10BC3000800098F84C2040FA09F00140104039701B
:10BC400088F84C00022D24D2A06CE16C884207D108
:10BC5000012005212AF02CFB01462046FFF7D2F9EE
:10BC6000B0B220282FD2C6F3CC02224406F007003F
:10BC7000802192F84830C140194392F84C7082F804
:10BC800048106FF0800141FA00F0384082F84C0013
:10BC90000EE0032D0CD1B0B220281CD2C6F3CC008C
:10BCA000204490F8480006F0070188400006CBD5F4
:10BCB00001B0BDE8F0834FF6F920C0F206004C2138
:10BCC00047F016FAFEE74FF6F920C0F206005921B8
:10BCD00047F00EFAFEE74FF6F920C0F206004C21BD
:10BCE00047F006FAFEE70000F0B587B000F1240443
:10BCF0000546204632F04DFAB0BB05F1340021462E
:10BD00000822FCF7ACFAF0B940F2405705F12C06D6
:10BD1000C2F2000745F238103844314632F02EFCAA
:10BD200088B12846FFF764FE2846FFF7EDFE50B9BC
:10BD30000120687747F050F9286245F238103844FE
:10BD4000314617F0F3FC6D462846214632F07EFA64
:10BD500041F2410005F10802C0F2060003A129F0FA
:10BD6000B5F800206060206007B0F0BD436C6561ED
:10BD700072656420445541204949443A20257300A6
:10BD800041F00201032918BF704740F24051C2F24E
:10BD9000000145F62C528A5C92070CD445F61252EB
:10BDA0008A5C120706D045F61452895A022908BF48
:10BDB000FFF7E6BD7047FFF7E3BD10B50446FFF798
:10BDC00017FEA07F0130A0772046FFF79DFE00B14F
:10BDD00010BD0120607747F0FFF8024640F2405066
:10BDE000C2F2000045F23811084404F12C0122622D
:10BDF000BDE8104017F09ABC10B582B00446002090
:10BE00008DF8040040F24050C2F20000383001AA20
:10BE10000821012335F043FF10B99DF80400A077F5
:10BE200002B010BDB0B50C4691F83110022920D1F6
:10BE3000054694F8300010F0300F14D140F2405015
:10BE4000C2F2000045F2E8110844214626F00BF941
:10BE500048B904F0DDFA024641F24100C0F20600A2
:10BE60000DA129F033F828462146FFF743F904468F
:10BE700000E0062404F0CCFA0546204604F092FEC9
:10BE8000034641F24100C0F2060006A12A46BDE881
:10BE9000B04029F01BB800BF53656E742025732095
:10BEA00061636B0052656365697665642025733A4A
:10BEB00020257300B0B504464BF2D110C0F2030048
:10BEC0006060207F002500F0FE0020772020A4F88D
:10BED000500004F12C00A560A4F81D502562656493
:10BEE00017F012FC2046A5626562A564E564B0BD4A
:10BEF000B0B5044640F24050C2F2000000F1100517
:10BF00000A46284621464FF480232EF046FE00B113
:10BF1000B0BD28464FF480712EF034FE0020206121
:10BF2000204600F02BF82046BDE8B04000F088B86D
:10BF30000A46098851B100F1800140F24050C2F236
:10BF4000000010304FF480132EF045BE41F25A002D
:10BF5000C0F2060001A1002228F0A7BF4B6579209E
:10BF6000526F746174696F6E2054696D6520746FCF
:10BF70006F20736D616C6C3A202564002DE9F041EF
:10BF800096B001690EAD2A4604462FF0E4F904F19B
:10BF9000140029460022002618F0DBF9CDE90C66D2
:10BFA000CDE90A66CDE90866CDE90666CDE9046605
:10BFB000CDE9026605F110060DF12808404631462C
:10BFC000002218F0C6F920692A46411E20462FF0AB
:10BFD000C2F906AF38463146002218F0BAF9206996
:10BFE0002A46411C20462FF0B6F902AD28463146BC
:10BFF000002218F0AEF9207C45F6781100F07F00A1
:10C00000421C40F24050C2F20000084408213B4666
:10C01000CDF8008001951AF027FE16B0BDE8F0813A
:10C02000B0B588B06D462A4604462FF094F9243402
:10C0300020462946002218F08CF9204608B0B0BDF1
:10C0400070B582B040F24054C2F2000445F60C5084
:10C050000025255004F5BA40002118F07DF945F679
:10C060000850255047F6CC30205C342100FB01F607
:10C0700045F60450255076B147F25850044400BFAD
:10C0800020460021E56018F067F9C4E90155343E07
:10C0900004F13404F4D140F24051C2F20001684688
:10C0A0000522FEF7BBFE009E86B100256C4600BF50
:10C0B00006F10C000021B56118F04EF92046C6E9E2
:10C0C0000455FEF783FE009E002EF1D102B070BD34
:10C0D000426B8A4288BF7047C26B01319142416313
:10C0E00000D2704740F24050C2F2000045F6D04105
:10C0F00008441EF0F3B970B50446006988420AD1BD
:10C1000040F24050C2F2000010304FF48071BDE8A0
:10C1100070402EF014BD01300D46884217D1A16D3C
:10C1200004F15000814212D094F84C1061B1D4E96E
:10C130001112914238BF70BD002161644EF68061DA
:10C14000C0F2360101F00DF8012084F84C002046C1
:10C150002561FFF713FF04F134000021002518F0DA
:10C16000FBF840F24056C2F2000645F67810304423
:10C17000002100221AF064F906F110004FF48071DA
:10C18000A563BDE870402EF0FDBC10B50446406CC0
:10C19000616D01304EF68062606404F15000C0F2BF
:10C1A000360200F0F9FF606CB4F88010884238BFA6
:10C1B00010BD2069411C2046BDE81040FFF79BBF21
:10C1C000B0B5343014460D4618F0C6F840F2405071
:10C1D000C2F2000045F67811084429462246BDE81F
:10C1E000B0401AF02DB9816B026C0131914281632C
:10C1F00038BF704740F24050C2F2000045F6D041CF
:10C2000008441EF06BB9503000F09FBF00234EF67B
:10C210008061024680F84C305030C0F236015364E1
:10C2200000F09FBF10B504466C30012218F091F861
:10C230000020E06710BD10B50A46044600F15C011D
:10C2400040F24050C2F2000010304FF400232EF0B4
:10C25000E7FC94F8840040F0010084F8840010BDED
:10C26000B0B5044610302421FBF7A5FF4FF41C7035
:10C27000A06440F65F00C0F20100214641F8500F73
:10C280000025A16504F16C001421C4E90E55C4E930
:10C29000105584F84C50FBF78EFF4FF42870A4F82B
:10C2A00080008F2084F8820094F8830094F8841032
:10C2B00000F0F00084F8830001F0FE0084F88400B0
:10C2C00047F0BFF82046102147F06BF904F1340025
:10C2D0000021E56525666566A56618F03DF82046EF
:10C2E000B0BD10B5F9B1488A40F2405C4FF6FF721C
:10C2F000C2F2000C0CEB4013801A47F6C84E18BF70
:10C3000003EB0E0018B3438A0CEB43149B1A18BFBF
:10C3100004EB0E03A3EB0C04A4EB0E04002B18BFDC
:10C3200062094A8210BD0246006880B1418A40F22B
:10C330004053C2F2000303EB411E4FF6FF73C91ACC
:10C3400047F6C84C18BF0EEB0C01116010BD002061
:10C3500010BD000010B50368F3B191F800C04FF0B4
:10C36000000E00BF1C7E196AA44509D1BEF1000F62
:10C3700008D0DEF820404CB1246ACEF8204005E019
:10C380009E4606E004680CB1246A046014681360D9
:10C390001C6200290B46E5D110BD000010B5044613
:10C3A00041F28100C0F2060008A128F08FFD20466E
:10C3B0000221002200F060FA2046002100F00EF871
:10C3C00020460021BDE8104000F0A3B94D4C52209A
:10C3D00052657265676973746572210010B5044611
:10C3E0008079C00707D181B1A088013880B2884226
:10C3F00028BFA1800EE0A08888B141F26060C0F241
:10C400000700C22146F074FEFEE70020A08020460F
:10C4100000F0ACFA2046BDE8104000F08ABA10BD2A
:10C4200010B50446808830B101380104A08002D1E3
:10C43000204600F09BFA206828B10138206002D124
:10C440002046FFF7ABFF2046BDE8104000F071BA70
:10C450002DE9F0438FB0169F1C460E46014315464A
:10C4600008BF002D2ED004F09DFB8046304604F01E
:10C4700099FB034641F2810041F21B61C0F20600C4
:10C48000C0F2070142460095019728F0FDFCB7B1C4
:10C490000DF10C0841F2810908F10806C0F2060905
:10C4A0000DA500BF4046214632F016FA48462946FF
:10C4B000324628F0E9FC013F04F11004F2D10FB03C
:10C4C000BDE8F08341F28100C0F2060006A10FB082
:10C4D000BDE8F04328F0FABC4D41206661696C6507
:10C4E000643A202573000000526563656976652013
:10C4F0004D4C522E727370204F4B0000B0B50D465C
:10C50000C904044602D5204600F0B6F8680758BFB3
:10C51000B0BD40F24050C2F2000045F6F141405C2F
:10C52000022805D120460121BDE8B04000F0F1B855
:10C53000B0BD00002DE9F04F95B041F28100C0F28E
:10C5400006003DA128F0D3FC40F24050C2F20000AA
:10C5500045F23811014401A8002217F0B2F9019EFA
:10C5600041F21768C0F20708F6B10DF1240A41F252
:10C5700081090AF10805C0F2060939A701AC00BF1C
:10C580005046314632F0A8F9307D394618F800306F
:10C5900048462A4628F0ABFC01980169204617F06E
:10C5A00079F9019E002EEBD140F24051C2F2000118
:10C5B00007A80022FEF732FC079DCDB30DF1240938
:10C5C00041F2810A09F1080601AFC0F2060A0FF232
:10C5D000980B00BF03208DF808000020019500BFD4
:10C5E000ADF80A00384626F0DBF9BDF80A00042849
:10C5F00018D0384633F00CFF04464846214632F046
:10C600006BF92846214633F00FFF18F80030AC8B49
:10C61000504659463246009428F069FCBDF80A009D
:10C620000130DDE707A8FEF7D1FB079D002DD1D132
:10C6300015B0BDE8F08F00BF2D2D2D2D2D2D2D2DEA
:10C64000204D756C74696361737420416464726514
:10C6500073736573202D2D2D2D2D2D2D2D00000094
:10C66000252D333273256300252D33327325632046
:10C670002530347800000000F0B583B0044640F265
:10C680004050C2F2000045F23811014468460322CE
:10C6900017F017F9009E9EB102276D46307D38B91C
:10C6A0002046314600222EF015FF08B1377500BF35
:10C6B00000980169284617F0EDF8009E002EEDD194
:10C6C00020460021FFF78AFE03B0F0BD2DE9F043BC
:10C6D00081B0147891461D4688465CB1264647468F
:10C6E000384629461022FBF7BAFD78B1013E07F122
:10C6F0001007F5D1631C08EB04102946102289F8B5
:10C70000003001B0BDE8F043FBF72EBD01B0BDE83D
:10C71000F08370B584B040F24052C2F2000245F698
:10C720002C53D35C0C469907054609D445F61250A4
:10C73000105C00070BD045F61450105A022806D1A1
:10C7400048F63C60115A4FF6FE73994202D100261A
:10C750002E601EE0104401A930F02CFE3CB1BDF863
:10C760000610012002290ED329F0BCFD0BE002992E
:10C770000120B1F5967F98BF4FF4967100EB510000
:10C78000093929F0C9FD296801260139814228BFEC
:10C790002860284600F0CDF82D6841F2810041F272
:10C7A000B361C0F20600C0F207012246334600958D
:10C7B00028F09DFB04B070BD2DE9F04F87B08B468B
:10C7C000897F814601F00F01072910D103208DF8E0
:10C7D00008000020ADF80A0001A81D469046CDF8DB
:10C7E00004B026F0DDF8BDF80A00042810D1484650
:10C7F000FFF7A0FE9BF89C0038B10120052129F02D
:10C8000071FD01464846FFF7E9FD07B0BDE8F08F2E
:10C810000DF1040A504633F0FBFD044647462E4610
:10C8200055B100BF384621461022FBF718FD70B104
:10C83000013E07F11007F5D1484621462EF014FEBF
:10C8400028B9484621465A462EF044FE88B10222B5
:10C850005846214626F02CF9BDF80A000130ADF803
:10C860000A00504626F09CF8BDF80A000428D1D1F1
:10C87000BDE70022ECE700002DE9F04F89B040F25F
:10C8800040500D46C2F2000045F238119146014475
:10C8900001A8032217F015F8019868B101AE00BF96
:10C8A000017DA94208BF80F814900169304616F056
:10C8B000F1FF01980028F3D140F24051C2F200018B
:10C8C00007A800224FF0000AFEF7A8FA079F6FB3EF
:10C8D0004FF0030B01AE0DF11C0800BF01978DF85E
:10C8E00008B0ADF80AA000BF304626F059F8BDF8F0
:10C8F0000A00042814D0304633F08AFD0446384636
:10C90000214633F091FDA84204D1384621464A46DB
:10C9100026F0CEF8BDF80A000130ADF80A00E3E7D2
:10C920004046FEF753FA079F002FD7D109B0BDE864
:10C93000F08F818809B9006838B140F24050C2F2E6
:10C9400000002830062100F0B8BB40F24050C2F28F
:10C9500000002830062100F0C7BB01F0FD010139BD
:10C96000B1FA81F14909FFF7D4BE00002DE9F04F7B
:10C97000C7B0044680790021C0078DF82B101FD165
:10C9800040F24055C2F2000545F6D040284432F04E
:10C990001BFFA8B145F62C50285C800709D445F64A
:10C9A0001250285C00070BD045F61450285A022874
:10C9B00006D148F63C60285A4FF6FE7188420AD1EB
:10C9C000204601210022FFF757FF2046FFF7B2FD66
:10C9D00047B0BDE8F08F45F23810291802A80322AD
:10C9E00016F06FFF029F4FF00009D7B10DF12C0830
:10C9F0000DF12B0A012602AD387D40B94146524661
:10CA00003B46FFF763FE3E75029F9DF82B90396908
:10CA1000284616F03FFF029F1FB15FFA89F00F28EA
:10CA2000EAD340F24057C2F2000708A83946002274
:10CA3000FEF7F4F9089E002E5BD05FFA89F00E280D
:10CA40004ED80DF1200B02AD0DF12C080DF12B0A83
:10CA500096F89C00D0B303208DF80C000020ADF8B0
:10CA60000E002846029625F09BFFBDF80E00042814
:10CA70002CD0284633F0CCFC5FFA89F10E2925D85A
:10CA8000074600BF3046394633F0CEFC48B9414630
:10CA900052463B46FFF71AFE30463946012226F041
:10CAA00007F8BDF80E000130ADF80E00284625F05D
:10CAB00077FFBDF80E00042808D09DF82B7028469B
:10CAC00033F0A6FC0F2F0746DCD300BF5846FEF715
:10CAD0007DF9089E9DF82B903EB1B9F10E0FB7D9A4
:10CAE00040F24057C2F2000707E040F24057C2F25E
:10CAF00000075FEA09603FF463AF4CF69570C0F23F
:10CB0000000000905FFA89F20BA9204600230194EF
:10CB100000F0CCF868B10546204601210022FFF75D
:10CB2000ABFE032D7FF451AF20460121FFF756FCE9
:10CB30004BE7A07940F00100A07145F62C50385C1D
:10CB400000073FF542AF45F6B4403844002107F0F6
:10CB500015FB3AE72DE9F04F8BB09B4683791446DD
:10CB6000DA0708D141F26060C0F2070040F22F21DD
:10CB700046F0BEFAFEE7019103F0FE0100908171DC
:10CB800040F24050C2F2000045F23811014403A8BF
:10CB9000032216F096FE039DD846029455B3BBFAC5
:10CBA0008BF0019E400940EA060A0DF10C09002EA7
:10CBB00018BF0226287D012815D1BAF1000F304692
:10CBC0000ED100BF204629461022FBF748FB30B1AA
:10CBD000BBF1010B04F11004F4D1022000E00020AD
:10CBE000029CC34628752969484616F053FE039DEA
:10CBF000002DDFD140F24051C2F2000109A800220D
:10CC0000FEF70CF9099D002D4AD0B8FA88F0DDF83E
:10CC10000490400940EA090A0DF10C0BB9F1000F2C
:10CC200018BF4FF0020900BF03208DF8100000204C
:10CC3000039500BFADF81200584625F0B1FEBDF8CF
:10CC40001200042826D0584633F0E2FB044628465A
:10CC5000214633F0E9FB012817D1029EBAF1000FFB
:10CC600047464A460DD100BF304621461022FBF709
:10CC7000F6FA28B1013F06F11006F5D1022200E0D4
:10CC800000222846214625F013FFBDF8120001308E
:10CC9000D0E700BF09A8FEF799F8099D002DC3D180
:10CCA0000098FFF747FC0BB0BDE8F08F2DE9F04F7F
:10CCB0008FB00DF110090E4648462C219A46904639
:10CCC000FBF779FA40F2405BC2F2000B48F63C6198
:10CCD0003BF801104FF6FE724FF2BF009142ADF8E3
:10CCE000320002D100240D271EE045F2E81058441E
:10CCF000262125F0CCFCA8B104460E208DF80C00AE
:10CD00004FEA081503A9204602228DF80D502DF098
:10CD100050F928B9204631462A462DF04AF9B8B1D3
:10CD2000074601E000240327384603F03BFF024694
:10CD300041F28100C0F2060039A128F0C7F81FB106
:10CD400014B120462DF025FB38460FB0BDE8F08F1A
:10CD5000BAF1000F09D041F26060C0F2070040F262
:10CD6000A11146F0C5F900BFFEE745F62C501BF8AF
:10CD70000000800722D445F612501BF8000000077F
:10CD80001CD045F614503BF80000022816D148F696
:10CD90003C6058440DF10B0130F09DFA0746002825
:10CDA000C2D19DF80B1045F6D04009F1100258444D
:10CDB00032F01BFD07460028B6D10AE048F63C6178
:10CDC0003BF8012045F6B86109F11000594417F00D
:10CDD00036F904AEDDE91857304624F0FDF845F287
:10CDE000E8105844214632462B46009725F06AF851
:10CDF000074641F28100C0F2060002A1424628F037
:10CE000065F891E753656E74204D4C522E72657132
:10CE10003A20616464726573734E756D3D256400DC
:10CE200053656E644D756C7469636173744C69739A
:10CE300074656E6572526567697374726174696F47
:10CE40006E4D65737361676528293A20257300006C
:10CE50002DE9F04383B0DDF8289098461646044645
:10CE60000625157048BB0F4639B307F1310040F075
:10CE70000100007844281FD138460421324623F0AF
:10CE80008EFF0546C8B90DF10A0202AB38460E21E5
:10CE900024F035F850B1317899F8000000250029C8
:10CEA00008BF0625002808BF054606E0BDF80800B3
:10CEB0006FF0F001084210D00625327899F8007022
:10CEC0002046294643460097FFF7C2FA002C08BFC8
:10CED0002C46204603B0BDE8F0830028DBD099F84B
:10CEE00000000025002100BFBDF80A20C0B2114497
:10CEF00008EB001289B23846102334F0E1FC99F8AF
:10CF0000000005F11001BDF808208DB201309542F6
:10CF100089F80000E8D3BEE770B5C2B0044600202F
:10CF200005AD8DF813000DF113060DF2071218462A
:10CF30002B460096FFF78CFF9DF807110646084325
:10CF4000B0FA80F09DF81330410920462A46FFF7D9
:10CF500001FE2EB99DF8070110B92046002115E009
:10CF600040F24050C2F2000048F63C61084401A97A
:10CF700030F020FA60B9BDF80610022904D3012070
:10CF800029F0B0F9014600E001212046FFF726FA1A
:10CF900042B070BDFFF7C0BF82790021016081807F
:10CFA00002F0FE018171704780B5272807D141F654
:10CFB0007920C0F20700932146F09AF8FEE740F688
:10CFC0002471C0F2060151F8200080BD0121012822
:10CFD000B8BF0321002818BF0846704700F00300BF
:10CFE00001A10856704700BF000100FF027800BF92
:10CFF0002AB18A4208BF704710F8012FF8E70020D5
:10D00000704770B504468668051D4FF47A70042198
:10D0100029F099F98119284600F0AFF8206840F20C
:10D020004055C107C2F2000505D045F6DC30284462
:10D0300004F03AFB2068810705D545F6D040284426
:10D040001EF0A6FB2068410705D547F6C0402844DE
:10D0500007F0E0FF2068010705D548F6B8602844CE
:10D0600009F0CEF82068C10605D545F258002844DD
:10D0700015F060F92068810605D548F664602844FB
:10D08000FDF754FF2068410605D548F65C6028444A
:10D09000FFF7C6F92068C10505D545F2940028447C
:10D0A00015F072FD2068800558BF70BD45F6D04070
:10D0B0002844BDE870401AF0F5BC10B5012202FA10
:10D0C00001F10268C368041D1143A342016018BF47
:10D0D00010BD002040F2E93129F01EF9014620463A
:10D0E000BDE8104000F03DB80122036802FA01F1EA
:10D0F00023EA0101016001B17047043000F025B856
:10D100000021016040F67101C0F20101024642F8BF
:10D11000041FC2607047034680688C46984206D060
:10D120005868ACEB0000B0F1FF3FC8BF704740F259
:10D130004050C2F2000040F618520830C0F2060219
:10D140001946C3F804C026F053BC014640F24050D3
:10D15000C2F2000040F618520830C0F2060226F073
:10D1600087BCB0B50C46054645F036FF014628465B
:10D170002246BDE8B04000F00FB80B46014640F231
:10D180004050C2F2000040F618520830C0F20602C9
:10D190004B6026F02DBC000080B5B2F1FF3F12DDE0
:10D1A000034640F2405001EB020CC2F2000040F690
:10D1B00018520830C0F206021946C3F804C0BDE890
:10D1C000804026F015BC4FF6D360C0F20600542113
:10D1D00045F08EFFFEE700002DE9F04F87B00446D2
:10D1E00000684FF0000B002800F0048198181FFA27
:10D1F00080FA154692454FF00008CDF80CB0CDE905
:10D2000001BB40F2D9800E464FF0000806AF4FF048
:10D21000000B00BF1FFA85F9304649463A46022303
:10D2200034F04EFB002840F0DE809DF819004844A1
:10D230000230504500F2D9809DF81800B0B10528A1
:10D2400040F0B2804BEA0800C00740F0D180304681
:10D2500049460DF1030223F0E9FD002840F0C380A8
:10D260004FF000084FF0010B9EE000BF5FEACB706B
:10D2700040F0BE803046494604AA042334F020FB27
:10D28000002840F0B0809DF811000228C0F0AD8069
:10D290009DF9120000284CD4C7B2780608D5304654
:10D2A000494604AA072334F00BFB002840F09B807A
:10D2B0004FF001080A2F4FF0000B21DC092F3DD061
:10D2C0000A2F06AF70D19DF813007F2200EB80106B
:10D2D00002EB400048F281029DF8041080B2C8F2CF
:10D2E0008002A0FB020241F004008DF80400D20984
:10D2F00040F624508DF80D20C0F2060052A116E031
:10D300000B2F2BD0402F06AF4ED19DF80400DDF837
:10D31000131040F001008DF804000ABA40F62450C2
:10D3200040F6DC51C0F20600C0F20701029227F07D
:10D33000DEFD4FF001084FF0000B35E09DF80400D2
:10D340009DF8132040F002008DF8040040F62450B0
:10D350008DF80C20C0F2060047A11EE09DF81300D6
:10D360007F2200EB801002EB400048F281029DF822
:10D37000041080B2C8F28002A0FB020241F0080053
:10D380008DF804007E2000EBD2108DF80E0042B222
:10D3900040F62450C0F206001FA127F0A8FD4FF070
:10D3A00001084FF0000B06AF9DF819002844851CBA
:10D3B000A8B25045FFF42EAF5FEACB7008BF5FEA1A
:10D3C000C8700DD09DF803101BF0010218BF0A466B
:10D3D00001A9109818BF0021D4E90073D2B2B84750
:10D3E0004FF0000B06E0834604E04FF0060B01E02F
:10D3F0004FF0020B584603F0D5FB024640F624508E
:10D4000040F60261C0F20600C0F2070127F06FFD8E
:10D4100007B0BDE8F08F00BF202D20525353493A8A
:10D42000202575202864426D2920284578706F6E6C
:10D43000656E7469616C204D6F76696E6720417608
:10D440006572616765290000202D204D6172676952
:10D450006E3A202575202864422920284578706F6F
:10D460006E656E7469616C204D6F76696E672041E0
:10D470007665726167652900202D204C51493A205C
:10D48000257520284578706F6E656E7469616C2013
:10D490004D6F76696E672041766572616765290018
:10D4A000F0B593B0144602AA1D460E462EF041F880
:10D4B0000746B0B9402D01D9072712E04FF0070702
:10D4C0007CB1FF2C0DD040F24050C2F2000045F676
:10D4D000D041084403AB3146224600951AF0A4F827
:10D4E0000746384603F05EFB024640F62450C0F281
:10D4F000060003A1234627F0FAFC384613B0F0BD1E
:10D5000053656E644C696E6B50726F62652C20655A
:10D5100072726F723A25732C20536572696573209D
:10D5200049443A25750000002DE9F04782B00546D0
:10D53000806800283ED091460E460DF1060201ABF0
:10D540000846582123F0DBFCB8BBBDF80600BDF847
:10D55000041001448CB2A0422ED20027EA460DF1FD
:10D56000030800BF81B230465246022334F0A8F9C6
:10D5700018BB9DF80000052809D1F8071CD1BDF89B
:10D5800006103046424623F051FCB0B901279DF801
:10D590000100BDF806100844023081B2A142ADF886
:10D5A0000600DFD3F80707D09DF80310D5E9023253
:10D5B00048469847002000E0062002B0BDE8F0870A
:10D5C000B0B582B00C46517957208DF80400481D43
:10D5D000002908BF032015468DF8050001A9204643
:10D5E00002222CF0E6FC28B92A782046012123F0FB
:10D5F00052FC08B102B0B0BD687988B102218DF843
:10D6000000108DF801006946204602222CF0D1FC62
:10D610000028EFD16A79691C20462CF0CAFCE9E7A2
:10D620000020E7E770B584B0164603AA1D460C46F5
:10D630002DF07FFF90BB16B90DB107202EE040F210
:10D640000710ADF804008DF80660ADB101AEF11C15
:10D6500028462DF09BFF01308DF8050040F2405028
:10D66000C2F2000045F6D0410844214632461CF083
:10D67000F2FD03992A780FE001208DF8050040F2B1
:10D680004050C2F2000045F6D041084401AA2146AC
:10D690001CF0E1FD0399002281F8302004B070BD38
:10D6A000F0B583B0144602AA1F460D462DF041FF87
:10D6B000064628BB9CB140F20320089EADF800004E
:10D6C00038468DF802402DF05CFF8DF8030046B11E
:10D6D0006846011D30462DF059FF023002E0072652
:10D6E0000EE002208DF8010040F24050C2F200002E
:10D6F00045F6D04108446A4629461CF0ACFD064672
:10D70000304603F04FFA024640F62450C0F20600BD
:10D7100003A1234627F0EBFB304603B0F0BD00BF6A
:10D7200053656E644D676D745265717565737446AB
:10D730006F7277617264547261636B696E6753656F
:10D74000726965732C206572726F723A25732C2092
:10D750005365726965732049443A257500000000DD
:10D76000F0B585B0154604AA1E460C462DF0E1FE24
:10D7700020BB00278DF80D70CDF809708DF808508A
:10D7800056B102A8411C30462DF000FF8DF80D0067
:10D7900015B108B1072011E040F24050C2F200007C
:10D7A00045F6D04141F2EC0202AE0844C0F2060256
:10D7B00021460123009701961AF0A8FA05B0F0BDA2
:10D7C000B0B51821044600F11C05FAF7F4FC00205E
:10D7D000002100BF22181030D16129461035B0F564
:10D7E000007FF7D1204400F10C012046A161B0BDBB
:10D7F00080B54A680AB98A683AB14FF6AA20C0F2E1
:10D8000006006E2145F074FCFEE745F20803D0F8EF
:10D8100004E0C25A00EB030C0B460968C3F800E0B1
:10D82000013A00299E46F7D14360ACF8002080BD44
:10D8300040F62273C0F20603002200F006B840F65C
:10D840002273C0F20603AFF300802DE9F0410F46CA
:10D8500059781E469046054600F022F80446E0B18D
:10D8600020468021FAF7A7FC07F0070084F82E0075
:10D870003078E56084F82F0071782046A4F81C8089
:10D880002CF0C0FB20B9204600212CF09CFD20B1DB
:10D8900028462146FFF7ACFF00242046BDE8F08172
:10D8A0002DE9F041054645F2080005EB000840F27D
:10D8B00040500E46C2F2000045F6DC31471800BF6A
:10D8C0006C686CB93846314603F080FB0028F7D00D
:10D8D00040F6C070C0F206000BA127F0F7FA10E086
:10D8E0002068B8F800106860481CB8F8022081B2BF
:10D8F000A8F800008A4238BF02460020A8F802209B
:10D9000020602046BDE8F0814E6F20617661696C31
:10D9100061626C65206D6573736167652062756611
:10D920006665720080B545F2080100EB010C00F15C
:10D93000080E0022002300BF811880328B607346DE
:10D940000EF1800EB2F5A04FF6D181187839416002
:10D950000021CCF8001080BD2DE9F041089DFE2D7E
:10D9600084BF0620BDE8F081044616460F46DDE977
:10D970000601226898462B4633F0A2FF08B1BDE8A5
:10D98000F081B8F1010F2571E771A67102D120462F
:10D9900000F090F940F24055C2F2000545F6F14022
:10D9A000285C042804D148F66410284401F086FA63
:10D9B0002268237940F63350C0F2060009A127F00F
:10D9C000FDFA207994F80611814238BF014684F8A7
:10D9D000061105F110004FF400712DF0D3F800206E
:10D9E000BDE8F0815365744E6574776F726B446166
:10D9F0007461000070B515460E46044600F03AF812
:10DA000075B1FC2D22D8A91C204600F09AFAE8B185
:10DA1000082101704570023031462A46FAF7A4FB0E
:10DA2000E179207994F806210131E171824238BF11
:10DA3000024640F24050C2F2000010304FF4007134
:10DA400084F806212DF09EF8002070BD032070BDE3
:10DA50000246007992F806314FF40071834238BFD4
:10DA6000034640F24050C2F20000103082F8063106
:10DA70002DF088B810B504460068217904220144CD
:10DA800000F0EEF828B101462046BDE8104000F055
:10DA900065BA10BD10B5044628F0ACFBE07128F063
:10DAA000A9FBA07140F240500022C2F200001030E9
:10DAB0004FF400712271BDE810402DF063B8F0B54D
:10DAC00081B004460A2020804AF6AA70101AB0FAE3
:10DAD00080F04FEA501001F00F0141EAC01046B249
