:020000040000FA
:1080000048450120D9800000E1800000458F000034
:10801000E5800000F987000045A500000000000091
:1080200000000000000000000000000091B8050002
:10803000ED80000000000000D1C40500F9C5050076
:10804000CD640400B9A40000D5A4000061A500001F
:10805000DD970500F3800000F3800000F397050032
:10806000F3800000C9380400F13804001B39040013
:1080700045390400F3800000F38000000DA50000E6
:1080800029A50000F3800000F38000000998050096
:10809000F7330400F3800000F3800000F380000059
:1080A000F3800000F3800000F3800000F380000004
:1080B000F1A40000F3800000F3800000F3800000D2
:1080C000618A0000DFF80CD000F058FB0048004740
:1080D000F1790400484501200648804706480047DA
:1080E000FEE7FEE7FEE7FEE7FEE7FEE7FEE7FEE768
:1080F000FEE7FEE723A10000C58000002DE9F05F48
:108100000546002092469B46884606468146402406
:108110001BE0284641464746224600F080FA534677
:108120005A46C01A914110D311461846224600F013
:1081300067FA2D1A67EB01084F46224601200021FD
:1081400000F05EFA17EB00094E41201EA4F1010475
:10815000DFDC484631462A464346BDE8F09F000032
:1081600000487047A8E7050010B5431A934209D2AA
:108170008318881803E010F8011D03F8011D521E32
:10818000F9D210BD40EA01039B0703D009E008C9FA
:10819000121F08C0042AFAD203E011F8013B00F8CC
:1081A000013B521EF9D210BDD2B201E000F8012B02
:1081B000491EFBD270470022F6E710B513460A4667
:1081C00004461946FFF7F0FF204610BD421E12F884
:1081D000013F002BFBD111F8013B02F8013B002BC2
:1081E000F9D1704730B505462A460B4612F8010B07
:1081F00013F8014B08B1A042F8D01CB1002802D0FE
:108200006D1CF1E7284630BD10B5044604E00B783C
:1082100000F8013B03B1491C521EF8D2204610BDA4
:10822000CAB2401E10F8011F8A4202D00029F9D1BB
:1082300000207047421C10F8011B0029FBD1801A56
:10824000704710B5002200E0521C835C8C5CA34296
:1082500001D1002BF8D1D8B2E1B2401A10BD30B52F
:1082600004460020034600E05B1C934203D2E05C1E
:10827000CD5C401BF8D030BD034611F8012B00F84F
:10828000012B002AF9D11846704730B50546002069
:10829000034600E05B1C934205D2EC5CC85C201AEC
:1082A00001D1002CF6D130BD10B54843044656F03C
:1082B000FDF9002805D00021002C02D0641E0155D4
:1082C000FAE710BD2DE9FE4F804681EA0300C00F9A
:1082D0000C46009021F0004123F00045B8EB02006D
:1082E000A94105D24046214690461C460B4602460F
:1082F00023F00040104347D0270DC7F30A00C3F313
:108300000A510290401A019040286BDAC3F313001F
:1083100040F4801B0098924620B10023D2EB030A60
:1083200063EB0B0B01985946C0F14002504600F038
:1083300067F906460D4650465946019A00F07FF906
:1083400010EB08006141002487EA115284EAE773C8
:108350001A4340D0009A62B3019A012A4FEA0752A9
:1083600015DC001B61EB02014FF0004202EA0752EC
:10837000CDE90042001C41F5801132462B4600F049
:108380007FF903B0BDE8F08F40462146F9E7001BB6
:1083900061EB0201001C41F5801300185B412018BD
:1083A000A2F5001747EB030140EAD570B6196D41FD
:1083B00011E06D084FEA360645EAC0754FEA0752EC
:1083C000001B61EB0201001C41F5801149084FEAD6
:1083D00030000019514132462B4603B0BDE8F04F42
:1083E00000F03FB90098012240000023D0EB0202C8
:1083F00063EBE073009821464FEAE074B8EB0000AD
:1084000061EB0401E9E783F000435BE781F00041A1
:1084100058E72DE9FE4F81EA030404F0004421F0FF
:10842000004100944FF0000B23F0004350EA010498
:108430005ED052EA03045BD0C3F30A54C1F30A5579
:108440002C44A4F2F3340194A0FB0254C1F31301B1
:1084500041F48011C3F3130343F4801301FB02447E
:1084600000FB034E840A970A44EA815447EA835783
:10847000A4FB076802958D0A05FB07854FEA932C3C
:1084800004FB0C542705029D4FEA065847EA1637AD
:10849000B5EB08056EEB070C870E920E47EA8117C5
:1084A00042EA8312A7FB0201B6EB0B0164EB000466
:1084B0002B0D43EA0C335E1844EB1C50DA46514650
:1084C000E7FB0201C5F313044FEA0B3343EA1453ED
:1084D0004FEA0432019C43EA0603A4F10C0402941F
:1084E000009CCDE900B400F0CBF803B0BDE8F08FFC
:1084F00000200146F9E72DE9F04D81EA030404F07C
:10850000004B21F0004514464FF0000A23F00041D3
:1085100050EA050220D054EA01021DD0C5F30A57E3
:108520000246C5F31303C1F31300C1F30A5640F426
:10853000801543F48013A7EB0608101BD64608F2FB
:10854000FD3873EB050002D308F1010801E0921831
:108550005B41B8F1000F03DA00200146BDE8F08D61
:1085600000204FF48011064684460EE0171B73EB83
:10857000050705D3121B63EB050306434CEA010C08
:1085800049084FEA300092185B4150EA0107EDD1EB
:1085900052EA030012D082EA040083EA050108438C
:1085A00005D0101BAB4106D20122002306E00022B9
:1085B0004FF0004302E06FF0010253101AEB060087
:1085C0004CEB085110EB0A0041EB0B01BDE8F04DFC
:1085D00000F047B830B50B460146002020220124A8
:1085E00009E021FA02F59D4205D303FA02F5491B81
:1085F00004FA02F52844151EA2F10102F1DC30BD97
:10860000202A04DB203A00FA02F100207047914052
:10861000C2F1200320FA03F3194390407047202A47
:1086200004DB203A21FA02F00021704721FA02F31C
:10863000D040C2F120029140084319467047202AD9
:1086400006DBCB17203A41FA02F043EAE07306E07A
:1086500041FA02F3D040C2F120029140084319468A
:10866000704710B5141E73F1000408DA401C41F184
:10867000000192185B411A4301D120F0010010BDA6
:108680002DE9F04D92469B4611B1B1FA81F202E01C
:10869000B0FA80F220329046FFF7B2FF04460F4650
:1086A00040EA0A0041EA0B0153465A46084313D0F8
:1086B000114653EA010019D0C8F140025046FFF7B5
:1086C000AEFF05460E46504659464246FFF798FF14
:1086D000084305D0012004E020463946BDE8F08D6E
:1086E0000020054346EAE0762C4337430A986305A9
:1086F000E40AA0EB08000022FD0A44EA47540A30CD
:1087000002D500200146E9E7010510196941DDE9BC
:10871000084500196941BDE8F04DA2E7C1F30A52CE
:10872000C1F3130140F2FF3341F480119A4202DA9F
:1087300000200146704740F233439A42A2F233428E
:1087400002DC5242FFF76BBFFFF75ABF30B5041E81
:1087500071F1000404DB4FF00044404264EB01017E
:10876000141E73F1000405DB1C464FF00043524217
:1087700063EB0403994208BF904230BD064C074D9D
:1087800006E0E06840F0010394E8070098471034E1
:10879000AC42F6D3FFF79AFC0439070024390700EE
:1087A00070B58C1810F8015B15F0070301D110F8B3
:1087B000013B2A1106D110F8012B03E010F8016BE0
:1087C00001F8016B5B1EF9D12B0705D40023521E63
:1087D0000DD401F8013BFAE710F8013BCB1A921CCB
:1087E00003E013F8015B01F8015B521EF9D5A142C9
:1087F000D8D3002070BD000001A04FF0ECBB00BF3B
:108800004275734661756C745F48616E646C657225
:10881000000000002DE9F043A1B0064630A00F464D
:1088200055F042FAB7B343F2FE38C0F207080DF133
:10883000040935463C4600BF15F8012B4846414621
:1088400055F05CFA484655F02FFA013CF4D10A2065
:1088500055F062FF0FB342F290404FF6FF71C0F245
:10886000060000BF16F8012B013F82EA010303F066
:108870000F0330F8133089B283EA11118BB201F083
:108880000F0181EA121130F8111081EA1311E9D1B8
:10889000CE4303E00A2055F03FFF002613A0ADF8B9
:1088A000026055F001FA43F2FE34C0F2070401AD54
:1088B000F2B22846214655F021FA284655F0F4F93F
:1088C0009DF803202846214655F018FA284655F011
:1088D000EBF90A2055F020FFB0B221B0BDE8F083DB
:1088E0004352435F427566663D0000004352433D7C
:1088F0000000000070B584B00021022802910191AF
:1089000001D90520A9E00424C4F2800421680028CC
:1089100021F003012160216821F48071216000F0C1
:108920009580012847D12068BC2520F40070C4F24E
:1089300020052060A868002620F48000A860029628
:108940000298012800F28280206840F48070206044
:108950000396039800094A2808D800BF00BF03986F
:10896000013003900398B0F5966FF7D3286800F0B4
:1089700040512068B1F1805F65D020F480702060A4
:10898000039603980009182808D800BF00BF039871
:10899000013003900398B0F5C87FF7D301F081F858
:1089A00001900198022851D002980130029002985B
:1089B0000228C9D34AE02068BC2540F40070C4F204
:1089C00020052060A868002640F48000A860029678
:1089D000029801283AD800BF206840F480702060D7
:1089E0000396039800094A2808D800BF00BF0398DF
:1089F000013003900398B0F5966FF7D3286800F024
:108A000040512068B1F1805F1DD020F4807020605B
:108A1000039603980009182808D800BF00BF0398E0
:108A2000013003900398B0F5C87FF7D301F039F80F
:108A300001900198022809D0029801300290029812
:108A40000228C9D302E040F0030020603DF069FA3B
:108A500001F053FB00F044F8002004B070BD0000AA
:108A60000420C4F220004168C90708BF70470168AC
:108A700041F0010101604068C00707D149F6D47098
:108A8000C2F20000006810B1004700BFFEE7704767
:108A90004EF28410CEF2000001210160BFF34F8F2F
:108AA0000020BFF36F8FC4F22000016821F00201A3
:108AB0000160416841F00101416070470020C4F24B
:108AC0002000416841F001014160016841F002016C
:108AD00001604EF20410CEF20000012101607047E7
:108AE00080B500F013FA022888BF80BD08A10BA250
:108AF00051F8201052F8200040F21002C2F2000299
:108B0000116040F20C01C2F20001086080BD00BF9C
:108B1000C38C0000098D00006F8D0000298B0000C0
:108B2000918B00001D8C000010B582B0019001985F
:108B300000282BD040F21004C2F200040198013842
:108B40000190216840F2E7308847019800281AD048
:108B500000BF00BF00BF00BF00BF00BF00BF00BF1D
:108B600000BF00BF00BF00BF00BF00BF00BF00BF0D
:108B700000BF00BF00BF00BF00BF00BF00BF00BFFD
:108B800000BF00BF00BF01980028D7D102B010BDC0
:108B900010B582B001900198002800F03C8040F2AE
:108BA0001004C2F2000400BF01980138019021684E
:108BB00040F2E730884700BF00BF00BF00BF019808
:108BC000002824D000BF00BF00BF00BF00BF00BF0F
:108BD00000BF00BF00BF00BF00BF00BF00BF00BF9D
:108BE00000BF00BF00BF00BF00BF00BF00BF00BF8D
:108BF00000BF00BF00BF00BF00BF00BF00BF00BF7D
:108C000000BF00BF00BF00BF00BF00BF00BF019892
:108C100000287FF4C9AF02B010BD000010B582B0CB
:108C200001900198002800F04A8040F21004C2F23E
:108C3000000400BF019801380190216840F2E7303C
:108C4000884700BF00BF00BF00BF00BF00BF00BF1C
:108C500000BF00BF00BF00BF00BF00BF00BF00BF1C
:108C600000BF00BF00BF0198002824D000BF00BF94
:108C700000BF00BF00BF00BF00BF00BF00BF00BFFC
:108C800000BF00BF00BF00BF00BF00BF00BF00BFEC
:108C900000BF00BF00BF00BF00BF00BF00BF00BFDC
:108CA00000BF00BF00BF00BF00BF00BF00BF00BFCC
:108CB00000BF00BF00BF019800287FF4BBAF02B027
:108CC00010BD81B00090401E00BF00BF00BF00BFBC
:108CD00000BF00BF00BF00BF00D113E000BF00BF56
:108CE00000BF00BF00BF00BF00BF00BF00BF00BF8C
:108CF00000BF00BF00BF00BF00BF00BF00BF00BF7C
:108D000000BFE0E701B0704781B00090401E00BF97
:108D100000BF00BF00BF00BF00BF00BF00BF00BF5B
:108D200000BF00BF00BF00BF00BF00BF00BF00BF4B
:108D300000BF00BF00BF00BF00BF00BF00D114E0F4
:108D400000BF00BF00BF00BF00BF00BF00BF00BF2B
:108D500000BF00BF00BF00BF00BF00BF00BF00BF1B
:108D600000BF00BF00BF00BFD0E701B0704781B0B7
:108D70000090401E00BF00BF00BF00BF00BF00BF8B
:108D800000BF00BF00BF00BF00BF00BF00BF00BFEB
:108D900000BF00BF00BF00BF00BF00BF00BF00BFDB
:108DA00000BF00BF00BF00BF00BF00BF00BF00BFCB
:108DB00000BF00BF00BF00BF00BF00BF00BF00BFBB
:108DC00000BF00D114E000BF00BF00BF00BF00BF64
:108DD00000BF00BF00BF00BF00BF00BF00BF00BF9B
:108DE00000BF00BF00BF00BF00BF00BF00BFC0E7A3
:108DF00001B0704710B504463CF089FF1321B1EB78
:108E0000104F14D0000C15281FD014281CBF0120AF
:108E100010BD4FF2040C4FF6F873C0F20F0CC0F205
:108E20000F030CF57F61181D4FF47F221AE04FF2FB
:108E3000040C4FF6F873C0F2070CC0F207030CF5F0
:108E40007F61181D4FF4FE220CE04FF200024FF636
:108E5000F471C0F21F02C0F21F0102F1040C0B1DDD
:108E600001F108001B682360006860600868A0606A
:108E7000DCF80000E06010682061002010BD0000F8
:108E8000B8B10168013114D0B0F8051089B14018AB
:108E90000FD000BF016801310BD001797E2908BFD6
:108EA0007047B0F80510002918BF01440029084692
:108EB000F0D100207047B020C4F22000016889077B
:108EC00002D40168C90702D10168890701D40120D1
:108ED0007047006800F0010070470000B0B586B030
:108EE00001AD044628461421FFF765F92846FFF72F
:108EF00081FF059840B100BF0168A14204D0FFF78F
:108F0000BFFF0028F8D1002006B0B0BD0420C4F295
:108F100080000168890704BF00207047016801F0E4
:108F20000301032904D10168C90502D4FEE700BF8B
:108F3000FEE70168890551BF01200068022101EAAE
:108F400010207047042071460842EFF30980EFF3C8
:108F50000880714647F0D0BD70474CF2DC41C2F248
:108F600000010A681043086070474CF2DC41C2F20D
:108F700000010A6822EA000008607047827BC1791C
:108F8000032A05D0022A05D0012A1ED1113002E0A1
:108F9000173000E014300139012988BF7047902153
:108FA000C4F2200100780A6860F303020A600A68CC
:108FB00000F00F0022F0F00242EA00120A600A6894
:108FC00022F4706242EA002008607047827BC17917
:108FD000032A05D0022A05D0012A1ED1113002E051
:108FE000173000E014300139012988BF70479821FB
:108FF000C4F2200100780A6860F303020A600A687C
:1090000000F00F0022F0F00242EA00120A600A6843
:1090100022F4706242EA002008607047827BC179C6
:10902000032A05D0022A05D0012A20D1113002E0FE
:10903000173000E014300139012988BF70479021B2
:10904000C4F2200100780A6800F00F0022F47022B8
:1090500042EA00420A600A6822F4700242EA0052C0
:109060000A600A6822F0706242EA00600860704795
:10907000827BC179032A05D0022A05D0012A14D1A6
:10908000113002E0173000E014300139012988BFA7
:1090900070470021C4F2200100780A6800F00F0038
:1090A00022F4706242EA002008607047B0B51446AE
:1090B0000D46FFF713FF48B135B100BF10F8011B93
:1090C000013D04F8011BF9D10020B0BD0220B0BD64
:1090D000827BC179032A05D0022A05D0012A20D13A
:1090E000113002E0173000E014300139012988BF47
:1090F00070479821C4F2200100780A6800F0070048
:1091000022F4E02242EA00420A600A6822F4E00205
:1091100042EA00520A600A6822F0E06242EA006015
:1091200008607047827BC179032A05D0022A05D0E6
:10913000012A1ED1113002E0173000E0143001394D
:10914000012988BF70479421C4F2200100780A6881
:1091500060F303020A600A6800F00F0022F0F002D8
:1091600042EA00120A600A6822F4706242EA0020B1
:10917000086070472DE9F04F81B0002860D00446A8
:10918000054600BF286801305AD028797E2808D0CB
:10919000B5F80500002818BF284400280546F1D17D
:1091A0004EE04FF6FF7B04F1C50904F1600804F1BD
:1091B000480A04F1300604F11807CAF2FE5B00BF4A
:1091C000286858440A2835D8DFE800F0060A121645
:1091D0001A343434340E1E002046FFF7CFFE29E047
:1091E0003846FFF71BFF25E04846FFF741FF21E027
:1091F0003046FFF7EBFE1DE05046FFF793FF19E006
:109200004046FFF765FF15E094F8E40001380128B7
:1092100010D82422C4F22002B4F8E500516A6FF39A
:109220009F2041F48031516211686FF3194141EA86
:10923000004010602846FFF723FE05460028BFD1F6
:1092400001B0BDE8F08FF0B585B04CF2E845C2F250
:10925000000500206C46286020461421FEF7ABFF75
:109260002046FFF7C7FD009845F65701B1EB104FB8
:1092700027D10199B1F5803F23D1039CB4F5805FDC
:109280001FD80021C5F657014A1C029980EA020640
:1092900066EA010030B30127C5F63C27B94221D068
:1092A00000F093F8B8B1B4F5805F0DD802986FF074
:1092B00001014140314302D0791C884204D102208F
:1092C00011E000F082F830B12868411E02290BD36A
:1092D000032802D00BE00320286041F6C000C2F250
:1092E000010002E0012028600498FFF743FF05B069
:1092F000F0BD42890021B1EB123F21D1C289B1EB0F
:10930000123F1DD1428A0021B1EB123F18D1C28A0F
:10931000B1EB123F14D1418B0022B2EB113F0FD1C0
:109320000189B1F5616F0BD88189B1F5616F07D8FB
:10933000018AB1F5616F03D8818AB1F5616F02D9F5
:10934000012108467047018BB1F5616F4FF00101B3
:109350009CBFC1710021F4E70522C5F601220F234D
:10936000914202F1050208BF07239142817A4FF42E
:10937000FA6C08BF4FF4616C8B4219D3417B8B426E
:1093800016D3417C8B4213D3017D8B4210D3C17D18
:109390008B420DD301898C450AD3B0F80B108C4554
:1093A00006D3B0F80F108C4502D3418A8C4502D207
:1093B000012108467047B0F815108C454FF00101A7
:1093C00022BFC17181730021F3E72DE9F04393B00F
:1093D00041F6C009C2F201094FF2AC31C0F20601F8
:1093E00048464FF4D072FEF7BFFE40F2F448C2F296
:1093F000000840463CF0E8FC18B1012013B0BDE87D
:10940000F08398F82000FF28F7D001283FD198F882
:1094100023C098F826E0B8F82420B8F82130D9F80D
:109420001060D9F81450D9F80070D9F80440D9F870
:109430000800D9F80C100F9010910D971295119605
:109440000DAE30460E94ADF83C30ADF83F208DF8AF
:109450003EC08DF841E000F0B7FA0121C5F60121C8
:109460003046FFF779FF0028C7D10D980E990F9A63
:10947000109B119F129EC9F81460C9F81070C9F8AA
:109480000C30C9F80820C9F80410C9F8000098F891
:109490003000FF28B1D0012841D198F833C098F8A6
:1094A00036E0B8F83420B8F83130D9F82870D9F857
:1094B0002C60D9F81850D9F81C40D9F82000D9F8F8
:1094C00024100F9010910D9512960DAE3046119705
:1094D0000E94ADF83C30ADF83F208DF83EC08DF8CD
:1094E00041E000F071FA0120C5F60120411C304630
:1094F000FFF732FF00287FF480AF0D980E990F9A86
:10950000109B119F129EC9F82C60C9F82870C9F8E9
:109510002430C9F82020C9F81C10C9F8180098F8A0
:109520004000FF283FF469AF012841D198F843C0BB
:1095300098F846E0B8F84420B8F84130D9F84070BF
:10954000D9F84460D9F83050D9F83440D9F8380007
:10955000D9F83C100F9010910D9512960DAE304633
:1095600011970E94ADF83C30ADF83F208DF83EC019
:109570008DF841E000F028FA0120C5F60120811C99
:109580003046FFF7E9FE00287FF437AF0D980E99BB
:109590000F9A109B119F129EC9F84460C9F8407041
:1095A000C9F83C30C9F83820C9F83410C9F830007F
:1095B00098F85000FF283FF420AF012841D198F8D7
:1095C00053C098F856E0B8F85420B8F85130D9F89C
:1095D0005870D9F85C60D9F84850D9F84C40D9F89F
:1095E0005000D9F854100F9010910D9512960DAEB1
:1095F000304611970E94ADF83C30ADF83F208DF811
:109600003EC08DF841E000F0DFF90120C5F60120F1
:10961000C11C3046FFF7A0FE00287FF4EEAE0D9887
:109620000E990F9A109B119F129EC9F85C60C9F8A1
:109630005870C9F85430C9F85020C9F84C10C9F80E
:10964000480098F86000FF283FF4D7AE012841D1C8
:1096500098F863C098F866E0B8F86420B8F861300C
:10966000D9F87070D9F87460D9F86050D9F86440AE
:10967000D9F86800D9F86C100F9010910D951296DA
:109680000DAE304611970E94ADF83C30ADF83F204A
:109690008DF83EC08DF841E000F096F90120C5F646
:1096A0000120011D3046FFF757FE00287FF4A5AECC
:1096B0000D980E990F9A109B119F129EC9F8746015
:1096C000C9F87070C9F86C30C9F86820C9F864101E
:1096D000C9F8600098F87000FF283FF48EAE0128AA
:1096E0005ED1B8F87110B8F87300B8F87920B8F8FE
:1096F0007B30D9F878C0D9F87CE0D9F88050D9F817
:109700008440D9F88870D9F88C600B960A97099430
:109710000895CDF81CE0CDF818C0D9F890701E1A45
:109720000C97BDF82870ADF824207F1A7743521AA1
:1097300097FBF2F7ADF82630C319ADF82A30BDF823
:109740002C30BDF83070ADF820105B1A791A7343D5
:10975000714393FBF2F391FBF2F1ADF82200034465
:109760000844ADF8320006A8ADF82E30FFF7C1FD71
:1097700000287FF442AE06980799089A099B0A9F31
:109780000B9EC9F88C60C9F88870C9F88430C9F894
:109790008020C9F87C10C9F878000C98C9F89000AE
:1097A00098F88000FF283FF428AE01285ED1B8F871
:1097B0008110B8F88300B8F889E0B8F88B30D9F890
:1097C00094C0D9F89860D9F89C50D9F8A040D9F83D
:1097D000A470D9F8A8200B920A97099408950796C7
:1097E000CDF818C0D9F8AC201F1A0C92BDF828206B
:1097F000AEEB0106521A7A4392FBF6F2ADF8263030
:109800000244ADF82A20BDF82C20BDF83030ADF868
:109810002010521A591A7A43794392FBF6F291FBBF
:10982000F6F1ADF8220002440844ADF8320006A873
:10983000ADF824E0ADF82E20FFF75BFD00287FF4A3
:10984000DCAD06980799089A099B0A9F0B9EC9F8F8
:10985000A860C9F8A470C9F8A030C9F89C20C9F85C
:109860009810C9F894000C98C9F8AC0098F89000CA
:10987000FF283FF4C2AD012841D1B8F89110D9F8C2
:10988000B0000490B9F8B40099F8B620ADF814000F
:109890008DF8162099F8B7008DF80F0099F8B800E8
:1098A0008DF80E00B9F8B920ADF80C20ADF80C1009
:1098B00041B100220120B2EB113F8DF80E007FF480
:1098C0009DAD02E001283FF698AD01208DF80F0014
:1098D0000498C9F8B000BDF814009DF81610A9F856
:1098E000B40089F8B6109DF80F0089F8B7009DF80C
:1098F0000E0089F8B800BDF80C00A9F8B90098F876
:10990000A000FF283FF479AD012828D109F1BB065A
:10991000B8F8A14001A831460722FEF725FC99F8C6
:10992000C2008DF80300B9F8C300ADF800000020B4
:10993000B0EB143F4FF00100ADF800407FF45EAD96
:109940008DF8030001A930460722FEF70DFC9DF8B3
:10995000030089F8C200BDF80000A9F8C30098F818
:10996000B000FF283FF449AD01282BD198F8B3602F
:1099700098F8B670B8F8B440B8F8B15009F1C50815
:109980000DF13409484641461822FEF7EDFB4846E2
:10999000ADF83C50ADF83F408DF83E608DF8417019
:1099A00000F012F80120C5F6012000F10901484637
:1099B000FFF7D2FC00287FF420AD0DA94046182205
:1099C000FEF7D2FB002019E52DE9F04F84B00289A3
:1099D000B0F80B40B0F80F50A2EB040B428A817A2A
:1099E00090F80DE02E1BB0F81550121BA1EB0E01E4
:1099F00002922A1B40F2040C039249B26422C5F67B
:109A0000012C4A4301680CF1010548F21F584FF040
:109A10000F0AA9424FF00005C5F2EB1801AF0DF196
:109A20000109019608BF4FF0070A00BFB6F1FF3FDA
:109A30004FF0FF3402FB06F6C8BF0124664396FBD5
:109A4000FBF6614506F1320686FB08634FEA6316B2
:109A500006EBD37303FB04E647F8256004D1002E20
:109A600048BF103608E000BF002E03D45645C8BFDB
:109A7000564601E0002600BF022D09F8056004D01B
:109A800007EB85035E680135D0E79DF801109DF86E
:109A900002209DF8033041740275C37504B0BDE81F
:109AA000F08FBC20C4F22000016811F0405F05D1A6
:109AB000016801F0E061B1F1806F0BD0016801F045
:109AC0004051B1F1405F07D1016801F0E061B1F1AF
:109AD000E06F01D102207047016811F0405F05D1AD
:109AE000016801F0E061B1F1806F14D1016801F00B
:109AF0004051B1F1405F05D1016801F0E061B1F181
:109B0000E06F08D1006800F04050B0F1805018BFFD
:109B10000120400070470320704700002DE9F0410C
:109B20003424C4F22004E06940F2FF7120F0807018
:109B3000E061206A40F20C0720F00060206220689B
:109B400049F20226884300254FF00208C2F20007BE
:109B5000C0F20106206000BF206820F0E0602843CA
:109B60002060206A40F000702062206A20F040509F
:109B70002062206A68F39F702062206A40F0806053
:109B80002062396801208847206A20F080602062C6
:109B9000606A6FF39F40B04204D8B5F1E06F05F101
:109BA0008075D9D1206A4FF4C83140F080702062AE
:109BB000E069012261F31100E061216A052060F390
:109BC00007012162216A62F309212162216A0222CE
:109BD00041F440612162216A41F440512162216ACD
:109BE00062F38F312162216A60F312412162216A9E
:109BF00041F400212162216A60F316512162206A3A
:109C000040F000602062206A20F400002062E069D9
:109C100040F08070E061BDE8F081F0B581B01426BD
:109C2000CAF24006776817F07F0506D004463BF07D
:109C300067FE2846A0473DF04FFD27F07F003060CB
:109C400001B0F0BDAFF3008080B52022CAF240021F
:109C5000126812065CBF022080BD03468AB207204C
:109C6000194600F00BF9012080BD00000C20CAF25B
:109C70004000C168C90358BF70474FF4807100BFEE
:109C8000826902F00602062A01D00160F8E7C26884
:109C9000D203F5D4704780B54FF4807000F038F8E7
:109CA0004FF4006000F034F800F00AFA4EF20010B1
:109CB000CEF200004FF4801101604FF48070BDE8D7
:109CC000804000F0A3B8AFF3008010B51C23CAF2A7
:109CD00040031A68920703D40220086000240AE0B7
:109CE00002460120086058681146C0F30B44012069
:109CF000224600F09FF8204610BDAFF300800C21F3
:109D0000CAF240010A6822F0FF021044086070475E
:109D10000C2120F0FF00CAF240010860704700F0FB
:109D200001B800000C20CAF24000816901F0060170
:109D3000062908BF70474FF4807100BF0160826937
:109D400002F00602062AF9D17047B0B50546002098
:109D50000C4600F01BF9B4F1011F18D34FF400407A
:109D600029464FF4004200F0E7F8012000F00EF918
:109D700005F500414FF400404FF4004200F0DCF8DC
:109D8000022000F003F905F58031A2B211E0B4F52C
:109D9000004F17D94FF4004029464FF4004200F01D
:109DA000CBF8012000F0F2F884F4004005F5004102
:109DB00082B24FF4004000F0BFF80020BDE8B04090
:109DC00000F0E4B8A2B24FF400402946BDE8B0402C
:109DD00000F0B2B8AFF300801421CAF2400108606D
:109DE00070471020CAF24000016821F07F01016035
:109DF0007047FFF7F6BFAFF300801020CAF24000B3
:109E000000686FF35F207047AFF300801021CAF243
:109E100040010A6840F2FF139A43104308607047FC
:109E20001020CAF24000016841F07F0101607047D4
:109E3000FFF7F6BF70B514460D4606463BF060FDD1
:109E4000FFF714FF0420CAF2400040F8045C0168E8
:109E500066F30D010160016889B241EA04410160C5
:109E6000416821F003014160816841F480318160E3
:109E70003DF032FCBDE87040FFF7F8BE70B5144607
:109E80000D4606463BF03CFDFFF7F0FE0420CAF20B
:109E9000400040F8045C016843F6FF72914331448E
:109EA00001600168012289B241EA04410160416810
:109EB00062F301014160816841F4803181603DF0CD
:109EC0000BFCBDE87040FFF7D1BEAFF3008020204F
:109ED000CAF240000068C0F307207047AFF300806B
:109EE00070B50C460546D61C3BF00AFDFFF7BEFEDA
:109EF0000420CAF2400040F8044C016843F6FF72A7
:109F0000914341EA95010160016826F0030289B29C
:109F100041EA024101604168022262F301014160AD
:109F2000816841F4803181603DF0D6FBBDE870402E
:109F3000FFF79CBEAFF3008070B50C460546D61CFB
:109F40003BF0DEFCFFF792FE0420CAF2400040F82E
:109F5000044C016843F6FF72914341EA95010160A8
:109F6000016826F0030289B241EA024101604168BA
:109F700041F003014160816841F4803181603DF02E
:109F8000ABFBBDE87040FFF771BE000010B582B0BA
:109F900004460020009069464FF489600422FFF7D0
:109FA0009FFF9DF800309DF801209DF802109DF85C
:109FB0000300022C23F0030305D0012C06D03CB192
:109FC00000BE00BFFEE743F0020301E043F00103DF
:109FD0008DF805208DF806108DF8070001A94FF4C3
:109FE000896004228DF80430FFF7A6FF02B010BD8F
:109FF00080B500F002F8C0B280BD2420CAF2400053
:10A000000068C0F341007047AFF3008010B51C2317
:10A01000CAF240031A68D20703D102200860002464
:10A020000AE002460120086018681146C0F30B449C
:10A0300000202246FFF7FEFE204610BD2DE9F0412C
:10A04000DDF8188007464FF400601C4615460E46A2
:10A05000FFF75EFE00F034F84FF08070FFF758FE17
:10A06000FFF719FE25B11FB130462946FFF76DFEF7
:10A070004FF40060FFF74CFE00F022F84AF60C6047
:10A08000C2F200000460C0F80480FFF7C9FE4FF080
:10A090000070FFF73DFE00F003F80020BDE8F081FE
:10A0A00080B500BFFFF713FF0128FBD10120FFF7A8
:10A0B00026FE00BFFFF70BFF0128FBD080BD00008C
:10A0C0002420CAF2400000BF0168C907FCD07047D5
:10A0D00080B52023CAF24003D3F800C00123834097
:10A0E00003EA0C031B0604D092B2FFF7C7FE01205F
:10A0F00080BD022080BDFFF7EBBF80B5FEF706FFF5
:10A1000043F60951414344F60002032840F2180087
:10A11000C0F2E812C2F2000038BF02EB81220260F6
:10A1200080BD80B52420C4F2200001683F2262F384
:10A1300007010160D0F8A01041F40041C0F8A01060
:10A140001820CAF2300040F2EF31016000F08BF9C4
:10A1500000F042F8FFF777F80220FEF7CBFB40F261
:10A16000140049F20001C2F20000C0F2D0310160D7
:10A170002420CCF20000016841F002010160D0F817
:10A18000001141F00201C0F80011D0F8001241F0B6
:10A190000201C0F80012D0F8001341F00201C0F82B
:10A1A0000013BDE88040FFF7B9BC012803D090B987
:10A1B0006FF0010001E06FF00200B021C4F2200155
:10A1C0000A6842F002020A600A6842F001020A606C
:10A1D0000A6810400860704770B586B0902034243B
:10A1E000C4F28000C4F22004D0F800C094F87810C3
:10A1F00001258DF8141094F8792001F088018DF86C
:10A20000132094F87A3052318DF8123094F87B0094
:10A210008DF8110000F0F80006308DF8110002F002
:10A22000080032308DF8130003F0CF0020308DF895
:10A2300014108DF812009DF81400B12184F87800F4
:10A240009DF81300C4F2200184F879009DF81200F3
:10A2500084F87A009DF8110084F87B0094F87C0063
:10A260008DF810000A8800F0EF00ADF80E2094F889
:10A270007F208DF80D2042F008028DF80D208DF81A
:10A2800010009DF8100084F87C00BDF80E000880D6
:10A290009DF80D0084F87F00A06E20F44060A06659
:10A2A000D4F890100CF0F0000A4665F383022028E1
:10A2B00018BF41F00C02C4F890203BF028FDA16EBD
:10A2C00046F2C8530A4665F30922C0F214039842C5
:10A2D00018BF41F44072A266D4F8900040F2FF71BA
:10A2E00040F04050C4F890002068FA228843206073
:10A2F0002068082120F0E060206020684FF24C5E6A
:10A3000020F04050206094F86C00C0F2060E8DF8EA
:10A310000C0094F86D004FF0FF3C8DF80B0094F8A2
:10A320006E008DF80A0094F86F008DF809008DF822
:10A330000C10DE218DF80B1078218DF80A101B21EE
:10A3400061F35F008DF809009DF80C0084F86C0043
:10A350009DF80B0084F86D009DF80A0084F86E00EB
:10A360009DF8090084F86F0094F870008DF80800DB
:10A3700094F871008DF8070094F872008DF80600CB
:10A3800094F873008DF805008DF80820BB228DF835
:10A390000720C82261F35F008DF806208DF80500C4
:10A3A0009DF8080084F870009DF8070084F871009B
:10A3B0009DF8060084F872009DF8050084F873008B
:10A3C000D4F8900040F48070C4F89000D4F8900065
:10A3D00040F40040C4F89000E06F40F00200E067F5
:10A3E000E06F40F00100E067E06F20F00200E067FE
:10A3F000002000BF0EEB0003D3E901435EF80050DC
:10A40000C4F307220CFA02F2D1432E68E4B2A14051
:10A4100023EA020226EA0101A2400C30114324285B
:10A420002960E7D14FF2705E0020C0F2060E4FF0B7
:10A43000FF3C00BF0EEB0003D3E901535EF8006060
:10A44000C5F307240CFA04F4E2433168EDB2AA40E4
:10A45000914323EA0402AA400C301143B42831602E
:10A46000E8D106B070BD2420C4F2200001683F226C
:10A4700062F307010160016840F2911262F3194131
:10A4800001600821C4F280010A6842F080020A607B
:10A49000026842F400620260826942F40052826102
:10A4A00050F8042C42F0005240F8042C486B012272
:10A4B00062F31140486370470C20CAF2700001211A
:10A4C000016042F22440C2F20100016809B100209B
:10A4D000084770470C20CAF280000121016042F257
:10A4E0002440C2F20100816809B101200847704789
:10A4F0000C20CAF2F0000121016042F22440C2F2B5
:10A500000100016909B10220084770470C20CAF216
:10A51000F4000121016042F22440C2F2010081698D
:10A5200009B10320084770470C20CAF2F800012146
:10A53000016042F22440C2F20100016A09B1042024
:10A540000847704701A04DF046BD00BF55736167D5
:10A55000654661756C745F48616E646C657200007D
:10A5600010B51420CAF290000121016042F2C060CF
:10A57000C2F20100006810B1BDE81040004702A41B
:10A5800020464DF028FDFBE777686174203F3F3F90
:10A590002000000070B582B040F2000E0025CAF223
:10A5A000900E8DF80250ADF80050DEF80850ED071F
:10A5B00017D10924C507CAF2900415D142F2C0622E
:10A5C000C2F20102002616604EF20012CEF2000224
:10A5D0000826C2F88060BFF34F8F8022BFF36F8FD1
:10A5E00019E04FF0020C34E0069E4FF0010C86B3E8
:10A5F0008A422ED20125C4F80B5042F2C065C2F245
:10A6000001052E60C4F80F204EF20012CEF20002B7
:10A6100008261660C022C6B200F0020042EA00100E
:10A62000C6F3800210431C2202EA560210438DF842
:10A630000400C4F81330CEF800109DF804004FF069
:10A64000000C8EF80800BDF800009DF80210A17003
:10A650002080604602B070BD70B540F2F855C2F27D
:10A6600000050446082628464FF47121CAF2300638
:10A670003BF0FDFB28462146B422FDF775FD00BFE7
:10A680003068C005FCD401204FF471213BF0ACFAD6
:10A690003068C005FCD40020CAF22000016841F4F3
:10A6A000407101603068C005FCD440F2F850C2F23D
:10A6B00000004FF471213BF093FC00BF3068C005EF
:10A6C000FCD470BD2DE9F04385B0002A40F0BE8077
:10A6D0001D460F46064650F0CDFF4CF21068C2F200
:10A6E0000008D8F8109008F10C00814500F09E8019
:10A6F000D8F834000138C8F83400D9E900014160C5
:10A70000086051F00BF84C4654F8080F07F10901A6
:10A71000A6F10A02FDF728FDC5F1640048F21F51B9
:10A72000C0EB0020C5F2EB1180FB0101A6F10E0089
:10A73000A08068426075480940F27E1200EBD1703B
:10A74000E17DC2F200021278A07501F0FE00E07512
:10A750002046A27147F045FF18B1204647F031FF6F
:10A7600020BB204647F036FF30B341F67C60C2F292
:10A7700001000078D0B102AD2046294647F0FBFE2B
:10A78000D0B9049801286FD0022815D1E81D002106
:10A790006A4600BF10F80139535401310829F9D134
:10A7A000684650F007FDB0F1FF3F05DD99F81F0046
:10A7B00040F0010089F81F00204647F012FFB0B1B9
:10A7C000204647F009FF90B1204647F0F5FE70B1F2
:10A7D00041F6806199F81F00C2F201010A6840F059
:10A7E000020089F81F00501C0860C9F8180050F0DA
:10A7F00041FF414651F8040FC9E90001C0F8049037
:10A80000C86A8A6B0130C1F800908242C86238BFC2
:10A81000C8F83C0050F082FF50F02CFF41F260502D
:10A82000C2F20100016841F480410AE050F076FF75
:10A8300050F020FF41F26050C2F20100016841F483
:10A840000051016050F06AFF49F068F940F2F86089
:10A85000C2F2000001780131CAB2042A88BF002187
:10A86000017005B0BDE8F083BDF8080050F0CCFCE5
:10A8700000289BD5A0E7000010B582B04CF2106410
:10A88000C2F200046169002943D04FEA3010082861
:10A890003CD8DFE800F019232D3B053B3B3B05008E
:10A8A000A06901A900683DF02EF80198A169002275
:10A8B000C1E9020250F0DEFE41F26050C2F2010036
:10A8C000016841F480611CE050F0D4FE41F2605018
:10A8D000C2F20100016841F4807112E050F0CAFE3A
:10A8E00041F26050C2F20100016841F4805108E079
:10A8F00050F0C0FE41F26050C2F20100016841F424
:10A900000061016050F00AFF49F008F91020FEF7DD
:10A910002CFB02B010BD00002DE9F04182B042F2E4
:10A920001627C2F2010738880C46019210B342F292
:10A930001428C2F20108B8F8001042F214120844B8
:10A94000C0B2814298BF4FF48071091A019BC2F2D4
:10A9500001028EB2104431462246009353F0EAF9C8
:10A960000546B0F1FF3F20DDB54223DA38882844A0
:10A9700038804BE042F214101346C2F201004FF44B
:10A980008071224653F0D6F90546B0F5807F31D26A
:10A9900042F21420C2F201000021018042F20E10A6
:10A9A000C2F201003D80018030E042F27470C0F2DA
:10A9B000070028E0FF2D25DC388842F20E16C2F28F
:10A9C000010678B3002500BF00F075F848F012FFCB
:10A9D00010BBB8F8000031883A880844C0B2A8F823
:10A9E0000000501A3880358000F065F8388800285B
:10A9F000EAD117E042F27470C0F20700214647F036
:10AA000092FD05E016A0214647F08DFD00F053F8B9
:10AA1000284602B0BDE8F08149F013F9014617A0BD
:10AA200047F081FD009B42F21410C2F201004FF486
:10AA30008071224653F07EF9002806DD05463880F5
:10AA40000020A8F800003080E0E742F29570C0F2E4
:10AA500007004FF4B07147F0E3FE00BFFEE700BF10
:10AA6000434C49206F7574707574206025736020A5
:10AA70007472756E63617465640000004661696C90
:10AA8000656420746F206F757470757420434C4931
:10AA90003A20257300000000B0B5084691B21C466C
:10AAA000154648F0A3F910B16FF03B00B0BD04B1FA
:10AAB00025600020B0BD42F20E10C2F201000188F4
:10AAC00001B1704742F2142242F21621C2F2010291
:10AAD000C2F2010112880988C2F580738B42B8BFA7
:10AAE00019460B040180ECD042F21410C2F20100AE
:10AAF000104489B248F0EBBE2DE9F04F81B0002937
:10AB00004CD042F2162642F2142A42F20E1842F2B9
:10AB100014198B460546C2F20106C2F2010AC2F2BE
:10AB20000108C2F2010900BF31881FFA8BF3C1F599
:10AB3000807082B2934298BF5846020418D0BAF887
:10AB4000002000238C1815F8017BE4B2013309F8CA
:10AB500004709FB284B20131A7423180F2D3ABEBD3
:10AB6000000BFFF7A8FF5FEA0B4003D116E000BF20
:10AB7000FFF7A1FF48F03EFE80B9BAF80000B8F830
:10AB8000001032880844C0B2AAF80000501A308081
:10AB90000020A8F80000FFF78EFFC5E701B0BDE870
:10ABA000F08F10B586B00C4600F062F8D4E90001D1
:10ABB000CDE90001D4F89800A18B0290A07FADF8F8
:10ABC0000C10042141EA1010218C8DF80E0040F683
:10ABD000C800C2F20000ADF80F10383069462FF0FF
:10ABE00026FF06B010BD000070B582B004210688B3
:10ABF0008DF800104FF6FE71ADF8021000210191A2
:10AC000066B100F108046D462846214636F0B7FCCF
:10AC100030B9013E300404F1B004F5D1002402E063
:10AC2000204628F0E5F9204602B070BD0288B02326
:10AC300001FB030300208A4288BF03F1080070472C
:10AC400010B5144640F6C802C2F2000245F6B4132D
:10AC5000D25A6FF35F211143012200F07BF928B132
:10AC60000146204628F053F9002010BD172010BDE2
:10AC7000B0B586B00C4640F6C801C2F20001684685
:10AC80002FF02FFF9DF8140080B96D46BDF80C0021
:10AC9000A18B884207D028462FF01BFF9DF8140097
:10ACA0000028F3D002E068462FF0FCFE06B0B0BDED
:10ACB00080B503888B429CBF172080BDB02301FB69
:10ACC000030191F8263043F3030000284FF01700EA
:10ACD0000DD403F00F0C012303FA0CF313F0C20F91
:10ACE00008BF80BD0831104628F011F9002080BD52
:10ACF00070B5044640F6C800C2F2000038302FF0AC
:10AD0000FAFE00B170BD2588002DFBD004F12606A7
:10AD1000314611F81E09000704D02046FFF741FF15
:10AD20000028EFD1013D280406F1B006F0D1E9E793
:10AD3000B0B50C4601391F2984BF0720B0BD0521DD
:10AD4000054630F001F9002812BF0D202C800020AC
:10AD5000B0BD00002DE9F04F87B040F6C805C2F243
:10AD600000050446684629462FF0BBFE9DF81400F6
:10AD700018B100204FF0000A5AE045F6D04005EB2C
:10AD8000000945F660504FF0000AE84605EB000B5D
:10AD9000002700BF20464146052200F099F818B16F
:10ADA00006464FF0010A05E02046FFF71DFF064664
:10ADB000002842D0304628F01BF9DDE90001C6E941
:10ADC000000106F122000BF06BFBBDF80C000299AC
:10ADD000B0839DF80E00C6F8981025F0FB010843DB
:10ADE00040F004053046294627F0C2FFB07F00F04E
:10ADF000F0000130B07747F087FCB060BDF80F007D
:10AE0000314630844846012209F0C1FD58460021F0
:10AE1000324608F055FC404601372FF05AFE9DF8A7
:10AE200014000028B6D0B9B20020202988BF012024
:10AE30005FEACA7108BF002802D02046FFF758FF1A
:10AE400007B0BDE8F08F10B5044640F6C800C2F266
:10AE50000000217900F5BF40206036F045FB00B1CD
:10AE600010BD2046BDE81040AFF300802DE9F04151
:10AE70000446006800B340F6C805C2F2000545F676
:10AE80007876A95BAF194FF0B00801FB0871B030BC
:10AE9000083100BF884220600CD2217936F024FBB3
:10AEA00050B9A85B216800FB087201F1B00002F103
:10AEB0000801EFE700202060BDE8F08110B50446EE
:10AEC0000020206020462271FFF7BDFF204610BD04
:10AED00070B582B006888DF800204FF6FE72ADF88E
:10AEE0000220019166B100F108046D462846214612
:10AEF00036F045FB28B9013E300404F1B004F5D129
:10AF00000024204602B070BD70B582B00B7A022BCF
:10AF100005D0012B02D10B88002102E000214FF661
:10AF2000FE7306888DF80020ADF8023001916EB1F5
:10AF300000F108046D4600BF2846214636F01FFB8D
:10AF400028B9013E300404F1B004F5D100242046B4
:10AF500002B070BD70B582B0068800248DF8002064
:10AF6000ADF80210019476B100F108046D4600BFFF
:10AF70002846214636F003FB28B9013E300404F18F
:10AF8000B004F5D10024204602B070BD2DE9F04197
:10AF9000044620200D462080002000216218B03198
:10AFA000B1F5B05F5063F9D1082741F2086800BFDE
:10AFB000E619304629462FF0E7FB304628F018F80E
:10AFC000B0374745F4D12046BDE8F08110B582B0D6
:10AFD000044690F846C090F84720B0F8443041F25B
:10AFE0004400C0F2060024A1CDF800C029F00DFEF7
:10AFF000607F80B147F088FB216A081A00F5C030F5
:10B0000000F5D460B0F1FF3F05DC94F83E0040F05D
:10B01000010084F83E0094F8470038B10138C1B20D
:10B0200084F84700B1FA81F0400900E0002094F86C
:10B03000461039B10139CAB284F84610B2FA82F129
:10B0400049090843B4F8441021B101390A04A4F8AD
:10B05000441001D030B908E0607F08B1012060776A
:10B060000020E064201D2FF062F8204602B0BDE809
:10B07000104000F02CBD00BF72656764656C61799B
:10B080002025642C20726572656764656C61792087
:10B0900025642C20636865636B64656C6179202589
:10B0A0006400000010B5044690F846000138C0B2B4
:10B0B000884238BF10BD41F244000A4684F8461069
:10B0C000C0F2060003A129F0A0FD2046BDE8104013
:10B0D00000F0FDBC75706461746520636865636B26
:10B0E00064656C617920256400000000B0B50446F9
:10B0F000007F00F0FE0020774FF02000A4F8500001
:10B100003BB11C2B11D120461E21FFF7CBFF1C2584
:10B110000FE0F9B101F1310040F0010090F90000B9
:10B12000442820D0B0F1FF3F1DDD0625201D2EF064
:10B13000FEFF05F0C5F90446284605F083FD0346E9
:10B1400041F24400C0F206000AA12246BDE8B04028
:10B1500029F04ABD40F60A50C0F2070040F24621ED
:10B1600047F05EFBFEE7204600F014F805461C2879
:10B17000CDD0DBE752656365697665642025732071
:10B18000726573706F6E73653A202573000000005E
:10B19000FFF7ACBF2DE9F04188B00E4691F93110B0
:10B1A0000446B1F1FF3F14DD0DF10F0230460421DA
:10B1B00025F093FD0546002840F0D88004AA3046CB
:10B1C0000021102325F04BFE0546002840F0CE80DC
:10B1D00009E0062004F10C038DF80F000FCB0DF1F0
:10B1E000100C8CE80F0040F6C806C2F2000648F6C4
:10B1F0007460304404A931F0F4FEA8B145F228107F
:10B20000304404A933F020F880B19DF80F000628DF
:10B2100000F2AB80DFE800F03F455D61040404000C
:10B22000204600F0F5FBA0E002259FE040F6C808AC
:10B23000C2F2000801A841460022FFF73FFE019D2F
:10B240006DB104AF01AE00BF2846394634F09EFE12
:10B2500038B93046FFF70AFE019D002DF4D11725BD
:10B2600084E09DF80F20062A00F27A80A5EB080002
:10B27000A0F5BF4048F6A3310011CBF62E2100FB0C
:10B2800001F6DFE802F03E542E2E040404002046AE
:10B2900000F0BEFB61E047F037FA206203206077E0
:10B2A00063E045F2281004F12C0506443046294697
:10B2B00032F0CAFF002858D0204600F0E1FB012000
:10B2C000607747F021FA20623046294618F0DCF911
:10B2D0004BE0204600F0D4FB47E0204600F0B5FDEF
:10B2E00043E004A92846B7B227F08AFD202F21D3D6
:10B2F0004FF60930C0F20600592147F091FA00BF1D
:10B30000FEE7B0B2202838D2C6F3CC00204490F833
:10B31000482006F007018A4012061ED5802290F8C8
:10B320004C3022FA01F1194380F84C1015E0B0B20C
:10B3300020282AD206F007006FF0800141FA00F0C1
:10B34000C6F3CC01214491F8482091F84C300240DA
:10B35000184081F8482081F84C009DF80F2022B158
:10B3600004A920462B4600F027FA0025204600F0CD
:10B37000AEFB284608B0BDE8F0814FF60930C0F2B8
:10B3800006004C2147F04CFAFEE74FF60930C0F2B8
:10B390000600592147F044FAFEE7F0B585B040F6C3
:10B3A000C8070D4604468805C2F2000714D548F6C2
:10B3B000C86145F228107E183844314632F044FF07
:10B3C00050B148F69C1038446A4631462FF084FF4D
:10B3D00010B1204600F054FB45F60850384433F0D5
:10B3E000F1FF48B1680720D545F6FD50385C30B113
:10B3F000204600F00DFB18E0002060641BE045F6DD
:10B400002950385C032802D1204603210BE045F681
:10B410000850384434F0B6FA38B147F67B40385C0F
:10B420000430C1B2204600F057FAE80703D02046A6
:10B43000012100F051FA05B0F0BD00002DE9F04FF8
:10B440009DB00DF14809054648462C21FCF7B3FE96
:10B450004FF2BF0040F6C806ADF86A00C2F200061F
:10B4600045F60850304433F0ADFF30B148F6746013
:10B47000305A4FF6FE71884214D100240D27384609
:10B4800005F0E0FB024641F24400C0F20600C3A111
:10B4900029F0AAFB1FB114B120462EF008FE1DB002
:10B4A000BDE8F08F287FC0077DD145F608503418DD
:10B4B000204633F0D2FF20B9204634F063FA00284A
:10B4C000DBD145F66450305C800709D445F64A501C
:10B4D000305C0007D1D045F64C50305A0228CCD110
:10B4E000687F012802D195F8470078B105F148003E
:10B4F000002100BF425C1AB9032901F10101F9D111
:10B50000002A53D0E96C006888424FD045F2D81029
:10B510003044252127F08BF80446002800F02D81C7
:10B52000687F012845D195F84700002841D10EAF2A
:10B5300005F12C0138461022FCF716FE20460021AA
:10B540003A46102325F0C2FC0746002840F012813D
:10B5500045F6E060321820460321082325F0B6FCAA
:10B560000746002840F006810220687747F0CCF8B3
:10B57000286245F66450305C80075CD445F64A503A
:10B58000305C000757D045F64C50305A022852D153
:10B5900048F67460304402A931F005FD002800F03F
:10B5A000DC800746E6E00024052768E7002417272B
:10B5B00065E7B5F85000202833D140F6C808C2F23C
:10B5C000000802A841460022FFF778FC02980028F4
:10B5D00000F0858048F6A337CBF62E274FF0800B7E
:10B5E0000DF1080AA0EB0800A0F5BF400011784358
:10B5F00081B2202968D2C0F3CC01294491F84830A7
:10B6000000F007022BFA02F21A4203D091F84C1014
:10B610000A4262D05046FFF729FC02980028E1D187
:10B620005DE040F60A50C0F207004FF4F47147F0B5
:10B63000F7F800BFFEE748F67461725A45F6F0610C
:10B6400009F11000314418F0A8FC12AF384625F07B
:10B6500061FC45F2D8104BF291133044C0F2000364
:10B6600021463A46009526F0CBFB0746002840F0DD
:10B670008180287F0EAB40F0010028770FCB05F1C9
:10B680000C0C8CE80F000020686445F66450305CB8
:10B69000000705D445F6EC403044002108F0A2FC38
:10B6A00004F00EFF02AE05460EA9304632F07AFFD6
:10B6B00041F2440006F10803C0F2060032A12A4616
:10B6C00029F092FA0027DAE64FF60930C0F20600B8
:10B6D0004C2147F0A5F800BFFEE7A5F85000B5F8EB
:10B6E000501045F678704044FFF7A0FA804634F0D9
:10B6F000E9FC48B30EAF014638461022FCF734FD92
:10B70000204600213A46102325F0E0FB074688BB7F
:10B7100008F1600220460321082325F0D7FB0746E5
:10B7200040BB46F0F1FFD8F80810401A44F6D35158
:10B73000C1F26201A0FB01018A092046062125F021
:10B7400053FB0746B0B914E740F60A50C0F20700B1
:10B750004FF4FC7147F064F8FEE79DF8081045F6D9
:10B76000085009F11002304433F03DFE074600282E
:10B770003FF46BAF032F7FF482AE28460521FFF71D
:10B7800091FC03277BE600BF53656E742025732070
:10B79000666F722044554120257300005065726623
:10B7A0006F726D4E657874526567697374726174F7
:10B7B000696F6E3A202573002DE9F0419AB08846F2
:10B7C0000FA82C211D461746FCF7F5FC4FF2BF00D1
:10B7D00040F6C804ADF85E00C2F2000445F2D8108D
:10B7E0002044242126F023FF00B304213A460646D4
:10B7F00025F0EFFA0746A8B930460021424610234B
:10B8000025F064FB074668B9A98B0FAF384625F0D1
:10B81000ACFB45F2D810204431463A4626F0E0FA17
:10B82000074600B330462EF042FC00E0032704F048
:10B830003DFE03ACAD8B06462046414632F0B2FEDB
:10B840003846083405F0FEF9074641F24400C0F2DC
:10B85000060017A132462B460094019729F0A2F961
:10B860001AB0BDE8F08104F021FE03AFAD8B0646AF
:10B870003846414632F096FE41F244000837C0F2A5
:10B88000060003A132462B46009729F0ADF9E7E701
:10B8900053656E7420257320666F72206368696C2F
:10B8A0006420253034782044554120257300000061
:10B8B00053656E7420257320666F72206368696C0F
:10B8C000642025303478204455412025732045726A
:10B8D000726F72202573000010B5044690F847007F
:10B8E0000138C0B2884238BF10BD41F244000A4658
:10B8F00084F84710C0F2060003A129F086F920461B
:10B90000BDE8104000F0E3B87570646174652072A2
:10B91000656764656C6179202564000070B50D462B
:10B9200002390229044602D3012D25D134E0207FBB
:10B93000C0070DD040F6C800C2F2000045F2D81191
:10B9400008444BF29111C0F20001224626F08EFB12
:10B95000204600F095F804F148000021425C1AB935
:10B96000032901F10101F9D112B10020A064E064C2
:10B97000012D18BF032D0FD0042D2CD140F6C80087
:10B98000C2F2000045F2281204F12C01104432F0FA
:10B990005BFC002818BF70BD40F6C806C2F2000666
:10B9A00048F69060305CB8B10021254645F82C1F60
:10B9B000287448F680606960A960E96031182846FB
:10B9C00018F08EFBA5F1080032F049FA68B1204664
:10B9D00000F0E2F868B170BD40F60A50C0F207000E
:10B9E000752146F01DFF00BFFEE7A06A616AA063F3
:10B9F00061630120607746F087FE024645F2281019
:10BA0000304429462262BDE8704017F03DBE000078
:10BA100010B584B0044640F6C800C2F2000048F6F3
:10BA20007461084401A931F02DFBD0B9BDF80610AE
:10BA30000120022928BF2AF0E3FAB4F844100139A2
:10BA400089B281420DD3A4F84400204600F03FF8AB
:10BA5000B4F8442041F24400C0F2060002A129F0EB
:10BA6000D4F804B010BD00BF7570646174652072B5
:10BA70006572656764656C6179202564000000006B
:10BA8000B0B50446407F40F6C8050228C2F2000562
:10BA90000CD1207FC00709D045F2D8104BF291118C
:10BAA0002844C0F20001224626F0E0FA94F83E2035
:10BAB0000020607745F2281002F0FE02284404F1CD
:10BAC0002C0184F83E20BDE8B04017F033BE406C36
:10BAD00038B140F6C800C2F200002830052101F05C
:10BAE00030BB40F6C800C2F200002830052101F04A
:10BAF0003FBB000070B588B0044608460D4632F0E2
:10BB00008CF908B107203CE004F12406304632F0FD
:10BB1000A6F928B9304629460822FCF7A0FB78B3DD
:10BB20002868696801ADC4E909012846314632F048
:10BB3000F3F941F2440005F10802C0F2060012A137
:10BB400029F052F840F6C800C2F2000045F2281170
:10BB500004F12C0546183046294632F075FB78B1C1
:10BB60002046FFF78DFFA06A616AA0630120616330
:10BB7000607746F0C9FD20623046294617F084FD03
:10BB8000002008B070BD00BF5365742044554120AB
:10BB90004949443A20257300F0B58FB00646807FAE
:10BBA00040F6C8078DF8370006F12C05C2F20007F1
:10BBB00045F250300DF13704384429460022002365
:10BBC000009434F0FDFA044658B1204605F03AF8E6
:10BBD000024641F24400C0F2060013A128F0E2FF41
:10BBE0001EE09DF83700B17F88420BD0B0778DF80A
:10BBF0003800012607F138000EAA01AB0821009693
:10BC00002FF0A0F801AE3046294632F0CBFC41F2CD
:10BC1000440006F10802C0F2060008A128F0E4FF83
:10BC200020460FB0F0BD00BF47656E657261746558
:10BC3000204455413A2025730000000047656E6599
:10BC40007261746564204455413A202573000000F8
:10BC50002DE9F04381B0044640F6C800C2F200006E
:10BC60001546091A013AA1F5BF41012A48F6A33247
:10BC70004FEA2111CBF62E2201FB02F629D8B2B2EF
:10BC8000202A5FD2C6F3CC0104EB0108474617F81F
:10BC9000481F06F0070901FA09F31B0619D5B4F885
:10BCA000503093420AD145F2D81108444BF2911119
:10BCB000C0F20001224626F0D9F939786FF08000F1
:10BCC00098F84C2040FA09F001401040397088F88B
:10BCD0004C00022D24D2A06CE16C884207D10120D7
:10BCE00005212AF073F901462046FFF7DBF9B0B2CF
:10BCF000202830D2C6F3CC02224406F0070080216F
:10BD000092F84830C140194392F84C7082F84810BC
:10BD10006FF0800141FA00F0384082F84C000EE0EC
:10BD2000032D0CD1B0B220281DD2C6F3CC00204484
:10BD300090F8480006F0070188400006CBD501B016
:10BD4000BDE8F0834FF60930C0F206004C2146F002
:10BD500067FD00BFFEE74FF60930C0F2060059212B
:10BD600046F05EFDFEE74FF60930C0F206004C21BA
:10BD700046F056FDFEE70000F0B587B000F1240460
:10BD80000546204632F06BF8B0BB05F13400214681
:10BD90000822FCF764FAF0B940F6C80705F12C0652
:10BDA000C2F2000745F228103844314632F04CFA0E
:10BDB00088B12846FFF764FE2846FFF7EDFE50B92C
:10BDC0000120687746F0A0FC286245F2281038442C
:10BDD000314617F059FC6D462846214632F09CF852
:10BDE00041F2440005F10802C0F2060003A128F068
:10BDF000FBFE00206060206007B0F0BD436C656111
:10BE000072656420445541204949443A2025730015
:10BE100041F00201032918BF704740F6C801C2F281
:10BE2000000145F664528A5C92070CD445F64A52EA
:10BE30008A5C120706D045F64C52895A022908BF7F
:10BE4000FFF7E6BD7047FFF7E3BD10B50446FFF707
:10BE500017FEA07F0130A0772046FFF79DFE00B1BE
:10BE600010BD0120607746F04FFC024640F6C80046
:10BE7000C2F2000045F22811084404F12C012262AC
:10BE8000BDE8104017F000BC10B582B00446002099
:10BE90008DF8040040F6C800C2F20000383001AA54
:10BEA0000821012335F054FC10B99DF80400A07757
:10BEB00002B010BDB0B50C4691F83110022920D166
:10BEC000054694F8300010F0300F14D140F6C80049
:10BED000C2F2000045F2D8110844214626F061F86C
:10BEE00048B904F0E3FA024641F24400C0F2060009
:10BEF0000DA128F079FE28462146FFF74BF90446AC
:10BF000000E0062404F0D2FA0546204604F09AFE2A
:10BF1000034641F24400C0F2060006A12A46BDE8ED
:10BF2000B04028F061BE00BF53656E7420257320B9
:10BF300061636B0052656365697665642025733AB9
:10BF400020257300B0B504464AF6AD60C0F2030088
:10BF50006060207F002500F0FE0020772020A4F8FC
:10BF6000500004F12C00A560A4F81D502562656402
:10BF700017F078FB2046A5626562A564E564B0BD54
:10BF8000B0B5044640F6C800C2F2000000F110054A
:10BF90000A46284621464FF480232EF075FC00B156
:10BFA000B0BD28464FF480712EF063FC0020206164
:10BFB000204600F02BF82046BDE8B04000F088B8DD
:10BFC0000A46098851B100F1800140F6C800C2F26A
:10BFD000000010304FF480132EF074BC41F25D006D
:10BFE000C0F2060001A1002228F0EDBD4B657920CA
:10BFF000526F746174696F6E2054696D6520746F3F
:10C000006F20736D616C6C3A202564002DE9F0415E
:10C0100096B001690EAD2A4604462FF008F804F1E7
:10C02000140029460022002618F03FF9CDE90C66DD
:10C03000CDE90A66CDE90866CDE90666CDE9046674
:10C04000CDE9026605F110060DF12808404631469B
:10C05000002218F02AF920692A46411E20462EF0B7
:10C06000E6FF06AF38463146002218F01EF9206977
:10C070002A46411C20462EF0DAFF02AD2846314602
:10C08000002218F012F9207C45F6B01100F07F0074
:10C09000421C40F6C800C2F20000084408213B469A
:10C0A000CDF8008001951AF08BFD16B0BDE8F08147
:10C0B000B0B588B06D462A4604462EF0B8FF243449
:10C0C00020462946002218F0F0F8204608B0B0BDFE
:10C0D00070B582B040F6C804C2F2000445F6445080
:10C0E0000025255045F638502044002118F0E0F88E
:10C0F00045F64050255047F60440205C342100FBB3
:10C1000001F645F63C5025506EB147F2905004447C
:10C1100020460021E56018F0CBF8C4E90155343E13
:10C1200004F13404F4D140F6C801C2F200016846BB
:10C130000522FEF7C3FE009E86B100256C4600BFB7
:10C1400006F10C000021B56118F0B2F82046C6E9EE
:10C150000455FEF78BFE009E002EF1D102B070BD9B
:10C16000426B8A4288BF7047C26B01319142416382
:10C1700000D2704740F6C800C2F2000045F60851F0
:10C1800008441EF04FB970B50446006988420AD1D0
:10C1900040F6C800C2F2000010304FF48071BDE8D4
:10C1A00070402EF043BB01300D46884217D1A16D7F
:10C1B00004F15000814212D094F84C1061B1D4E9DE
:10C1C0001112914238BF70BD002161644EF680614A
:10C1D000C0F2360101F009F8012084F84C00204635
:10C1E0002561FFF713FF04F134000021002518F04A
:10C1F0005FF840F6C806C2F2000645F6B0103044BB
:10C20000002100221AF0C8F806F110004FF48071E6
:10C21000A563BDE870402EF02CBB10B50446406C01
:10C22000616D01304EF68062606404F15000C0F22E
:10C23000360200F0F5FF606CB4F88010884238BF19
:10C2400010BD2069411C2046BDE81040FFF79BBF90
:10C25000B0B5343014460D4618F02AF840F6C80040
:10C26000C2F2000045F6B011084429462246BDE856
:10C27000B0401AF091B8816B026C01319142816338
:10C2800038BF704740F6C800C2F2000045F60851BA
:10C2900008441EF0C7B8503000F09BBF00234EF694
:10C2A0008061024680F84C305030C0F23601536451
:10C2B00000F09BBF10B504466C30012217F0F5FF6B
:10C2C0000020E06710BD10B50A46044600F15C018D
:10C2D00040F6C800C2F2000010304FF400232EF0E8
:10C2E00016FB94F8840040F0010084F8840010BD2F
:10C2F000B0B5044610302421FBF75DFF4FF41C70ED
:10C30000A06440F6FB00C0F20100214641F8500F46
:10C310000025A16504F16C001421C4E90E55C4E99F
:10C32000105584F84C50FBF746FF4FF42870A4F8E2
:10C3300080008F2084F8820094F8830094F88410A1
:10C3400000F0F00084F8830001F0FE0084F884001F
:10C3500046F011FC2046102146F0BDFC04F13400EB
:10C360000021E56525666566A56617F0A1FF2046F4
:10C37000B0BD10B5E9B1488A40F6C80C4FF6FF745D
:10C38000C2F2000C0CEB4013001B18BF03F5FA407F
:10C3900008B3438A0CEB431E1B1B18BF0EF5FA4370
:10C3A000A3EB0C02A2F5FA42002B18BF54094C82F1
:10C3B00010BD0246006870B1418A40F6C803C2F25F
:10C3C000000303EB411C4FF6FF73C91A18BF0CF5AD
:10C3D000FA41116010BD002010BD000010B50368C7
:10C3E000F3B191F800C04FF0000E00BF1C7E196A37
:10C3F000A44509D1BEF1000F08D0DEF820404CB1B1
:10C40000246ACEF8204005E09E4606E004680CB1A0
:10C41000246A0460146813601C6200290B46E5D18D
:10C4200010BD000010B5044641F28400C0F20600C1
:10C4300008A128F0D9FB20460221002200F060FA72
:10C440002046002100F00EF820460021BDE81040F3
:10C4500000F0A3B94D4C5220526572656769737440
:10C460006572210010B504468079C00707D181B1FB
:10C47000A088013880B2884228BFA1800EE0A08841
:10C4800088B141F28B60C0F20700C22146F0C8F9C2
:10C49000FEE70020A080204600F0ACFA2046BDE870
:10C4A000104000F08ABA10BD10B50446808830B143
:10C4B00001380104A08002D1204600F09BFA2068D8
:10C4C00028B10138206002D12046FFF7ABFF20469B
:10C4D000BDE8104000F071BA2DE9F0438FB0169F0F
:10C4E0001C460E460143154608BF002D2ED004F011
:10C4F000A9FB8046304604F0A5FB034641F28400C8
:10C5000041F24661C0F20600C0F2070142460095C2
:10C51000019728F047FBB7B10DF10C0841F28409EF
:10C5200008F10806C0F206090DA500BF40462146E5
:10C5300032F038F848462946324628F033FB013FAE
:10C5400004F11004F2D10FB0BDE8F08341F2840091
:10C55000C0F2060006A10FB0BDE8F04328F044BBCE
:10C560004D41206661696C65643A202573000000C6
:10C5700052656365697665204D4C522E727370204A
:10C580004F4B0000B0B50D46C904044602D5204605
:10C5900000F0B6F8680758BFB0BD40F6C800C2F258
:10C5A000000045F62951405C022805D120460121B2
:10C5B000BDE8B04000F0F1B8B0BD00002DE9F04F8B
:10C5C00095B041F28400C0F206003DA128F01DFBA9
:10C5D00040F6C800C2F2000045F22811014401A84B
:10C5E000002217F01CF9019E41F24268C0F20708D0
:10C5F000F6B10DF1240A41F284090AF10805C0F2EE
:10C60000060939A701AC00BF5046314631F0CAFFD8
:10C61000307D394618F8003048462A4628F0F5FAA9
:10C6200001980169204617F0E3F8019E002EEBD136
:10C6300040F6C801C2F2000107A80022FEF73EFC46
:10C64000079DCDB30DF1240941F2840A09F10806D2
:10C6500001AFC0F2060A0FF2980B00BF03208DF85D
:10C6600008000020019500BFADF80A00384626F00A
:10C670009DFBBDF80A00042818D0384633F0C6FCEC
:10C6800004464846214631F08DFF2846214633F0C6
:10C69000C9FC18F80030AC8B50465946324600941D
:10C6A00028F0B3FABDF80A000130DDE707A8FEF76D
:10C6B000DDFB079D002DD1D115B0BDE8F08F00BF87
:10C6C0002D2D2D2D2D2D2D2D204D756C7469636113
:10C6D000737420416464726573736573202D2D2D0E
:10C6E0002D2D2D2D2D000000252D333273256300B7
:10C6F000252D333273256320253034780000000067
:10C70000F0B583B0044640F6C800C2F2000045F21E
:10C71000281101446846032217F081F8009E9EB15B
:10C7200002276D46307D38B92046314600222EF072
:10C730003DFD08B1377500BF00980169284617F024
:10C7400057F8009E002EEDD120460021FFF78AFE0B
:10C7500003B0F0BD2DE9F04381B0147891461D4639
:10C7600088465CB126464746384629461022FBF7E4
:10C7700076FD78B1013E07F11007F5D1631C08EB97
:10C7800004102946102289F8003001B0BDE8F043BA
:10C79000FBF7EABC01B0BDE8F08370B584B040F6A9
:10C7A000C802C2F2000245F66453D35C0C469907F6
:10C7B000054609D445F64A50105C00070BD045F6F3
:10C7C0004C50105A022806D148F67460115A4FF6A0
:10C7D000FE73994202D100262E601EE0104401A98A
:10C7E00030F050FC3CB1BDF80610012002290ED3F8
:10C7F00029F006FC0BE002990120B1F5967F98BF65
:10C800004FF4967100EB5100093929F013FC2968A7
:10C8100001260139814228BF2860284600F0CDF862
:10C820002D6841F2840041F2DE61C0F20600C0F2E0
:10C83000070122463346009528F0E7F904B070BDA1
:10C840002DE9F04F87B08B46897F814601F00F01BB
:10C85000072910D103208DF808000020ADF80A0048
:10C8600001A81D469046CDF804B026F09FFABDF809
:10C870000A00042810D14846FFF7A0FE9BF89C0050
:10C8800038B10120052129F0BBFB01464846FFF7DE
:10C89000E9FD07B0BDE8F08F0DF1040A504633F012
:10C8A000B5FB044647462E4655B100BF38462146E3
:10C8B0001022FBF7D4FC70B1013E07F11007F5D14F
:10C8C000484621462EF03CFC28B9484621465A46A7
:10C8D0002EF06CFC88B102225846214626F0EEFA72
:10C8E000BDF80A000130ADF80A00504626F05EFAA5
:10C8F000BDF80A000428D1D1BDE70022ECE7000012
:10C900002DE9F04F89B040F6C8000D46C2F2000094
:10C9100045F228119146014401A8032216F07FFF39
:10C92000019868B101AE00BF017DA94208BF80F83F
:10C9300014900169304616F05BFF01980028F3D18E
:10C9400040F6C801C2F2000107A800224FF0000A19
:10C95000FEF7B4FA079F6FB34FF0030B01AE0DF172
:10C960001C0800BF01978DF808B0ADF80AA000BF01
:10C97000304626F01BFABDF80A00042814D03046D1
:10C9800033F044FB04463846214633F04BFBA842C3
:10C9900004D1384621464A4626F090FABDF80A00EE
:10C9A0000130ADF80A00E3E74046FEF75FFA079F63
:10C9B000002FD7D109B0BDE8F08F818809B9006890
:10C9C00038B140F6C800C2F200002830062100F05D
:10C9D000B8BB40F6C800C2F200002830062100F0C3
:10C9E000C7BB01F0FD010139B1FA81F14909FFF737
:10C9F000D4BE00002DE9F04FC7B004468079002175
:10CA0000C0078DF82B101FD140F6C805C2F20005F3
:10CA100045F60850284432F0D5FCA8B145F66450DC
:10CA2000285C800709D445F64A50285C00070BD0E3
:10CA300045F64C50285A022806D148F67460285A08
:10CA40004FF6FE7188420AD1204601210022FFF7ED
:10CA500057FF2046FFF7B2FD47B0BDE8F08F45F223
:10CA60002810291802A8032216F0D9FE029F4FF0C1
:10CA70000009D7B10DF12C080DF12B0A012602ADEA
:10CA8000387D40B9414652463B46FFF763FE3E754E
:10CA9000029F9DF82B903969284616F0A9FE029F47
:10CAA0001FB15FFA89F00F28EAD340F6C807C2F237
:10CAB000000708A839460022FEF700FA089E002E5B
:10CAC0005BD05FFA89F00E284ED80DF1200B02AD35
:10CAD0000DF12C080DF12B0A96F89C00D0B3032021
:10CAE0008DF80C000020ADF80E002846029626F0C6
:10CAF0005DF9BDF80E0004282CD0284633F086FAE4
:10CB00005FFA89F10E2925D8074600BF304639461D
:10CB100033F088FA48B9414652463B46FFF71AFEC1
:10CB200030463946012226F0C9F9BDF80E00013021
:10CB3000ADF80E00284626F039F9BDF80E0004289D
:10CB400008D09DF82B70284633F060FA0F2F074667
:10CB5000DCD300BF5846FEF789F9089E9DF82B905C
:10CB60003EB1B9F10E0FB7D940F6C807C2F20007BF
:10CB700007E040F6C807C2F200075FEA09603FF429
:10CB800063AF4DF21D00C0F2000000905FFA89F221
:10CB90000BA920460023019400F0CCF868B10546AB
:10CBA000204601210022FFF7ABFE032D7FF451AF99
:10CBB00020460121FFF756FC4BE7A07940F0010029
:10CBC000A07145F66450385C00073FF542AF45F66A
:10CBD000EC403844002107F005FA3AE72DE9F04F20
:10CBE0008BB09B4683791446DA0708D141F28B60FB
:10CBF000C0F2070040F22F2145F012FEFEE701913E
:10CC000003F0FE010090817140F6C800C2F20000FE
:10CC100045F22811014403A8032216F000FE039DEB
:10CC2000D846029455B3BBFA8BF0019E400940EA06
:10CC3000060A0DF10C09002E18BF0226287D0128D6
:10CC400015D1BAF1000F30460ED100BF204629465B
:10CC50001022FBF704FB30B1BBF1010B04F110040F
:10CC6000F4D1022000E00020029CC3462875296907
:10CC7000484616F0BDFD039D002DDFD140F6C801EA
:10CC8000C2F2000109A80022FEF718F9099D002D43
:10CC90004AD0B8FA88F0DDF80490400940EA090A61
:10CCA0000DF10C0BB9F1000F18BF4FF0020900BFD6
:10CCB00003208DF810000020039500BFADF812008E
:10CCC000584626F073F8BDF81200042826D05846BE
:10CCD00033F09CF904462846214633F0A3F9012895
:10CCE00017D1029EBAF1000F47464A460DD100BF48
:10CCF000304621461022FBF7B2FA28B1013F06F177
:10CD00001006F5D1022200E000222846214626F036
:10CD1000D5F8BDF812000130D0E700BF09A8FEF732
:10CD2000A5F8099D002DC3D10098FFF747FC0BB073
:10CD3000BDE8F08F2DE9F04F8FB00DF110090E46D0
:10CD400048462C219A469046FBF735FA40F6C80B28
:10CD5000C2F2000B48F674613BF801104FF6FE7208
:10CD60004FF2BF009142ADF8320002D100240D27EE
:10CD70001EE045F2D8105844262125F026FCA8B123
:10CD800004460E208DF80C004FEA081503A9204632
:10CD900002228DF80D502CF09AFF28B9204631461A
:10CDA0002A462CF094FFB8B1074601E0002403277F
:10CDB000384603F047FF024641F28400C0F2060005
:10CDC00039A127F011FF1FB114B120462DF06FF9E2
:10CDD00038460FB0BDE8F08FBAF1000F09D041F22C
:10CDE0008B60C0F2070040F2A11145F019FD00BFB1
:10CDF000FEE745F664501BF80000800722D445F694
:10CE00004A501BF8000000071CD045F64C503BF878
:10CE10000000022816D148F6746058440DF10B0149
:10CE200030F0C1F807460028C2D19DF80B1045F636
:10CE3000085009F11002584432F0D5FA074600288C
:10CE4000B6D10AE048F674613BF8012045F6F0617E
:10CE500009F11000594417F0A0F804AEDDE91857A5
:10CE6000304624F057F845F2D8105844214632464F
:10CE70002B46009724F0C4FF074641F28400C0F21D
:10CE8000060002A1424627F0AFFE91E753656E749B
:10CE9000204D4C522E7265713A2061646472657344
:10CEA000734E756D3D25640053656E644D756C74ED
:10CEB00069636173744C697374656E6572526567FA
:10CEC000697374726174696F6E4D657373616765C0
:10CED00028293A20257300002DE9F04383B0DDF8BE
:10CEE00028909846164604460625157048BB0F46FE
:10CEF00039B307F1310040F00100007844281FD118
:10CF000038460421324623F0E8FE0546C8B90DF143
:10CF10000A0202AB38460E2123F08FFF50B1317860
:10CF200099F800000025002908BF0625002808BF41
:10CF3000054606E0BDF808006FF0F001084210D089
:10CF40000625327899F80070204629464346009716
:10CF5000FFF7C2FA002C08BF2C46204603B0BDE8FC
:10CF6000F0830028DBD099F800000025002100BFE5
:10CF7000BDF80A20C0B2114408EB001289B238464D
:10CF8000102334F0F7F999F8000005F11001BDF80D
:10CF900008208DB20130954289F80000E8D3BEE741
:10CFA00070B5C2B00446002005AD8DF813000DF138
:10CFB00013060DF2071218462B460096FFF78CFF5A
:10CFC0009DF8071106460843B0FA80F09DF813302B
:10CFD000410920462A46FFF701FE2EB99DF80701B8
:10CFE00010B92046002115E040F6C800C2F200004A
:10CFF00048F67461084401A930F044F860B9BDF8FE
:10D000000610022904D3012028F0FAFF014600E0AF
:10D0100001212046FFF726FA42B070BDFFF7C0BFDE
:10D02000827900210160818002F0FE0181717047E8
:10D0300080B5272807D141F6A420C0F2070093212C
:10D0400045F0EEFBFEE740F63071C0F2060151F804
:10D05000200080BD01210128B8BF0321002818BF8E
:10D060000846704700F0030001A10856704700BF52
:10D07000000100FF027800BF2AB18A4208BF704752
:10D0800010F8012FF8E70020704770B50446866855
:10D09000051D4FF47A70042128F0E3FF811928461A
:10D0A00000F0AFF8206840F6C805C107C2F20005DD
:10D0B00005D045F61440284404F044FB206881075D
:10D0C00005D545F6085028441EF004FB20684107AA
:10D0D00005D547F6F840284407F0CEFE2068010742
:10D0E00005D548F6F060284408F0A6FF2068C10680
:10D0F00005D545F24800284415F0CAF82068810695
:10D1000005D548F69C602844FDF760FF206841067D
:10D1100005D548F694602844FFF7C6F92068C10594
:10D1200005D545F28400284415F0DCFC2068800514
:10D1300058BF70BD45F608502844BDE870401AF04D
:10D1400057BC10B5012202FA01F10268C368041D40
:10D150001143A342016018BF10BD002040F2E93125
:10D1600028F068FF01462046BDE8104000F03DB8B9
:10D170000122036802FA01F123EA0101016001B111
:10D180007047043000F025B80021016040F60D1111
:10D19000C0F20101024642F8041FC2607047034614
:10D1A00080688C46984206D05868ACEB0000B0F11D
:10D1B000FF3FC8BF704740F6C800C2F2000040F60B
:10D1C00024520830C0F206021946C3F804C026F003
:10D1D000E7BB014640F6C800C2F2000040F6245208
:10D1E0000830C0F2060226F01BBCB0B50C4605465E
:10D1F00045F08AFA014628462246BDE8B04000F0D4
:10D200000FB80B46014640F6C800C2F2000040F6D7
:10D2100024520830C0F206024B6026F0C1BB000069
:10D2200080B5B2F1FF3F12DD034640F6C80001EBC6
:10D23000020CC2F2000040F624520830C0F206028E
:10D240001946C3F804C0BDE8804026F0A9BB4FF6DC
:10D25000E360C0F20600542145F0E2FAFEE7000068
:10D260002DE9F04F87B0044600684FF0000B00280E
:10D2700000F0048198181FFA80FA154692454FF085
:10D280000008CDF80CB0CDE901BB40F2D9800E46C4
:10D290004FF0000806AF4FF0000B00BF1FFA85F9F2
:10D2A000304649463A46022334F064F8002840F0FC
:10D2B000DE809DF8190048440230504500F2D980C4
:10D2C0009DF81800B0B1052840F0B2804BEA080084
:10D2D000C00740F0D180304649460DF1030223F0EB
:10D2E00043FD002840F0C3804FF000084FF0010BD1
:10D2F0009EE000BF5FEACB7040F0BE8030464946FA
:10D3000004AA042334F036F8002840F0B0809DF8D9
:10D3100011000228C0F0AD809DF9120000284CD405
:10D32000C7B2780608D53046494604AA072334F028
:10D3300021F8002840F09B804FF001080A2F4FF0A1
:10D34000000B21DC092F3DD00A2F06AF70D19DF8CC
:10D3500013007F2200EB801002EB400048F28102B4
:10D360009DF8041080B2C8F28002A0FB020241F0D6
:10D3700004008DF80400D20940F630508DF80D20DD
:10D38000C0F2060052A116E00B2F2BD0402F06AFA3
:10D390004ED19DF80400DDF8131040F001008DF827
:10D3A00004000ABA40F6305040F60761C0F20600A9
:10D3B000C0F20701029227F028FC4FF001084FF05D
:10D3C000000B35E09DF804009DF8132040F00200AA
:10D3D0008DF8040040F630508DF80C20C0F20600A5
:10D3E00047A11EE09DF813007F2200EB801002EBA6
:10D3F000400048F281029DF8041080B2C8F2800219
:10D40000A0FB020241F008008DF804007E2000EB32
:10D41000D2108DF80E0042B240F63050C0F2060035
:10D420001FA127F0F2FB4FF001084FF0000B06AFF1
:10D430009DF819002844851CA8B25045FFF42EAF72
:10D440005FEACB7008BF5FEAC8700DD09DF803108B
:10D450001BF0010218BF0A4601A9109818BF00214D
:10D46000D4E90073D2B2B8474FF0000B06E0834610
:10D4700004E04FF0060B01E04FF0020B584603F0BA
:10D48000E1FB024640F6305040F62D61C0F2060046
:10D49000C0F2070127F0B9FB07B0BDE8F08F00BF6D
:10D4A000202D20525353493A202575202864426D7F
:10D4B0002920284578706F6E656E7469616C204D07
:10D4C0006F76696E67204176657261676529000035
:10D4D000202D204D617267696E3A202575202864E1
:10D4E000422920284578706F6E656E7469616C20E2
:10D4F0004D6F76696E6720417665726167652900B8
:10D50000202D204C51493A20257520284578706FF0
:10D510006E656E7469616C204D6F76696E6720412F
:10D520007665726167652900F0B593B0144602AA6A
:10D530001D460E462DF069FE0746B0B9402D01D9B3
:10D54000072712E04FF007077CB1FF2C0DD040F603
:10D55000C800C2F2000045F60851084403AB31464A
:10D56000224600951AF00CF80746384603F06AFB8D
:10D57000024640F63050C0F2060003A1234627F0D1
:10D5800044FB384613B0F0BD53656E644C696E6B56
:10D5900050726F62652C206572726F723A25732C1F
:10D5A000205365726965732049443A25750000006F
:10D5B0002DE9F04782B00546806800283ED09146AC
:10D5C0000E460DF1060201AB0846582123F035FC4A
:10D5D000B8BBBDF80600BDF8041001448CB2A042EF
:10D5E0002ED20027EA460DF1030800BF81B2304673
:10D5F0005246022333F0BEFE18BB9DF800000528FA
:10D6000009D1F8071CD1BDF806103046424623F078
:10D61000ABFBB0B901279DF80100BDF80610084426
:10D62000023081B2A142ADF80600DFD3F80707D07F
:10D630009DF80310D5E9023248469847002000E0E3
:10D64000062002B0BDE8F087B0B582B00C46517933
:10D6500057208DF80400481D002908BF03201546F7
:10D660008DF8050001A9204602222CF030FB28B9D4
:10D670002A782046012123F0ACFB08B102B0B0BDEE
:10D68000687988B102218DF800108DF80100694693
:10D69000204602222CF01BFB0028EFD16A79691C7E
:10D6A00020462CF014FBE9E70020E7E770B584B0D2
:10D6B000164603AA1D460C462DF0A7FD90BB16B9D1
:10D6C0000DB107202EE040F20710ADF804008DF8F0
:10D6D0000660ADB101AEF11C28462DF0C3FD01304E
:10D6E0008DF8050040F6C800C2F2000045F608516A
:10D6F0000844214632461CF052FD03992A780FE077
:10D7000001208DF8050040F6C800C2F2000045F681
:10D710000851084401AA21461CF041FD039900224A
:10D7200081F8302004B070BDF0B583B0144602AA71
:10D730001F460D462DF069FD064628BB9CB140F200
:10D740000320089EADF8000038468DF802402DF009
:10D7500084FD8DF8030046B16846011D30462DF06A
:10D7600081FD023002E007260EE002208DF8010064
:10D7700040F6C800C2F2000045F6085108446A4667
:10D7800029461CF00CFD0646304603F05BFA0246C3
:10D7900040F63050C0F2060003A1234627F035FAC8
:10D7A000304603B0F0BD00BF53656E644D676D74C5
:10D7B00052657175657374466F72776172645472E5
:10D7C00061636B696E675365726965732C2065725E
:10D7D000726F723A25732C20536572696573204904
:10D7E000443A257500000000F0B585B0154604AA3E
:10D7F0001E460C462DF009FD20BB00278DF80D704C
:10D80000CDF809708DF8085056B102A8411C304679
:10D810002DF028FD8DF80D0015B108B1072011E09D
:10D8200040F6C800C2F2000045F6085141F2EF028E
:10D8300002AE0844C0F20602214601230097019679
:10D840001AF00AFA05B0F0BDB0B51821044600F18F
:10D850001C05FAF7B0FC0020002100BF2218103090
:10D86000D16129461035B0F5007FF7D1204400F191
:10D870000C012046A161B0BD80B54A680AB98A682A
:10D880003AB14FF6BA20C0F206006E2144F0C8FF4C
:10D89000FEE745F20803D0F804E0C25A00EB030C9F
:10D8A0000B460968C3F800E0013A00299E46F7D10B
:10D8B0004360ACF8002080BD40F62E73C0F2060332
:10D8C000002200F006B840F62E73C0F20603AFF354
:10D8D00000802DE9F0410F4659781E4690460546D6
:10D8E00000F022F80446E0B120468021FAF763FCFC
:10D8F00007F0070084F82E003078E56084F82F00E8
:10D9000071782046A4F81C802CF00AFA20B9204631
:10D9100000212CF0E6FB20B128462146FFF7ACFFA2
:10D9200000242046BDE8F0812DE9F041054645F28E
:10D93000080005EB000840F6C8000E46C2F20000E1
:10D9400045F61441471800BF6C686CB9384631463B
:10D9500003F08AFB0028F7D040F6D270C0F2060030
:10D960000BA127F041F910E02068B8F800106860BA
:10D97000481CB8F8022081B2A8F800008A4238BFDB
:10D9800002460020A8F8022020602046BDE8F08171
:10D990004E6F20617661696C61626C65206D6573A4
:10D9A00073616765206275666665720080B545F2D1
:10D9B000080100EB010C00F1080E0022002300BF5B
:10D9C000811880328B6073460EF1800EB2F5A04F45
:10D9D000F6D18118783941600021CCF8001080BD63
:10D9E0002DE9F041089DFE2D84BF0620BDE8F081A1
:10D9F000044616460F46DDE90601226898462B4686
:10DA000033F0B8FC08B1BDE8F081B8F1010F257121
:10DA1000E771A67102D1204600F090F940F6C805E2
:10DA2000C2F2000545F62950285C042804D148F6C6
:10DA30009C10284401F086FA2268237940F63F5072
:10DA4000C0F2060009A127F047F9207994F80611E1
:10DA5000814238BF014684F8061105F110004FF4E9
:10DA600000712CF006FF0020BDE8F0815365744E74
:10DA70006574776F726B44617461000070B5154610
:10DA80000E46044600F03AF875B1FC2D22D8A91CC8
:10DA9000204600F09AFAE8B1082101704570023082
:10DAA00031462A46FAF760FBE179207994F806219D
:10DAB0000131E171824238BF024640F6C800C2F22D
:10DAC000000010304FF4007184F806212CF0D1FED4
:10DAD000002070BD032070BD0246007992F8063127
