:020000040000FA
:10800000107B0120D9800000E1800000599B000016
:10801000E58000007D93000001BF0000000000002B
:108020000000000000000000000000008176050054
:10803000ED8000000000000001890500298A05008C
:10804000F510040075BE000091BE00001DBF0000C9
:10805000D5380500F3800000F3800000EB38050000
:10806000F380000085E00300ADE00300D7E00300EB
:1080700001E10300F3800000F3800000C9BE0000AE
:10808000E5BE0000F3800000F38000000139050028
:1080900027DD0300F3800000F3800000F380000080
:1080A000F3800000F3800000F3800000F380000004
:1080B000ADBE0000F3800000F3800000F3800000FC
:1080C00051950000DFF80CD000F04EFD004800474D
:1080D00099270400107B0120064880470648004786
:1080E000FEE7FEE7FEE7FEE7FEE7FEE7FEE7FEE768
:1080F000FEE7FEE7DDBA0000C58000002DE9F05F75
:108100000546002092469B46884606468146402406
:108110001BE0284641464746224600F0E6FB534610
:108120005A46C01A914110D311461846224600F013
:10813000CDFB2D1A67EB01084F4622460120002196
:1081400000F0C4FB17EB00094E41201EA4F101040E
:10815000DFDC484631462A464346BDE8F09F000032
:1081600000487047ACAD050010B50446FFF7F8FFB6
:108170000068005D00F0010010BD000038B5D0E9D6
:108180000221491E01EB410102EBC1014268C1EB32
:10819000011102EB81010268C1EB011102EB8102C6
:1081A000D0E9043101EB410103EB81013023A1F55A
:1081B000527191FBF3F4174D6C4302EBC41291FB27
:1081C000F3F403FB141100921A2902DB124B1A4438
:1081D00000920C2291FBF2F3104C6343009C04EBE1
:1081E000C313009391FBF2F302FB13110C4A08E056
:1081F000491E40F2A324535C6343009C04EBC31369
:1082000000930029F4DC0146684600F097FB0098D3
:1082100038BD00003F0C0F008051010067C2030011
:10822000B0AD050010B5431A934209D283188818DF
:1082300003E010F8011D03F8011D521EF9D210BD14
:1082400040EA01039B0703D009E008C9121F08C0D8
:10825000042AFAD203E011F8013B00F8013B521E58
:10826000F9D210BDD2B201E000F8012B491EFBD2B9
:1082700070470022F6E710B513460A460446194631
:10828000FFF7F0FF204610BD421E12F8013F002B01
:10829000FBD111F8013B02F8013B002BF9D17047EB
:1082A00010B5044604E00B7800F8013B03B1491C0B
:1082B000521EF8D2204610BDCAB2401E10F8011F4F
:1082C0008A4202D00029F9D100207047421C10F8E0
:1082D000011B0029FBD1801A704710B5002200E075
:1082E000521C835C8C5CA34201D1002BF8D1D8B224
:1082F000E1B2401A10BD30B504460020034600E04C
:108300005B1C934203D2E05CCD5C401BF8D030BDD7
:10831000034611F8012B00F8012B002AF9D1184669
:10832000704730B505460020034600E05B1C9342D1
:1083300005D2EC5CC85C201A01D1002CF6D130BD0E
:1083400010B54843044652F0B3FC002805D0002184
:10835000002C02D0641E0155FAE710BD0FB400B521
:108360008DB010A909900B9000914FF0FF300A904A
:1083700000200C9005480690054807906A4609A819
:108380000F9900F035FB0DB05DF814FB0D8A00006D
:108390002B8A00002DE9FF5F1D464FF0FF3BD5E91A
:1083A000014691465F464FF00008A9697F1C01987D
:1083B0008847296A824688470028F6D1BAF1FF3FEC
:1083C0000CD024F4C064002E19DD600614D5BAF177
:1083D0002B0F09D0BAF12D0F0ED103E0584604B08F
:1083E000BDE8F09F44F48064A9697F1C0198884728
:1083F000761E8246002E02DDBAF1300F03D0B9F1AD
:10840000000F26D032E0A969761E44F400747F1C68
:10841000019888478246002E05DDBAF1780F06D014
:10842000BAF1580F03D0B9F1000F10D01EE0B9F126
:10843000000F02D0B9F1100F18D1A969761E24F4EB
:1084400000747F1C019888478246102002E00820B3
:1084500000E00A20814609E008FB0908A969761EA8
:1084600044F400747F1C019888478246002E05DD85
:108470004946504600F0A8FA0028EDDAE96901986B
:108480008847A00502D46FF00100A8E7E00725D1D6
:10849000600613D5600502D5C8F1000000E0404633
:1084A00029680A1D2A600968220501D5087015E0AF
:1084B000220701D5088011E008600FE02868011D3F
:1084C00029600068210502D580F8008006E02107B8
:1084D00002D5A0F8008001E0C0F8008038467EE7B1
:1084E0002DE9FE4F804681EA0300C00F0C46009044
:1084F00021F0004123F00045B8EB0200A94105D26C
:108500004046214690461C460B46024623F000405A
:10851000104347D0270DC7F30A00C3F30A51029056
:10852000401A019040286BDAC3F3130040F4801B1B
:108530000098924620B10023D2EB030A63EB0B0BA9
:1085400001985946C0F14002504600F0BFF9064676
:108550000D4650465946019A00F0D7F910EB080035
:108560006141002487EA115284EAE7731A4340D03C
:10857000009A62B3019A012A4FEA075215DC001BE8
:1085800061EB02014FF0004202EA0752CDE90042DE
:10859000001C41F5801132462B4600F066FA03B00C
:1085A000BDE8F08F40462146F9E7001B61EB020170
:1085B000001C41F5801300185B412018A2F500173C
:1085C00047EB030140EAD570B6196D4111E06D0823
:1085D0004FEA360645EAC0754FEA0752001B61EBC9
:1085E0000201001C41F5801149084FEA30000019D2
:1085F000514132462B4603B0BDE8F04F00F026BA99
:108600000098012240000023D0EB020263EBE073EC
:10861000009821464FEAE074B8EB000061EB0401DA
:10862000E9E783F000435BE781F0004158E72DE97B
:10863000FE4F81EA030404F0004421F0004100945D
:108640004FF0000B23F0004350EA01045ED052EAE1
:1086500003045BD0C3F30A54C1F30A552C44A4F2BB
:10866000F3340194A0FB0254C1F3130141F48011CF
:10867000C3F3130343F4801301FB024400FB034ED6
:10868000840A970A44EA815447EA8357A4FB07689F
:1086900002958D0A05FB07854FEA932C04FB0C54C9
:1086A0002705029D4FEA065847EA1637B5EB08053D
:1086B0006EEB070C870E920E47EA811742EA83128F
:1086C000A7FB0201B6EB0B0164EB00042B0D43EAA0
:1086D0000C335E1844EB1C50DA465146E7FB0201AE
:1086E000C5F313044FEA0B3343EA14534FEA043241
:1086F000019C43EA0603A4F10C040294009CCDE91A
:1087000000B400F0B2F903B0BDE8F08F00200146DC
:10871000F9E72DE9F04D81EA030404F0004B21F064
:10872000004514464FF0000A23F0004150EA0502CC
:1087300020D054EA01021DD0C5F30A570246C5F302
:108740001303C1F31300C1F30A5640F4801543F438
:108750008013A7EB0608101BD64608F2FD3873EB12
:10876000050002D308F1010801E092185B41B8F15D
:10877000000F03DA00200146BDE8F08D00204FF421
:108780008011064684460EE0171B73EB050705D3E0
:10879000121B63EB050306434CEA010C49084FEA40
:1087A000300092185B4150EA0107EDD152EA030014
:1087B00012D082EA040083EA0501084305D0101BA9
:1087C000AB4106D20122002306E000224FF0004315
:1087D00002E06FF0010253101AEB06004CEB085157
:1087E00010EB0A0041EB0B01BDE8F04D00F02EB993
:1087F00030B5041E71F1000404DB4FF00044404228
:1088000064EB0101141E73F1000405DB1C464FF0FC
:108810000043524263EB0403101A8B4101D2012042
:1088200030BD002030BD0EB5C10F80EAE0700844B5
:10883000CA07002140F233438DE80E000A460B467A
:1088400000F013F903B000BD0EB540F233410291C0
:108850000021CDE900110A460B4600F006F903B0ED
:1088600000BD70B5C1F30A5201F000450024C1F308
:10887000130140F2FF3341F480119A4201DA0020E3
:1088800070BD40F233439A42A2F2334203DC5242BB
:1088900000F02BF800E090402C43F1D0404270BD36
:1088A00030B50B46014600202022012409E021FAC0
:1088B00002F59D4205D303FA02F5491B04FA02F5BD
:1088C0002844151EA2F10102F1DC30BD202A04DB90
:1088D000203A00FA02F1002070479140C2F12003D3
:1088E00020FA03F3194390407047202A04DB203A12
:1088F00021FA02F00021704721FA02F3D040C2F1C0
:1089000020029140084319467047202A06DBCB1706
:10891000203A41FA02F043EAE07306E041FA02F33A
:10892000D040C2F120029140084319467047000030
:10893000014900F003B80000C003002010B5006832
:108940003C22B0FBF2F302FB1303B0FBF2F00B602E
:10895000B0FBF2F302FB1303B0FBF2F018224B6002
:10896000B0FBF2F302FB1303B0FBF2F0021D8B60CD
:108970000723B2FBF3F403FB1422800040F2B5534B
:1089800000F66C308A61B0FBF3F2B0FBF3F403FB4A
:108990001400443280084A61C8613B2802D3920720
:1089A00000D0401C0022074C13460A61E25C824260
:1089B00003D8801A5B1C0B61F8E7401CC8600846AE
:1089C00010BD0000BCAD05003A2800D2303820F0C0
:1089D0002002412A01D3A2F13700884201D34FF08F
:1089E000FF307047026811441378016018467047E1
:1089F000D16004495161044911620021116111469D
:108A000000F0C4B8E589000069810000426842B105
:108A1000016811F8013B23B1521EC0E9001218464B
:108A200070470121C160881E704742685AB1C3680F
:108A3000016843B983688B4205D0491E521CC0E9C6
:108A40000012002070474FF0FF30704710B5141E21
:108A500073F1000408DA401C41F1000192185B41F7
:108A60001A4301D120F0010010BD2DE9F04D9246CE
:108A70009B4611B1B1FA81F202E0B0FA80F22032E5
:108A80009046FFF723FF04460F4640EA0A0041EAFA
:108A90000B0153465A46084313D0114653EA0100CE
:108AA00019D0C8F140025046FFF71FFF05460E4699
:108AB000504659464246FFF709FF084305D00120BA
:108AC00004E020463946BDE8F08D0020054346EA23
:108AD000E0762C4337430A986305E40AA0EB0800CC
:108AE0000022FD0A44EA47540A3002D5002001461C
:108AF000E9E7010510196941DDE9084500196941F7
:108B0000BDE8F04DA2E7C1F30A52C1F3130140F2F0
:108B1000FF3341F480119A4202DA00200146704787
:108B200040F233439A42A2F2334202DC5242FFF750
:108B3000DCBEFFF7CBBE000030B5041E71F10004AF
:108B400004DB4FF00044404264EB0101141E73F15A
:108B5000000405DB1C464FF00043524263EB040364
:108B6000994208BF904230BD064C074D06E0E068D0
:108B700040F0010394E8070098471034AC42F6D364
:108B8000FFF7A4FA3C2007005C2007002DE9F34F13
:108B90008BB04FF0000801F10C000C464FF0010BB8
:108BA00046460DF1080A019062690121019890473B
:108BB000051E2DD0252D2CD0216A8847C0B16269B1
:108BC000012101989047216A88470028F7D1411E6A
:108BD00062690198904700E0761CA1690B9888476C
:108BE000216A88470028F7D1E1690B988847DBE7BD
:108BF000A1690B9888470746A84201D1761CD3E7A4
:108C0000E1690B9888477F1C02D1B8F1000F6FD043
:108C100046E1002762693D463946019890472A2877
:108C200004D162690121019890470125DFF88492FF
:108C30006269012101989047A0F130010A290AD206
:108C40004F45E5DC07EB870100EB4107303FDFD400
:108C500045F01005ECE7E90601D46FF000476C28F9
:108C60000AD04C2814D0682815D06A280DD0742852
:108C70001CD07A281AD01DE0626901210198904722
:108C80006C2802D045F0040514E045F002050DE023
:108C900045F020050AE062690121019890476828A3
:108CA00002D045F0080505E045F400656269012140
:108CB00001989047C4E9015765283DD019DC582830
:108CC0007AD00CDC452837D004DC252826D0412872
:108CD00031D131E046282FD047282CD12CE05B2819
:108CE00077D0612828D063287CD0642823D15AE02B
:108CF000D0E06F2848D008DC66281DD067281BD03C
:108D0000692821D06E2816D127E0702845D0732815
:108D100068D0752847D078280DD14DE0A1690B980F
:108D20008847054625283FF469AFE1690B988847D5
:108D30006D1C3FF46AAFB3E023466A466FF0010052
:108D40000B99AFF300809EE045F040006060A807FB
:108D500023464FF0000236D43EE0E8077FF447AFE9
:108D60002068011D21600068290501D506701BE7F8
:108D7000290701D5068017E7A90703D5F117C0E930
:108D8000006111E706600FE745F040006060A8074A
:108D900023464FF0080216D41EE040F60E0125EAE5
:108DA0000100606016E045F040006060A8072346BF
:108DB0004FF00A0207D40FE045F040006060A807BA
:108DC00008D5234610226FF001000B99AFF3008005
:108DD00059E007E0234610226FF001000B99FFF7DE
:108DE000D9FA50E04FF000094F464B46632802D0B5
:108DF0005B2806D040E0E80601D40120A0600127EE
:108E00003AE062690121019890475E2805D14FF050
:108E100001096269494601989047216939B90021E1
:108E20000A46534643F82120491C0829FADBB0B30F
:108E3000216969B9C11700EBD16253110AEB8301B3
:108E400022F01F02821A01200B68904003430B603E
:108E500062690121019890475D28E8D1B9F1000FBE
:108E600009D00020514651F82020D24341F820205B
:108E7000401C0828F7DB02AB224600976FF0010088
:108E80000B99AFF3008000280CDA401C08D1BBF12D
:108E9000000F05D04FF0FF300DB0BDE8F08FFFE7B9
:108EA0004046F9E7E90701D108F1010806444FF00F
:108EB000000B79E6CCCCCC0C70B58C1810F8015BAB
:108EC00015F0070301D110F8013B2A1106D110F863
:108ED000012B03E010F8016B01F8016B5B1EF9D167
:108EE0002B0705D40023521E0DD401F8013BFAE7ED
:108EF00010F8013BCB1A921C03E013F8015B01F858
:108F0000015B521EF9D5A142D8D3002070BDB0B587
:108F100040F2D860C2F20000007800B1B0BD40F26B
:108F20000445C2F2000505F130030FCB40F27C246A
:108F3000C2F200040FC440F25120C2F2000005F159
:108F40004004013021461022FFF76CF940F2622004
:108F5000C2F20000013021461022FFF763F905F14B
:108F600050030FCB40F28C25C2F200050FC540F232
:108F7000D560C2F200000124047002204DF00AFB0B
:108F80004AF6D840C2F200000470B0BD2DE9F04F9F
:108F9000C7B0044640F21470C2F200000121017013
:108FA000274617F8090B002114288DF8161017D042
:108FB0000B2826D0072839D1607898B3012835D1FD
:108FC000A07898BBE078632830D1207901282DD192
:108FD000607958BBA079FF2828D10325C5A027E0D8
:108FE000607818BBA07808BBE0780D281ED12079E6
:108FF000E0B96079D0B9A079FF2817D10C25A1A0DC
:1090000016E0607890B9A07880B9E0780B280DD18F
:10901000207958B9607948B9A079FF2806D10B2585
:10902000A0A005E0A078002800F0F2800725B6A0F7
:1090300048F0D9FE207A40F6C831C2F200010D7026
:10904000D0B101282BD0022840F0D9800FAD28469E
:1090500021461322FFF7E6F841F2E300C0F20700D1
:1090600048F0C1FE4DF2A230C2F20000008829464D
:1090700000224BF043F9C8E00DF11605681C2146AB
:109080000922FFF7CFF8A3A048F0ADFE4DF2A230C1
:10909000C2F20000018828464AF0E8FFB5E00DF171
:1090A00020082FAD40462146092205F13506FFF77D
:1090B000B9F841F2CE00D7F80090D7F804A0D7F85D
:1090C00008B0FF68C0F2070048F08DFE4DF2A230F4
:1090D000C2F200004AF6D4510488C0F205012846C5
:1090E0005F22FFF79FF805F1160041460922FFF7BE
:1090F00099F8681C0521C6F804A0C6F80090C6F8C7
:109100001170C6F80DB000F047F98DF8C200000AE2
:109110008DF8C300200A8DF8CC00E01E00EB9061B2
:1091200001F0C001401A8DF8CD4040308DF8D000DC
:10913000DDF8CA0040F22922C2F20002906011203C
:109140003E210BAB05F11204CDE90131039040F251
:10915000412040F251210FAEC2F20000C2F20001E4
:10916000234600964AF004FD204631463E22FFF792
:1091700059F80BAA07CA43AB07C34FF234014FF6A5
:10918000FF720120C0F205012B5C013083EA020767
:1091900007F00F0731F8177092B287EA121297B2F0
:1091A00002F00F0282EA131231F812205C2882EAE0
:1091B0001712E9D1D043ADF818014FF6553041F6FA
:1091C0001211C0F20600C0F2070151F06FF84FF61D
:1091D0006E440026C0F20604A95D204651F066F8F0
:1091E00001365F2EF8D141F24460C0F2070048F02A
:1091F000FAFD2FA902205F2234F074F805E041F255
:10920000BC00C0F2070048F0EEFD47B0BDE8F08FAB
:10921000E078632821D015287FF408AF207928B999
:109220006079052802D1A079FF2825D0207928B9B6
:109230006079082802D1A079FF2820D02079002861
:109240007FF4F4AE607907287FF4F0AEA079FF28B0
:109250007FF4ECAE0A2522A0EAE6207962287FF4AA
:10926000E5AE607900287FF4E1AEA079FF287FF4B5
:10927000DDAE062510A0DBE6042512A0D8E6052504
:1092800014A0D5E641637469766974792063616CD2
:10929000656E64617220666F7220746F75207479D8
:1092A00070650D007370656369616C20646179207D
:1092B000747970650D0000006576656E74207479B0
:1092C00070650D004D69646E69676874207479700B
:1092D000650D0000416C7420747970650D0000000C
:1092E00064656D616E642072657365742074797055
:1092F000650D00006C6F616470726F66696C65204B
:10930000747970650D0000004F746865722074797F
:1093100070650D0052656164204F42495320434FF0
:1093200044450D00B0B584B040F6E120C0F207001E
:1093300050F0BCFF49F6B415C2F20005B5F8EE15C1
:1093400005F11204204601F0BDFA2888B5F8EEC5F3
:10935000D5F80210D5F80620D5F80A30D5F80E5009
:10936000CDF808C0CDE9005434F0B5F840F2F23041
:10937000C2F200000021017004B0B0BD01A048F0AD
:1093800032BD00BF4275734661756C745F48616E93
:10939000646C65720000000001B380B54FF2340CBC
:1093A0004FF6FF73C0F2050C10F801EB01398EEA9D
:1093B000030202F00F023CF812209BB282EA131261
:1093C00093B202F00F0282EA1E123CF8122082EAE7
:1093D0001313E9D1D843BDE8804000E0002080B2FB
:1093E0007047000070B584B00021022802910191FD
:1093F00001D90520A9E00424C4F2800421680028D2
:1094000021F003012160216821F48071216000F0C6
:109410009580012847D12068BC2520F40070C4F253
:1094200020052060A868002620F48000A86002962D
:109430000298012800F28280206840F48070206049
:109440000396039800094A2808D800BF00BF039874
:10945000013003900398B0F5966FF7D3286800F0B9
:1094600040512068B1F1805F65D020F480702060A9
:10947000039603980009182808D800BF00BF039876
:10948000013003900398B0F5C87FF7D301F013F9CA
:1094900001900198022851D0029801300290029860
:1094A0000228C9D34AE02068BC2540F40070C4F209
:1094B00020052060A868002640F48000A86002967D
:1094C000029801283AD800BF206840F480702060DC
:1094D0000396039800094A2808D800BF00BF0398E4
:1094E000013003900398B0F5966FF7D3286800F029
:1094F00040512068B1F1805F1DD020F48070206061
:10950000039603980009182808D800BF00BF0398E5
:10951000013003900398B0F5C87FF7D301F0CBF882
:1095200001900198022809D0029801300290029817
:109530000228C9D302E040F00300206037F02FFB7F
:1095400002F0B8FA00F044F8002004B070BD00004A
:109550000420C4F220004168C90708BF70470168B1
:1095600041F0010101604068C00707D149F6E4708D
:10957000C2F20000006810B1004700BFFEE770476C
:109580004EF28410CEF2000001210160BFF34F8F34
:109590000020BFF36F8FC4F22000016821F00201A8
:1095A0000160416841F00101416070470020C4F250
:1095B0002000416841F001014160016841F0020171
:1095C00001604EF20410CEF20000012101607047EC
:1095D00080B500F011FA022888BF80BD08A10BA257
:1095E00051F8201052F8200040F21402C2F200029A
:1095F000116040F21001C2F20001086080BD00BF9E
:10960000B3970000F99700005F98000019960000DA
:10961000819600000D97000010B582B0019001986E
:1096200000282BD040F21404C2F200040198013843
:109630000190216840F2E7308847019800281AD04D
:1096400000BF00BF00BF00BF00BF00BF00BF00BF22
:1096500000BF00BF00BF00BF00BF00BF00BF00BF12
:1096600000BF00BF00BF00BF00BF00BF00BF00BF02
:1096700000BF00BF00BF01980028D7D102B010BDC5
:1096800010B582B001900198002800F03C8040F2B3
:109690001404C2F2000400BF01980138019021684F
:1096A00040F2E730884700BF00BF00BF00BF01980D
:1096B000002824D000BF00BF00BF00BF00BF00BF14
:1096C00000BF00BF00BF00BF00BF00BF00BF00BFA2
:1096D00000BF00BF00BF00BF00BF00BF00BF00BF92
:1096E00000BF00BF00BF00BF00BF00BF00BF00BF82
:1096F00000BF00BF00BF00BF00BF00BF00BF019898
:1097000000287FF4C9AF02B010BD000010B582B0D0
:1097100001900198002800F04A8040F21404C2F23F
:10972000000400BF019801380190216840F2E73041
:10973000884700BF00BF00BF00BF00BF00BF00BF21
:1097400000BF00BF00BF00BF00BF00BF00BF00BF21
:1097500000BF00BF00BF0198002824D000BF00BF99
:1097600000BF00BF00BF00BF00BF00BF00BF00BF01
:1097700000BF00BF00BF00BF00BF00BF00BF00BFF1
:1097800000BF00BF00BF00BF00BF00BF00BF00BFE1
:1097900000BF00BF00BF00BF00BF00BF00BF00BFD1
:1097A00000BF00BF00BF019800287FF4BBAF02B02C
:1097B00010BD81B00090401E00BF00BF00BF00BFC1
:1097C00000BF00BF00BF00BF00D113E000BF00BF5B
:1097D00000BF00BF00BF00BF00BF00BF00BF00BF91
:1097E00000BF00BF00BF00BF00BF00BF00BF00BF81
:1097F00000BFE0E701B0704781B00090401E00BF9D
:1098000000BF00BF00BF00BF00BF00BF00BF00BF60
:1098100000BF00BF00BF00BF00BF00BF00BF00BF50
:1098200000BF00BF00BF00BF00BF00BF00D114E0F9
:1098300000BF00BF00BF00BF00BF00BF00BF00BF30
:1098400000BF00BF00BF00BF00BF00BF00BF00BF20
:1098500000BF00BF00BF00BFD0E701B0704781B0BC
:109860000090401E00BF00BF00BF00BF00BF00BF90
:1098700000BF00BF00BF00BF00BF00BF00BF00BFF0
:1098800000BF00BF00BF00BF00BF00BF00BF00BFE0
:1098900000BF00BF00BF00BF00BF00BF00BF00BFD0
:1098A00000BF00BF00BF00BF00BF00BF00BF00BFC0
:1098B00000BF00D114E000BF00BF00BF00BF00BF69
:1098C00000BF00BF00BF00BF00BF00BF00BF00BFA0
:1098D00000BF00BF00BF00BF00BF00BF00BFC0E7A8
:1098E00001B0704710B5044637F04FF81321B1EBC3
:1098F000104F14D0000C15281FD014281CBF0120B5
:1099000010BD4FF2040C4FF6F873C0F20F0CC0F20A
:109910000F030CF57F61181D4FF47F221AE04FF200
:10992000040C4FF6F873C0F2070CC0F207030CF5F5
:109930007F61181D4FF4FE220CE04FF200024FF63B
:10994000F471C0F21F02C0F21F0102F1040C0B1DE2
:1099500001F108001B682360006860600868A0606F
:10996000DCF80000E06010682061002010BD0000FD
:10997000B8B10168013114D0B0F8051089B14018B0
:109980000FD000BF016801310BD001797E2908BFDB
:109990007047B0F80510002918BF01440029084697
:1099A000F0D100207047B020C4F220000168890780
:1099B00002D40168C90702D10168890701D40120D6
:1099C0007047006800207047B0B586B001AD04460E
:1099D00028461421FEF74DFC2846FFF783FF059823
:1099E00040B100BF0168A14204D0FFF7C1FF0028C9
:1099F000F8D1002006B0B0BD0420C4F28000016898
:109A0000890704BF00207047016801F003010329A2
:109A100004D10168C90502D4FEE700BFFEE7016872
:109A2000890551BF01200068022101EA102070471A
:109A300080B540F6046EC2F2000ECEF800308446C7
:109A40000078F0B10888013083B2088093424FF06B
:109A5000000038BF80BD8CF800000880DEF80000F0
:109A6000052840D80FF20401DFE800F0030E161EAF
:109A7000262E41F27F40C0F2070048F0B4F932A030
:109A800029E00020088080BD41F27F40C0F207003D
:109A900048F0A9F927A01EE041F27F40C0F207007C
:109AA00048F0A1F91FA016E041F27F40C0F2070084
:109AB00048F099F915A00EE041F27F40C0F207008E
:109AC00048F091F90CA006E041F27F40C0F2070097
:109AD00048F089F905A048F086F940F69E10C0F2DA
:109AE000070048F080F9012080BD00BF5265736512
:109AF000742046616E0D0000436F6E74696E75656B
:109B0000666C6167204572726F720D004F6E6465FE
:109B10006D616E6472656164696E67204572726F13
:109B2000720D000053656E64666C61672045727249
:109B30006F720D0052656365697665666C616720BA
:109B40004572726F720D0000526574727920526511
:109B50006769737465720D00042071460842EFF363
:109B60000980EFF30880714641F02AB870474DF242
:109B7000A831C2F200010A681043086070474DF234
:109B8000A831C2F200010A6822EA000008607047AA
:109B9000827BC179032A05D0022A05D0012A1ED171
:109BA000113002E0173000E014300139012988BF7C
:109BB00070479021C4F2200100780A6860F3030224
:109BC0000A600A6800F00F0022F0F00242EA001278
:109BD0000A600A6822F4706242EA00200860704756
:109BE000827BC179032A05D0022A05D0012A1ED121
:109BF000113002E0173000E014300139012988BF2C
:109C000070479821C4F2200100780A6860F30302CB
:109C10000A600A6800F00F0022F0F00242EA001227
:109C20000A600A6822F4706242EA00200860704705
:109C3000827BC179032A05D0022A05D0012A20D1CE
:109C4000113002E0173000E014300139012988BFDB
:109C500070479021C4F2200100780A6800F00F00DC
:109C600022F4702242EA00420A600A6822F470027A
:109C700042EA00520A600A6822F0706242EA00601A
:109C800008607047827BC179032A05D0022A05D07B
:109C9000012A14D1113002E0173000E014300139EC
:109CA000012988BF70470021C4F2200100780A68AA
:109CB00000F00F0022F4706242EA00200860704752
:109CC000B0B514460D46FFF77FFE48B135B100BF71
:109CD00010F8011B013D04F8011BF9D10020B0BDB3
:109CE0000220B0BD827BC179032A05D0022A05D0AB
:109CF000012A20D1113002E0173000E01430013980
:109D0000012988BF70479821C4F2200100780A68B1
:109D100000F0070022F4E02242EA00420A600A68EA
:109D200022F4E00242EA00520A600A6822F0E0628D
:109D300042EA006008607047827BC179032A05D03F
:109D4000022A05D0012A1ED1113002E0173000E0AE
:109D500014300139012988BF70479421C4F22001D1
:109D600000780A6860F303020A600A6800F00F00D6
:109D700022F0F00242EA00120A600A6822F47062DD
:109D800042EA0020086070472DE9F04F81B00028BA
:109D900060D00446054600BF286801305AD02879B3
:109DA0007E2808D0B5F80500002818BF28440028F0
:109DB0000546F1D14EE04FF6FF7B04F1C50904F1F1
:109DC000600804F1480A04F1300604F11807CAF2E9
:109DD000FE5B00BF286858440A2835D8DFE800F049
:109DE000060A12161A343434340E1E002046FFF7C9
:109DF000CFFE29E03846FFF71BFF25E04846FFF776
:109E000041FF21E03046FFF7EBFE1DE05046FFF733
:109E100093FF19E04046FFF765FF15E094F8E40072
:109E20000138012810D82422C4F22002B4F8E50039
:109E3000516A6FF39F2041F48031516211686FF3D2
:109E4000194141EA004010602846FFF791FD0546A0
:109E50000028BFD101B0BDE8F08FF0B585B04DF25C
:109E6000BC35C2F2000500206C4628602046142153
:109E7000FEF7FFF92046FFF735FD009845F657013C
:109E8000B1EB104F27D10199B1F5803F23D1039C4D
:109E9000B4F5805F1FD80021C5F657014A1C02990E
:109EA00080EA020666EA010030B30127C5F63C27C6
:109EB000B94221D000F093F8B8B1B4F5805F0DD865
:109EC00002986FF001014140314302D0791C884271
:109ED00004D1022011E000F082F830B12868411E60
:109EE00002290BD3032802D00BE00320286044F2A0
:109EF0009460C2F2010002E0012028600498FFF79C
:109F000043FF05B0F0BD42890021B1EB123F21D1E2
:109F1000C289B1EB123F1DD1428A0021B1EB123F41
:109F200018D1C28AB1EB123F14D1418B0022B2EB9F
:109F3000113F0FD10189B1F5616F0BD88189B1F55E
:109F4000616F07D8018AB1F5616F03D8818AB1F5D5
:109F5000616F02D9012108467047018BB1F5616F2D
:109F60004FF001019CBFC1710021F4E70522C5F645
:109F700001220F23914202F1050208BF07239142FB
:109F8000817A4FF4FA6C08BF4FF4616C8B4219D39D
:109F9000417B8B4216D3417C8B4213D3017D8B4294
:109FA00010D3C17D8B420DD301898C450AD3B0F803
:109FB0000B108C4506D3B0F80F108C4502D3418AA4
:109FC0008C4502D2012108467047B0F815108C4527
:109FD0004FF0010122BFC17181730021F3E72DE928
:109FE000F04393B044F29469C2F201094CF26C213F
:109FF000C0F2060148464FF4D072FEF713F940F65E
:10A00000CC38C2F20008404636F01CFD18B10120E1
:10A0100013B0BDE8F08398F82000FF28F7D001289E
:10A020003FD198F823C098F826E0B8F82420B8F873
:10A030002130D9F81060D9F81450D9F80070D9F847
:10A040000440D9F80800D9F80C100F9010910D9722
:10A05000129511960DAE30460E94ADF83C30ADF829
:10A060003F208DF83EC08DF841E000F0B7FA0121A5
:10A07000C5F601213046FFF779FF0028C7D10D98BA
:10A080000E990F9A109B119F129EC9F81460C9F87F
:10A090001070C9F80C30C9F80820C9F80410C9F8C4
:10A0A000000098F83000FF28B1D0012841D198F87D
:10A0B00033C098F836E0B8F83420B8F83130D9F821
:10A0C0002870D9F82C60D9F81850D9F81C40D9F864
:10A0D0002000D9F824100F9010910D9512960DAE16
:10A0E000304611970E94ADF83C30ADF83F208DF816
:10A0F0003EC08DF841E000F071FA0120C5F6012064
:10A10000411C3046FFF732FF00287FF480AF0D98E6
:10A110000E990F9A109B119F129EC9F82C60C9F8D6
:10A120002870C9F82430C9F82020C9F81C10C9F8D3
:10A13000180098F84000FF283FF469AF012841D18A
:10A1400098F843C098F846E0B8F84420B8F8413091
:10A15000D9F84070D9F84460D9F83050D9F8344073
:10A16000D9F83800D9F83C100F9010910D9512963F
:10A170000DAE304611970E94ADF83C30ADF83F204F
:10A180008DF83EC08DF841E000F028FA0120C5F6B8
:10A190000120811C3046FFF7E9FE00287FF437AF2D
:10A1A0000D980E990F9A109B119F129EC9F844604A
:10A1B000C9F84070C9F83C30C9F83820C9F83410E3
:10A1C000C9F8300098F85000FF283FF420AF01286C
:10A1D00041D198F853C098F856E0B8F85420B8F830
:10A1E0005130D9F85870D9F85C60D9F84850D9F88E
:10A1F0004C40D9F85000D9F854100F9010910D959B
:10A2000012960DAE304611970E94ADF83C30ADF875
:10A210003F208DF83EC08DF841E000F0DFF90120CD
:10A22000C5F60120C11C3046FFF7A0FE00287FF4D0
:10A23000EEAE0D980E990F9A109B119F129EC9F8C1
:10A240005C60C9F85870C9F85430C9F85020C9F892
:10A250004C10C9F8480098F86000FF283FF4D7AECA
:10A26000012841D198F863C098F866E0B8F86420F6
:10A27000B8F86130D9F87070D9F87460D9F86050C6
:10A28000D9F86440D9F86800D9F86C100F90109193
:10A290000D9512960DAE304611970E94ADF83C30E8
:10A2A000ADF83F208DF83EC08DF841E000F096F902
:10A2B0000120C5F60120011D3046FFF757FE00289A
:10A2C0007FF4A5AE0D980E990F9A109B119F129EC8
:10A2D000C9F87460C9F87070C9F86C30C9F86820A2
:10A2E000C9F86410C9F8600098F87000FF283FF4BE
:10A2F0008EAE01285ED1B8F87110B8F87300B8F8C6
:10A300007920B8F87B30D9F878C0D9F87CE0D9F852
:10A310008050D9F88440D9F88870D9F88C600B96B1
:10A320000A9709940895CDF81CE0CDF818C0D9F823
:10A3300090701E1A0C97BDF82870ADF824207F1A73
:10A340007743521A97FBF2F7ADF82630C319ADF8F0
:10A350002A30BDF82C30BDF83070ADF820105B1AF3
:10A36000791A7343714393FBF2F391FBF2F1ADF869
:10A37000220003440844ADF8320006A8ADF82E30A0
:10A38000FFF7C1FD00287FF442AE06980799089AAE
:10A39000099B0A9F0B9EC9F88C60C9F88870C9F8A0
:10A3A0008430C9F88020C9F87C10C9F878000C986E
:10A3B000C9F8900098F88000FF283FF428AE0128E3
:10A3C0005ED1B8F88110B8F88300B8F889E0B8F821
:10A3D0008B30D9F894C0D9F89860D9F89C50D9F846
:10A3E000A040D9F8A470D9F8A8200B920A97099434
:10A3F00008950796CDF818C0D9F8AC201F1A0C9212
:10A40000BDF82820AEEB0106521A7A4392FBF6F211
:10A41000ADF826300244ADF82A20BDF82C20BDF856
:10A420003030ADF82010521A591A7A43794392FB12
:10A43000F6F291FBF6F1ADF8220002440844ADF8C3
:10A44000320006A8ADF824E0ADF82E20FFF75BFD42
:10A4500000287FF4DCAD06980799089A099B0A9FAB
:10A460000B9EC9F8A860C9F8A470C9F8A030C9F853
:10A470009C20C9F89810C9F894000C98C9F8AC0051
:10A4800098F89000FF283FF4C2AD012841D1B8F8F8
:10A490009110D9F8B0000490B9F8B40099F8B6203A
:10A4A000ADF814008DF8162099F8B7008DF80F005C
:10A4B00099F8B8008DF80E00B9F8B920ADF80C2065
:10A4C000ADF80C1041B100220120B2EB113F8DF824
:10A4D0000E007FF49DAD02E001283FF698AD01200B
:10A4E0008DF80F000498C9F8B000BDF814009DF86D
:10A4F0001610A9F8B40089F8B6109DF80F0089F875
:10A50000B7009DF80E0089F8B800BDF80C00A9F856
:10A51000B90098F8A000FF283FF479AD012828D1B0
:10A5200009F1BB06B8F8A14001A831460722FDF7A2
:10A5300079FE99F8C2008DF80300B9F8C300ADF8B0
:10A5400000000020B0EB143F4FF00100ADF80040D8
:10A550007FF45EAD8DF8030001A930460722FDF7B8
:10A5600061FE9DF8030089F8C200BDF80000A9F85B
:10A57000C30098F8B000FF283FF449AD01282BD163
:10A5800098F8B36098F8B670B8F8B440B8F8B1501D
:10A5900009F1C5080DF13409484641461822FDF776
:10A5A00041FE4846ADF83C50ADF83F408DF83E6066
:10A5B0008DF8417000F012F80120C5F6012000F17D
:10A5C00009014846FFF7D2FC00287FF420AD0DA911
:10A5D00040461822FDF726FE002019E52DE9F04F30
:10A5E00084B00289B0F80B40B0F80F50A2EB040B16
:10A5F000428A817A90F80DE02E1BB0F81550121B9C
:10A60000A1EB0E0102922A1B40F2040C039249B204
:10A610006422C5F6012C4A4301680CF1010548F299
:10A620001F584FF00F0AA9424FF00005C5F2EB1872
:10A6300001AF0DF10109019608BF4FF0070A00BFF5
:10A64000B6F1FF3F4FF0FF3402FB06F6C8BF01240E
:10A65000664396FBFBF6614506F1320686FB08630E
:10A660004FEA631606EBD37303FB04E647F8256055
:10A6700004D1002E48BF103608E000BF002E03D4DE
:10A680005645C8BF564601E0002600BF022D09F816
:10A69000056004D007EB85035E680135D0E79DF8BF
:10A6A00001109DF802209DF8033041740275C375B6
:10A6B00004B0BDE8F08FBC20C4F22000016811F0A6
:10A6C000405F05D1016801F0E061B1F1806F0BD00E
:10A6D000016801F04051B1F1405F07D1016801F01C
:10A6E000E061B1F1E06F01D102207047016811F023
:10A6F000405F05D1016801F0E061B1F1806F14D1D4
:10A70000016801F04051B1F1405F05D1016801F0ED
:10A71000E061B1F1E06F08D1006800F04050B0F1A5
:10A72000805018BF01204000704703207047000090
:10A73000F0B583B04DF2B0316220C2F20001C0F238
:10A74000FF2009680190072045F6E41440F2D8651F
:10A75000C6F200300829C2F20104C2F200050090DE
:10A7600017D1207800F0FE00022812D1287880B995
:10A7700044F6C936C2F20106307850B940F6F440CA
:10A78000C2F200000078012803D147F027FE012023
:10A79000307045F69016C2F201063178287801290A
:10A7A00008BF01281FD002284DD140F2C450C2F288
:10A7B00000000178002946D1217801F0FE0102292C
:10A7C00041D140F21071C2F20001097801220270F9
:10A7D000C9BB4DF2A230C2F20000008869460122D6
:10A7E00049F08CFD2FE044F6C930C2F20100007838
:10A7F000012828D140F6F447C2F200073878012832
:10A8000021D128A04FF052FD387800278DF80B7029
:10A8100050B140F6F840C2F2000000880DF10B0282
:10A82000112101234BF0D0FC2078022100F0FE0022
:10A83000022837702970B8D149F6F000C2F2000042
:10A8400001210170B1E740F2ED30C2F20000007862
:10A8500001280AD14AF6D846C2F20006307820B95B
:10A8600002204BF097FE012030702878022817D381
:10A87000207800F0FE00022812D149F6F004C2F25E
:10A880000004207860B940F6F440C2F2000000787D
:10A89000012805D107A000214FF008FD01202070FC
:10A8A00003B0F0BD61636B20436F7272656E740A12
:10A8B0000D00000061636B20666C6167203D202500
:10A8C000640D0A0070B58AB0054668460C46FDF76F
:10A8D000FDFC064641F26530C0F2070047F083FAFE
:10A8E00011A04FF0E3FC052C0DD3A819261F41F24F
:10A8F0009074051DC0F2070415F8011B20464FF0A7
:10A90000D5FC013EF8D10A2050F008FA41F2474048
:10A91000C0F2070047F067FA40F6F540C2F20000C7
:10A92000002101700AB070BD363620363420333035
:10A93000200000002DE9F0413424C4F22004E06935
:10A9400040F2FF7120F08070E061206A40F2100751
:10A9500020F000602062206849F20226884300252A
:10A960004FF00208C2F20007C0F20106206000BFEB
:10A97000206820F0E06028432060206A40F00070EA
:10A980002062206A20F040502062206A68F39F70A5
:10A990002062206A40F08060206239680120884788
:10A9A000206A20F080602062606A6FF39F40B042AE
:10A9B00004D8B5F1E06F05F18075D9D1206A4FF464
:10A9C000C83140F080702062E069012261F311001B
:10A9D000E061216A052060F307012162216A62F3C8
:10A9E00009212162216A022241F440612162216A27
:10A9F00041F440512162216A62F38F312162216A60
:10AA000060F312412162216A41F400212162216A2E
:10AA100060F316512162206A40F000602062206AD3
:10AA200020F400002062E06940F08070E061BDE841
:10AA3000F08100002DE9F04F87B044F6C53040F2B8
:10AA40000041C2F20100C2F2000140F2157200782A
:10AA50000978C2F2000212780843104340F00C83D8
:10AA600044F6C43BC2F2010B9BF800100FF21060D9
:10AA70004FF01CFC40F6DC40C2F20000006802A966
:10AA8000002200244EF062FC012840F0F58241F6DD
:10AA90008601039EBDF80850C0F2070140F2DC5069
:10AAA00041F25842CDE904443FF036FD002800F061
:10AAB000C88240F2DC510446FDF7DBFB20463146FC
:10AAC0002A46FDF7AFFBB4F80100000400BAB0F568
:10AAD000BB6F0DD845F6E411C2F20101097801F00F
:10AAE000FE01022907D12089000400BA0C3003E0DE
:10AAF0004FF0000805E0043080B2B0F5004898BF80
:10AB000080461FFA88F10FF290504FF0CFFB41F2D0
:10AB10005220C0F2070047F066F9E07A6F1F0C3050
:10AB200087420DDD41F29075C0F20705064600BF71
:10AB3000215C28464FF0BAFB0136B0B28742F7DC01
:10AB40000A2050F0EBF841F24B40C0F2070047F00A
:10AB50004AF9E07A4FF6FF730119B1F80D2012049B
:10AB600012BA9A421EBF40F6F843C2F200031A60BE
:10AB70000A7BA02A40F38C80A2F1A1030B2B00F2E8
:10AB80009B80DFE813F00C005502B600FC00550274
:10AB9000550255025502550214015502640140F256
:10ABA000D86140F2EC38C2F20001C2F200080D7820
:10ABB00040F2C95798F80030C2F200070126002D74
:10ABC0003E7040F0B081002B40F0AD810F3045F673
:10ABD0009011C2F201010122C0B20A70215A40F262
:10ABE0003402090409BAA1F26C71C2F200022044D5
:10ABF0005161817840F27C2C01391161C17840F2B9
:10AC0000512ED160417940F262279160817940F202
:10AC10008C265160C179C2F2000C11600021C2F291
:10AC2000000EC2F20007C2F2000645182A7A0EEBA7
:10AC300001030CF801202A7E5A702A7E7B185A7074
:10AC400095F82820725401311029EED140F23400D9
:10AC5000C2F20000FDF792FA4DF2C441C2F20001C7
:10AC6000086040F6D440C2F200000021016040F2CA
:10AC7000ED30C2F20000012202704AF6D840C2F262
:10AC80000000017040F2D560C2F200000270CCE119
:10AC9000A2F1930003281CD8DFE810F00400E600BE
:10ACA000EB00F500217C40F2CC50C2F20000817133
:10ACB000002101F09DF9BBE1A2F1C100032800F2DF
:10ACC000B781DFE800F002E5EEF404F10801C120ED
:10ACD000EAE0092A40F0AC810FF238404FF0E6FA82
:10ACE000E27A1119A8EB020201F10F001831273A9C
:10ACF00015E1C87B40F6FF4840F60051C2F200085B
:10AD0000C2F2000188F80000087040F21170C2F22F
:10AD100000000121017041F23E70C0F207004FF0C7
:10AD2000C5FA98F80010E27A01EBC101114402F172
:10AD30001000103181421BD940F6003741F2907566
:10AD4000C2F20007C0F207050646215C801A3844AB
:10AD500000F8101C28464FF0A9FA98F80010E27A83
:10AD600001EBC10101361144B0B210318142ECD87F
:10AD70000A204FF0D3FF02204BF00CFC58E104AD49
:10AD8000B4F8096004F10D0128460922FDF74AFADA
:10AD900030BA6FF00A0202EB104004F116010027EE
:10ADA00082B22846002300974BF0C0FC40E140F2FD
:10ADB000EE32C2F2000201251570497E002900F032
:10ADC000988040F6FC4740F6FE4604F11D084FF01F
:10ADD0000009C2F20007C2F200064FF0000A18F89C
:10ADE000000061280CDD622814D0632814D0642888
:10ADF00021D1AFA04FF05AFA3078D0B935701AE0AF
:10AE000070B1022817D1B7A04FF050FA387880B946
:10AE10003D7010E0AEA000E0A9A04FF047FA0AE0B4
:10AE2000B4A04FF043FA40F6FD41C2F200010878A9
:10AE300058B14FF0010AE07A09F101090119497E80
:10AE400008F11E088945CAD338E00D70F3E740F2D7
:10AE5000D860C2F200000078032840F0E98001F1D8
:10AE60000F00FEF793F8E3E00120242100220123E4
:10AE70003CE040F2C550C2F2000001210170012007
:10AE80004BF0EEFBD4E040F66320C0F2070012E086
:10AE9000A3A046F0A8FFE07A04F108012044007B5B
:10AEA00002E004F10801C32000F06CFCC0E040F6B1
:10AEB0006040C0F207004FF0F9F9B9E0BAF1010FB4
:10AEC00017D140F67830C0F207004FF0EFF940F6A6
:10AED000F84040F2CC61C2F20000C2F200010088EA
:10AEE0000B8849F6F402C2F200021A214BF06CF909
:10AEF0009EE02189090409BA081AA0F1120182A072
:10AF00004FF0D4F9227A677AE37A47EA02221919D4
:10AF1000D21A4FF6E57301F10F0018311A4492B2BC
:10AF200048F036FF84E02A46002D18BF012283F046
:10AF300001031A436DD140F2D062C2F200021278CE
:10AF4000002A66D00F3045F69011C2F201010122AD
:10AF5000C0B20A70215A40F23402090409BAA1F2BF
:10AF60006C71C2F2000220445161817840F27C2C65
:10AF700001391161C17840F2512ED160417940F21E
:10AF800062279160817940F28C265160C179C2F2CA
:10AF9000000C11600021C2F2000EC2F20007C2F2E2
:10AFA000000645182A7A0EEB01030CF801202A7ED0
:10AFB0005A702A7E7B185A7095F8282072540131F5
:10AFC0001029EED140F23400C2F20000FDF7D6F8AD
:10AFD0004DF2C441C2F20001086040F6D440C2F212
:10AFE00000000021016040F2ED30C2F200000122B9
:10AFF00002704AF6D840C2F20000017040F2D560FB
:10B00000C2F20000027040F2CA10C2F200003C21FD
:10B010000AE0032D04BF0320087040F21800C2F2BA
:10B020000000017809B100210170012088F80000BA
:10B0300041F68601C0F20701204641F287523FF0F7
:10B04000EBF99BF8000010B101388BF8000049F6CD
:10B05000EC70C2F200000168BDF808209142A4BF64
:10B06000891A0160039838B141F6A701C0F20701BF
:10B0700041F29F523FF0D0F907B0BDE8F08F00BF1A
:10B080000A52656365697665205175657565203A74
:10B09000202564200D0A0000646174614C656E20F7
:10B0A0003D202564202F20313530300D0A0000006E
:10B0B0007470635F4D4B5F7570646174650A0D0059
:10B0C00048414E5F616B5F7570646174650A0D0085
:10B0D00048414E5F67756B5F7570646174650A0DFA
:10B0E000000000007470635F616B5F757064617471
:10B0F000650A0D007470635F67756B5F75706461DE
:10B1000074650A0D000000006C656E203D2025640A
:10B11000200A0000414354494F4E0A0D0000000030
:10B1200073657400F0B581B01426CAF240067768E2
:10B1300017F07F0506D0044634F0FAFC2846A047F5
:10B1400037F04CF927F07F00306001B0F0BDAFF36D
:10B15000008080B52022CAF24002126812065CBF4D
:10B16000022080BD03468AB20720194600F00AF982
:10B17000012080BD0C20CAF24000C168C90358BF3D
:10B1800070474FF4807100BF826902F00602062A00
:10B1900001D00160F8E7C268D203F5D4704780B5EA
:10B1A0004FF4807000F038F84FF4006000F034F88D
:10B1B00000F00AFA4EF20010CEF200004FF48011B7
:10B1C00001604FF48070BDE8804000F0A3B8AFF399
:10B1D000008010B51C23CAF240031A68920703D4FA
:10B1E0000220086000240AE0024601200860586836
:10B1F0001146C0F30B440120224600F09FF8204680
:10B2000010BDAFF300800C21CAF240010A6822F0A1
:10B21000FF021044086070470C2120F0FF00CAF2C2
:10B2200040010860704700F001B800000C20CAF22D
:10B230004000816901F00601062908BF70474FF4FC
:10B24000807100BF0160826902F00602062AF9D10E
:10B250007047B0B5054600200C4600F01BF9B4F16C
:10B26000011F18D34FF4004029464FF4004200F06C
:10B27000E7F8012000F00EF905F500414FF4004019
:10B280004FF4004200F0DCF8022000F003F905F56D
:10B290008031A2B211E0B4F5004F17D94FF400404D
:10B2A00029464FF4004200F0CBF8012000F0F2F8FC
:10B2B00084F4004005F5004182B24FF4004000F0F4
:10B2C000BFF80020BDE8B04000F0E4B8A2B24FF4EF
:10B2D00000402946BDE8B04000F0B2B8AFF30080AE
:10B2E0001421CAF24001086070471020CAF24000E1
:10B2F000016821F07F0101607047FFF7F6BFAFF3EF
:10B3000000801020CAF2400000686FF35F20704791
:10B31000AFF300801021CAF240010A6840F2FF1327
:10B320009A431043086070471020CAF24000016839
:10B3300041F07F0101607047FFF7F6BF70B514461A
:10B340000D46064634F0F4FBFFF714FF0420CAF262
:10B35000400040F8045C016866F30D01016001687B
:10B3600089B241EA04410160416821F00301416072
:10B37000816841F48031816037F030F8BDE8704079
:10B38000FFF7F8BE70B514460D46064634F0D0FB04
:10B39000FFF7F0FE0420CAF2400040F8045C0168A8
:10B3A00043F6FF729143314401600168012289B282
:10B3B00041EA04410160416862F301014160816832
:10B3C00041F48031816037F009F8BDE87040FFF743
:10B3D000D1BEAFF300802020CAF240000068C0F365
:10B3E00007207047AFF3008070B50C460546D61CA9
:10B3F00034F09EFBFFF7BEFE0420CAF2400040F886
:10B40000044C016843F6FF72914341EA95010160E3
:10B41000016826F0030289B241EA024101604168F5
:10B42000022262F301014160816841F48031816050
:10B4300036F0D4FFBDE87040FFF79CBEAFF300804C
:10B4400070B50C460546D61C34F072FBFFF792FE31
:10B450000420CAF2400040F8044C016843F6FF7231
:10B46000914341EA95010160016826F0030289B227
:10B4700041EA02410160416841F003014160816895
:10B4800041F48031816036F0A9FFBDE87040FFF7DC
:10B4900071BE000010B582B00446002000906946DD
:10B4A0004FF489600422FFF79FFF9DF800309DF85C
:10B4B00001209DF802109DF80300022C23F00303E5
:10B4C00005D0012C06D03CB100BE00BFFEE743F022
:10B4D000020301E043F001038DF805208DF806100A
:10B4E0008DF8070001A94FF4896004228DF804301B
:10B4F000FFF7A6FF02B010BD80B500F002F8C0B2A1
:10B5000080BD2420CAF240000068C0F341007047AB
:10B51000AFF3008010B51C23CAF240031A68D207AB
:10B5200003D10220086000240AE0024601200860DE
:10B5300018681146C0F30B4400202246FFF7FEFEB8
:10B54000204610BD2DE9F041DDF8188007464FF484
:10B5500000601C4615460E46FFF75EFE00F034F80C
:10B560004FF08070FFF758FEFFF719FE25B11FB1AD
:10B5700030462946FFF76DFE4FF40060FFF74CFEA2
:10B5800000F022F84AF6DC60C2F200000460C0F865
:10B590000480FFF7C9FE4FF00070FFF73DFE00F09A
:10B5A00003F80020BDE8F08180B500BFFFF713FF6E
:10B5B0000128FBD10120FFF726FE00BFFFF70BFF9C
:10B5C0000128FBD080BD00002420CAF2400000BF4B
:10B5D0000168C907FCD0704780B52023CAF2400338
:10B5E000D3F800C00123834003EA0C031B0604D0F8
:10B5F00092B2FFF7C7FE012080BD022080BDFFF799
:10B60000EBBF00002DE9F04F8BB045F61100C2F200
:10B610000100027840F2004045F61008C2F2000036
:10B62000C2F20108037840F2157098F80010C2F2D7
:10B6300000000078002966D043EA0207074362D180
:10B6400045F6E417C2F201073F7807F0FE05022D28
:10B650005FD140F6F049C2F20009D9F8000004A910
:10B6600000224DF089FD01285ED149F6EC7B04AC47
:10B670000FF2D00AC2F2000BD9F8000021460022D6
:10B680004DF064FE012835D198F8001050464EF078
:10B690000DFE0998BDF82810FFF714F9BDF8100049
:10B6A000099DBDF82860DDF81210DDF81620DDF8E0
:10B6B0001A30DDF81E700296CDE9007531F00BFFEF
:10B6C00010B125A046F08FFB98F8000010B10138AA
:10B6D00088F80000DBF80000BDF828108842A4BFFD
:10B6E000401ACBF80000099820B120A141F2D652AF
:10B6F0003EF092FED9F80000214600224DF03CFDBC
:10B700000128B9D010E079B145F6E417C2F201077B
:10B710003F78009040F2FE60C0F2070001974EF0C3
:10B72000C5FD03A046F05FFB0BB0BDE8F08F00BF86
:10B73000436F6D6D616E6420466C61672045727267
:10B740006F720D000A53656E642051756575652032
:10B750003A202564200D0A006170705F7564705393
:10B76000656E64206572726F720D000053656E64C1
:10B770005F51756575655F70726F63657373696E30
:10B78000670000002DE9F04385B0054640F66040B3
:10B79000C0F207000C464EF089FD2088E67800BA1A
:10B7A000C32D4FEA10471DD0C22D31D0C12D40F01E
:10B7B000DE8040F6EA40C2F200000121351902ACF9
:10B7C0000170E91D20460922FCF72CFDB81B1B382F
:10B7D00005F11001002782B22046002300974AF0AD
:10B7E000A5FFC4E03519E879022828D0012840F0E7
:10B7F000BE80A84618F8080F012874D145F2000051
:10B80000C2F201004FF4FA61FCF733FD00246FE04F
:10B810003519E87902283ED0012829D0002840F0C7
:10B82000A680B81B4FF6EC71084482B245F20000C6
:10B8300005F10901C2F20100FCF7F4FC43E0B81B7A
:10B8400040F6EC464FF6EC71C2F200064418378819
:10B8500045F20000C2F20100384405F10901A2B22C
:10B86000FCF7E0FC3819308042A04EF01FFD7EE06E
:10B87000A94619F8080F40F6EC480128C2F2000862
:10B8800055D145F20000C2F201004FF4FA61FCF715
:10B89000F0FC00244DE0B81B40F6EC464FF6EC718E
:10B8A000C2F200064418378845F20000C2F20100D7
:10B8B000384405F10901A2B2FCF7B4FC3819308014
:10B8C0003AA04EF0F3FC40F6EE40C2F20000002138
:10B8D000018040F6EB40C2F200000121017001201E
:10B8E00000F07CF843E040F6EC40C2F2000004882F
:10B8F000B81B4FF6EC71461845F20000C2F2010089
:10B90000204405F10901B2B2FCF78CFC40F6EC4191
:10B91000A019C2F2000108801EA04EF0C7FC40F63C
:10B92000F840C2F200000088B32142461CE0B8F89B
:10B930000040B81B4FF6EC71461845F20000C2F209
:10B940000100204405F10901B2B2FCF76BFCA0191B
:10B95000A8F800001BA04EF0A9FC40F6F840C2F287
:10B9600000000088B2214A4601234AF02DFC05B0B0
:10B97000BDE8F0830A0D4333205472616E736D6924
:10B98000742053657420696E20666C617368212190
:10B99000210A0D000A0D4333205472616E736D69E4
:10B9A000742041434B21210A0D0000000A0D43324F
:10B9B000205472616E736D69742053657421210A7D
:10B9C0000D0000000A0D4332205472616E736D69E0
:10B9D000742041434B21210A0D000000B0B584B012
:10B9E0002649044625A001914168007A02918DF80C
:10B9F0000C0025A04EF05AFC45F2000004EB440276
:10BA0000C2F20100811811F8013C825C42EA032471
:10BA1000621E92B240F20B339A420DD320A046F040
:10BA2000E2F940F6F840C2F200000088B22100229C
:10BA300001234AF0C9FB1EE040F6EB42C2F20002CD
:10BA4000137840F6EE450133C2F2000513702A88E0
:10BA500011F8021C10448DF80B1000F110014FF08A
:10BA6000000CA2B201A80023CDF800C04AF05EFE8F
:10BA700028882044288004B0B0BD00BF1400000D09
:10BA80000000FF00000000000A0D2D2D2D536574ED
:10BA90005F544F555F43322D2D2D0A0D00000000DD
:10BAA0000A433220636F6D6D616E64206572726F40
:10BAB0007221000080B5FDF79FFF43F60951414315
:10BAC00044F60002032840F22C00C0F2E812C2F251
:10BAD000000038BF02EB8122026080BD80B52420C7
:10BAE000C4F2200001683F2262F307010160D0F830
:10BAF000A01041F40041C0F8A0101820CAF2300094
:10BB000040F2EF31016000F08CF900F043F8FEF7ED
:10BB1000A4F90220FDF766FC40F2280049F200017A
:10BB2000C2F20000C0F2D03101602420CCF200004B
:10BB3000016841F002010160D0F8001141F00201FA
:10BB4000C0F80011D0F8001241F00201C0F8001254
:10BB5000D0F8001341F00201C0F80013BDE88040A6
:10BB6000FEF7E8BE012803D090B96FF0010001E0B4
:10BB70006FF00200B021C4F220010A6842F0020214
:10BB80000A600A6842F001020A600A681040086010
:10BB90007047000070B586B090203424C4F2800055
:10BBA000C4F22004D0F800C094F8781001258DF874
:10BBB000141094F8792001F088018DF8132094F87E
:10BBC0007A3052318DF8123094F87B008DF81100E4
:10BBD00000F0F80006308DF8110002F00800323055
:10BBE0008DF8130003F0CF0020308DF814108DF87D
:10BBF00012009DF81400B12184F878009DF813001C
:10BC0000C4F2200184F879009DF8120084F87A00CB
:10BC10009DF8110084F87B0094F87C008DF81000EA
:10BC20000A8800F0EF00ADF80E2094F87F208DF820
:10BC30000D2042F008028DF80D208DF810009DF8BF
:10BC4000100084F87C00BDF80E0008809DF80D00FF
:10BC500084F87F00A06E20F44060A066D4F89010B5
:10BC60000CF0F0000A4665F38302202818BF41F06B
:10BC70000C02C4F8902034F088FEA16E46F2C8533E
:10BC80000A4665F30922C0F21403984218BF41F432
:10BC90004072A266D4F8900040F2FF7140F040502C
:10BCA000C4F890002068FA228843206020680821A8
:10BCB00020F0E060206020684CF20C4E20F04050F4
:10BCC000206094F86C00C0F2060E8DF80C0094F819
:10BCD0006D004FF0FF3C8DF80B0094F86E008DF86E
:10BCE0000A0094F86F008DF809008DF80C10DE2121
:10BCF0008DF80B1078218DF80A101B2161F35F007D
:10BD00008DF809009DF80C0084F86C009DF80B007C
:10BD100084F86D009DF80A0084F86E009DF8090013
:10BD200084F86F0094F870008DF8080094F87100A2
:10BD30008DF8070094F872008DF8060094F87300EF
:10BD40008DF805008DF80820BB228DF80720C82249
:10BD500061F35F008DF806208DF805009DF808005E
:10BD600084F870009DF8070084F871009DF80600C3
:10BD700084F872009DF8050084F87300D4F89000F0
:10BD800040F48070C4F89000D4F8900040F4004073
:10BD9000C4F89000E06F40F00200E067E06F40F010
:10BDA0000100E067E06F20F00200E067002000BFC4
:10BDB0000EEB0003D3E901435EF80050C4F3072201
:10BDC0000CFA02F2D1432E68E4B2A14023EA020247
:10BDD00026EA0101A2400C30114324282960E7D152
:10BDE0004CF2304E0020C0F2060E4FF0FF3C00BF78
:10BDF0000EEB0003D3E901535EF80060C5F307249E
:10BE00000CFA04F4E2433168EDB2AA40914323EA0C
:10BE10000402AA400C301143B4283160E8D106B0C6
:10BE200070BD2420C4F2200001683F2262F30701A4
:10BE30000160016840F2911262F31941016008212A
:10BE4000C4F280010A6842F080020A60026842F48B
:10BE500000620260826942F40052826150F8042C50
:10BE600042F0005240F8042C486B012262F311406A
:10BE7000486370470C20CAF270000121016045F64A
:10BE8000E810C2F20100016809B1002008477047BC
:10BE90000C20CAF280000121016045F6E810C2F2D0
:10BEA0000100816809B10120084770470C20CAF2DF
:10BEB000F0000121016045F6E810C2F201000169BD
:10BEC00009B10220084770470C20CAF2F400012192
:10BED000016045F6E810C2F20100816909B1032052
:10BEE000084770470C20CAF2F8000121016045F6AE
:10BEF000E810C2F20100016A09B104200847704746
:10BF000001A045F070BF00BF55736167654661755C
:10BF10006C745F48616E646C6572000010B514202B
:10BF2000CAF290000121016045F68440C2F201008E
:10BF3000006810B1BDE81040004702A4204645F05B
:10BF400052FFFBE777686174203F3F3F200000000D
:10BF5000B0B540F2000ECAF2900EDEF80840E407D9
:10BF600015D1C40716D145F68442C2F2010200255C
:10BF700015604EF20012CEF200020825C2F8805081
:10BF8000BFF34F8F4FF0800CBFF36F8F1AE04FF06D
:10BF9000020C2BE0049D4FF0010C3DB38A4225D2E8
:10BFA0000124CEF8144045F68444C2F20104256011
:10BFB000CEF818204EF20012CEF2000208251560CD
:10BFC0004FF0C00C00F00205C0F380041C2202EA0E
:10BFD000500044EA0512104440EA0C004FF0000CF7
:10BFE000CEF81C30CEF80010CEF808006046B0BD88
:10BFF000F0B581B040F60456C2F200060C46054684
:10C00000082730464FF47121CAF2300734F06DFD35
:10C01000304629462246FCF705F900BF3868C005BE
:10C02000FCD401204FF4712134F01CFC3868C005A9
:10C03000FCD40020CAF22000016841F44071016084
:10C040003868C005FCD440F60450C2F200004FF43A
:10C05000712134F003FE00BF3868C005FCD401B084
:10C06000F0BD00002DE9F04385B0002A40F0C0800B
:10C070001D460E4607464BF0F5F94DF2F048C2F268
:10C080000008D8F8109008F10C00814500F0A0805D
:10C09000D8F834000138C8F83400D9E9000141600B
:10C0A00008604BF033FA4BF0DDF94C4654F8080FBA
:10C0B00006F10901A7F10E063246FCF7B3F8A68097
:10C0C0004BF024FAC5F1640048F21F51C0EB002088
:10C0D000C5F2EB1180FB010140F2CC10C2F200006E
:10C0E0000078A07168426075480900EBD170E17D6D
:10C0F000A07501F0FE00E075204640F02BFC18B161
:10C10000204640F017FC18BB204640F01CFC28B32A
:10C1100044F65C40C2F201000078C8B102AD20468E
:10C12000294640F0E1FBC8B9049801286ED00228E6
:10C1300014D1E81D00216A4610F801395354013129
:10C140000829F9D168464AF0BBFEB0F1FF3F05DD92
:10C1500099F81F0040F0010089F81F00204640F0C8
:10C16000F9FBB0B1204640F0F0FB90B1204640F022
:10C17000DCFB70B144F6604199F81F00C2F2010186
:10C180000A6840F0020089F81F00501C0860C9F8D6
:10C1900018004BF067F9414651F8040FC9E9000156
:10C1A000C0F80490C86A8A6B0130C1F800908242DE
:10C1B000C86238BFC8F83C004BF0A8F94BF052F900
:10C1C00044F23030C2F20100016841F480410AE0DB
:10C1D0004BF09CF94BF046F944F23030C2F20100CA
:10C1E000016841F4005101604BF090F941F08EFC80
:10C1F00040F60860C2F2000001780131CAB2042A98
:10C2000088BF0021017005B0BDE8F083BDF80800CB
:10C210004AF080FE00289BD5A0E7000010B582B050
:10C2200044F6FC71C2F201010A78012A0AD144F6EF
:10C23000F462C2F2010210600020087028A045F0EC
:10C24000D2FD4AE04DF2F044C2F2000461690029D7
:10C2500043D04FEA301008283CD8DFE800F019231B
:10C260002D3B053B3B3B0500A06901A9006836F06A
:10C27000CCF90198A1690022C1E902024BF0F2F861
:10C2800044F23030C2F20100016841F480611CE0E8
:10C290004BF0E8F844F23030C2F20100016841F49A
:10C2A000807112E04BF0DEF844F23030C2F201004F
:10C2B000016841F4805108E04BF0D4F844F230308A
:10C2C000C2F20100016841F4006101604BF01EF907
:10C2D00041F01CFC1020FDF752FC02B010BD00BF65
:10C2E00074785F646F6E65200D0A0D002DE9F041D2
:10C2F00082B044F6FA77C2F2010738880C46019200
:10C3000010B344F6F878C2F20108B8F8001044F609
:10C31000F8620844C0B2814298BF4FF48071091A94
:10C32000019BC2F201028EB21044314622460093B4
:10C330004EF002F80546B0F1FF3F20DDB54223DAAA
:10C340003888284438804BE044F6F8601346C2F23F
:10C3500001004FF4807122464DF0EEFF0546B0F526
:10C36000807F31D244F6F870C2F2010000210180D2
:10C3700044F6EE60C2F201003D80018030E04FF2F1
:10C380003910C0F2060028E0FF2D25DC388844F67D
:10C39000EE66C2F2010678B3002500BF00F075F822
:10C3A00041F012FB10BBB8F8000031883A8808440D
:10C3B000C0B2A8F80000501A3880358000F065F847
:10C3C00038880028EAD117E04FF23910C0F2060091
:10C3D000214640F061FA05E016A0214640F05CFAE3
:10C3E00000F053F8284602B0BDE8F08141F021FC8E
:10C3F000014617A040F050FA009B44F6F860C2F2E4
:10C4000001004FF4807122464DF096FF002806DDB2
:10C41000054638800020A8F800003080E0E74FF2A1
:10C420005A10C0F206004FF4B07140F0B3FB00BFE9
:10C43000FEE700BF434C49206F757470757420602F
:10C44000257360207472756E63617465640000000A
:10C450004661696C656420746F206F7574707574C3
:10C4600020434C493A20257300000000B0B508462F
:10C4700091B21C46154640F08DFD10B16FF03B00A7
:10C48000B0BD04B125600020B0BD44F6EE60C2F23C
:10C490000100018801B1704744F6F87244F6FA7160
:10C4A000C2F20102C2F2010112880988C2F580734A
:10C4B0008B42B8BF19460B040180ECD044F6F860FB
:10C4C000C2F20100104489B241F0EBBA2DE9F04FFD
:10C4D00081B000294CD044F6FA7644F6F87A44F656
:10C4E000EE6844F6F8698B460546C2F20106C2F2D0
:10C4F000010AC2F20108C2F2010900BF31881FFA25
:10C500008BF3C1F5807082B2934298BF5846020403
:10C5100018D0BAF8002000238C1815F8017BE4B27B
:10C52000013309F804709FB284B20131A74231800F
:10C53000F2D3ABEB000BFFF7A8FF5FEA0B4003D190
:10C5400016E000BFFFF7A1FF41F03EFA80B9BAF84C
:10C550000000B8F8001032880844C0B2AAF8000001
:10C56000501A30800020A8F80000FFF78EFFC5E7C2
:10C5700001B0BDE8F08F10B586B00C4600F062F84F
:10C58000D4E90001CDE90001D4F89000A18B02901C
:10C59000A07FADF80C10042141EA1010218C8DF819
:10C5A0000E0040F6D870C2F20000ADF80F1038301F
:10C5B000694629F02CF906B010BD000070B582B0B4
:10C5C000042106888DF800104FF6FE71ADF80210B8
:10C5D0000021019166B100F108046D46284621460C
:10C5E0002EF0C7FE30B9013E300404F1A804F5D1A5
:10C5F000002402E0204622F00BF9204602B070BD74
:10C600000288A82301FB030300208A4288BF03F1AC
:10C610000800704710B5144640F6D872C2F2000206
:10C6200045F21C43D25A6FF35F211143012200F0FF
:10C630007DF928B10146204622F079F8002010BD8E
:10C64000172010BDB0B586B00C4640F6D871C2F2C6
:10C650000001684629F035F99DF8140080B96D464F
:10C66000BDF80C00A18B884207D0284629F021F99B
:10C670009DF814000028F3D002E0684629F002F982
:10C6800006B0B0BD80B503888B429CBF172080BD2B
:10C69000A82301FB030191F8263043F3030000288F
:10C6A0004FF017000DD403F00F0C012303FA0CF325
:10C6B00013F0C20F08BF80BD0831104622F037F8D2
:10C6C000002080BD70B5044640F6D870C2F200006C
:10C6D000383029F000F900B170BD2588002DFBD05D
:10C6E00004F12606314611F81E09000704D0204641
:10C6F000FFF741FF0028EFD1013D280406F1A8060D
:10C70000F0D1E9E7B0B50C4601391F2984BF0720F5
:10C71000B0BD0521054629F0EDFA002812BF0D2015
:10C720002C800020B0BD00002DE9F04F87B040F60E
:10C73000D875C2F2000504466846294629F0C1F8BA
:10C740009DF8140018B100204FF0000A5AE045F29D
:10C75000387005EB000945F2C4704FF0000AE84656
:10C7600005EB000B002700BF20464146052200F0E4
:10C770009BF818B106464FF0010A05E02046FFF786
:10C780001DFF0646002842D0304622F041F8DDE980
:10C790000001C6E9000106F122000AF02BFCBDF8F9
:10C7A0000C000299B0839DF80E00C6F8901025F099
:10C7B000FB01084340F004053046294621F0E8FE1D
:10C7C000B07F00F0F0000130B07740F057F9B06072
:10C7D000BDF80F00314630844846012208F075FE4E
:10C7E00058460021324607F009FD4046013729F03E
:10C7F00060F89DF814000028B6D0B9B200202029B6
:10C8000088BF01205FEACA7108BF002802D0204615
:10C81000FFF758FF07B0BDE8F08F10B5044640F6AB
:10C82000D870C2F2000045F6E0110844217920607A
:10C830002EF054FD00B110BD2046BDE8104000F0C0
:10C8400001B800002DE9F0410446006800B340F64D
:10C85000D875C2F2000545F6D816A95BAF194FF09E
:10C86000A80801FB0871A830083100BF8842206089
:10C870000CD221792EF032FD50B9A85B216800FB63
:10C88000087201F1A80002F10801EFE70020206022
:10C89000BDE8F08110B504460020206020462271DA
:10C8A000FFF7BBFF204610BD70B582B006888DF83B
:10C8B00000204FF6FE72ADF80220019166B100F142
:10C8C00008046D46284621462EF053FD28B9013E46
:10C8D000300404F1A804F5D10024204602B070BD54
:10C8E00070B582B00B7A022B05D0012B02D10B88D8
:10C8F000002102E000214FF6FE7306888DF800202B
:10C90000ADF8023001916EB100F108046D4600BF30
:10C91000284621462EF02DFD28B9013E300404F1B1
:10C92000A804F5D10024204602B070BD70B582B0D5
:10C93000068800248DF80020ADF80210019476B12D
:10C9400000F108046D4600BF284621462EF011FD77
:10C9500028B9013E300404F1A804F5D10024204692
:10C9600002B070BD2DE9F0410D4604462020082795
:10C9700041F20858208000BFE6193046294628F0C9
:10C980000CFE304621F044FFA8374745F4D120463D
:10C99000BDE8F08110B50446028C90F822304DF6C7
:10C9A0006050C0F2050010A123F07BF894F822003B
:10C9B00038B10138C1B284F82200B1FA81F04009DF
:10C9C00000E00020218C19B101390A04218401D032
:10C9D00010B904E00020A062201D28F0E8FA2046EB
:10C9E000BDE8104000F0C8BB726572656764656C95
:10C9F00061792025642C20636865636B64656C61D4
:10CA0000792025640000000010B5044690F822004B
:10CA10000138C0B2884238BF10BD4DF660500A469A
:10CA200084F82210C0F2050003A123F03AF8204652
:10CA3000BDE8104000F0A0BB7570646174652063B0
:10CA40006865636B64656C61792025640000000093
:10CA5000B0B50446007F00F0FE0020774FF02000C4
:10CA6000A0853BB11C2B11D120461E21FFF7CCFF26
:10CA70001C250FE0F9B101F1310040F0010090F9FF
:10CA80000000442821D0B0F1FF3F1EDD0625201D07
:10CA900028F08DFA04F0C8FA0446284604F068FE2F
:10CAA00003464DF66050C0F205000BA12246BDE8DA
:10CAB000B04022F0E5BF4DF64610C0F2060040F24D
:10CAC000462140F067F800BFFEE7204600F014F86A
:10CAD00005461C28CCD0DAE7526563656976656443
:10CAE00020257320726573706F6E73653A2025730D
:10CAF00000000000FFF7ACBF2DE9F04188B00E4602
:10CB000091F931100446B1F1FF3F10DD0DF10F0234
:10CB1000304604211FF069FF0546C8BB04AA304611
:10CB20000021102320F023F8054688BB09E00620E9
:10CB300004F10C038DF80F000FCB0DF1100C8CE8F5
:10CB40000F0040F6D870C2F2000048F254210844A9
:10CB500004A92AF0A8FFD0B140F6D878C2F20008A4
:10CB600001A841460022FFF795FE019D6DB104AF7B
:10CB700001AE00BF284639462DF058F978B9304645
:10CB8000FFF760FE019D002DF4D1172500E002257E
:10CB9000204600F0F1FA284608B0BDE8F0819DF883
:10CBA0000F20062A54D8A5EB080045F6E011401ADC
:10CBB0004CF63D71C010C3F6F34100FB01F6DFE80F
:10CBC00002F0182E080804040400204600F0A0FA21
:10CBD0003BE004A92846B7B221F022FD202F21D343
:10CBE0004CF67610C0F2060059213FF0D3FF00BF8B
:10CBF000FEE7B0B2202832D2C6F3CC00204490F831
:10CC0000242006F007018A4012061ED5802290F8E3
:10CC1000283022FA01F1194380F8281015E0B0B24B
:10CC2000202824D206F007006FF0800141FA00F0BE
:10CC3000C6F3CC01214491F8242091F82830024019
:10CC4000184081F8242081F828009DF80F2022B197
:10CC500004A920462B4600F0A3F9002598E74CF6DE
:10CC60007610C0F206004C213FF094FFFEE74CF630
:10CC70007610C0F2060059213FF08CFFFEE770B538
:10CC800040F6D8760446C2F2000645F27070304491
:10CC90000D462CF02FFC60B168070CD545F6590005
:10CCA000305C002808BF70BD2046BDE8704000F031
:10CCB0002FBA0020206270BD2DE9F04F9DB012AF59
:10CCC000054638462C21FBF7D4FA4FF2BF0040F658
:10CCD000D874ADF86A00C2F2000445F270702044C6
:10CCE0002CF008FC30B148F25420205A4FF6FE7167
:10CCF000884214D100240D26304604F039FD024646
:10CD00004DF66050C0F205009EA122F0B9FE1EB1A2
:10CD100014B1204628F00BF91DB0BDE8F08F287F34
:10CD2000C00751D105F12400242100BF6A5C1AB963
:10CD3000272901F10101F9D1002A48D0A96A006828
:10CD4000884244D045F2D8102044252121F0F7FA3A
:10CD50000446002800F0CD80A88D20283AD140F666
:10CD6000D879C2F2000902A849460022FFF792FDD5
:10CD70000298002840D04CF63D7645F6E01AC3F6FE
:10CD8000F3464FF080080DF1080BA0EB0900A0EB73
:10CD90000A00C010704381B2202924D2C0F3CC0114
:10CDA000294491F8243000F0070228FA02F21A42CE
:10CDB00003D091F828100A421DD05846FFF742FDD3
:10CDC00002980028E1D117E00024052694E700240A
:10CDD000172691E74DF64610C0F206004FF4F471A5
:10CDE0003FF0D8FEFEE74CF67610C0F206004C216C
:10CDF0003FF0D0FEFEE7A885A98D45F6D81048443F
:10CE0000FFF7FEFB82462DF0ADF8002847D00EAEAE
:10CE1000014630461022FBF705FA20460021324633
:10CE200010231FF0DBFE064600285FD10AF15802EE
:10CE30002046032108231FF0D1FE0646002855D1C5
:10CE40003FF01CFEDAF80810401A44F6D351C1F244
:10CE50006201A0FB01018A09204606211FF04CFE59
:10CE60000646002842D145F2C87019F80000800734
:10CE70001FD445F2B27019F80000000719D045F22E
:10CE8000B47039F80000022813D148F25420484405
:10CE900002A92AF0EAFD00285DD0064626E04DF6FC
:10CEA0004610C0F206004FF4FC713FF073FE00BF65
:10CEB000FEE748F2542139F8012045F6501107F1F8
:10CEC0001000494414F087FE12AE30461FF0AAFE4F
:10CED00045F2D8104CF6F5234844C0F20003214631
:10CEE0003246009520F014FE064640B1032E7FF432
:10CEF00003AF28460521FFF787FD0326FCE6287FC0
:10CF00000EAB40F0010028770FCB05F10C0C8CE83C
:10CF10000F000020286245F2C87019F800000007D1
:10CF200005D445F254704844002107F0F7FD04F0A1
:10CF30007BF802AE05460EA930462BF0E5FB4DF618
:10CF4000605006F10803C0F2050009A12A4622F04C
:10CF500097FD0026D0E69DF8081045F2707007F1A5
:10CF6000100248442CF0D7FA06460028BED1ABE7A1
:10CF700053656E7420257320666F722044554120DE
:10CF800025730000506572666F726D4E657874523D
:10CF90006567697374726174696F6E3A20257300F6
:10CFA0002DE9F0419AB088460FA82C211D4617465E
:10CFB000FBF75FF94FF2BF0040F6D874ADF85E00A2
:10CFC000C2F2000445F2D8102044242121F0B7F920
:10CFD00000B304213A4606461FF083FD0746A8B970
:10CFE00030460021424610231FF0F8FD074668B97D
:10CFF000A98B0FAF38461FF040FE45F2D8102044F1
:10D0000031463A4620F074FD074600B3304627F01B
:10D010008EFF00E0032703F0FDFF03ACAD8B064657
:10D02000204641462BF070FB3846083404F0A0FB44
:10D0300007464DF66050C0F2050017A132462B4658
:10D040000094019722F0FAFC1AB0BDE8F08103F0D9
:10D05000E1FF03AFAD8B0646384641462BF054FB4B
:10D060004DF660500837C0F2050003A132462B464A
:10D07000009722F005FDE7E753656E7420257320C5
:10D08000666F72206368696C6420253034782044B0
:10D09000554120257300000053656E7420257320D0
:10D0A000666F72206368696C642025303478204490
:10D0B0005541202573204572726F72202573000040
:10D0C00010B501F0FE01022920D10446007FC007FF
:10D0D0000DD040F6D870C2F2000045F2D8110844D5
:10D0E0004CF6F521C0F20001224620F047FE04F183
:10D0F00024000021425C1AB9032901F10101F9D190
:10D10000002A08BF10BD00206062A06210BD0000B0
:10D1100010B584B0044640F6D870C2F2000048F260
:10D120005421084401A92AF00FFDB8B9BDF8061032
:10D130000120022928BF23F0AFFE218C013989B2DA
:10D1400081420BD32084204600F016F8228C4DF645
:10D150006050C0F2050002A122F0A3FC04B010BD93
:10D1600075706461746520726572656764656C6171
:10D170007920256400000000006A38B140F6D870BC
:10D18000C2F200002830052101F0C9B840F6D8707D
:10D19000C2F200002830052101F0D8B82DE9F04393
:10D1A00081B0044640F6D870C2F200001546091A54
:10D1B00045F6E012891A6A1E012A4CF63D724FEAC2
:10D1C000E101C3F6F34201FB02F628D8B2B2202AED
:10D1D0005ED2C6F3CC0104EB0108474617F8241FC2
:10D1E00006F0070901FA09F31B0618D5A38D93422F
:10D1F0000AD145F2D81108444CF6F521C0F20001DD
:10D20000224620F0BBFD39786FF0800098F8282086
:10D2100040FA09F001401040397088F82800022DCA
:10D2200024D2606AA16A884207D10120052123F037
:10D2300019FE01462046FFF7E7FBB0B2202830D2A6
:10D24000C6F3CC02224406F00700802192F8243075
:10D25000C140194392F8287082F824106FF08001C1
:10D2600041FA00F0384082F828000EE0032D0CD17E
:10D27000B0B220281DD2C6F3CC00204490F8240080
:10D2800006F0070188400006CBD501B0BDE8F08369
:10D290004CF67610C0F206004C213FF07BFC00BF3C
:10D2A000FEE74CF67610C0F2060059213FF072FC02
:10D2B000FEE74CF67610C0F206004C213FF06AFC07
:10D2C000FEE741F00201032908BFFFF721BF7047C5
:10D2D000B0B50C4691F83110022920D1054694F8DA
:10D2E000300010F0300F14D140F6D870C2F20000B8
:10D2F00045F2D8110844214620F0DBFC48B903F080
:10D3000089FE02464DF66050C0F205000DA122F0E4
:10D31000B7FB28462146FFF7EFFB044600E0062452
:10D3200003F078FE0546204604F022FA03464DF647
:10D330006050C0F2050006A12A46BDE8B04022F0C8
:10D340009FBB00BF53656E742025732061636B0023
:10D3500052656365697665642025733A20257300FC
:10D3600045F65541C0F203014160017F002201F002
:10D37000FE01017720218260818502624262826221
:10D380007047B0B5044640F6D870C2F2000000F114
:10D3900010050A46284621464FF4802328F077F9E5
:10D3A00000B1B0BD28464FF4807128F065F9002027
:10D3B0002061204600F02CF82046BDE8B04000F087
:10D3C00089B800000A46098851B100F1800140F691
:10D3D000D870C2F2000010304FF4801328F075B9F5
:10D3E0004DF67950C0F2050001A1002222F037BBB2
:10D3F0004B657920526F746174696F6E2054696D4A
:10D400006520746F6F20736D616C6C3A2025640029
:10D410002DE9F04196B001690EAD2A46044628F088
:10D42000DCFC04F1140029460022002614F05DFD06
:10D43000CDE90C66CDE90A66CDE90866CDE9066658
:10D44000CDE90466CDE9026605F110060DF1280864
:10D4500040463146002214F048FD20692A46411E0C
:10D46000204628F0BAFC06AF38463146002214F0B8
:10D470003CFD20692A46411C204628F0AEFC02AD46
:10D4800028463146002214F030FD207C45F2184138
:10D4900000F07F00421C40F6D870C2F20000084441
:10D4A00008213B46CDF80080019517F0A9F916B088
:10D4B000BDE8F081B0B588B06D462A46044628F034
:10D4C0008CFC243420462946002214F00EFD204610
:10D4D00008B0B0BD70B582B040F6D874C2F2000496
:10D4E00045F2AC700025255045F2A0702044002183
:10D4F00014F0FEFC45F2A870255047F26440205C11
:10D500002C2100FB01F645F2A47025506EB146F6C1
:10D51000F060044420460021E56014F0E9FCC4E911
:10D5200001552C3E04F12C04F4D140F6D871C2F21E
:10D53000000168460522FFF7ADF9009E86B100257F
:10D540006C4600BF06F10C000021B56114F0D0FC60
:10D550002046C6E90455FFF775F9009E002EF1D16B
:10D5600002B070BD426B8A4288BF7047C26B013106
:10D570009142416300D2704740F6D870C2F2000079
:10D5800045F2707108441AF097BC70B50446006902
:10D5900088420AD140F6D870C2F2000010304FF431
:10D5A0008071BDE8704028F044B801300D468842D3
:10D5B00017D1A16D04F15000814212D094F84C10A3
:10D5C00061B1D4E91112914238BF70BD002161648C
:10D5D0004EF68061C0F2360100F0F5FE012084F8BD
:10D5E0004C0020462561FFF713FF04F134000021B1
:10D5F000002514F07DFC40F6D876C2F2000645F214
:10D60000184030440021002216F0E6FC06F110001C
:10D610004FF48071A563BDE8704028F02DB810B5B7
:10D620000446406C616D01304EF68062606404F126
:10D630005000C0F2360200F0E1FE606CB4F88010D9
:10D64000884238BF10BD2069411C2046BDE810400B
:10D65000FFF79BBFB0B5343014460D4614F048FCBC
:10D6600040F6D870C2F2000045F21841084429463D
:10D670002246BDE8B04016F0AFBC816B026C0131B0
:10D680009142816338BF704740F6D870C2F2000003
:10D6900045F2707108441AF00FBC503000F087BE9C
:10D6A00000234EF68061024680F84C305030C0F2C4
:10D6B0003601536400F087BE10B504466C30012279
:10D6C00014F013FC0020E06710BD10B50A460446B4
:10D6D00000F15C0140F6D870C2F2000010304FF447
:10D6E000002328F017F894F8840040F0010084F833
:10D6F000840010BDB0B5044610302421FAF7B9FDFE
:10D700004FF41C70A06441F25B40C0F2010021465E
:10D7100041F8500F0025A16504F16C001421C4E903
:10D720000E55C4E9105584F84C50FAF7A2FD4FF499
:10D730002870A4F880008F2084F8820094F8830079
:10D7400094F8841000F0F00084F8830001F0FE00EB
:10D7500084F884003FF0E3FA204610213FF08FFB6D
:10D7600004F134000021E56525666566A56614F0C0
:10D77000BFFB2046B0BD10B5F9B1488A40F6D87C51
:10D780004FF6FF72C2F2000C0CEB4013801A47F206
:10D79000605E18BF03EB0E0018B3438A0CEB431412
:10D7A0009B1A18BF04EB0E03A3EB0C04A4EB0E04AE
:10D7B000002B18BF62094A8210BD0246006880B182
:10D7C000418A40F6D873C2F2000303EB411E4FF6C4
:10D7D000FF73C91A47F2605C18BF0EEB0C011160B1
:10D7E00010BD002010BD000010B504464DF6A0503D
:10D7F000C0F2050008A122F043F9204602210022D0
:10D8000000F0F4F92046002100F00EF82046002137
:10D81000BDE8104000F03DB94D4C52205265726594
:10D82000676973746572210010B504468079C0077A
:10D8300007D181B1A088013880B2884228BFA18079
:10D840000EE0A08888B14EF23220C0F20600C2215C
:10D850003FF0A0F9FEE70020A080204600F024FA67
:10D860002046BDE8104000F002BA10BD10B50446D5
:10D87000808830B101380104A08002D1204600F038
:10D8800013FA206828B10138206002D12046FFF742
:10D89000ABFF2046BDE8104000F0E9B92DE9F043A8
:10D8A0008FB0169F1C460E460143154608BF002D3B
:10D8B0002ED003F05DFF8046304603F059FF03464B
:10D8C0004DF6A0504EF2ED11C0F20500C0F2060177
:10D8D00042460095019722F0B1F8B7B10DF10C085E
:10D8E0004DF6A05908F10806C0F205090DA500BFC4
:10D8F000404621462AF008FF48462946324622F093
:10D900009DF8013F04F11004F2D10FB0BDE8F0839F
:10D910004DF6A050C0F2050006A10FB0BDE8F043DF
:10D9200022F0AEB84D41206661696C65643A2025ED
:10D930007300000052656365697665204D4C522E78
:10D94000727370204F4B0000490758BF704740F674
:10D95000D871C2F2000145F29172895C022902D1AC
:10D96000012100F096B870472DE9F04F95B04DF6C3
:10D97000A050C0F2050026A122F093F840F6D8711D
:10D98000C2F2000113A80022FEF784FF139DDDB34D
:10D990000DF104094DF6A05A09F108060DAF0FF27A
:10D9A0009808C0F2050A0FF2940B00BF03208DF80F
:10D9B000380000200D9500BFADF83A00384620F041
:10D9C00005FEBDF83A00042818D038462CF06EFA4F
:10D9D0000446484621462AF097FE284621462CF068
:10D9E00071FA18F80030AC8B504659463246009414
:10D9F00022F057F8BDF83A000130DDE713A8FEF732
:10DA000021FF139D002DD1D115B0BDE8F08F00BFCF
:10DA10002D2D2D2D2D2D2D2D204D756C74696361AF
:10DA2000737420416464726573736573202D2D2DAA
:10DA30002D2D2D2D2D0000002D725200252D33325D
:10DA40007325632025303478000000002DE9F04371
:10DA500081B0147891461D4688465CB126464746FB
:10DA6000384629461022FAF746FC78B1013E07F104
:10DA70001007F5D1631C08EB04102946102289F821
:10DA8000003001B0BDE8F043FAF7CCBB01B0BDE80F
:10DA9000F08370B584B040F6D872C2F2000245F24D
:10DAA000C873D35C0C469907054609D445F2B27099
:10DAB000105C00070BD045F2B470105A022806D152
:10DAC00048F25420115A4FF6FE73994202D10026B3
:10DAD0002E601EE0104401A92AF036F83CB1BDF8D2
